{"contracts/utils/Errors.sol":{"Errors":{"abi":[{"inputs":[],"name":"CALLER_NOT_AUTHORIZED","outputs":[{"internalType":"string","name":"","type":"string"}],"stateMutability":"view","type":"function"},{"inputs":[],"name":"MATH_ADDITION_OVERFLOW","outputs":[{"internalType":"string","name":"","type":"string"}],"stateMutability":"view","type":"function"},{"inputs":[],"name":"MATH_DIVISION_BY_ZERO","outputs":[{"internalType":"string","name":"","type":"string"}],"stateMutability":"view","type":"function"},{"inputs":[],"name":"MATH_MULTIPLICATION_OVERFLOW","outputs":[{"internalType":"string","name":"","type":"string"}],"stateMutability":"view","type":"function"},{"inputs":[],"name":"NOT_ENOUGH_FUNDS_PROVIDED","outputs":[{"internalType":"string","name":"","type":"string"}],"stateMutability":"view","type":"function"},{"inputs":[],"name":"PLAYER_NOT_REGISTERED","outputs":[{"internalType":"string","name":"","type":"string"}],"stateMutability":"view","type":"function"},{"inputs":[],"name":"TOURNAMENT_HAS_ENDED","outputs":[{"internalType":"string","name":"","type":"string"}],"stateMutability":"view","type":"function"},{"inputs":[],"name":"TOURNAMENT_IS_LIVE","outputs":[{"internalType":"string","name":"","type":"string"}],"stateMutability":"view","type":"function"},{"inputs":[],"name":"USERNAME_TAKEN","outputs":[{"internalType":"string","name":"","type":"string"}],"stateMutability":"view","type":"function"}],"evm":{"bytecode":{"linkReferences":{},"object":"61031d61003a600b82828239805160001a60731461002d57634e487b7160e01b600052600060045260246000fd5b30600052607381538281f3fe730000000000000000000000000000000000000000301460806040526004361061009d5760003560e01c806334d8ac7e1161007057806334d8ac7e146101985780634349e3d8146101c55780634829676a146101f9578063cb783f061461022d578063f28ce1471461026157600080fd5b8063029d2344146100a25780630a8bd97a146100f45780630f5ee482146101275780632fac901d1461015c575b600080fd5b6100de6040518060400160405280601c81526020017f4d4154485f4d554c5449504c49434154494f4e5f4f564552464c4f570000000081525081565b6040516100eb9190610292565b60405180910390f35b6100de604051806040016040528060148152602001731513d55493905351539517d21054d7d15391115160621b81525081565b6100de604051806040016040528060168152602001754d4154485f4144444954494f4e5f4f564552464c4f5760501b81525081565b6100de6040518060400160405280601981526020017f4e4f545f454e4f5547485f46554e44535f50524f56494445440000000000000081525081565b6100de6040518060400160405280600e81526020016d2aa9a2a92720a6a2afaa20a5a2a760911b81525081565b6100de604051806040016040528060158152602001744d4154485f4449564953494f4e5f42595f5a45524f60581b81525081565b6100de6040518060400160405280601581526020017414131056515497d393d517d49151d254d511549151605a1b81525081565b6100de6040518060400160405280601581526020017410d05313115497d393d517d055551213d492569151605a1b81525081565b6100de60405180604001604052806012815260200171544f55524e414d454e545f49535f4c49564560701b81525081565b600060208083528351808285015260005b818110156102bf578581018301518582016040015282016102a3565b818111156102d1576000604083870101525b50601f01601f191692909201604001939250505056fea26469706673582212203ba9577c47ed15beb206821d9d578f295ceb76a22929f2cfb970328e4345670664736f6c63430008070033","opcodes":"PUSH2 0x31D PUSH2 0x3A PUSH1 0xB DUP3 DUP3 DUP3 CODECOPY DUP1 MLOAD PUSH1 0x0 BYTE PUSH1 0x73 EQ PUSH2 0x2D JUMPI PUSH4 0x4E487B71 PUSH1 0xE0 SHL PUSH1 0x0 MSTORE PUSH1 0x0 PUSH1 0x4 MSTORE PUSH1 0x24 PUSH1 0x0 REVERT JUMPDEST ADDRESS PUSH1 0x0 MSTORE PUSH1 0x73 DUP2 MSTORE8 DUP3 DUP2 RETURN INVALID PUSH20 0x0 ADDRESS EQ PUSH1 0x80 PUSH1 0x40 MSTORE PUSH1 0x4 CALLDATASIZE LT PUSH2 0x9D JUMPI PUSH1 0x0 CALLDATALOAD PUSH1 0xE0 SHR DUP1 PUSH4 0x34D8AC7E GT PUSH2 0x70 JUMPI DUP1 PUSH4 0x34D8AC7E EQ PUSH2 0x198 JUMPI DUP1 PUSH4 0x4349E3D8 EQ PUSH2 0x1C5 JUMPI DUP1 PUSH4 0x4829676A EQ PUSH2 0x1F9 JUMPI DUP1 PUSH4 0xCB783F06 EQ PUSH2 0x22D JUMPI DUP1 PUSH4 0xF28CE147 EQ PUSH2 0x261 JUMPI PUSH1 0x0 DUP1 REVERT JUMPDEST DUP1 PUSH4 0x29D2344 EQ PUSH2 0xA2 JUMPI DUP1 PUSH4 0xA8BD97A EQ PUSH2 0xF4 JUMPI DUP1 PUSH4 0xF5EE482 EQ PUSH2 0x127 JUMPI DUP1 PUSH4 0x2FAC901D EQ PUSH2 0x15C JUMPI JUMPDEST PUSH1 0x0 DUP1 REVERT JUMPDEST PUSH2 0xDE PUSH1 0x40 MLOAD DUP1 PUSH1 0x40 ADD PUSH1 0x40 MSTORE DUP1 PUSH1 0x1C DUP2 MSTORE PUSH1 0x20 ADD PUSH32 0x4D4154485F4D554C5449504C49434154494F4E5F4F564552464C4F5700000000 DUP2 MSTORE POP DUP2 JUMP JUMPDEST PUSH1 0x40 MLOAD PUSH2 0xEB SWAP2 SWAP1 PUSH2 0x292 JUMP JUMPDEST PUSH1 0x40 MLOAD DUP1 SWAP2 SUB SWAP1 RETURN JUMPDEST PUSH2 0xDE PUSH1 0x40 MLOAD DUP1 PUSH1 0x40 ADD PUSH1 0x40 MSTORE DUP1 PUSH1 0x14 DUP2 MSTORE PUSH1 0x20 ADD PUSH20 0x1513D55493905351539517D21054D7D153911151 PUSH1 0x62 SHL DUP2 MSTORE POP DUP2 JUMP JUMPDEST PUSH2 0xDE PUSH1 0x40 MLOAD DUP1 PUSH1 0x40 ADD PUSH1 0x40 MSTORE DUP1 PUSH1 0x16 DUP2 MSTORE PUSH1 0x20 ADD PUSH22 0x4D4154485F4144444954494F4E5F4F564552464C4F57 PUSH1 0x50 SHL DUP2 MSTORE POP DUP2 JUMP JUMPDEST PUSH2 0xDE PUSH1 0x40 MLOAD DUP1 PUSH1 0x40 ADD PUSH1 0x40 MSTORE DUP1 PUSH1 0x19 DUP2 MSTORE PUSH1 0x20 ADD PUSH32 0x4E4F545F454E4F5547485F46554E44535F50524F564944454400000000000000 DUP2 MSTORE POP DUP2 JUMP JUMPDEST PUSH2 0xDE PUSH1 0x40 MLOAD DUP1 PUSH1 0x40 ADD PUSH1 0x40 MSTORE DUP1 PUSH1 0xE DUP2 MSTORE PUSH1 0x20 ADD PUSH14 0x2AA9A2A92720A6A2AFAA20A5A2A7 PUSH1 0x91 SHL DUP2 MSTORE POP DUP2 JUMP JUMPDEST PUSH2 0xDE PUSH1 0x40 MLOAD DUP1 PUSH1 0x40 ADD PUSH1 0x40 MSTORE DUP1 PUSH1 0x15 DUP2 MSTORE PUSH1 0x20 ADD PUSH21 0x4D4154485F4449564953494F4E5F42595F5A45524F PUSH1 0x58 SHL DUP2 MSTORE POP DUP2 JUMP JUMPDEST PUSH2 0xDE PUSH1 0x40 MLOAD DUP1 PUSH1 0x40 ADD PUSH1 0x40 MSTORE DUP1 PUSH1 0x15 DUP2 MSTORE PUSH1 0x20 ADD PUSH21 0x14131056515497D393D517D49151D254D511549151 PUSH1 0x5A SHL DUP2 MSTORE POP DUP2 JUMP JUMPDEST PUSH2 0xDE PUSH1 0x40 MLOAD DUP1 PUSH1 0x40 ADD PUSH1 0x40 MSTORE DUP1 PUSH1 0x15 DUP2 MSTORE PUSH1 0x20 ADD PUSH21 0x10D05313115497D393D517D055551213D492569151 PUSH1 0x5A SHL DUP2 MSTORE POP DUP2 JUMP JUMPDEST PUSH2 0xDE PUSH1 0x40 MLOAD DUP1 PUSH1 0x40 ADD PUSH1 0x40 MSTORE DUP1 PUSH1 0x12 DUP2 MSTORE PUSH1 0x20 ADD PUSH18 0x544F55524E414D454E545F49535F4C495645 PUSH1 0x70 SHL DUP2 MSTORE POP DUP2 JUMP JUMPDEST PUSH1 0x0 PUSH1 0x20 DUP1 DUP4 MSTORE DUP4 MLOAD DUP1 DUP3 DUP6 ADD MSTORE PUSH1 0x0 JUMPDEST DUP2 DUP2 LT ISZERO PUSH2 0x2BF JUMPI DUP6 DUP2 ADD DUP4 ADD MLOAD DUP6 DUP3 ADD PUSH1 0x40 ADD MSTORE DUP3 ADD PUSH2 0x2A3 JUMP JUMPDEST DUP2 DUP2 GT ISZERO PUSH2 0x2D1 JUMPI PUSH1 0x0 PUSH1 0x40 DUP4 DUP8 ADD ADD MSTORE JUMPDEST POP PUSH1 0x1F ADD PUSH1 0x1F NOT AND SWAP3 SWAP1 SWAP3 ADD PUSH1 0x40 ADD SWAP4 SWAP3 POP POP POP JUMP INVALID LOG2 PUSH5 0x6970667358 0x22 SLT KECCAK256 EXTCODESIZE 0xA9 JUMPI PUSH29 0x47ED15BEB206821D9D578F295CEB76A22929F2CFB970328E4345670664 PUSH20 0x6F6C634300080700330000000000000000000000 "},"methodIdentifiers":{"CALLER_NOT_AUTHORIZED()":"cb783f06","MATH_ADDITION_OVERFLOW()":"0f5ee482","MATH_DIVISION_BY_ZERO()":"4349e3d8","MATH_MULTIPLICATION_OVERFLOW()":"029d2344","NOT_ENOUGH_FUNDS_PROVIDED()":"2fac901d","PLAYER_NOT_REGISTERED()":"4829676a","TOURNAMENT_HAS_ENDED()":"0a8bd97a","TOURNAMENT_IS_LIVE()":"f28ce147","USERNAME_TAKEN()":"34d8ac7e"}}}}}