{"contracts/ToTheMooon.sol":{"ToTheMooon":{"abi":[{"inputs":[],"stateMutability":"nonpayable","type":"constructor"},{"anonymous":false,"inputs":[{"indexed":true,"internalType":"address","name":"previousOwner","type":"address"},{"indexed":true,"internalType":"address","name":"newOwner","type":"address"}],"name":"OwnershipTransferred","type":"event"},{"inputs":[{"internalType":"address","name":"_player","type":"address"}],"name":"addPlayerToTournament","outputs":[],"stateMutability":"nonpayable","type":"function"},{"inputs":[{"internalType":"string","name":"_name","type":"string"},{"components":[{"internalType":"bool","name":"isSponsored","type":"bool"},{"internalType":"uint256","name":"prizePool","type":"uint256"},{"internalType":"uint256","name":"nWinners","type":"uint256"},{"internalType":"string","name":"sponsorMetadata","type":"string"},{"internalType":"uint256","name":"commissionPercentage","type":"uint256"}],"internalType":"struct DataTypes.RewardVars","name":"_rewardVars","type":"tuple"}],"name":"createTournament","outputs":[],"stateMutability":"payable","type":"function"},{"inputs":[],"name":"currentTournamentId","outputs":[{"internalType":"uint256","name":"","type":"uint256"}],"stateMutability":"view","type":"function"},{"inputs":[{"internalType":"address","name":"_player","type":"address"}],"name":"getJoinedTournamentsByPlayer","outputs":[{"components":[{"internalType":"uint256","name":"id","type":"uint256"},{"internalType":"string","name":"name","type":"string"},{"internalType":"uint256","name":"startTime","type":"uint256"},{"internalType":"address","name":"contractAddress","type":"address"},{"components":[{"internalType":"bool","name":"isSponsored","type":"bool"},{"internalType":"uint256","name":"prizePool","type":"uint256"},{"internalType":"uint256","name":"nWinners","type":"uint256"},{"internalType":"string","name":"sponsorMetadata","type":"string"},{"internalType":"uint256","name":"commissionPercentage","type":"uint256"}],"internalType":"struct DataTypes.RewardVars","name":"rewardVars","type":"tuple"}],"internalType":"struct DataTypes.TournamentStruct[]","name":"","type":"tuple[]"}],"stateMutability":"view","type":"function"},{"inputs":[],"name":"getOwner","outputs":[{"internalType":"address","name":"","type":"address"}],"stateMutability":"view","type":"function"},{"inputs":[{"internalType":"address","name":"wallet_","type":"address"}],"name":"isPlayerRegistered","outputs":[{"internalType":"bool","name":"","type":"bool"},{"internalType":"string","name":"","type":"string"}],"stateMutability":"view","type":"function"},{"inputs":[],"name":"joiningFees","outputs":[{"internalType":"uint256","name":"","type":"uint256"}],"stateMutability":"view","type":"function"},{"inputs":[],"name":"owner","outputs":[{"internalType":"address","name":"","type":"address"}],"stateMutability":"view","type":"function"},{"inputs":[{"internalType":"uint256","name":"","type":"uint256"}],"name":"r_values","outputs":[{"internalType":"uint256","name":"","type":"uint256"}],"stateMutability":"view","type":"function"},{"inputs":[{"internalType":"string","name":"_name","type":"string"},{"internalType":"uint256","name":"_strlen","type":"uint256"}],"name":"register","outputs":[],"stateMutability":"nonpayable","type":"function"},{"inputs":[],"name":"renounceOwnership","outputs":[],"stateMutability":"nonpayable","type":"function"},{"inputs":[{"internalType":"uint256","name":"joiningFees_","type":"uint256"}],"name":"setJoiningFees","outputs":[],"stateMutability":"nonpayable","type":"function"},{"inputs":[{"internalType":"uint256","name":"timeLimit_","type":"uint256"}],"name":"setTimeLimit","outputs":[],"stateMutability":"nonpayable","type":"function"},{"inputs":[],"name":"timeLimit","outputs":[{"internalType":"uint256","name":"","type":"uint256"}],"stateMutability":"view","type":"function"},{"inputs":[{"internalType":"uint256","name":"","type":"uint256"}],"name":"tournaments","outputs":[{"internalType":"uint256","name":"id","type":"uint256"},{"internalType":"string","name":"name","type":"string"},{"internalType":"uint256","name":"startTime","type":"uint256"},{"internalType":"address","name":"contractAddress","type":"address"},{"components":[{"internalType":"bool","name":"isSponsored","type":"bool"},{"internalType":"uint256","name":"prizePool","type":"uint256"},{"internalType":"uint256","name":"nWinners","type":"uint256"},{"internalType":"string","name":"sponsorMetadata","type":"string"},{"internalType":"uint256","name":"commissionPercentage","type":"uint256"}],"internalType":"struct DataTypes.RewardVars","name":"rewardVars","type":"tuple"}],"stateMutability":"view","type":"function"},{"inputs":[{"internalType":"address","name":"newOwner","type":"address"}],"name":"transferOwnership","outputs":[],"stateMutability":"nonpayable","type":"function"},{"inputs":[],"name":"winnersPercentage","outputs":[{"internalType":"uint256","name":"","type":"uint256"}],"stateMutability":"view","type":"function"}],"evm":{"bytecode":{"linkReferences":{},"object":"608060405262015180600855670de0b6b3a7640000600955611af4600a5534801561002957600080fd5b5061003333610174565b600180556006602052670ff59ee833b300007f4da38fc8e544afc56a4c2a17752b8ddb67d8e23ac4583c9029d2e2d1dbe6c98855670eeb2acded8b80007f098d468efb4f874d617491296c759dc9ae46efb517fe36bcf30699ad3f714c0f55670e92596fd62900007fb6ba906ff52451a7a924e2eaeb8aea3ebee7350a8703e5e417edb25358c7dcc155670e398811bec680007f95205ee1597333a2b36cc31b0a8c074c0c1fa2918672c4e3dde98e6eb3460fe455670e27c49886e600007fd4c27e5d2ce7b7345f78d7f5ddc8b90697d63512e00b9f949b158a467d0bfffc55670e043da6172500007f294249a73dade72954ce261e2d3e7a241ea69fbb9c559454dd3e40f332fd4f17556103e8600052670df27a2cdf4480007ff416400a389b2271c5c6051273e6b62961b6906215e5f4d9099a99323151c03f556101c4565b600080546001600160a01b038381166001600160a01b0319831681178455604051919092169283917f8be0079c531659141344cd1fd0a4f28419497f9722a3daafe3b4186f6b6457e09190a35050565b6138b1806101d36000396000f3fe608060405260043610620001125760003560e01c8063ad26041811620000a1578063e33e879a116200006c578063e33e879a14620002fc578063ea87152b1462000321578063f2fde38b1462000346578063fbf7c5ee146200036b578063fc8e7504146200038257600080fd5b8063ad2604181462000269578063c08d1fe5146200028e578063d0e3466414620002a6578063e2889c8214620002d757600080fd5b80637503e1b711620000e25780637503e1b714620001a957806386106b1f14620001e1578063893d20e814620002155780638da5cb5b146200024957600080fd5b80625a0e3d14620001175780631417b82a14620001425780634959d9771462000177578063715018a6146200018f575b600080fd5b3480156200012457600080fd5b506200012f600a5481565b6040519081526020015b60405180910390f35b3480156200014f57600080fd5b50620001676200016136600462001347565b6200039a565b6040516200013992919062001616565b3480156200018457600080fd5b506200012f60095481565b3480156200019c57600080fd5b50620001a762000460565b005b348015620001b657600080fd5b50620001ce620001c8366004620014af565b62000478565b6040516200013995949392919062001650565b348015620001ee57600080fd5b50620002066200020036600462001347565b62000617565b60405162000139919062001560565b3480156200022257600080fd5b506000546001600160a01b03165b6040516001600160a01b03909116815260200162000139565b3480156200025657600080fd5b506000546001600160a01b031662000230565b3480156200027657600080fd5b50620001a76200028836600462001347565b620008d5565b3480156200029b57600080fd5b506200012f60085481565b348015620002b357600080fd5b506200012f620002c5366004620014af565b60066020526000908152604090205481565b348015620002e457600080fd5b50620001a7620002f6366004620014af565b6200097f565b3480156200030957600080fd5b50620001a76200031b366004620014af565b6200098e565b3480156200032e57600080fd5b50620001a76200034036600462001466565b6200099d565b3480156200035357600080fd5b50620001a76200036536600462001347565b62000ac6565b620001a76200037c36600462001392565b62000b45565b3480156200038f57600080fd5b506200012f60075481565b6001600160a01b038116600090815260026020526040812080546001820180546060939260ff1691908190620003d09062001735565b80601f0160208091040260200160405190810160405280929190818152602001828054620003fe9062001735565b80156200044f5780601f1062000423576101008083540402835291602001916200044f565b820191906000526020600020905b8154815290600101906020018083116200043157829003601f168201915b505050505090509250925050915091565b6200046a62000ed5565b62000476600062000f31565b565b600560205260009081526040902080546001820180549192916200049c9062001735565b80601f0160208091040260200160405190810160405280929190818152602001828054620004ca9062001735565b80156200051b5780601f10620004ef576101008083540402835291602001916200051b565b820191906000526020600020905b815481529060010190602001808311620004fd57829003601f168201915b50505050600283015460038401546040805160a08101825260048701805460ff161515825260058801546020830152600688015492820192909252600787018054969794966001600160a01b0390941695509092606084019190620005809062001735565b80601f0160208091040260200160405190810160405280929190818152602001828054620005ae9062001735565b8015620005ff5780601f10620005d357610100808354040283529160200191620005ff565b820191906000526020600020905b815481529060010190602001808311620005e157829003601f168201915b50505050508152602001600482015481525050905085565b6060600060075467ffffffffffffffff811115620006395762000639620017bc565b6040519080825280602002602001820160405280156200067657816020015b6200066262001194565b815260200190600190039081620006585790505b50905060005b6001600160a01b0384166000908152600260208190526040909120620006a3910162000f81565b811015620008ce576001600160a01b0384166000908152600260208190526040822060059291620006d691018462000f92565b81526020019081526020016000206040518060a0016040529081600082015481526020016001820180546200070b9062001735565b80601f0160208091040260200160405190810160405280929190818152602001828054620007399062001735565b80156200078a5780601f106200075e576101008083540402835291602001916200078a565b820191906000526020600020905b8154815290600101906020018083116200076c57829003601f168201915b5050509183525050600282015460208083019190915260038301546001600160a01b0316604080840191909152805160a08101825260048501805460ff161515825260058601549382019390935260068501549181019190915260078401805460609485019492939284019190620008029062001735565b80601f0160208091040260200160405190810160405280929190818152602001828054620008309062001735565b8015620008815780601f10620008555761010080835404028352916020019162000881565b820191906000526020600020905b8154815290600101906020018083116200086357829003601f168201915b5050505050815260200160048201548152505081525050828281518110620008ad57620008ad620017a6565b60200260200101819052508080620008c59062001772565b9150506200067c565b5092915050565b600754600090815260056020908152604091829020600301548251808401909352601583527410d05313115497d393d517d055551213d492569151605a1b918301919091526001600160a01b031633146200094e5760405162461bcd60e51b81526004016200094591906200163b565b60405180910390fd5b506007546001600160a01b03821660009081526002602081905260409091206200097b9291019062000fa7565b5050565b6200098962000ed5565b600855565b6200099862000ed5565b600955565b620009db82604051602001620009b4919062001542565b60405160208183030381529060405280519060200120600362000fb590919063ffffffff16565b156040518060400160405280600e81526020016d2aa9a2a92720a6a2afaa20a5a2a760911b8152509062000a245760405162461bcd60e51b81526004016200094591906200163b565b50336000908152600260205260409020805460ff1662000ac15762000a7c8360405160200162000a55919062001542565b60405160208183030381529060405280519060200120600362000fa790919063ffffffff16565b506014821162000a8d578262000a9c565b62000a9c836000601462000fce565b805162000ab4916001840191602090910190620011fe565b50805460ff191660011781555b505050565b62000ad062000ed5565b6001600160a01b03811662000b375760405162461bcd60e51b815260206004820152602660248201527f4f776e61626c653a206e6577206f776e657220697320746865207a65726f206160448201526564647265737360d01b606482015260840162000945565b62000b428162000f31565b50565b62000b4f62000ed5565b62000b7b60405180604001604052806009815260200168151c9a59d9d95c995960ba1b815250620010ad565b600854600754600090815260056020526040902060020154429162000ba091620016cd565b10801562000c3a575060075460009081526005602090815260409182902060030154825163ecb70fb760e01b815292516001600160a01b039091169263ecb70fb7926004808301939192829003018186803b15801562000bff57600080fd5b505afa15801562000c14573d6000803e3d6000fd5b505050506040513d601f19601f8201168201806040525081019062000c3a919062001372565b60405180604001604052806012815260200171544f55524e414d454e545f49535f4c49564560701b8152509062000c865760405162461bcd60e51b81526004016200094591906200163b565b5062000cad604051806040016040528060038152602001620c5cdd60ea1b815250620010ad565b805162000cbc57600162000cc4565b806020015134145b6040518060400160405280601981526020017f4e4f545f454e4f5547485f46554e44535f50524f5649444544000000000000008152509062000d1b5760405162461bcd60e51b81526004016200094591906200163b565b5062000d42604051806040016040528060038152602001620c9b9960ea1b815250620010ad565b600060076000815462000d559062001772565b9190508190558342308560405162000d6d906200128d565b62000d7d95949392919062001650565b604051809103906000f08015801562000d9a573d6000803e3d6000fd5b50905062000dc3604051806040016040528060038152602001620cdc9960ea1b815250620010ad565b6040805160a081018252600754808252602080830187815242848601526001600160a01b03861660608501526080840187905260009283526005825293909120825181559251805192939262000e209260018501920190620011fe565b5060408281015160028301556060808401516003840180546001600160a01b0319166001600160a01b039092169190911790556080840151805160048501805460ff19169115159190911781556020808301516005870155938201516006860155918101518051919362000e9d92600787019290910190620011fe565b5060808201518160040155505090505062000ac160405180604001604052806005815260200164115b99195960da1b815250620010ad565b6000546001600160a01b03163314620004765760405162461bcd60e51b815260206004820181905260248201527f4f776e61626c653a2063616c6c6572206973206e6f7420746865206f776e6572604482015260640162000945565b600080546001600160a01b038381166001600160a01b0319831681178455604051919092169283917f8be0079c531659141344cd1fd0a4f28419497f9722a3daafe3b4186f6b6457e09190a35050565b600062000f8c825490565b92915050565b600062000fa08383620010f4565b9392505050565b600062000fa0838362001121565b6000818152600183016020526040812054151562000fa0565b606083600062000fdf8585620016e8565b67ffffffffffffffff81111562000ffa5762000ffa620017bc565b6040519080825280601f01601f19166020018201604052801562001025576020820181803683370190505b509050845b84811015620010a357828181518110620010485762001048620017a6565b01602001516001600160f81b03191682620010648884620016e8565b81518110620010775762001077620017a6565b60200101906001600160f81b031916908160001a905350806200109a8162001772565b9150506200102a565b5095945050505050565b62000b4281604051602401620010c491906200163b565b60408051601f198184030181529190526020810180516001600160e01b031663104c13eb60e21b17905262001173565b60008260000182815481106200110e576200110e620017a6565b9060005260206000200154905092915050565b60008181526001830160205260408120546200116a5750815460018181018455600084815260208082209093018490558454848252828601909352604090209190915562000f8c565b50600062000f8c565b80516a636f6e736f6c652e6c6f67602083016000808483855afa5050505050565b6040518060a0016040528060008152602001606081526020016000815260200160006001600160a01b03168152602001620011f96040518060a00160405280600015158152602001600081526020016000815260200160608152602001600081525090565b905290565b8280546200120c9062001735565b90600052602060002090601f0160209004810192826200123057600085556200127b565b82601f106200124b57805160ff19168380011785556200127b565b828001600101855582156200127b579182015b828111156200127b5782518255916020019190600101906200125e565b50620012899291506200129b565b5090565b61209a80620017e283390190565b5b808211156200128957600081556001016200129c565b600082601f830112620012c457600080fd5b813567ffffffffffffffff80821115620012e257620012e2620017bc565b604051601f8301601f19908116603f011681019082821181831017156200130d576200130d620017bc565b816040528381528660208588010111156200132757600080fd5b836020870160208301376000602085830101528094505050505092915050565b6000602082840312156200135a57600080fd5b81356001600160a01b038116811462000fa057600080fd5b6000602082840312156200138557600080fd5b815162000fa081620017d2565b60008060408385031215620013a657600080fd5b823567ffffffffffffffff80821115620013bf57600080fd5b620013cd86838701620012b2565b93506020850135915080821115620013e457600080fd5b9084019060a08287031215620013f957600080fd5b62001403620016a1565b82356200141081620017d2565b8082525060208301356020820152604083013560408201526060830135828111156200143b57600080fd5b6200144988828601620012b2565b606083015250608083013560808201528093505050509250929050565b600080604083850312156200147a57600080fd5b823567ffffffffffffffff8111156200149257600080fd5b620014a085828601620012b2565b95602094909401359450505050565b600060208284031215620014c257600080fd5b5035919050565b60008151808452620014e381602086016020860162001702565b601f01601f19169290920160200192915050565b80511515825260208101516020830152604081015160408301526000606082015160a060608501526200152e60a0850182620014c9565b608093840151949093019390935250919050565b600082516200155681846020870162001702565b9190910192915050565b60006020808301818452808551808352604092508286019150828160051b87010184880160005b838110156200160857603f19898403018552815160a08151855288820151818a870152620015b882870182620014c9565b838a0151878b01526060808501516001600160a01b031690880152608093840151878203948801949094529150620015f390508183620014f7565b96890196945050509086019060010162001587565b509098975050505050505050565b8215158152604060208201526000620016336040830184620014c9565b949350505050565b60208152600062000fa06020830184620014c9565b85815260a0602082015260006200166b60a0830187620014c9565b604083018690526001600160a01b03851660608401528281036080840152620016958185620014f7565b98975050505050505050565b60405160a0810167ffffffffffffffff81118282101715620016c757620016c7620017bc565b60405290565b60008219821115620016e357620016e362001790565b500190565b600082821015620016fd57620016fd62001790565b500390565b60005b838110156200171f57818101518382015260200162001705565b838111156200172f576000848401525b50505050565b600181811c908216806200174a57607f821691505b602082108114156200176c57634e487b7160e01b600052602260045260246000fd5b50919050565b600060001982141562001789576200178962001790565b5060010190565b634e487b7160e01b600052601160045260246000fd5b634e487b7160e01b600052603260045260246000fd5b634e487b7160e01b600052604160045260246000fd5b801515811462000b4257600080fdfe60806040523480156200001157600080fd5b506040516200209a3803806200209a8339810160408190526200003491620003fe565b6001600081905585905583516200005390600290602087019062000267565b506003839055600680546001600160a01b0319166001600160a01b0384169081179091556040805163c08d1fe560e01b8152905163c08d1fe591600480820192602092909190829003018186803b158015620000ae57600080fd5b505afa158015620000c3573d6000803e3d6000fd5b505050506040513d601f19601f82011682018060405250810190620000e99190620003e4565b600490815560065460408051634959d97760e01b815290516001600160a01b0390921692634959d977928282019260209290829003018186803b1580156200013057600080fd5b505afa15801562000145573d6000803e3d6000fd5b505050506040513d601f19601f820116820180604052508101906200016b9190620003e4565b60055560065460408051631127a41d60e31b815290516001600160a01b039092169163893d20e891600480820192602092909190829003018186803b158015620001b457600080fd5b505afa158015620001c9573d6000803e3d6000fd5b505050506040513d601f19601f82011682018060405250810190620001ef9190620003bf565b600780546001600160a01b0319166001600160a01b039290921691909117905580516008805460ff19169115159190911781556020808301516009556040830151600a55606083015180518493926200024e92600b9291019062000267565b50608082015181600401559050505050505050620005ad565b82805462000275906200055a565b90600052602060002090601f016020900481019282620002995760008555620002e4565b82601f10620002b457805160ff1916838001178555620002e4565b82800160010185558215620002e4579182015b82811115620002e4578251825591602001919060010190620002c7565b50620002f2929150620002f6565b5090565b5b80821115620002f25760008155600101620002f7565b80516001600160a01b03811681146200032557600080fd5b919050565b600082601f8301126200033c57600080fd5b81516001600160401b0381111562000358576200035862000597565b60206200036e601f8301601f1916820162000527565b82815285828487010111156200038357600080fd5b60005b83811015620003a357858101830151828201840152820162000386565b83811115620003b55760008385840101525b5095945050505050565b600060208284031215620003d257600080fd5b620003dd826200030d565b9392505050565b600060208284031215620003f757600080fd5b5051919050565b600080600080600060a086880312156200041757600080fd5b855160208701519095506001600160401b03808211156200043757600080fd5b6200044589838a016200032a565b9550604088015194506200045c606089016200030d565b935060808801519150808211156200047357600080fd5b9087019060a0828a0312156200048857600080fd5b62000492620004fc565b82518015158114620004a357600080fd5b808252506020830151602082015260408301516040820152606083015182811115620004ce57600080fd5b620004dc8b8286016200032a565b606083015250608083015160808201528093505050509295509295909350565b60405160a081016001600160401b038111828210171562000521576200052162000597565b60405290565b604051601f8201601f191681016001600160401b038111828210171562000552576200055262000597565b604052919050565b600181811c908216806200056f57607f821691505b602082108114156200059157634e487b7160e01b600052602260045260246000fd5b50919050565b634e487b7160e01b600052604160045260246000fd5b611add80620005bd6000396000f3fe6080604052600436106100f35760003560e01c80637ce118611161008a578063c08d1fe511610059578063c08d1fe5146102ab578063c29d72bc146102c1578063ecb70fb7146102e3578063fbd534821461031457600080fd5b80637ce1186114610205578063858dbf7d1461020d578063ab632d4a14610233578063af640d0f1461029557600080fd5b80634d633a8f116100c65780634d633a8f1461019657806363df0ef7146101ab578063699c8f33146101cb57806378e97925146101ef57600080fd5b806306fdde03146100f857806345446d711461012357806348d37a581461015b5780634959d97714610172575b600080fd5b34801561010457600080fd5b5061010d610334565b60405161011a9190611817565b60405180910390f35b34801561012f57600080fd5b50600754610143906001600160a01b031681565b6040516001600160a01b03909116815260200161011a565b34801561016757600080fd5b506101706103c2565b005b34801561017e57600080fd5b5061018860055481565b60405190815260200161011a565b3480156101a257600080fd5b50610170610475565b3480156101b757600080fd5b50600654610143906001600160a01b031681565b3480156101d757600080fd5b506101e0610651565b60405161011a9392919061182a565b3480156101fb57600080fd5b5061018860035481565b6101706108e6565b34801561021957600080fd5b50610222610adb565b60405161011a9594939291906117de565b34801561023f57600080fd5b5061027561024e3660046115f6565b600f6020526000908152604090208054600182015460028301546003909301549192909184565b60408051948552602085019390935291830152606082015260800161011a565b3480156102a157600080fd5b5061018860015481565b3480156102b757600080fd5b5061018860045481565b3480156102cd57600080fd5b506102d6610b86565b60405161011a9190611748565b3480156102ef57600080fd5b5060075461030490600160a01b900460ff1681565b604051901515815260200161011a565b34801561032057600080fd5b5061017061032f366004611611565b610e53565b60028054610341906119e4565b80601f016020809104026020016040519081016040528092919081815260200182805461036d906119e4565b80156103ba5780601f1061038f576101008083540402835291602001916103ba565b820191906000526020600020905b81548152906001019060200180831161039d57829003601f168201915b505050505081565b426004546003546103d391906118c7565b1060405180604001604052806012815260200171544f55524e414d454e545f49535f4c49564560701b815250906104265760405162461bcd60e51b815260040161041d9190611817565b60405180910390fd5b50336000908152600f602052604090206003810154156104725760006003820181905560405133916108fc9181818181818888f19350505050158015610470573d6000803e3d6000fd5b505b50565b60075460408051808201909152601581527410d05313115497d393d517d055551213d492569151605a1b6020820152906001600160a01b031633146104cd5760405162461bcd60e51b815260040161041d9190611817565b50426004546003546104df91906118c7565b1060405180604001604052806012815260200171544f55524e414d454e545f49535f4c49564560701b815250906105295760405162461bcd60e51b815260040161041d9190611817565b506007805460ff60a01b1916600160a01b1790556000610547610b86565b905060005b610556600d610ffb565b81101561047057604051806080016040528082600161057591906118c7565b815260200183838151811061058c5761058c611a7b565b60200260200101516040015181526020018383815181106105af576105af611a7b565b60200260200101516060015181526020018383815181106105d2576105d2611a7b565b602002602001015160600151815250600f60008484815181106105f7576105f7611a7b565b602090810291909101810151516001600160a01b031682528181019290925260409081016000208351815591830151600183015582015160028201556060909101516003909101558061064981611a3f565b91505061054c565b6106856040518060a00160405280600015158152602001600081526020016000815260200160608152602001600081525090565b6040805160a0810190915260085460ff168015158252600091829160208201906106f5576106cf6008600401546005546106bf600d610ffb565b6106c99190611921565b9061100b565b6005546106dc600d610ffb565b6106e69190611921565b6106f0919061197f565b6106f9565b6009545b815260200161082f610793600660009054906101000a90046001600160a01b03166001600160a01b0316625a0e3d6040518163ffffffff1660e01b815260040160206040518083038186803b15801561075157600080fd5b505afa158015610765573d6000803e3d6000fd5b505050506040513d601f19601f820116820180604052508101906107899190611703565b6106c9600d610ffb565b60085460ff166108275760065460408051625a0e3d60e01b81529051600a926001600160a01b031691625a0e3d916004808301926020929190829003018186803b1580156107e057600080fd5b505afa1580156107f4573d6000803e3d6000fd5b505050506040513d601f19601f820116820180604052508101906108189190611703565b610822919061190d565b6110d4565b600a546110d4565b815260200160086003018054610844906119e4565b80601f0160208091040260200160405190810160405280929190818152602001828054610870906119e4565b80156108bd5780601f10610892576101008083540402835291602001916108bd565b820191906000526020600020905b8154815290600101906020018083116108a057829003601f168201915b5050509183525050600c546020909101526005546108db600d610ffb565b925092509250909192565b426004546003546108f791906118c7565b11604051806040016040528060148152602001731513d55493905351539517d21054d7d15391115160621b815250906109435760405162461bcd60e51b815260040161041d9190611817565b50600654604051630a0bdc1560e11b81523360048201526000916001600160a01b031690631417b82a9060240160006040518083038186803b15801561098857600080fd5b505afa15801561099c573d6000803e3d6000fd5b505050506040513d6000823e601f3d908101601f191682016040526109c4919081019061163b565b509050806040518060400160405280601581526020017414131056515497d393d517d49151d254d511549151605a1b81525090610a145760405162461bcd60e51b815260040161041d9190611817565b5060055434146040518060400160405280601981526020017f4e4f545f454e4f5547485f46554e44535f50524f56494445440000000000000081525090610a6e5760405162461bcd60e51b815260040161041d9190611817565b50610a7a600d336110ec565b506006546040516315a4c08360e31b81523360048201526001600160a01b039091169063ad26041890602401600060405180830381600087803b158015610ac057600080fd5b505af1158015610ad4573d6000803e3d6000fd5b5050505050565b60088054600954600a54600b805460ff909416949293919291610afd906119e4565b80601f0160208091040260200160405190810160405280929190818152602001828054610b29906119e4565b8015610b765780601f10610b4b57610100808354040283529160200191610b76565b820191906000526020600020905b815481529060010190602001808311610b5957829003601f168201915b5050505050908060040154905085565b60606000610b94600d610ffb565b67ffffffffffffffff811115610bac57610bac611a91565b604051908082528060200260200182016040528015610c1157816020015b610bfe604051806080016040528060006001600160a01b031681526020016060815260200160008152602001600081525090565b815260200190600190039081610bca5790505b509050610c1e600d610ffb565b610c2757919050565b60005b610c34600d610ffb565b811015610d6057600654604051630a0bdc1560e11b81523360048201526000916001600160a01b031690631417b82a9060240160006040518083038186803b158015610c7f57600080fd5b505afa158015610c93573d6000803e3d6000fd5b505050506040513d6000823e601f3d908101601f19168201604052610cbb919081019061163b565b9150506040518060800160405280610cdd84600d61110190919063ffffffff16565b6001600160a01b0316815260208101839052604001600f6000610d01600d87611101565b6001600160a01b03166001600160a01b031681526020019081526020016000206001015481526020016000815250838381518110610d4157610d41611a7b565b6020026020010181905250508080610d5890611a3f565b915050610c2a565b50610d828160006001610d73600d610ffb565b610d7d919061197f565b61110d565b90506000610d8e610651565b505090506000610da6610da1600d610ffb565b6112ac565b90506000620f4240610dbc83856040015161148d565b610dc6919061197f565b610dd3620f42408461197f565b8460200151610de29190611921565b610dec919061190d565b905060005b610dfb600d610ffb565b811015610e4957610e0c838261148d565b610e169083611921565b858281518110610e2857610e28611a7b565b60209081029190910101516060015280610e4181611a3f565b915050610df1565b5092949350505050565b60075460408051808201909152601581527410d05313115497d393d517d055551213d492569151605a1b6020820152906001600160a01b03163314610eab5760405162461bcd60e51b815260040161041d9190611817565b5042600454600354610ebd91906118c7565b11604051806040016040528060148152602001731513d55493905351539517d21054d7d15391115160621b81525090610f095760405162461bcd60e51b815260040161041d9190611817565b50600654604051630a0bdc1560e11b81523360048201526000916001600160a01b031690631417b82a9060240160006040518083038186803b158015610f4e57600080fd5b505afa158015610f62573d6000803e3d6000fd5b505050506040513d6000823e601f3d908101601f19168201604052610f8a919081019061163b565b509050806040518060400160405280601581526020017414131056515497d393d517d49151d254d511549151605a1b81525090610fda5760405162461bcd60e51b815260040161041d9190611817565b50506001600160a01b039091166000908152600f6020526040902060010155565b6000611005825490565b92915050565b6000821580611018575081155b1561102557506000611005565b81611033600261271061190d565b61103f9060001961197f565b611049919061190d565b8311156040518060400160405280601c81526020017f4d4154485f4d554c5449504c49434154494f4e5f4f564552464c4f5700000000815250906110a05760405162461bcd60e51b815260040161041d9190611817565b506127106110af60028261190d565b6110b98486611921565b6110c391906118c7565b6110cd919061190d565b9392505050565b6000818311156110e5575080611005565b5090919050565b60006110cd836001600160a01b0384166114c0565b60006110cd838361150f565b606081831261111d5750826110cd565b600084600261112c8686611940565b61113691906118df565b6111409086611886565b8151811061115057611150611a7b565b602090810291909101015160400151905083835b808213611277575b8287838151811061117f5761117f611a7b565b60200260200101516040015111156111a3578161119b81611a1f565b92505061116c565b8681815181106111b5576111b5611a7b565b6020026020010151604001518311156111da57806111d2816119c6565b9150506111a3565b8082136112725760008783815181106111f5576111f5611a7b565b6020026020010151905087828151811061121157611211611a7b565b602002602001015188848151811061122b5761122b611a7b565b60200260200101819052508088838151811061124957611249611a7b565b6020026020010181905250828061125f90611a1f565b935050818061126d906119c6565b925050505b611164565b8086121561128c5761128a87878361110d565b505b848212156112a15761129f87838761110d565b505b509495945050505050565b6000600a82101561133457600654604051633438d19960e21b8152600a60048201526001600160a01b039091169063d0e34664906024015b60206040518083038186803b1580156112fc57600080fd5b505afa158015611310573d6000803e3d6000fd5b505050506040513d601f19601f820116820180604052508101906110059190611703565b601482101561136e57600654604051633438d19960e21b8152601460048201526001600160a01b039091169063d0e34664906024016112e4565b601e8210156113a857600654604051633438d19960e21b8152601e60048201526001600160a01b039091169063d0e34664906024016112e4565b60288210156113e257600654604051633438d19960e21b8152602860048201526001600160a01b039091169063d0e34664906024016112e4565b603282101561141c57600654604051633438d19960e21b8152603260048201526001600160a01b039091169063d0e34664906024016112e4565b606482101561145657600654604051633438d19960e21b8152606460048201526001600160a01b039091169063d0e34664906024016112e4565b600654604051633438d19960e21b81526103e860048201526001600160a01b039091169063d0e34664906024016112e4565b919050565b600082815b838110156114b8576114a48286611539565b9150806114b081611a3f565b915050611492565b509392505050565b600081815260018301602052604081205461150757508154600181810184556000848152602080822090930184905584548482528286019093526040902091909155611005565b506000611005565b600082600001828154811061152657611526611a7b565b9060005260206000200154905092915050565b6000821580611546575081155b1561155357506000611005565b816115626002620f424061190d565b61156e9060001961197f565b611578919061190d565b8311156040518060400160405280601c81526020017f4d4154485f4d554c5449504c49434154494f4e5f4f564552464c4f5700000000815250906115cf5760405162461bcd60e51b815260040161041d9190611817565b50620f42406110af60028261190d565b80356001600160a01b038116811461148857600080fd5b60006020828403121561160857600080fd5b6110cd826115df565b6000806040838503121561162457600080fd5b61162d836115df565b946020939093013593505050565b6000806040838503121561164e57600080fd5b8251801515811461165e57600080fd5b602084015190925067ffffffffffffffff8082111561167c57600080fd5b818501915085601f83011261169057600080fd5b8151818111156116a2576116a2611a91565b604051601f8201601f19908116603f011681019083821181831017156116ca576116ca611a91565b816040528281528860208487010111156116e357600080fd5b6116f4836020830160208801611996565b80955050505050509250929050565b60006020828403121561171557600080fd5b5051919050565b60008151808452611734816020860160208601611996565b601f01601f19169290920160200192915050565b60006020808301818452808551808352604092508286019150828160051b87010184880160005b838110156117d057888303603f19018552815180516001600160a01b03168452878101516080898601819052906117a88287018261171c565b838a0151878b015260609384015193909601929092525050938601939086019060010161176f565b509098975050505050505050565b851515815284602082015283604082015260a06060820152600061180560a083018561171c565b90508260808301529695505050505050565b6020815260006110cd602083018461171c565b6060815283511515606082015260208401516080820152604084015160a08201526000606085015160a060c084015261186761010084018261171c565b6080969096015160e08401525050602081019290925260409091015290565b600080821280156001600160ff1b03849003851316156118a8576118a8611a4f565b600160ff1b83900384128116156118c1576118c1611a4f565b50500190565b600082198211156118da576118da611a4f565b500190565b6000826118ee576118ee611a65565b600160ff1b82146000198414161561190857611908611a4f565b500590565b60008261191c5761191c611a65565b500490565b600081600019048311821515161561193b5761193b611a4f565b500290565b60008083128015600160ff1b85018412161561195e5761195e611a4f565b6001600160ff1b038401831381161561197957611979611a4f565b50500390565b60008282101561199157611991611a4f565b500390565b60005b838110156119b1578181015183820152602001611999565b838111156119c0576000848401525b50505050565b6000600160ff1b8214156119dc576119dc611a4f565b506000190190565b600181811c908216806119f857607f821691505b60208210811415611a1957634e487b7160e01b600052602260045260246000fd5b50919050565b60006001600160ff1b03821415611a3857611a38611a4f565b5060010190565b6000600019821415611a3857611a385b634e487b7160e01b600052601160045260246000fd5b634e487b7160e01b600052601260045260246000fd5b634e487b7160e01b600052603260045260246000fd5b634e487b7160e01b600052604160045260246000fdfea2646970667358221220a5fc349ceb005829f0657a58b48146257156c3f4f5f5908c698160eb66991df364736f6c63430008070033a264697066735822122047ba471f94f65ee8d757be66e1991b7fb508965b5e8d4c7e2602482d57d76fca64736f6c63430008070033","opcodes":"PUSH1 0x80 PUSH1 0x40 MSTORE PUSH3 0x15180 PUSH1 0x8 SSTORE PUSH8 0xDE0B6B3A7640000 PUSH1 0x9 SSTORE PUSH2 0x1AF4 PUSH1 0xA SSTORE CALLVALUE DUP1 ISZERO PUSH2 0x29 JUMPI PUSH1 0x0 DUP1 REVERT JUMPDEST POP PUSH2 0x33 CALLER PUSH2 0x174 JUMP JUMPDEST PUSH1 0x1 DUP1 SSTORE PUSH1 0x6 PUSH1 0x20 MSTORE PUSH8 0xFF59EE833B30000 PUSH32 0x4DA38FC8E544AFC56A4C2A17752B8DDB67D8E23AC4583C9029D2E2D1DBE6C988 SSTORE PUSH8 0xEEB2ACDED8B8000 PUSH32 0x98D468EFB4F874D617491296C759DC9AE46EFB517FE36BCF30699AD3F714C0F SSTORE PUSH8 0xE92596FD6290000 PUSH32 0xB6BA906FF52451A7A924E2EAEB8AEA3EBEE7350A8703E5E417EDB25358C7DCC1 SSTORE PUSH8 0xE398811BEC68000 PUSH32 0x95205EE1597333A2B36CC31B0A8C074C0C1FA2918672C4E3DDE98E6EB3460FE4 SSTORE PUSH8 0xE27C49886E60000 PUSH32 0xD4C27E5D2CE7B7345F78D7F5DDC8B90697D63512E00B9F949B158A467D0BFFFC SSTORE PUSH8 0xE043DA617250000 PUSH32 0x294249A73DADE72954CE261E2D3E7A241EA69FBB9C559454DD3E40F332FD4F17 SSTORE PUSH2 0x3E8 PUSH1 0x0 MSTORE PUSH8 0xDF27A2CDF448000 PUSH32 0xF416400A389B2271C5C6051273E6B62961B6906215E5F4D9099A99323151C03F SSTORE PUSH2 0x1C4 JUMP JUMPDEST PUSH1 0x0 DUP1 SLOAD PUSH1 0x1 PUSH1 0x1 PUSH1 0xA0 SHL SUB DUP4 DUP2 AND PUSH1 0x1 PUSH1 0x1 PUSH1 0xA0 SHL SUB NOT DUP4 AND DUP2 OR DUP5 SSTORE PUSH1 0x40 MLOAD SWAP2 SWAP1 SWAP3 AND SWAP3 DUP4 SWAP2 PUSH32 0x8BE0079C531659141344CD1FD0A4F28419497F9722A3DAAFE3B4186F6B6457E0 SWAP2 SWAP1 LOG3 POP POP JUMP JUMPDEST PUSH2 0x38B1 DUP1 PUSH2 0x1D3 PUSH1 0x0 CODECOPY PUSH1 0x0 RETURN INVALID PUSH1 0x80 PUSH1 0x40 MSTORE PUSH1 0x4 CALLDATASIZE LT PUSH3 0x112 JUMPI PUSH1 0x0 CALLDATALOAD PUSH1 0xE0 SHR DUP1 PUSH4 0xAD260418 GT PUSH3 0xA1 JUMPI DUP1 PUSH4 0xE33E879A GT PUSH3 0x6C JUMPI DUP1 PUSH4 0xE33E879A EQ PUSH3 0x2FC JUMPI DUP1 PUSH4 0xEA87152B EQ PUSH3 0x321 JUMPI DUP1 PUSH4 0xF2FDE38B EQ PUSH3 0x346 JUMPI DUP1 PUSH4 0xFBF7C5EE EQ PUSH3 0x36B JUMPI DUP1 PUSH4 0xFC8E7504 EQ PUSH3 0x382 JUMPI PUSH1 0x0 DUP1 REVERT JUMPDEST DUP1 PUSH4 0xAD260418 EQ PUSH3 0x269 JUMPI DUP1 PUSH4 0xC08D1FE5 EQ PUSH3 0x28E JUMPI DUP1 PUSH4 0xD0E34664 EQ PUSH3 0x2A6 JUMPI DUP1 PUSH4 0xE2889C82 EQ PUSH3 0x2D7 JUMPI PUSH1 0x0 DUP1 REVERT JUMPDEST DUP1 PUSH4 0x7503E1B7 GT PUSH3 0xE2 JUMPI DUP1 PUSH4 0x7503E1B7 EQ PUSH3 0x1A9 JUMPI DUP1 PUSH4 0x86106B1F EQ PUSH3 0x1E1 JUMPI DUP1 PUSH4 0x893D20E8 EQ PUSH3 0x215 JUMPI DUP1 PUSH4 0x8DA5CB5B EQ PUSH3 0x249 JUMPI PUSH1 0x0 DUP1 REVERT JUMPDEST DUP1 PUSH3 0x5A0E3D EQ PUSH3 0x117 JUMPI DUP1 PUSH4 0x1417B82A EQ PUSH3 0x142 JUMPI DUP1 PUSH4 0x4959D977 EQ PUSH3 0x177 JUMPI DUP1 PUSH4 0x715018A6 EQ PUSH3 0x18F JUMPI JUMPDEST PUSH1 0x0 DUP1 REVERT JUMPDEST CALLVALUE DUP1 ISZERO PUSH3 0x124 JUMPI PUSH1 0x0 DUP1 REVERT JUMPDEST POP PUSH3 0x12F PUSH1 0xA SLOAD DUP2 JUMP JUMPDEST PUSH1 0x40 MLOAD SWAP1 DUP2 MSTORE PUSH1 0x20 ADD JUMPDEST PUSH1 0x40 MLOAD DUP1 SWAP2 SUB SWAP1 RETURN JUMPDEST CALLVALUE DUP1 ISZERO PUSH3 0x14F JUMPI PUSH1 0x0 DUP1 REVERT JUMPDEST POP PUSH3 0x167 PUSH3 0x161 CALLDATASIZE PUSH1 0x4 PUSH3 0x1347 JUMP JUMPDEST PUSH3 0x39A JUMP JUMPDEST PUSH1 0x40 MLOAD PUSH3 0x139 SWAP3 SWAP2 SWAP1 PUSH3 0x1616 JUMP JUMPDEST CALLVALUE DUP1 ISZERO PUSH3 0x184 JUMPI PUSH1 0x0 DUP1 REVERT JUMPDEST POP PUSH3 0x12F PUSH1 0x9 SLOAD DUP2 JUMP JUMPDEST CALLVALUE DUP1 ISZERO PUSH3 0x19C JUMPI PUSH1 0x0 DUP1 REVERT JUMPDEST POP PUSH3 0x1A7 PUSH3 0x460 JUMP JUMPDEST STOP JUMPDEST CALLVALUE DUP1 ISZERO PUSH3 0x1B6 JUMPI PUSH1 0x0 DUP1 REVERT JUMPDEST POP PUSH3 0x1CE PUSH3 0x1C8 CALLDATASIZE PUSH1 0x4 PUSH3 0x14AF JUMP JUMPDEST PUSH3 0x478 JUMP JUMPDEST PUSH1 0x40 MLOAD PUSH3 0x139 SWAP6 SWAP5 SWAP4 SWAP3 SWAP2 SWAP1 PUSH3 0x1650 JUMP JUMPDEST CALLVALUE DUP1 ISZERO PUSH3 0x1EE JUMPI PUSH1 0x0 DUP1 REVERT JUMPDEST POP PUSH3 0x206 PUSH3 0x200 CALLDATASIZE PUSH1 0x4 PUSH3 0x1347 JUMP JUMPDEST PUSH3 0x617 JUMP JUMPDEST PUSH1 0x40 MLOAD PUSH3 0x139 SWAP2 SWAP1 PUSH3 0x1560 JUMP JUMPDEST CALLVALUE DUP1 ISZERO PUSH3 0x222 JUMPI PUSH1 0x0 DUP1 REVERT JUMPDEST POP PUSH1 0x0 SLOAD PUSH1 0x1 PUSH1 0x1 PUSH1 0xA0 SHL SUB AND JUMPDEST PUSH1 0x40 MLOAD PUSH1 0x1 PUSH1 0x1 PUSH1 0xA0 SHL SUB SWAP1 SWAP2 AND DUP2 MSTORE PUSH1 0x20 ADD PUSH3 0x139 JUMP JUMPDEST CALLVALUE DUP1 ISZERO PUSH3 0x256 JUMPI PUSH1 0x0 DUP1 REVERT JUMPDEST POP PUSH1 0x0 SLOAD PUSH1 0x1 PUSH1 0x1 PUSH1 0xA0 SHL SUB AND PUSH3 0x230 JUMP JUMPDEST CALLVALUE DUP1 ISZERO PUSH3 0x276 JUMPI PUSH1 0x0 DUP1 REVERT JUMPDEST POP PUSH3 0x1A7 PUSH3 0x288 CALLDATASIZE PUSH1 0x4 PUSH3 0x1347 JUMP JUMPDEST PUSH3 0x8D5 JUMP JUMPDEST CALLVALUE DUP1 ISZERO PUSH3 0x29B JUMPI PUSH1 0x0 DUP1 REVERT JUMPDEST POP PUSH3 0x12F PUSH1 0x8 SLOAD DUP2 JUMP JUMPDEST CALLVALUE DUP1 ISZERO PUSH3 0x2B3 JUMPI PUSH1 0x0 DUP1 REVERT JUMPDEST POP PUSH3 0x12F PUSH3 0x2C5 CALLDATASIZE PUSH1 0x4 PUSH3 0x14AF JUMP JUMPDEST PUSH1 0x6 PUSH1 0x20 MSTORE PUSH1 0x0 SWAP1 DUP2 MSTORE PUSH1 0x40 SWAP1 KECCAK256 SLOAD DUP2 JUMP JUMPDEST CALLVALUE DUP1 ISZERO PUSH3 0x2E4 JUMPI PUSH1 0x0 DUP1 REVERT JUMPDEST POP PUSH3 0x1A7 PUSH3 0x2F6 CALLDATASIZE PUSH1 0x4 PUSH3 0x14AF JUMP JUMPDEST PUSH3 0x97F JUMP JUMPDEST CALLVALUE DUP1 ISZERO PUSH3 0x309 JUMPI PUSH1 0x0 DUP1 REVERT JUMPDEST POP PUSH3 0x1A7 PUSH3 0x31B CALLDATASIZE PUSH1 0x4 PUSH3 0x14AF JUMP JUMPDEST PUSH3 0x98E JUMP JUMPDEST CALLVALUE DUP1 ISZERO PUSH3 0x32E JUMPI PUSH1 0x0 DUP1 REVERT JUMPDEST POP PUSH3 0x1A7 PUSH3 0x340 CALLDATASIZE PUSH1 0x4 PUSH3 0x1466 JUMP JUMPDEST PUSH3 0x99D JUMP JUMPDEST CALLVALUE DUP1 ISZERO PUSH3 0x353 JUMPI PUSH1 0x0 DUP1 REVERT JUMPDEST POP PUSH3 0x1A7 PUSH3 0x365 CALLDATASIZE PUSH1 0x4 PUSH3 0x1347 JUMP JUMPDEST PUSH3 0xAC6 JUMP JUMPDEST PUSH3 0x1A7 PUSH3 0x37C CALLDATASIZE PUSH1 0x4 PUSH3 0x1392 JUMP JUMPDEST PUSH3 0xB45 JUMP JUMPDEST CALLVALUE DUP1 ISZERO PUSH3 0x38F JUMPI PUSH1 0x0 DUP1 REVERT JUMPDEST POP PUSH3 0x12F PUSH1 0x7 SLOAD DUP2 JUMP JUMPDEST PUSH1 0x1 PUSH1 0x1 PUSH1 0xA0 SHL SUB DUP2 AND PUSH1 0x0 SWAP1 DUP2 MSTORE PUSH1 0x2 PUSH1 0x20 MSTORE PUSH1 0x40 DUP2 KECCAK256 DUP1 SLOAD PUSH1 0x1 DUP3 ADD DUP1 SLOAD PUSH1 0x60 SWAP4 SWAP3 PUSH1 0xFF AND SWAP2 SWAP1 DUP2 SWAP1 PUSH3 0x3D0 SWAP1 PUSH3 0x1735 JUMP JUMPDEST DUP1 PUSH1 0x1F ADD PUSH1 0x20 DUP1 SWAP2 DIV MUL PUSH1 0x20 ADD PUSH1 0x40 MLOAD SWAP1 DUP2 ADD PUSH1 0x40 MSTORE DUP1 SWAP3 SWAP2 SWAP1 DUP2 DUP2 MSTORE PUSH1 0x20 ADD DUP3 DUP1 SLOAD PUSH3 0x3FE SWAP1 PUSH3 0x1735 JUMP JUMPDEST DUP1 ISZERO PUSH3 0x44F JUMPI DUP1 PUSH1 0x1F LT PUSH3 0x423 JUMPI PUSH2 0x100 DUP1 DUP4 SLOAD DIV MUL DUP4 MSTORE SWAP2 PUSH1 0x20 ADD SWAP2 PUSH3 0x44F JUMP JUMPDEST DUP3 ADD SWAP2 SWAP1 PUSH1 0x0 MSTORE PUSH1 0x20 PUSH1 0x0 KECCAK256 SWAP1 JUMPDEST DUP2 SLOAD DUP2 MSTORE SWAP1 PUSH1 0x1 ADD SWAP1 PUSH1 0x20 ADD DUP1 DUP4 GT PUSH3 0x431 JUMPI DUP3 SWAP1 SUB PUSH1 0x1F AND DUP3 ADD SWAP2 JUMPDEST POP POP POP POP POP SWAP1 POP SWAP3 POP SWAP3 POP POP SWAP2 POP SWAP2 JUMP JUMPDEST PUSH3 0x46A PUSH3 0xED5 JUMP JUMPDEST PUSH3 0x476 PUSH1 0x0 PUSH3 0xF31 JUMP JUMPDEST JUMP JUMPDEST PUSH1 0x5 PUSH1 0x20 MSTORE PUSH1 0x0 SWAP1 DUP2 MSTORE PUSH1 0x40 SWAP1 KECCAK256 DUP1 SLOAD PUSH1 0x1 DUP3 ADD DUP1 SLOAD SWAP2 SWAP3 SWAP2 PUSH3 0x49C SWAP1 PUSH3 0x1735 JUMP JUMPDEST DUP1 PUSH1 0x1F ADD PUSH1 0x20 DUP1 SWAP2 DIV MUL PUSH1 0x20 ADD PUSH1 0x40 MLOAD SWAP1 DUP2 ADD PUSH1 0x40 MSTORE DUP1 SWAP3 SWAP2 SWAP1 DUP2 DUP2 MSTORE PUSH1 0x20 ADD DUP3 DUP1 SLOAD PUSH3 0x4CA SWAP1 PUSH3 0x1735 JUMP JUMPDEST DUP1 ISZERO PUSH3 0x51B JUMPI DUP1 PUSH1 0x1F LT PUSH3 0x4EF JUMPI PUSH2 0x100 DUP1 DUP4 SLOAD DIV MUL DUP4 MSTORE SWAP2 PUSH1 0x20 ADD SWAP2 PUSH3 0x51B JUMP JUMPDEST DUP3 ADD SWAP2 SWAP1 PUSH1 0x0 MSTORE PUSH1 0x20 PUSH1 0x0 KECCAK256 SWAP1 JUMPDEST DUP2 SLOAD DUP2 MSTORE SWAP1 PUSH1 0x1 ADD SWAP1 PUSH1 0x20 ADD DUP1 DUP4 GT PUSH3 0x4FD JUMPI DUP3 SWAP1 SUB PUSH1 0x1F AND DUP3 ADD SWAP2 JUMPDEST POP POP POP POP PUSH1 0x2 DUP4 ADD SLOAD PUSH1 0x3 DUP5 ADD SLOAD PUSH1 0x40 DUP1 MLOAD PUSH1 0xA0 DUP2 ADD DUP3 MSTORE PUSH1 0x4 DUP8 ADD DUP1 SLOAD PUSH1 0xFF AND ISZERO ISZERO DUP3 MSTORE PUSH1 0x5 DUP9 ADD SLOAD PUSH1 0x20 DUP4 ADD MSTORE PUSH1 0x6 DUP9 ADD SLOAD SWAP3 DUP3 ADD SWAP3 SWAP1 SWAP3 MSTORE PUSH1 0x7 DUP8 ADD DUP1 SLOAD SWAP7 SWAP8 SWAP5 SWAP7 PUSH1 0x1 PUSH1 0x1 PUSH1 0xA0 SHL SUB SWAP1 SWAP5 AND SWAP6 POP SWAP1 SWAP3 PUSH1 0x60 DUP5 ADD SWAP2 SWAP1 PUSH3 0x580 SWAP1 PUSH3 0x1735 JUMP JUMPDEST DUP1 PUSH1 0x1F ADD PUSH1 0x20 DUP1 SWAP2 DIV MUL PUSH1 0x20 ADD PUSH1 0x40 MLOAD SWAP1 DUP2 ADD PUSH1 0x40 MSTORE DUP1 SWAP3 SWAP2 SWAP1 DUP2 DUP2 MSTORE PUSH1 0x20 ADD DUP3 DUP1 SLOAD PUSH3 0x5AE SWAP1 PUSH3 0x1735 JUMP JUMPDEST DUP1 ISZERO PUSH3 0x5FF JUMPI DUP1 PUSH1 0x1F LT PUSH3 0x5D3 JUMPI PUSH2 0x100 DUP1 DUP4 SLOAD DIV MUL DUP4 MSTORE SWAP2 PUSH1 0x20 ADD SWAP2 PUSH3 0x5FF JUMP JUMPDEST DUP3 ADD SWAP2 SWAP1 PUSH1 0x0 MSTORE PUSH1 0x20 PUSH1 0x0 KECCAK256 SWAP1 JUMPDEST DUP2 SLOAD DUP2 MSTORE SWAP1 PUSH1 0x1 ADD SWAP1 PUSH1 0x20 ADD DUP1 DUP4 GT PUSH3 0x5E1 JUMPI DUP3 SWAP1 SUB PUSH1 0x1F AND DUP3 ADD SWAP2 JUMPDEST POP POP POP POP POP DUP2 MSTORE PUSH1 0x20 ADD PUSH1 0x4 DUP3 ADD SLOAD DUP2 MSTORE POP POP SWAP1 POP DUP6 JUMP JUMPDEST PUSH1 0x60 PUSH1 0x0 PUSH1 0x7 SLOAD PUSH8 0xFFFFFFFFFFFFFFFF DUP2 GT ISZERO PUSH3 0x639 JUMPI PUSH3 0x639 PUSH3 0x17BC JUMP JUMPDEST PUSH1 0x40 MLOAD SWAP1 DUP1 DUP3 MSTORE DUP1 PUSH1 0x20 MUL PUSH1 0x20 ADD DUP3 ADD PUSH1 0x40 MSTORE DUP1 ISZERO PUSH3 0x676 JUMPI DUP2 PUSH1 0x20 ADD JUMPDEST PUSH3 0x662 PUSH3 0x1194 JUMP JUMPDEST DUP2 MSTORE PUSH1 0x20 ADD SWAP1 PUSH1 0x1 SWAP1 SUB SWAP1 DUP2 PUSH3 0x658 JUMPI SWAP1 POP JUMPDEST POP SWAP1 POP PUSH1 0x0 JUMPDEST PUSH1 0x1 PUSH1 0x1 PUSH1 0xA0 SHL SUB DUP5 AND PUSH1 0x0 SWAP1 DUP2 MSTORE PUSH1 0x2 PUSH1 0x20 DUP2 SWAP1 MSTORE PUSH1 0x40 SWAP1 SWAP2 KECCAK256 PUSH3 0x6A3 SWAP2 ADD PUSH3 0xF81 JUMP JUMPDEST DUP2 LT ISZERO PUSH3 0x8CE JUMPI PUSH1 0x1 PUSH1 0x1 PUSH1 0xA0 SHL SUB DUP5 AND PUSH1 0x0 SWAP1 DUP2 MSTORE PUSH1 0x2 PUSH1 0x20 DUP2 SWAP1 MSTORE PUSH1 0x40 DUP3 KECCAK256 PUSH1 0x5 SWAP3 SWAP2 PUSH3 0x6D6 SWAP2 ADD DUP5 PUSH3 0xF92 JUMP JUMPDEST DUP2 MSTORE PUSH1 0x20 ADD SWAP1 DUP2 MSTORE PUSH1 0x20 ADD PUSH1 0x0 KECCAK256 PUSH1 0x40 MLOAD DUP1 PUSH1 0xA0 ADD PUSH1 0x40 MSTORE SWAP1 DUP2 PUSH1 0x0 DUP3 ADD SLOAD DUP2 MSTORE PUSH1 0x20 ADD PUSH1 0x1 DUP3 ADD DUP1 SLOAD PUSH3 0x70B SWAP1 PUSH3 0x1735 JUMP JUMPDEST DUP1 PUSH1 0x1F ADD PUSH1 0x20 DUP1 SWAP2 DIV MUL PUSH1 0x20 ADD PUSH1 0x40 MLOAD SWAP1 DUP2 ADD PUSH1 0x40 MSTORE DUP1 SWAP3 SWAP2 SWAP1 DUP2 DUP2 MSTORE PUSH1 0x20 ADD DUP3 DUP1 SLOAD PUSH3 0x739 SWAP1 PUSH3 0x1735 JUMP JUMPDEST DUP1 ISZERO PUSH3 0x78A JUMPI DUP1 PUSH1 0x1F LT PUSH3 0x75E JUMPI PUSH2 0x100 DUP1 DUP4 SLOAD DIV MUL DUP4 MSTORE SWAP2 PUSH1 0x20 ADD SWAP2 PUSH3 0x78A JUMP JUMPDEST DUP3 ADD SWAP2 SWAP1 PUSH1 0x0 MSTORE PUSH1 0x20 PUSH1 0x0 KECCAK256 SWAP1 JUMPDEST DUP2 SLOAD DUP2 MSTORE SWAP1 PUSH1 0x1 ADD SWAP1 PUSH1 0x20 ADD DUP1 DUP4 GT PUSH3 0x76C JUMPI DUP3 SWAP1 SUB PUSH1 0x1F AND DUP3 ADD SWAP2 JUMPDEST POP POP POP SWAP2 DUP4 MSTORE POP POP PUSH1 0x2 DUP3 ADD SLOAD PUSH1 0x20 DUP1 DUP4 ADD SWAP2 SWAP1 SWAP2 MSTORE PUSH1 0x3 DUP4 ADD SLOAD PUSH1 0x1 PUSH1 0x1 PUSH1 0xA0 SHL SUB AND PUSH1 0x40 DUP1 DUP5 ADD SWAP2 SWAP1 SWAP2 MSTORE DUP1 MLOAD PUSH1 0xA0 DUP2 ADD DUP3 MSTORE PUSH1 0x4 DUP6 ADD DUP1 SLOAD PUSH1 0xFF AND ISZERO ISZERO DUP3 MSTORE PUSH1 0x5 DUP7 ADD SLOAD SWAP4 DUP3 ADD SWAP4 SWAP1 SWAP4 MSTORE PUSH1 0x6 DUP6 ADD SLOAD SWAP2 DUP2 ADD SWAP2 SWAP1 SWAP2 MSTORE PUSH1 0x7 DUP5 ADD DUP1 SLOAD PUSH1 0x60 SWAP5 DUP6 ADD SWAP5 SWAP3 SWAP4 SWAP3 DUP5 ADD SWAP2 SWAP1 PUSH3 0x802 SWAP1 PUSH3 0x1735 JUMP JUMPDEST DUP1 PUSH1 0x1F ADD PUSH1 0x20 DUP1 SWAP2 DIV MUL PUSH1 0x20 ADD PUSH1 0x40 MLOAD SWAP1 DUP2 ADD PUSH1 0x40 MSTORE DUP1 SWAP3 SWAP2 SWAP1 DUP2 DUP2 MSTORE PUSH1 0x20 ADD DUP3 DUP1 SLOAD PUSH3 0x830 SWAP1 PUSH3 0x1735 JUMP JUMPDEST DUP1 ISZERO PUSH3 0x881 JUMPI DUP1 PUSH1 0x1F LT PUSH3 0x855 JUMPI PUSH2 0x100 DUP1 DUP4 SLOAD DIV MUL DUP4 MSTORE SWAP2 PUSH1 0x20 ADD SWAP2 PUSH3 0x881 JUMP JUMPDEST DUP3 ADD SWAP2 SWAP1 PUSH1 0x0 MSTORE PUSH1 0x20 PUSH1 0x0 KECCAK256 SWAP1 JUMPDEST DUP2 SLOAD DUP2 MSTORE SWAP1 PUSH1 0x1 ADD SWAP1 PUSH1 0x20 ADD DUP1 DUP4 GT PUSH3 0x863 JUMPI DUP3 SWAP1 SUB PUSH1 0x1F AND DUP3 ADD SWAP2 JUMPDEST POP POP POP POP POP DUP2 MSTORE PUSH1 0x20 ADD PUSH1 0x4 DUP3 ADD SLOAD DUP2 MSTORE POP POP DUP2 MSTORE POP POP DUP3 DUP3 DUP2 MLOAD DUP2 LT PUSH3 0x8AD JUMPI PUSH3 0x8AD PUSH3 0x17A6 JUMP JUMPDEST PUSH1 0x20 MUL PUSH1 0x20 ADD ADD DUP2 SWAP1 MSTORE POP DUP1 DUP1 PUSH3 0x8C5 SWAP1 PUSH3 0x1772 JUMP JUMPDEST SWAP2 POP POP PUSH3 0x67C JUMP JUMPDEST POP SWAP3 SWAP2 POP POP JUMP JUMPDEST PUSH1 0x7 SLOAD PUSH1 0x0 SWAP1 DUP2 MSTORE PUSH1 0x5 PUSH1 0x20 SWAP1 DUP2 MSTORE PUSH1 0x40 SWAP2 DUP3 SWAP1 KECCAK256 PUSH1 0x3 ADD SLOAD DUP3 MLOAD DUP1 DUP5 ADD SWAP1 SWAP4 MSTORE PUSH1 0x15 DUP4 MSTORE PUSH21 0x10D05313115497D393D517D055551213D492569151 PUSH1 0x5A SHL SWAP2 DUP4 ADD SWAP2 SWAP1 SWAP2 MSTORE PUSH1 0x1 PUSH1 0x1 PUSH1 0xA0 SHL SUB AND CALLER EQ PUSH3 0x94E JUMPI PUSH1 0x40 MLOAD PUSH3 0x461BCD PUSH1 0xE5 SHL DUP2 MSTORE PUSH1 0x4 ADD PUSH3 0x945 SWAP2 SWAP1 PUSH3 0x163B JUMP JUMPDEST PUSH1 0x40 MLOAD DUP1 SWAP2 SUB SWAP1 REVERT JUMPDEST POP PUSH1 0x7 SLOAD PUSH1 0x1 PUSH1 0x1 PUSH1 0xA0 SHL SUB DUP3 AND PUSH1 0x0 SWAP1 DUP2 MSTORE PUSH1 0x2 PUSH1 0x20 DUP2 SWAP1 MSTORE PUSH1 0x40 SWAP1 SWAP2 KECCAK256 PUSH3 0x97B SWAP3 SWAP2 ADD SWAP1 PUSH3 0xFA7 JUMP JUMPDEST POP POP JUMP JUMPDEST PUSH3 0x989 PUSH3 0xED5 JUMP JUMPDEST PUSH1 0x8 SSTORE JUMP JUMPDEST PUSH3 0x998 PUSH3 0xED5 JUMP JUMPDEST PUSH1 0x9 SSTORE JUMP JUMPDEST PUSH3 0x9DB DUP3 PUSH1 0x40 MLOAD PUSH1 0x20 ADD PUSH3 0x9B4 SWAP2 SWAP1 PUSH3 0x1542 JUMP JUMPDEST PUSH1 0x40 MLOAD PUSH1 0x20 DUP2 DUP4 SUB SUB DUP2 MSTORE SWAP1 PUSH1 0x40 MSTORE DUP1 MLOAD SWAP1 PUSH1 0x20 ADD KECCAK256 PUSH1 0x3 PUSH3 0xFB5 SWAP1 SWAP2 SWAP1 PUSH4 0xFFFFFFFF AND JUMP JUMPDEST ISZERO PUSH1 0x40 MLOAD DUP1 PUSH1 0x40 ADD PUSH1 0x40 MSTORE DUP1 PUSH1 0xE DUP2 MSTORE PUSH1 0x20 ADD PUSH14 0x2AA9A2A92720A6A2AFAA20A5A2A7 PUSH1 0x91 SHL DUP2 MSTORE POP SWAP1 PUSH3 0xA24 JUMPI PUSH1 0x40 MLOAD PUSH3 0x461BCD PUSH1 0xE5 SHL DUP2 MSTORE PUSH1 0x4 ADD PUSH3 0x945 SWAP2 SWAP1 PUSH3 0x163B JUMP JUMPDEST POP CALLER PUSH1 0x0 SWAP1 DUP2 MSTORE PUSH1 0x2 PUSH1 0x20 MSTORE PUSH1 0x40 SWAP1 KECCAK256 DUP1 SLOAD PUSH1 0xFF AND PUSH3 0xAC1 JUMPI PUSH3 0xA7C DUP4 PUSH1 0x40 MLOAD PUSH1 0x20 ADD PUSH3 0xA55 SWAP2 SWAP1 PUSH3 0x1542 JUMP JUMPDEST PUSH1 0x40 MLOAD PUSH1 0x20 DUP2 DUP4 SUB SUB DUP2 MSTORE SWAP1 PUSH1 0x40 MSTORE DUP1 MLOAD SWAP1 PUSH1 0x20 ADD KECCAK256 PUSH1 0x3 PUSH3 0xFA7 SWAP1 SWAP2 SWAP1 PUSH4 0xFFFFFFFF AND JUMP JUMPDEST POP PUSH1 0x14 DUP3 GT PUSH3 0xA8D JUMPI DUP3 PUSH3 0xA9C JUMP JUMPDEST PUSH3 0xA9C DUP4 PUSH1 0x0 PUSH1 0x14 PUSH3 0xFCE JUMP JUMPDEST DUP1 MLOAD PUSH3 0xAB4 SWAP2 PUSH1 0x1 DUP5 ADD SWAP2 PUSH1 0x20 SWAP1 SWAP2 ADD SWAP1 PUSH3 0x11FE JUMP JUMPDEST POP DUP1 SLOAD PUSH1 0xFF NOT AND PUSH1 0x1 OR DUP2 SSTORE JUMPDEST POP POP POP JUMP JUMPDEST PUSH3 0xAD0 PUSH3 0xED5 JUMP JUMPDEST PUSH1 0x1 PUSH1 0x1 PUSH1 0xA0 SHL SUB DUP2 AND PUSH3 0xB37 JUMPI PUSH1 0x40 MLOAD PUSH3 0x461BCD PUSH1 0xE5 SHL DUP2 MSTORE PUSH1 0x20 PUSH1 0x4 DUP3 ADD MSTORE PUSH1 0x26 PUSH1 0x24 DUP3 ADD MSTORE PUSH32 0x4F776E61626C653A206E6577206F776E657220697320746865207A65726F2061 PUSH1 0x44 DUP3 ADD MSTORE PUSH6 0x646472657373 PUSH1 0xD0 SHL PUSH1 0x64 DUP3 ADD MSTORE PUSH1 0x84 ADD PUSH3 0x945 JUMP JUMPDEST PUSH3 0xB42 DUP2 PUSH3 0xF31 JUMP JUMPDEST POP JUMP JUMPDEST PUSH3 0xB4F PUSH3 0xED5 JUMP JUMPDEST PUSH3 0xB7B PUSH1 0x40 MLOAD DUP1 PUSH1 0x40 ADD PUSH1 0x40 MSTORE DUP1 PUSH1 0x9 DUP2 MSTORE PUSH1 0x20 ADD PUSH9 0x151C9A59D9D95C9959 PUSH1 0xBA SHL DUP2 MSTORE POP PUSH3 0x10AD JUMP JUMPDEST PUSH1 0x8 SLOAD PUSH1 0x7 SLOAD PUSH1 0x0 SWAP1 DUP2 MSTORE PUSH1 0x5 PUSH1 0x20 MSTORE PUSH1 0x40 SWAP1 KECCAK256 PUSH1 0x2 ADD SLOAD TIMESTAMP SWAP2 PUSH3 0xBA0 SWAP2 PUSH3 0x16CD JUMP JUMPDEST LT DUP1 ISZERO PUSH3 0xC3A JUMPI POP PUSH1 0x7 SLOAD PUSH1 0x0 SWAP1 DUP2 MSTORE PUSH1 0x5 PUSH1 0x20 SWAP1 DUP2 MSTORE PUSH1 0x40 SWAP2 DUP3 SWAP1 KECCAK256 PUSH1 0x3 ADD SLOAD DUP3 MLOAD PUSH4 0xECB70FB7 PUSH1 0xE0 SHL DUP2 MSTORE SWAP3 MLOAD PUSH1 0x1 PUSH1 0x1 PUSH1 0xA0 SHL SUB SWAP1 SWAP2 AND SWAP3 PUSH4 0xECB70FB7 SWAP3 PUSH1 0x4 DUP1 DUP4 ADD SWAP4 SWAP2 SWAP3 DUP3 SWAP1 SUB ADD DUP2 DUP7 DUP1 EXTCODESIZE ISZERO DUP1 ISZERO PUSH3 0xBFF JUMPI PUSH1 0x0 DUP1 REVERT JUMPDEST POP GAS STATICCALL ISZERO DUP1 ISZERO PUSH3 0xC14 JUMPI RETURNDATASIZE PUSH1 0x0 DUP1 RETURNDATACOPY RETURNDATASIZE PUSH1 0x0 REVERT JUMPDEST POP POP POP POP PUSH1 0x40 MLOAD RETURNDATASIZE PUSH1 0x1F NOT PUSH1 0x1F DUP3 ADD AND DUP3 ADD DUP1 PUSH1 0x40 MSTORE POP DUP2 ADD SWAP1 PUSH3 0xC3A SWAP2 SWAP1 PUSH3 0x1372 JUMP JUMPDEST PUSH1 0x40 MLOAD DUP1 PUSH1 0x40 ADD PUSH1 0x40 MSTORE DUP1 PUSH1 0x12 DUP2 MSTORE PUSH1 0x20 ADD PUSH18 0x544F55524E414D454E545F49535F4C495645 PUSH1 0x70 SHL DUP2 MSTORE POP SWAP1 PUSH3 0xC86 JUMPI PUSH1 0x40 MLOAD PUSH3 0x461BCD PUSH1 0xE5 SHL DUP2 MSTORE PUSH1 0x4 ADD PUSH3 0x945 SWAP2 SWAP1 PUSH3 0x163B JUMP JUMPDEST POP PUSH3 0xCAD PUSH1 0x40 MLOAD DUP1 PUSH1 0x40 ADD PUSH1 0x40 MSTORE DUP1 PUSH1 0x3 DUP2 MSTORE PUSH1 0x20 ADD PUSH3 0xC5CDD PUSH1 0xEA SHL DUP2 MSTORE POP PUSH3 0x10AD JUMP JUMPDEST DUP1 MLOAD PUSH3 0xCBC JUMPI PUSH1 0x1 PUSH3 0xCC4 JUMP JUMPDEST DUP1 PUSH1 0x20 ADD MLOAD CALLVALUE EQ JUMPDEST PUSH1 0x40 MLOAD DUP1 PUSH1 0x40 ADD PUSH1 0x40 MSTORE DUP1 PUSH1 0x19 DUP2 MSTORE PUSH1 0x20 ADD PUSH32 0x4E4F545F454E4F5547485F46554E44535F50524F564944454400000000000000 DUP2 MSTORE POP SWAP1 PUSH3 0xD1B JUMPI PUSH1 0x40 MLOAD PUSH3 0x461BCD PUSH1 0xE5 SHL DUP2 MSTORE PUSH1 0x4 ADD PUSH3 0x945 SWAP2 SWAP1 PUSH3 0x163B JUMP JUMPDEST POP PUSH3 0xD42 PUSH1 0x40 MLOAD DUP1 PUSH1 0x40 ADD PUSH1 0x40 MSTORE DUP1 PUSH1 0x3 DUP2 MSTORE PUSH1 0x20 ADD PUSH3 0xC9B99 PUSH1 0xEA SHL DUP2 MSTORE POP PUSH3 0x10AD JUMP JUMPDEST PUSH1 0x0 PUSH1 0x7 PUSH1 0x0 DUP2 SLOAD PUSH3 0xD55 SWAP1 PUSH3 0x1772 JUMP JUMPDEST SWAP2 SWAP1 POP DUP2 SWAP1 SSTORE DUP4 TIMESTAMP ADDRESS DUP6 PUSH1 0x40 MLOAD PUSH3 0xD6D SWAP1 PUSH3 0x128D JUMP JUMPDEST PUSH3 0xD7D SWAP6 SWAP5 SWAP4 SWAP3 SWAP2 SWAP1 PUSH3 0x1650 JUMP JUMPDEST PUSH1 0x40 MLOAD DUP1 SWAP2 SUB SWAP1 PUSH1 0x0 CREATE DUP1 ISZERO DUP1 ISZERO PUSH3 0xD9A JUMPI RETURNDATASIZE PUSH1 0x0 DUP1 RETURNDATACOPY RETURNDATASIZE PUSH1 0x0 REVERT JUMPDEST POP SWAP1 POP PUSH3 0xDC3 PUSH1 0x40 MLOAD DUP1 PUSH1 0x40 ADD PUSH1 0x40 MSTORE DUP1 PUSH1 0x3 DUP2 MSTORE PUSH1 0x20 ADD PUSH3 0xCDC99 PUSH1 0xEA SHL DUP2 MSTORE POP PUSH3 0x10AD JUMP JUMPDEST PUSH1 0x40 DUP1 MLOAD PUSH1 0xA0 DUP2 ADD DUP3 MSTORE PUSH1 0x7 SLOAD DUP1 DUP3 MSTORE PUSH1 0x20 DUP1 DUP4 ADD DUP8 DUP2 MSTORE TIMESTAMP DUP5 DUP7 ADD MSTORE PUSH1 0x1 PUSH1 0x1 PUSH1 0xA0 SHL SUB DUP7 AND PUSH1 0x60 DUP6 ADD MSTORE PUSH1 0x80 DUP5 ADD DUP8 SWAP1 MSTORE PUSH1 0x0 SWAP3 DUP4 MSTORE PUSH1 0x5 DUP3 MSTORE SWAP4 SWAP1 SWAP2 KECCAK256 DUP3 MLOAD DUP2 SSTORE SWAP3 MLOAD DUP1 MLOAD SWAP3 SWAP4 SWAP3 PUSH3 0xE20 SWAP3 PUSH1 0x1 DUP6 ADD SWAP3 ADD SWAP1 PUSH3 0x11FE JUMP JUMPDEST POP PUSH1 0x40 DUP3 DUP2 ADD MLOAD PUSH1 0x2 DUP4 ADD SSTORE PUSH1 0x60 DUP1 DUP5 ADD MLOAD PUSH1 0x3 DUP5 ADD DUP1 SLOAD PUSH1 0x1 PUSH1 0x1 PUSH1 0xA0 SHL SUB NOT AND PUSH1 0x1 PUSH1 0x1 PUSH1 0xA0 SHL SUB SWAP1 SWAP3 AND SWAP2 SWAP1 SWAP2 OR SWAP1 SSTORE PUSH1 0x80 DUP5 ADD MLOAD DUP1 MLOAD PUSH1 0x4 DUP6 ADD DUP1 SLOAD PUSH1 0xFF NOT AND SWAP2 ISZERO ISZERO SWAP2 SWAP1 SWAP2 OR DUP2 SSTORE PUSH1 0x20 DUP1 DUP4 ADD MLOAD PUSH1 0x5 DUP8 ADD SSTORE SWAP4 DUP3 ADD MLOAD PUSH1 0x6 DUP7 ADD SSTORE SWAP2 DUP2 ADD MLOAD DUP1 MLOAD SWAP2 SWAP4 PUSH3 0xE9D SWAP3 PUSH1 0x7 DUP8 ADD SWAP3 SWAP1 SWAP2 ADD SWAP1 PUSH3 0x11FE JUMP JUMPDEST POP PUSH1 0x80 DUP3 ADD MLOAD DUP2 PUSH1 0x4 ADD SSTORE POP POP SWAP1 POP POP PUSH3 0xAC1 PUSH1 0x40 MLOAD DUP1 PUSH1 0x40 ADD PUSH1 0x40 MSTORE DUP1 PUSH1 0x5 DUP2 MSTORE PUSH1 0x20 ADD PUSH5 0x115B991959 PUSH1 0xDA SHL DUP2 MSTORE POP PUSH3 0x10AD JUMP JUMPDEST PUSH1 0x0 SLOAD PUSH1 0x1 PUSH1 0x1 PUSH1 0xA0 SHL SUB AND CALLER EQ PUSH3 0x476 JUMPI PUSH1 0x40 MLOAD PUSH3 0x461BCD PUSH1 0xE5 SHL DUP2 MSTORE PUSH1 0x20 PUSH1 0x4 DUP3 ADD DUP2 SWAP1 MSTORE PUSH1 0x24 DUP3 ADD MSTORE PUSH32 0x4F776E61626C653A2063616C6C6572206973206E6F7420746865206F776E6572 PUSH1 0x44 DUP3 ADD MSTORE PUSH1 0x64 ADD PUSH3 0x945 JUMP JUMPDEST PUSH1 0x0 DUP1 SLOAD PUSH1 0x1 PUSH1 0x1 PUSH1 0xA0 SHL SUB DUP4 DUP2 AND PUSH1 0x1 PUSH1 0x1 PUSH1 0xA0 SHL SUB NOT DUP4 AND DUP2 OR DUP5 SSTORE PUSH1 0x40 MLOAD SWAP2 SWAP1 SWAP3 AND SWAP3 DUP4 SWAP2 PUSH32 0x8BE0079C531659141344CD1FD0A4F28419497F9722A3DAAFE3B4186F6B6457E0 SWAP2 SWAP1 LOG3 POP POP JUMP JUMPDEST PUSH1 0x0 PUSH3 0xF8C DUP3 SLOAD SWAP1 JUMP JUMPDEST SWAP3 SWAP2 POP POP JUMP JUMPDEST PUSH1 0x0 PUSH3 0xFA0 DUP4 DUP4 PUSH3 0x10F4 JUMP JUMPDEST SWAP4 SWAP3 POP POP POP JUMP JUMPDEST PUSH1 0x0 PUSH3 0xFA0 DUP4 DUP4 PUSH3 0x1121 JUMP JUMPDEST PUSH1 0x0 DUP2 DUP2 MSTORE PUSH1 0x1 DUP4 ADD PUSH1 0x20 MSTORE PUSH1 0x40 DUP2 KECCAK256 SLOAD ISZERO ISZERO PUSH3 0xFA0 JUMP JUMPDEST PUSH1 0x60 DUP4 PUSH1 0x0 PUSH3 0xFDF DUP6 DUP6 PUSH3 0x16E8 JUMP JUMPDEST PUSH8 0xFFFFFFFFFFFFFFFF DUP2 GT ISZERO PUSH3 0xFFA JUMPI PUSH3 0xFFA PUSH3 0x17BC JUMP JUMPDEST PUSH1 0x40 MLOAD SWAP1 DUP1 DUP3 MSTORE DUP1 PUSH1 0x1F ADD PUSH1 0x1F NOT AND PUSH1 0x20 ADD DUP3 ADD PUSH1 0x40 MSTORE DUP1 ISZERO PUSH3 0x1025 JUMPI PUSH1 0x20 DUP3 ADD DUP2 DUP1 CALLDATASIZE DUP4 CALLDATACOPY ADD SWAP1 POP JUMPDEST POP SWAP1 POP DUP5 JUMPDEST DUP5 DUP2 LT ISZERO PUSH3 0x10A3 JUMPI DUP3 DUP2 DUP2 MLOAD DUP2 LT PUSH3 0x1048 JUMPI PUSH3 0x1048 PUSH3 0x17A6 JUMP JUMPDEST ADD PUSH1 0x20 ADD MLOAD PUSH1 0x1 PUSH1 0x1 PUSH1 0xF8 SHL SUB NOT AND DUP3 PUSH3 0x1064 DUP9 DUP5 PUSH3 0x16E8 JUMP JUMPDEST DUP2 MLOAD DUP2 LT PUSH3 0x1077 JUMPI PUSH3 0x1077 PUSH3 0x17A6 JUMP JUMPDEST PUSH1 0x20 ADD ADD SWAP1 PUSH1 0x1 PUSH1 0x1 PUSH1 0xF8 SHL SUB NOT AND SWAP1 DUP2 PUSH1 0x0 BYTE SWAP1 MSTORE8 POP DUP1 PUSH3 0x109A DUP2 PUSH3 0x1772 JUMP JUMPDEST SWAP2 POP POP PUSH3 0x102A JUMP JUMPDEST POP SWAP6 SWAP5 POP POP POP POP POP JUMP JUMPDEST PUSH3 0xB42 DUP2 PUSH1 0x40 MLOAD PUSH1 0x24 ADD PUSH3 0x10C4 SWAP2 SWAP1 PUSH3 0x163B JUMP JUMPDEST PUSH1 0x40 DUP1 MLOAD PUSH1 0x1F NOT DUP2 DUP5 SUB ADD DUP2 MSTORE SWAP2 SWAP1 MSTORE PUSH1 0x20 DUP2 ADD DUP1 MLOAD PUSH1 0x1 PUSH1 0x1 PUSH1 0xE0 SHL SUB AND PUSH4 0x104C13EB PUSH1 0xE2 SHL OR SWAP1 MSTORE PUSH3 0x1173 JUMP JUMPDEST PUSH1 0x0 DUP3 PUSH1 0x0 ADD DUP3 DUP2 SLOAD DUP2 LT PUSH3 0x110E JUMPI PUSH3 0x110E PUSH3 0x17A6 JUMP JUMPDEST SWAP1 PUSH1 0x0 MSTORE PUSH1 0x20 PUSH1 0x0 KECCAK256 ADD SLOAD SWAP1 POP SWAP3 SWAP2 POP POP JUMP JUMPDEST PUSH1 0x0 DUP2 DUP2 MSTORE PUSH1 0x1 DUP4 ADD PUSH1 0x20 MSTORE PUSH1 0x40 DUP2 KECCAK256 SLOAD PUSH3 0x116A JUMPI POP DUP2 SLOAD PUSH1 0x1 DUP2 DUP2 ADD DUP5 SSTORE PUSH1 0x0 DUP5 DUP2 MSTORE PUSH1 0x20 DUP1 DUP3 KECCAK256 SWAP1 SWAP4 ADD DUP5 SWAP1 SSTORE DUP5 SLOAD DUP5 DUP3 MSTORE DUP3 DUP7 ADD SWAP1 SWAP4 MSTORE PUSH1 0x40 SWAP1 KECCAK256 SWAP2 SWAP1 SWAP2 SSTORE PUSH3 0xF8C JUMP JUMPDEST POP PUSH1 0x0 PUSH3 0xF8C JUMP JUMPDEST DUP1 MLOAD PUSH11 0x636F6E736F6C652E6C6F67 PUSH1 0x20 DUP4 ADD PUSH1 0x0 DUP1 DUP5 DUP4 DUP6 GAS STATICCALL POP POP POP POP POP JUMP JUMPDEST PUSH1 0x40 MLOAD DUP1 PUSH1 0xA0 ADD PUSH1 0x40 MSTORE DUP1 PUSH1 0x0 DUP2 MSTORE PUSH1 0x20 ADD PUSH1 0x60 DUP2 MSTORE PUSH1 0x20 ADD PUSH1 0x0 DUP2 MSTORE PUSH1 0x20 ADD PUSH1 0x0 PUSH1 0x1 PUSH1 0x1 PUSH1 0xA0 SHL SUB AND DUP2 MSTORE PUSH1 0x20 ADD PUSH3 0x11F9 PUSH1 0x40 MLOAD DUP1 PUSH1 0xA0 ADD PUSH1 0x40 MSTORE DUP1 PUSH1 0x0 ISZERO ISZERO DUP2 MSTORE PUSH1 0x20 ADD PUSH1 0x0 DUP2 MSTORE PUSH1 0x20 ADD PUSH1 0x0 DUP2 MSTORE PUSH1 0x20 ADD PUSH1 0x60 DUP2 MSTORE PUSH1 0x20 ADD PUSH1 0x0 DUP2 MSTORE POP SWAP1 JUMP JUMPDEST SWAP1 MSTORE SWAP1 JUMP JUMPDEST DUP3 DUP1 SLOAD PUSH3 0x120C SWAP1 PUSH3 0x1735 JUMP JUMPDEST SWAP1 PUSH1 0x0 MSTORE PUSH1 0x20 PUSH1 0x0 KECCAK256 SWAP1 PUSH1 0x1F ADD PUSH1 0x20 SWAP1 DIV DUP2 ADD SWAP3 DUP3 PUSH3 0x1230 JUMPI PUSH1 0x0 DUP6 SSTORE PUSH3 0x127B JUMP JUMPDEST DUP3 PUSH1 0x1F LT PUSH3 0x124B JUMPI DUP1 MLOAD PUSH1 0xFF NOT AND DUP4 DUP1 ADD OR DUP6 SSTORE PUSH3 0x127B JUMP JUMPDEST DUP3 DUP1 ADD PUSH1 0x1 ADD DUP6 SSTORE DUP3 ISZERO PUSH3 0x127B JUMPI SWAP2 DUP3 ADD JUMPDEST DUP3 DUP2 GT ISZERO PUSH3 0x127B JUMPI DUP3 MLOAD DUP3 SSTORE SWAP2 PUSH1 0x20 ADD SWAP2 SWAP1 PUSH1 0x1 ADD SWAP1 PUSH3 0x125E JUMP JUMPDEST POP PUSH3 0x1289 SWAP3 SWAP2 POP PUSH3 0x129B JUMP JUMPDEST POP SWAP1 JUMP JUMPDEST PUSH2 0x209A DUP1 PUSH3 0x17E2 DUP4 CODECOPY ADD SWAP1 JUMP JUMPDEST JUMPDEST DUP1 DUP3 GT ISZERO PUSH3 0x1289 JUMPI PUSH1 0x0 DUP2 SSTORE PUSH1 0x1 ADD PUSH3 0x129C JUMP JUMPDEST PUSH1 0x0 DUP3 PUSH1 0x1F DUP4 ADD SLT PUSH3 0x12C4 JUMPI PUSH1 0x0 DUP1 REVERT JUMPDEST DUP2 CALLDATALOAD PUSH8 0xFFFFFFFFFFFFFFFF DUP1 DUP3 GT ISZERO PUSH3 0x12E2 JUMPI PUSH3 0x12E2 PUSH3 0x17BC JUMP JUMPDEST PUSH1 0x40 MLOAD PUSH1 0x1F DUP4 ADD PUSH1 0x1F NOT SWAP1 DUP2 AND PUSH1 0x3F ADD AND DUP2 ADD SWAP1 DUP3 DUP3 GT DUP2 DUP4 LT OR ISZERO PUSH3 0x130D JUMPI PUSH3 0x130D PUSH3 0x17BC JUMP JUMPDEST DUP2 PUSH1 0x40 MSTORE DUP4 DUP2 MSTORE DUP7 PUSH1 0x20 DUP6 DUP9 ADD ADD GT ISZERO PUSH3 0x1327 JUMPI PUSH1 0x0 DUP1 REVERT JUMPDEST DUP4 PUSH1 0x20 DUP8 ADD PUSH1 0x20 DUP4 ADD CALLDATACOPY PUSH1 0x0 PUSH1 0x20 DUP6 DUP4 ADD ADD MSTORE DUP1 SWAP5 POP POP POP POP POP SWAP3 SWAP2 POP POP JUMP JUMPDEST PUSH1 0x0 PUSH1 0x20 DUP3 DUP5 SUB SLT ISZERO PUSH3 0x135A JUMPI PUSH1 0x0 DUP1 REVERT JUMPDEST DUP2 CALLDATALOAD PUSH1 0x1 PUSH1 0x1 PUSH1 0xA0 SHL SUB DUP2 AND DUP2 EQ PUSH3 0xFA0 JUMPI PUSH1 0x0 DUP1 REVERT JUMPDEST PUSH1 0x0 PUSH1 0x20 DUP3 DUP5 SUB SLT ISZERO PUSH3 0x1385 JUMPI PUSH1 0x0 DUP1 REVERT JUMPDEST DUP2 MLOAD PUSH3 0xFA0 DUP2 PUSH3 0x17D2 JUMP JUMPDEST PUSH1 0x0 DUP1 PUSH1 0x40 DUP4 DUP6 SUB SLT ISZERO PUSH3 0x13A6 JUMPI PUSH1 0x0 DUP1 REVERT JUMPDEST DUP3 CALLDATALOAD PUSH8 0xFFFFFFFFFFFFFFFF DUP1 DUP3 GT ISZERO PUSH3 0x13BF JUMPI PUSH1 0x0 DUP1 REVERT JUMPDEST PUSH3 0x13CD DUP7 DUP4 DUP8 ADD PUSH3 0x12B2 JUMP JUMPDEST SWAP4 POP PUSH1 0x20 DUP6 ADD CALLDATALOAD SWAP2 POP DUP1 DUP3 GT ISZERO PUSH3 0x13E4 JUMPI PUSH1 0x0 DUP1 REVERT JUMPDEST SWAP1 DUP5 ADD SWAP1 PUSH1 0xA0 DUP3 DUP8 SUB SLT ISZERO PUSH3 0x13F9 JUMPI PUSH1 0x0 DUP1 REVERT JUMPDEST PUSH3 0x1403 PUSH3 0x16A1 JUMP JUMPDEST DUP3 CALLDATALOAD PUSH3 0x1410 DUP2 PUSH3 0x17D2 JUMP JUMPDEST DUP1 DUP3 MSTORE POP PUSH1 0x20 DUP4 ADD CALLDATALOAD PUSH1 0x20 DUP3 ADD MSTORE PUSH1 0x40 DUP4 ADD CALLDATALOAD PUSH1 0x40 DUP3 ADD MSTORE PUSH1 0x60 DUP4 ADD CALLDATALOAD DUP3 DUP2 GT ISZERO PUSH3 0x143B JUMPI PUSH1 0x0 DUP1 REVERT JUMPDEST PUSH3 0x1449 DUP9 DUP3 DUP7 ADD PUSH3 0x12B2 JUMP JUMPDEST PUSH1 0x60 DUP4 ADD MSTORE POP PUSH1 0x80 DUP4 ADD CALLDATALOAD PUSH1 0x80 DUP3 ADD MSTORE DUP1 SWAP4 POP POP POP POP SWAP3 POP SWAP3 SWAP1 POP JUMP JUMPDEST PUSH1 0x0 DUP1 PUSH1 0x40 DUP4 DUP6 SUB SLT ISZERO PUSH3 0x147A JUMPI PUSH1 0x0 DUP1 REVERT JUMPDEST DUP3 CALLDATALOAD PUSH8 0xFFFFFFFFFFFFFFFF DUP2 GT ISZERO PUSH3 0x1492 JUMPI PUSH1 0x0 DUP1 REVERT JUMPDEST PUSH3 0x14A0 DUP6 DUP3 DUP7 ADD PUSH3 0x12B2 JUMP JUMPDEST SWAP6 PUSH1 0x20 SWAP5 SWAP1 SWAP5 ADD CALLDATALOAD SWAP5 POP POP POP POP JUMP JUMPDEST PUSH1 0x0 PUSH1 0x20 DUP3 DUP5 SUB SLT ISZERO PUSH3 0x14C2 JUMPI PUSH1 0x0 DUP1 REVERT JUMPDEST POP CALLDATALOAD SWAP2 SWAP1 POP JUMP JUMPDEST PUSH1 0x0 DUP2 MLOAD DUP1 DUP5 MSTORE PUSH3 0x14E3 DUP2 PUSH1 0x20 DUP7 ADD PUSH1 0x20 DUP7 ADD PUSH3 0x1702 JUMP JUMPDEST PUSH1 0x1F ADD PUSH1 0x1F NOT AND SWAP3 SWAP1 SWAP3 ADD PUSH1 0x20 ADD SWAP3 SWAP2 POP POP JUMP JUMPDEST DUP1 MLOAD ISZERO ISZERO DUP3 MSTORE PUSH1 0x20 DUP2 ADD MLOAD PUSH1 0x20 DUP4 ADD MSTORE PUSH1 0x40 DUP2 ADD MLOAD PUSH1 0x40 DUP4 ADD MSTORE PUSH1 0x0 PUSH1 0x60 DUP3 ADD MLOAD PUSH1 0xA0 PUSH1 0x60 DUP6 ADD MSTORE PUSH3 0x152E PUSH1 0xA0 DUP6 ADD DUP3 PUSH3 0x14C9 JUMP JUMPDEST PUSH1 0x80 SWAP4 DUP5 ADD MLOAD SWAP5 SWAP1 SWAP4 ADD SWAP4 SWAP1 SWAP4 MSTORE POP SWAP2 SWAP1 POP JUMP JUMPDEST PUSH1 0x0 DUP3 MLOAD PUSH3 0x1556 DUP2 DUP5 PUSH1 0x20 DUP8 ADD PUSH3 0x1702 JUMP JUMPDEST SWAP2 SWAP1 SWAP2 ADD SWAP3 SWAP2 POP POP JUMP JUMPDEST PUSH1 0x0 PUSH1 0x20 DUP1 DUP4 ADD DUP2 DUP5 MSTORE DUP1 DUP6 MLOAD DUP1 DUP4 MSTORE PUSH1 0x40 SWAP3 POP DUP3 DUP7 ADD SWAP2 POP DUP3 DUP2 PUSH1 0x5 SHL DUP8 ADD ADD DUP5 DUP9 ADD PUSH1 0x0 JUMPDEST DUP4 DUP2 LT ISZERO PUSH3 0x1608 JUMPI PUSH1 0x3F NOT DUP10 DUP5 SUB ADD DUP6 MSTORE DUP2 MLOAD PUSH1 0xA0 DUP2 MLOAD DUP6 MSTORE DUP9 DUP3 ADD MLOAD DUP2 DUP11 DUP8 ADD MSTORE PUSH3 0x15B8 DUP3 DUP8 ADD DUP3 PUSH3 0x14C9 JUMP JUMPDEST DUP4 DUP11 ADD MLOAD DUP8 DUP12 ADD MSTORE PUSH1 0x60 DUP1 DUP6 ADD MLOAD PUSH1 0x1 PUSH1 0x1 PUSH1 0xA0 SHL SUB AND SWAP1 DUP9 ADD MSTORE PUSH1 0x80 SWAP4 DUP5 ADD MLOAD DUP8 DUP3 SUB SWAP5 DUP9 ADD SWAP5 SWAP1 SWAP5 MSTORE SWAP2 POP PUSH3 0x15F3 SWAP1 POP DUP2 DUP4 PUSH3 0x14F7 JUMP JUMPDEST SWAP7 DUP10 ADD SWAP7 SWAP5 POP POP POP SWAP1 DUP7 ADD SWAP1 PUSH1 0x1 ADD PUSH3 0x1587 JUMP JUMPDEST POP SWAP1 SWAP9 SWAP8 POP POP POP POP POP POP POP POP JUMP JUMPDEST DUP3 ISZERO ISZERO DUP2 MSTORE PUSH1 0x40 PUSH1 0x20 DUP3 ADD MSTORE PUSH1 0x0 PUSH3 0x1633 PUSH1 0x40 DUP4 ADD DUP5 PUSH3 0x14C9 JUMP JUMPDEST SWAP5 SWAP4 POP POP POP POP JUMP JUMPDEST PUSH1 0x20 DUP2 MSTORE PUSH1 0x0 PUSH3 0xFA0 PUSH1 0x20 DUP4 ADD DUP5 PUSH3 0x14C9 JUMP JUMPDEST DUP6 DUP2 MSTORE PUSH1 0xA0 PUSH1 0x20 DUP3 ADD MSTORE PUSH1 0x0 PUSH3 0x166B PUSH1 0xA0 DUP4 ADD DUP8 PUSH3 0x14C9 JUMP JUMPDEST PUSH1 0x40 DUP4 ADD DUP7 SWAP1 MSTORE PUSH1 0x1 PUSH1 0x1 PUSH1 0xA0 SHL SUB DUP6 AND PUSH1 0x60 DUP5 ADD MSTORE DUP3 DUP2 SUB PUSH1 0x80 DUP5 ADD MSTORE PUSH3 0x1695 DUP2 DUP6 PUSH3 0x14F7 JUMP JUMPDEST SWAP9 SWAP8 POP POP POP POP POP POP POP POP JUMP JUMPDEST PUSH1 0x40 MLOAD PUSH1 0xA0 DUP2 ADD PUSH8 0xFFFFFFFFFFFFFFFF DUP2 GT DUP3 DUP3 LT OR ISZERO PUSH3 0x16C7 JUMPI PUSH3 0x16C7 PUSH3 0x17BC JUMP JUMPDEST PUSH1 0x40 MSTORE SWAP1 JUMP JUMPDEST PUSH1 0x0 DUP3 NOT DUP3 GT ISZERO PUSH3 0x16E3 JUMPI PUSH3 0x16E3 PUSH3 0x1790 JUMP JUMPDEST POP ADD SWAP1 JUMP JUMPDEST PUSH1 0x0 DUP3 DUP3 LT ISZERO PUSH3 0x16FD JUMPI PUSH3 0x16FD PUSH3 0x1790 JUMP JUMPDEST POP SUB SWAP1 JUMP JUMPDEST PUSH1 0x0 JUMPDEST DUP4 DUP2 LT ISZERO PUSH3 0x171F JUMPI DUP2 DUP2 ADD MLOAD DUP4 DUP3 ADD MSTORE PUSH1 0x20 ADD PUSH3 0x1705 JUMP JUMPDEST DUP4 DUP2 GT ISZERO PUSH3 0x172F JUMPI PUSH1 0x0 DUP5 DUP5 ADD MSTORE JUMPDEST POP POP POP POP JUMP JUMPDEST PUSH1 0x1 DUP2 DUP2 SHR SWAP1 DUP3 AND DUP1 PUSH3 0x174A JUMPI PUSH1 0x7F DUP3 AND SWAP2 POP JUMPDEST PUSH1 0x20 DUP3 LT DUP2 EQ ISZERO PUSH3 0x176C JUMPI PUSH4 0x4E487B71 PUSH1 0xE0 SHL PUSH1 0x0 MSTORE PUSH1 0x22 PUSH1 0x4 MSTORE PUSH1 0x24 PUSH1 0x0 REVERT JUMPDEST POP SWAP2 SWAP1 POP JUMP JUMPDEST PUSH1 0x0 PUSH1 0x0 NOT DUP3 EQ ISZERO PUSH3 0x1789 JUMPI PUSH3 0x1789 PUSH3 0x1790 JUMP JUMPDEST POP PUSH1 0x1 ADD SWAP1 JUMP JUMPDEST PUSH4 0x4E487B71 PUSH1 0xE0 SHL PUSH1 0x0 MSTORE PUSH1 0x11 PUSH1 0x4 MSTORE PUSH1 0x24 PUSH1 0x0 REVERT JUMPDEST PUSH4 0x4E487B71 PUSH1 0xE0 SHL PUSH1 0x0 MSTORE PUSH1 0x32 PUSH1 0x4 MSTORE PUSH1 0x24 PUSH1 0x0 REVERT JUMPDEST PUSH4 0x4E487B71 PUSH1 0xE0 SHL PUSH1 0x0 MSTORE PUSH1 0x41 PUSH1 0x4 MSTORE PUSH1 0x24 PUSH1 0x0 REVERT JUMPDEST DUP1 ISZERO ISZERO DUP2 EQ PUSH3 0xB42 JUMPI PUSH1 0x0 DUP1 REVERT INVALID PUSH1 0x80 PUSH1 0x40 MSTORE CALLVALUE DUP1 ISZERO PUSH3 0x11 JUMPI PUSH1 0x0 DUP1 REVERT JUMPDEST POP PUSH1 0x40 MLOAD PUSH3 0x209A CODESIZE SUB DUP1 PUSH3 0x209A DUP4 CODECOPY DUP2 ADD PUSH1 0x40 DUP2 SWAP1 MSTORE PUSH3 0x34 SWAP2 PUSH3 0x3FE JUMP JUMPDEST PUSH1 0x1 PUSH1 0x0 DUP2 SWAP1 SSTORE DUP6 SWAP1 SSTORE DUP4 MLOAD PUSH3 0x53 SWAP1 PUSH1 0x2 SWAP1 PUSH1 0x20 DUP8 ADD SWAP1 PUSH3 0x267 JUMP JUMPDEST POP PUSH1 0x3 DUP4 SWAP1 SSTORE PUSH1 0x6 DUP1 SLOAD PUSH1 0x1 PUSH1 0x1 PUSH1 0xA0 SHL SUB NOT AND PUSH1 0x1 PUSH1 0x1 PUSH1 0xA0 SHL SUB DUP5 AND SWAP1 DUP2 OR SWAP1 SWAP2 SSTORE PUSH1 0x40 DUP1 MLOAD PUSH4 0xC08D1FE5 PUSH1 0xE0 SHL DUP2 MSTORE SWAP1 MLOAD PUSH4 0xC08D1FE5 SWAP2 PUSH1 0x4 DUP1 DUP3 ADD SWAP3 PUSH1 0x20 SWAP3 SWAP1 SWAP2 SWAP1 DUP3 SWAP1 SUB ADD DUP2 DUP7 DUP1 EXTCODESIZE ISZERO DUP1 ISZERO PUSH3 0xAE JUMPI PUSH1 0x0 DUP1 REVERT JUMPDEST POP GAS STATICCALL ISZERO DUP1 ISZERO PUSH3 0xC3 JUMPI RETURNDATASIZE PUSH1 0x0 DUP1 RETURNDATACOPY RETURNDATASIZE PUSH1 0x0 REVERT JUMPDEST POP POP POP POP PUSH1 0x40 MLOAD RETURNDATASIZE PUSH1 0x1F NOT PUSH1 0x1F DUP3 ADD AND DUP3 ADD DUP1 PUSH1 0x40 MSTORE POP DUP2 ADD SWAP1 PUSH3 0xE9 SWAP2 SWAP1 PUSH3 0x3E4 JUMP JUMPDEST PUSH1 0x4 SWAP1 DUP2 SSTORE PUSH1 0x6 SLOAD PUSH1 0x40 DUP1 MLOAD PUSH4 0x4959D977 PUSH1 0xE0 SHL DUP2 MSTORE SWAP1 MLOAD PUSH1 0x1 PUSH1 0x1 PUSH1 0xA0 SHL SUB SWAP1 SWAP3 AND SWAP3 PUSH4 0x4959D977 SWAP3 DUP3 DUP3 ADD SWAP3 PUSH1 0x20 SWAP3 SWAP1 DUP3 SWAP1 SUB ADD DUP2 DUP7 DUP1 EXTCODESIZE ISZERO DUP1 ISZERO PUSH3 0x130 JUMPI PUSH1 0x0 DUP1 REVERT JUMPDEST POP GAS STATICCALL ISZERO DUP1 ISZERO PUSH3 0x145 JUMPI RETURNDATASIZE PUSH1 0x0 DUP1 RETURNDATACOPY RETURNDATASIZE PUSH1 0x0 REVERT JUMPDEST POP POP POP POP PUSH1 0x40 MLOAD RETURNDATASIZE PUSH1 0x1F NOT PUSH1 0x1F DUP3 ADD AND DUP3 ADD DUP1 PUSH1 0x40 MSTORE POP DUP2 ADD SWAP1 PUSH3 0x16B SWAP2 SWAP1 PUSH3 0x3E4 JUMP JUMPDEST PUSH1 0x5 SSTORE PUSH1 0x6 SLOAD PUSH1 0x40 DUP1 MLOAD PUSH4 0x1127A41D PUSH1 0xE3 SHL DUP2 MSTORE SWAP1 MLOAD PUSH1 0x1 PUSH1 0x1 PUSH1 0xA0 SHL SUB SWAP1 SWAP3 AND SWAP2 PUSH4 0x893D20E8 SWAP2 PUSH1 0x4 DUP1 DUP3 ADD SWAP3 PUSH1 0x20 SWAP3 SWAP1 SWAP2 SWAP1 DUP3 SWAP1 SUB ADD DUP2 DUP7 DUP1 EXTCODESIZE ISZERO DUP1 ISZERO PUSH3 0x1B4 JUMPI PUSH1 0x0 DUP1 REVERT JUMPDEST POP GAS STATICCALL ISZERO DUP1 ISZERO PUSH3 0x1C9 JUMPI RETURNDATASIZE PUSH1 0x0 DUP1 RETURNDATACOPY RETURNDATASIZE PUSH1 0x0 REVERT JUMPDEST POP POP POP POP PUSH1 0x40 MLOAD RETURNDATASIZE PUSH1 0x1F NOT PUSH1 0x1F DUP3 ADD AND DUP3 ADD DUP1 PUSH1 0x40 MSTORE POP DUP2 ADD SWAP1 PUSH3 0x1EF SWAP2 SWAP1 PUSH3 0x3BF JUMP JUMPDEST PUSH1 0x7 DUP1 SLOAD PUSH1 0x1 PUSH1 0x1 PUSH1 0xA0 SHL SUB NOT AND PUSH1 0x1 PUSH1 0x1 PUSH1 0xA0 SHL SUB SWAP3 SWAP1 SWAP3 AND SWAP2 SWAP1 SWAP2 OR SWAP1 SSTORE DUP1 MLOAD PUSH1 0x8 DUP1 SLOAD PUSH1 0xFF NOT AND SWAP2 ISZERO ISZERO SWAP2 SWAP1 SWAP2 OR DUP2 SSTORE PUSH1 0x20 DUP1 DUP4 ADD MLOAD PUSH1 0x9 SSTORE PUSH1 0x40 DUP4 ADD MLOAD PUSH1 0xA SSTORE PUSH1 0x60 DUP4 ADD MLOAD DUP1 MLOAD DUP5 SWAP4 SWAP3 PUSH3 0x24E SWAP3 PUSH1 0xB SWAP3 SWAP2 ADD SWAP1 PUSH3 0x267 JUMP JUMPDEST POP PUSH1 0x80 DUP3 ADD MLOAD DUP2 PUSH1 0x4 ADD SSTORE SWAP1 POP POP POP POP POP POP POP PUSH3 0x5AD JUMP JUMPDEST DUP3 DUP1 SLOAD PUSH3 0x275 SWAP1 PUSH3 0x55A JUMP JUMPDEST SWAP1 PUSH1 0x0 MSTORE PUSH1 0x20 PUSH1 0x0 KECCAK256 SWAP1 PUSH1 0x1F ADD PUSH1 0x20 SWAP1 DIV DUP2 ADD SWAP3 DUP3 PUSH3 0x299 JUMPI PUSH1 0x0 DUP6 SSTORE PUSH3 0x2E4 JUMP JUMPDEST DUP3 PUSH1 0x1F LT PUSH3 0x2B4 JUMPI DUP1 MLOAD PUSH1 0xFF NOT AND DUP4 DUP1 ADD OR DUP6 SSTORE PUSH3 0x2E4 JUMP JUMPDEST DUP3 DUP1 ADD PUSH1 0x1 ADD DUP6 SSTORE DUP3 ISZERO PUSH3 0x2E4 JUMPI SWAP2 DUP3 ADD JUMPDEST DUP3 DUP2 GT ISZERO PUSH3 0x2E4 JUMPI DUP3 MLOAD DUP3 SSTORE SWAP2 PUSH1 0x20 ADD SWAP2 SWAP1 PUSH1 0x1 ADD SWAP1 PUSH3 0x2C7 JUMP JUMPDEST POP PUSH3 0x2F2 SWAP3 SWAP2 POP PUSH3 0x2F6 JUMP JUMPDEST POP SWAP1 JUMP JUMPDEST JUMPDEST DUP1 DUP3 GT ISZERO PUSH3 0x2F2 JUMPI PUSH1 0x0 DUP2 SSTORE PUSH1 0x1 ADD PUSH3 0x2F7 JUMP JUMPDEST DUP1 MLOAD PUSH1 0x1 PUSH1 0x1 PUSH1 0xA0 SHL SUB DUP2 AND DUP2 EQ PUSH3 0x325 JUMPI PUSH1 0x0 DUP1 REVERT JUMPDEST SWAP2 SWAP1 POP JUMP JUMPDEST PUSH1 0x0 DUP3 PUSH1 0x1F DUP4 ADD SLT PUSH3 0x33C JUMPI PUSH1 0x0 DUP1 REVERT JUMPDEST DUP2 MLOAD PUSH1 0x1 PUSH1 0x1 PUSH1 0x40 SHL SUB DUP2 GT ISZERO PUSH3 0x358 JUMPI PUSH3 0x358 PUSH3 0x597 JUMP JUMPDEST PUSH1 0x20 PUSH3 0x36E PUSH1 0x1F DUP4 ADD PUSH1 0x1F NOT AND DUP3 ADD PUSH3 0x527 JUMP JUMPDEST DUP3 DUP2 MSTORE DUP6 DUP3 DUP5 DUP8 ADD ADD GT ISZERO PUSH3 0x383 JUMPI PUSH1 0x0 DUP1 REVERT JUMPDEST PUSH1 0x0 JUMPDEST DUP4 DUP2 LT ISZERO PUSH3 0x3A3 JUMPI DUP6 DUP2 ADD DUP4 ADD MLOAD DUP3 DUP3 ADD DUP5 ADD MSTORE DUP3 ADD PUSH3 0x386 JUMP JUMPDEST DUP4 DUP2 GT ISZERO PUSH3 0x3B5 JUMPI PUSH1 0x0 DUP4 DUP6 DUP5 ADD ADD MSTORE JUMPDEST POP SWAP6 SWAP5 POP POP POP POP POP JUMP JUMPDEST PUSH1 0x0 PUSH1 0x20 DUP3 DUP5 SUB SLT ISZERO PUSH3 0x3D2 JUMPI PUSH1 0x0 DUP1 REVERT JUMPDEST PUSH3 0x3DD DUP3 PUSH3 0x30D JUMP JUMPDEST SWAP4 SWAP3 POP POP POP JUMP JUMPDEST PUSH1 0x0 PUSH1 0x20 DUP3 DUP5 SUB SLT ISZERO PUSH3 0x3F7 JUMPI PUSH1 0x0 DUP1 REVERT JUMPDEST POP MLOAD SWAP2 SWAP1 POP JUMP JUMPDEST PUSH1 0x0 DUP1 PUSH1 0x0 DUP1 PUSH1 0x0 PUSH1 0xA0 DUP7 DUP9 SUB SLT ISZERO PUSH3 0x417 JUMPI PUSH1 0x0 DUP1 REVERT JUMPDEST DUP6 MLOAD PUSH1 0x20 DUP8 ADD MLOAD SWAP1 SWAP6 POP PUSH1 0x1 PUSH1 0x1 PUSH1 0x40 SHL SUB DUP1 DUP3 GT ISZERO PUSH3 0x437 JUMPI PUSH1 0x0 DUP1 REVERT JUMPDEST PUSH3 0x445 DUP10 DUP4 DUP11 ADD PUSH3 0x32A JUMP JUMPDEST SWAP6 POP PUSH1 0x40 DUP9 ADD MLOAD SWAP5 POP PUSH3 0x45C PUSH1 0x60 DUP10 ADD PUSH3 0x30D JUMP JUMPDEST SWAP4 POP PUSH1 0x80 DUP9 ADD MLOAD SWAP2 POP DUP1 DUP3 GT ISZERO PUSH3 0x473 JUMPI PUSH1 0x0 DUP1 REVERT JUMPDEST SWAP1 DUP8 ADD SWAP1 PUSH1 0xA0 DUP3 DUP11 SUB SLT ISZERO PUSH3 0x488 JUMPI PUSH1 0x0 DUP1 REVERT JUMPDEST PUSH3 0x492 PUSH3 0x4FC JUMP JUMPDEST DUP3 MLOAD DUP1 ISZERO ISZERO DUP2 EQ PUSH3 0x4A3 JUMPI PUSH1 0x0 DUP1 REVERT JUMPDEST DUP1 DUP3 MSTORE POP PUSH1 0x20 DUP4 ADD MLOAD PUSH1 0x20 DUP3 ADD MSTORE PUSH1 0x40 DUP4 ADD MLOAD PUSH1 0x40 DUP3 ADD MSTORE PUSH1 0x60 DUP4 ADD MLOAD DUP3 DUP2 GT ISZERO PUSH3 0x4CE JUMPI PUSH1 0x0 DUP1 REVERT JUMPDEST PUSH3 0x4DC DUP12 DUP3 DUP7 ADD PUSH3 0x32A JUMP JUMPDEST PUSH1 0x60 DUP4 ADD MSTORE POP PUSH1 0x80 DUP4 ADD MLOAD PUSH1 0x80 DUP3 ADD MSTORE DUP1 SWAP4 POP POP POP POP SWAP3 SWAP6 POP SWAP3 SWAP6 SWAP1 SWAP4 POP JUMP JUMPDEST PUSH1 0x40 MLOAD PUSH1 0xA0 DUP2 ADD PUSH1 0x1 PUSH1 0x1 PUSH1 0x40 SHL SUB DUP2 GT DUP3 DUP3 LT OR ISZERO PUSH3 0x521 JUMPI PUSH3 0x521 PUSH3 0x597 JUMP JUMPDEST PUSH1 0x40 MSTORE SWAP1 JUMP JUMPDEST PUSH1 0x40 MLOAD PUSH1 0x1F DUP3 ADD PUSH1 0x1F NOT AND DUP2 ADD PUSH1 0x1 PUSH1 0x1 PUSH1 0x40 SHL SUB DUP2 GT DUP3 DUP3 LT OR ISZERO PUSH3 0x552 JUMPI PUSH3 0x552 PUSH3 0x597 JUMP JUMPDEST PUSH1 0x40 MSTORE SWAP2 SWAP1 POP JUMP JUMPDEST PUSH1 0x1 DUP2 DUP2 SHR SWAP1 DUP3 AND DUP1 PUSH3 0x56F JUMPI PUSH1 0x7F DUP3 AND SWAP2 POP JUMPDEST PUSH1 0x20 DUP3 LT DUP2 EQ ISZERO PUSH3 0x591 JUMPI PUSH4 0x4E487B71 PUSH1 0xE0 SHL PUSH1 0x0 MSTORE PUSH1 0x22 PUSH1 0x4 MSTORE PUSH1 0x24 PUSH1 0x0 REVERT JUMPDEST POP SWAP2 SWAP1 POP JUMP JUMPDEST PUSH4 0x4E487B71 PUSH1 0xE0 SHL PUSH1 0x0 MSTORE PUSH1 0x41 PUSH1 0x4 MSTORE PUSH1 0x24 PUSH1 0x0 REVERT JUMPDEST PUSH2 0x1ADD DUP1 PUSH3 0x5BD PUSH1 0x0 CODECOPY PUSH1 0x0 RETURN INVALID PUSH1 0x80 PUSH1 0x40 MSTORE PUSH1 0x4 CALLDATASIZE LT PUSH2 0xF3 JUMPI PUSH1 0x0 CALLDATALOAD PUSH1 0xE0 SHR DUP1 PUSH4 0x7CE11861 GT PUSH2 0x8A JUMPI DUP1 PUSH4 0xC08D1FE5 GT PUSH2 0x59 JUMPI DUP1 PUSH4 0xC08D1FE5 EQ PUSH2 0x2AB JUMPI DUP1 PUSH4 0xC29D72BC EQ PUSH2 0x2C1 JUMPI DUP1 PUSH4 0xECB70FB7 EQ PUSH2 0x2E3 JUMPI DUP1 PUSH4 0xFBD53482 EQ PUSH2 0x314 JUMPI PUSH1 0x0 DUP1 REVERT JUMPDEST DUP1 PUSH4 0x7CE11861 EQ PUSH2 0x205 JUMPI DUP1 PUSH4 0x858DBF7D EQ PUSH2 0x20D JUMPI DUP1 PUSH4 0xAB632D4A EQ PUSH2 0x233 JUMPI DUP1 PUSH4 0xAF640D0F EQ PUSH2 0x295 JUMPI PUSH1 0x0 DUP1 REVERT JUMPDEST DUP1 PUSH4 0x4D633A8F GT PUSH2 0xC6 JUMPI DUP1 PUSH4 0x4D633A8F EQ PUSH2 0x196 JUMPI DUP1 PUSH4 0x63DF0EF7 EQ PUSH2 0x1AB JUMPI DUP1 PUSH4 0x699C8F33 EQ PUSH2 0x1CB JUMPI DUP1 PUSH4 0x78E97925 EQ PUSH2 0x1EF JUMPI PUSH1 0x0 DUP1 REVERT JUMPDEST DUP1 PUSH4 0x6FDDE03 EQ PUSH2 0xF8 JUMPI DUP1 PUSH4 0x45446D71 EQ PUSH2 0x123 JUMPI DUP1 PUSH4 0x48D37A58 EQ PUSH2 0x15B JUMPI DUP1 PUSH4 0x4959D977 EQ PUSH2 0x172 JUMPI JUMPDEST PUSH1 0x0 DUP1 REVERT JUMPDEST CALLVALUE DUP1 ISZERO PUSH2 0x104 JUMPI PUSH1 0x0 DUP1 REVERT JUMPDEST POP PUSH2 0x10D PUSH2 0x334 JUMP JUMPDEST PUSH1 0x40 MLOAD PUSH2 0x11A SWAP2 SWAP1 PUSH2 0x1817 JUMP JUMPDEST PUSH1 0x40 MLOAD DUP1 SWAP2 SUB SWAP1 RETURN JUMPDEST CALLVALUE DUP1 ISZERO PUSH2 0x12F JUMPI PUSH1 0x0 DUP1 REVERT JUMPDEST POP PUSH1 0x7 SLOAD PUSH2 0x143 SWAP1 PUSH1 0x1 PUSH1 0x1 PUSH1 0xA0 SHL SUB AND DUP2 JUMP JUMPDEST PUSH1 0x40 MLOAD PUSH1 0x1 PUSH1 0x1 PUSH1 0xA0 SHL SUB SWAP1 SWAP2 AND DUP2 MSTORE PUSH1 0x20 ADD PUSH2 0x11A JUMP JUMPDEST CALLVALUE DUP1 ISZERO PUSH2 0x167 JUMPI PUSH1 0x0 DUP1 REVERT JUMPDEST POP PUSH2 0x170 PUSH2 0x3C2 JUMP JUMPDEST STOP JUMPDEST CALLVALUE DUP1 ISZERO PUSH2 0x17E JUMPI PUSH1 0x0 DUP1 REVERT JUMPDEST POP PUSH2 0x188 PUSH1 0x5 SLOAD DUP2 JUMP JUMPDEST PUSH1 0x40 MLOAD SWAP1 DUP2 MSTORE PUSH1 0x20 ADD PUSH2 0x11A JUMP JUMPDEST CALLVALUE DUP1 ISZERO PUSH2 0x1A2 JUMPI PUSH1 0x0 DUP1 REVERT JUMPDEST POP PUSH2 0x170 PUSH2 0x475 JUMP JUMPDEST CALLVALUE DUP1 ISZERO PUSH2 0x1B7 JUMPI PUSH1 0x0 DUP1 REVERT JUMPDEST POP PUSH1 0x6 SLOAD PUSH2 0x143 SWAP1 PUSH1 0x1 PUSH1 0x1 PUSH1 0xA0 SHL SUB AND DUP2 JUMP JUMPDEST CALLVALUE DUP1 ISZERO PUSH2 0x1D7 JUMPI PUSH1 0x0 DUP1 REVERT JUMPDEST POP PUSH2 0x1E0 PUSH2 0x651 JUMP JUMPDEST PUSH1 0x40 MLOAD PUSH2 0x11A SWAP4 SWAP3 SWAP2 SWAP1 PUSH2 0x182A JUMP JUMPDEST CALLVALUE DUP1 ISZERO PUSH2 0x1FB JUMPI PUSH1 0x0 DUP1 REVERT JUMPDEST POP PUSH2 0x188 PUSH1 0x3 SLOAD DUP2 JUMP JUMPDEST PUSH2 0x170 PUSH2 0x8E6 JUMP JUMPDEST CALLVALUE DUP1 ISZERO PUSH2 0x219 JUMPI PUSH1 0x0 DUP1 REVERT JUMPDEST POP PUSH2 0x222 PUSH2 0xADB JUMP JUMPDEST PUSH1 0x40 MLOAD PUSH2 0x11A SWAP6 SWAP5 SWAP4 SWAP3 SWAP2 SWAP1 PUSH2 0x17DE JUMP JUMPDEST CALLVALUE DUP1 ISZERO PUSH2 0x23F JUMPI PUSH1 0x0 DUP1 REVERT JUMPDEST POP PUSH2 0x275 PUSH2 0x24E CALLDATASIZE PUSH1 0x4 PUSH2 0x15F6 JUMP JUMPDEST PUSH1 0xF PUSH1 0x20 MSTORE PUSH1 0x0 SWAP1 DUP2 MSTORE PUSH1 0x40 SWAP1 KECCAK256 DUP1 SLOAD PUSH1 0x1 DUP3 ADD SLOAD PUSH1 0x2 DUP4 ADD SLOAD PUSH1 0x3 SWAP1 SWAP4 ADD SLOAD SWAP2 SWAP3 SWAP1 SWAP2 DUP5 JUMP JUMPDEST PUSH1 0x40 DUP1 MLOAD SWAP5 DUP6 MSTORE PUSH1 0x20 DUP6 ADD SWAP4 SWAP1 SWAP4 MSTORE SWAP2 DUP4 ADD MSTORE PUSH1 0x60 DUP3 ADD MSTORE PUSH1 0x80 ADD PUSH2 0x11A JUMP JUMPDEST CALLVALUE DUP1 ISZERO PUSH2 0x2A1 JUMPI PUSH1 0x0 DUP1 REVERT JUMPDEST POP PUSH2 0x188 PUSH1 0x1 SLOAD DUP2 JUMP JUMPDEST CALLVALUE DUP1 ISZERO PUSH2 0x2B7 JUMPI PUSH1 0x0 DUP1 REVERT JUMPDEST POP PUSH2 0x188 PUSH1 0x4 SLOAD DUP2 JUMP JUMPDEST CALLVALUE DUP1 ISZERO PUSH2 0x2CD JUMPI PUSH1 0x0 DUP1 REVERT JUMPDEST POP PUSH2 0x2D6 PUSH2 0xB86 JUMP JUMPDEST PUSH1 0x40 MLOAD PUSH2 0x11A SWAP2 SWAP1 PUSH2 0x1748 JUMP JUMPDEST CALLVALUE DUP1 ISZERO PUSH2 0x2EF JUMPI PUSH1 0x0 DUP1 REVERT JUMPDEST POP PUSH1 0x7 SLOAD PUSH2 0x304 SWAP1 PUSH1 0x1 PUSH1 0xA0 SHL SWAP1 DIV PUSH1 0xFF AND DUP2 JUMP JUMPDEST PUSH1 0x40 MLOAD SWAP1 ISZERO ISZERO DUP2 MSTORE PUSH1 0x20 ADD PUSH2 0x11A JUMP JUMPDEST CALLVALUE DUP1 ISZERO PUSH2 0x320 JUMPI PUSH1 0x0 DUP1 REVERT JUMPDEST POP PUSH2 0x170 PUSH2 0x32F CALLDATASIZE PUSH1 0x4 PUSH2 0x1611 JUMP JUMPDEST PUSH2 0xE53 JUMP JUMPDEST PUSH1 0x2 DUP1 SLOAD PUSH2 0x341 SWAP1 PUSH2 0x19E4 JUMP JUMPDEST DUP1 PUSH1 0x1F ADD PUSH1 0x20 DUP1 SWAP2 DIV MUL PUSH1 0x20 ADD PUSH1 0x40 MLOAD SWAP1 DUP2 ADD PUSH1 0x40 MSTORE DUP1 SWAP3 SWAP2 SWAP1 DUP2 DUP2 MSTORE PUSH1 0x20 ADD DUP3 DUP1 SLOAD PUSH2 0x36D SWAP1 PUSH2 0x19E4 JUMP JUMPDEST DUP1 ISZERO PUSH2 0x3BA JUMPI DUP1 PUSH1 0x1F LT PUSH2 0x38F JUMPI PUSH2 0x100 DUP1 DUP4 SLOAD DIV MUL DUP4 MSTORE SWAP2 PUSH1 0x20 ADD SWAP2 PUSH2 0x3BA JUMP JUMPDEST DUP3 ADD SWAP2 SWAP1 PUSH1 0x0 MSTORE PUSH1 0x20 PUSH1 0x0 KECCAK256 SWAP1 JUMPDEST DUP2 SLOAD DUP2 MSTORE SWAP1 PUSH1 0x1 ADD SWAP1 PUSH1 0x20 ADD DUP1 DUP4 GT PUSH2 0x39D JUMPI DUP3 SWAP1 SUB PUSH1 0x1F AND DUP3 ADD SWAP2 JUMPDEST POP POP POP POP POP DUP2 JUMP JUMPDEST TIMESTAMP PUSH1 0x4 SLOAD PUSH1 0x3 SLOAD PUSH2 0x3D3 SWAP2 SWAP1 PUSH2 0x18C7 JUMP JUMPDEST LT PUSH1 0x40 MLOAD DUP1 PUSH1 0x40 ADD PUSH1 0x40 MSTORE DUP1 PUSH1 0x12 DUP2 MSTORE PUSH1 0x20 ADD PUSH18 0x544F55524E414D454E545F49535F4C495645 PUSH1 0x70 SHL DUP2 MSTORE POP SWAP1 PUSH2 0x426 JUMPI PUSH1 0x40 MLOAD PUSH3 0x461BCD PUSH1 0xE5 SHL DUP2 MSTORE PUSH1 0x4 ADD PUSH2 0x41D SWAP2 SWAP1 PUSH2 0x1817 JUMP JUMPDEST PUSH1 0x40 MLOAD DUP1 SWAP2 SUB SWAP1 REVERT JUMPDEST POP CALLER PUSH1 0x0 SWAP1 DUP2 MSTORE PUSH1 0xF PUSH1 0x20 MSTORE PUSH1 0x40 SWAP1 KECCAK256 PUSH1 0x3 DUP2 ADD SLOAD ISZERO PUSH2 0x472 JUMPI PUSH1 0x0 PUSH1 0x3 DUP3 ADD DUP2 SWAP1 SSTORE PUSH1 0x40 MLOAD CALLER SWAP2 PUSH2 0x8FC SWAP2 DUP2 DUP2 DUP2 DUP2 DUP2 DUP9 DUP9 CALL SWAP4 POP POP POP POP ISZERO DUP1 ISZERO PUSH2 0x470 JUMPI RETURNDATASIZE PUSH1 0x0 DUP1 RETURNDATACOPY RETURNDATASIZE PUSH1 0x0 REVERT JUMPDEST POP JUMPDEST POP JUMP JUMPDEST PUSH1 0x7 SLOAD PUSH1 0x40 DUP1 MLOAD DUP1 DUP3 ADD SWAP1 SWAP2 MSTORE PUSH1 0x15 DUP2 MSTORE PUSH21 0x10D05313115497D393D517D055551213D492569151 PUSH1 0x5A SHL PUSH1 0x20 DUP3 ADD MSTORE SWAP1 PUSH1 0x1 PUSH1 0x1 PUSH1 0xA0 SHL SUB AND CALLER EQ PUSH2 0x4CD JUMPI PUSH1 0x40 MLOAD PUSH3 0x461BCD PUSH1 0xE5 SHL DUP2 MSTORE PUSH1 0x4 ADD PUSH2 0x41D SWAP2 SWAP1 PUSH2 0x1817 JUMP JUMPDEST POP TIMESTAMP PUSH1 0x4 SLOAD PUSH1 0x3 SLOAD PUSH2 0x4DF SWAP2 SWAP1 PUSH2 0x18C7 JUMP JUMPDEST LT PUSH1 0x40 MLOAD DUP1 PUSH1 0x40 ADD PUSH1 0x40 MSTORE DUP1 PUSH1 0x12 DUP2 MSTORE PUSH1 0x20 ADD PUSH18 0x544F55524E414D454E545F49535F4C495645 PUSH1 0x70 SHL DUP2 MSTORE POP SWAP1 PUSH2 0x529 JUMPI PUSH1 0x40 MLOAD PUSH3 0x461BCD PUSH1 0xE5 SHL DUP2 MSTORE PUSH1 0x4 ADD PUSH2 0x41D SWAP2 SWAP1 PUSH2 0x1817 JUMP JUMPDEST POP PUSH1 0x7 DUP1 SLOAD PUSH1 0xFF PUSH1 0xA0 SHL NOT AND PUSH1 0x1 PUSH1 0xA0 SHL OR SWAP1 SSTORE PUSH1 0x0 PUSH2 0x547 PUSH2 0xB86 JUMP JUMPDEST SWAP1 POP PUSH1 0x0 JUMPDEST PUSH2 0x556 PUSH1 0xD PUSH2 0xFFB JUMP JUMPDEST DUP2 LT ISZERO PUSH2 0x470 JUMPI PUSH1 0x40 MLOAD DUP1 PUSH1 0x80 ADD PUSH1 0x40 MSTORE DUP1 DUP3 PUSH1 0x1 PUSH2 0x575 SWAP2 SWAP1 PUSH2 0x18C7 JUMP JUMPDEST DUP2 MSTORE PUSH1 0x20 ADD DUP4 DUP4 DUP2 MLOAD DUP2 LT PUSH2 0x58C JUMPI PUSH2 0x58C PUSH2 0x1A7B JUMP JUMPDEST PUSH1 0x20 MUL PUSH1 0x20 ADD ADD MLOAD PUSH1 0x40 ADD MLOAD DUP2 MSTORE PUSH1 0x20 ADD DUP4 DUP4 DUP2 MLOAD DUP2 LT PUSH2 0x5AF JUMPI PUSH2 0x5AF PUSH2 0x1A7B JUMP JUMPDEST PUSH1 0x20 MUL PUSH1 0x20 ADD ADD MLOAD PUSH1 0x60 ADD MLOAD DUP2 MSTORE PUSH1 0x20 ADD DUP4 DUP4 DUP2 MLOAD DUP2 LT PUSH2 0x5D2 JUMPI PUSH2 0x5D2 PUSH2 0x1A7B JUMP JUMPDEST PUSH1 0x20 MUL PUSH1 0x20 ADD ADD MLOAD PUSH1 0x60 ADD MLOAD DUP2 MSTORE POP PUSH1 0xF PUSH1 0x0 DUP5 DUP5 DUP2 MLOAD DUP2 LT PUSH2 0x5F7 JUMPI PUSH2 0x5F7 PUSH2 0x1A7B JUMP JUMPDEST PUSH1 0x20 SWAP1 DUP2 MUL SWAP2 SWAP1 SWAP2 ADD DUP2 ADD MLOAD MLOAD PUSH1 0x1 PUSH1 0x1 PUSH1 0xA0 SHL SUB AND DUP3 MSTORE DUP2 DUP2 ADD SWAP3 SWAP1 SWAP3 MSTORE PUSH1 0x40 SWAP1 DUP2 ADD PUSH1 0x0 KECCAK256 DUP4 MLOAD DUP2 SSTORE SWAP2 DUP4 ADD MLOAD PUSH1 0x1 DUP4 ADD SSTORE DUP3 ADD MLOAD PUSH1 0x2 DUP3 ADD SSTORE PUSH1 0x60 SWAP1 SWAP2 ADD MLOAD PUSH1 0x3 SWAP1 SWAP2 ADD SSTORE DUP1 PUSH2 0x649 DUP2 PUSH2 0x1A3F JUMP JUMPDEST SWAP2 POP POP PUSH2 0x54C JUMP JUMPDEST PUSH2 0x685 PUSH1 0x40 MLOAD DUP1 PUSH1 0xA0 ADD PUSH1 0x40 MSTORE DUP1 PUSH1 0x0 ISZERO ISZERO DUP2 MSTORE PUSH1 0x20 ADD PUSH1 0x0 DUP2 MSTORE PUSH1 0x20 ADD PUSH1 0x0 DUP2 MSTORE PUSH1 0x20 ADD PUSH1 0x60 DUP2 MSTORE PUSH1 0x20 ADD PUSH1 0x0 DUP2 MSTORE POP SWAP1 JUMP JUMPDEST PUSH1 0x40 DUP1 MLOAD PUSH1 0xA0 DUP2 ADD SWAP1 SWAP2 MSTORE PUSH1 0x8 SLOAD PUSH1 0xFF AND DUP1 ISZERO ISZERO DUP3 MSTORE PUSH1 0x0 SWAP2 DUP3 SWAP2 PUSH1 0x20 DUP3 ADD SWAP1 PUSH2 0x6F5 JUMPI PUSH2 0x6CF PUSH1 0x8 PUSH1 0x4 ADD SLOAD PUSH1 0x5 SLOAD PUSH2 0x6BF PUSH1 0xD PUSH2 0xFFB JUMP JUMPDEST PUSH2 0x6C9 SWAP2 SWAP1 PUSH2 0x1921 JUMP JUMPDEST SWAP1 PUSH2 0x100B JUMP JUMPDEST PUSH1 0x5 SLOAD PUSH2 0x6DC PUSH1 0xD PUSH2 0xFFB JUMP JUMPDEST PUSH2 0x6E6 SWAP2 SWAP1 PUSH2 0x1921 JUMP JUMPDEST PUSH2 0x6F0 SWAP2 SWAP1 PUSH2 0x197F JUMP JUMPDEST PUSH2 0x6F9 JUMP JUMPDEST PUSH1 0x9 SLOAD JUMPDEST DUP2 MSTORE PUSH1 0x20 ADD PUSH2 0x82F PUSH2 0x793 PUSH1 0x6 PUSH1 0x0 SWAP1 SLOAD SWAP1 PUSH2 0x100 EXP SWAP1 DIV PUSH1 0x1 PUSH1 0x1 PUSH1 0xA0 SHL SUB AND PUSH1 0x1 PUSH1 0x1 PUSH1 0xA0 SHL SUB AND PUSH3 0x5A0E3D PUSH1 0x40 MLOAD DUP2 PUSH4 0xFFFFFFFF AND PUSH1 0xE0 SHL DUP2 MSTORE PUSH1 0x4 ADD PUSH1 0x20 PUSH1 0x40 MLOAD DUP1 DUP4 SUB DUP2 DUP7 DUP1 EXTCODESIZE ISZERO DUP1 ISZERO PUSH2 0x751 JUMPI PUSH1 0x0 DUP1 REVERT JUMPDEST POP GAS STATICCALL ISZERO DUP1 ISZERO PUSH2 0x765 JUMPI RETURNDATASIZE PUSH1 0x0 DUP1 RETURNDATACOPY RETURNDATASIZE PUSH1 0x0 REVERT JUMPDEST POP POP POP POP PUSH1 0x40 MLOAD RETURNDATASIZE PUSH1 0x1F NOT PUSH1 0x1F DUP3 ADD AND DUP3 ADD DUP1 PUSH1 0x40 MSTORE POP DUP2 ADD SWAP1 PUSH2 0x789 SWAP2 SWAP1 PUSH2 0x1703 JUMP JUMPDEST PUSH2 0x6C9 PUSH1 0xD PUSH2 0xFFB JUMP JUMPDEST PUSH1 0x8 SLOAD PUSH1 0xFF AND PUSH2 0x827 JUMPI PUSH1 0x6 SLOAD PUSH1 0x40 DUP1 MLOAD PUSH3 0x5A0E3D PUSH1 0xE0 SHL DUP2 MSTORE SWAP1 MLOAD PUSH1 0xA SWAP3 PUSH1 0x1 PUSH1 0x1 PUSH1 0xA0 SHL SUB AND SWAP2 PUSH3 0x5A0E3D SWAP2 PUSH1 0x4 DUP1 DUP4 ADD SWAP3 PUSH1 0x20 SWAP3 SWAP2 SWAP1 DUP3 SWAP1 SUB ADD DUP2 DUP7 DUP1 EXTCODESIZE ISZERO DUP1 ISZERO PUSH2 0x7E0 JUMPI PUSH1 0x0 DUP1 REVERT JUMPDEST POP GAS STATICCALL ISZERO DUP1 ISZERO PUSH2 0x7F4 JUMPI RETURNDATASIZE PUSH1 0x0 DUP1 RETURNDATACOPY RETURNDATASIZE PUSH1 0x0 REVERT JUMPDEST POP POP POP POP PUSH1 0x40 MLOAD RETURNDATASIZE PUSH1 0x1F NOT PUSH1 0x1F DUP3 ADD AND DUP3 ADD DUP1 PUSH1 0x40 MSTORE POP DUP2 ADD SWAP1 PUSH2 0x818 SWAP2 SWAP1 PUSH2 0x1703 JUMP JUMPDEST PUSH2 0x822 SWAP2 SWAP1 PUSH2 0x190D JUMP JUMPDEST PUSH2 0x10D4 JUMP JUMPDEST PUSH1 0xA SLOAD PUSH2 0x10D4 JUMP JUMPDEST DUP2 MSTORE PUSH1 0x20 ADD PUSH1 0x8 PUSH1 0x3 ADD DUP1 SLOAD PUSH2 0x844 SWAP1 PUSH2 0x19E4 JUMP JUMPDEST DUP1 PUSH1 0x1F ADD PUSH1 0x20 DUP1 SWAP2 DIV MUL PUSH1 0x20 ADD PUSH1 0x40 MLOAD SWAP1 DUP2 ADD PUSH1 0x40 MSTORE DUP1 SWAP3 SWAP2 SWAP1 DUP2 DUP2 MSTORE PUSH1 0x20 ADD DUP3 DUP1 SLOAD PUSH2 0x870 SWAP1 PUSH2 0x19E4 JUMP JUMPDEST DUP1 ISZERO PUSH2 0x8BD JUMPI DUP1 PUSH1 0x1F LT PUSH2 0x892 JUMPI PUSH2 0x100 DUP1 DUP4 SLOAD DIV MUL DUP4 MSTORE SWAP2 PUSH1 0x20 ADD SWAP2 PUSH2 0x8BD JUMP JUMPDEST DUP3 ADD SWAP2 SWAP1 PUSH1 0x0 MSTORE PUSH1 0x20 PUSH1 0x0 KECCAK256 SWAP1 JUMPDEST DUP2 SLOAD DUP2 MSTORE SWAP1 PUSH1 0x1 ADD SWAP1 PUSH1 0x20 ADD DUP1 DUP4 GT PUSH2 0x8A0 JUMPI DUP3 SWAP1 SUB PUSH1 0x1F AND DUP3 ADD SWAP2 JUMPDEST POP POP POP SWAP2 DUP4 MSTORE POP POP PUSH1 0xC SLOAD PUSH1 0x20 SWAP1 SWAP2 ADD MSTORE PUSH1 0x5 SLOAD PUSH2 0x8DB PUSH1 0xD PUSH2 0xFFB JUMP JUMPDEST SWAP3 POP SWAP3 POP SWAP3 POP SWAP1 SWAP2 SWAP3 JUMP JUMPDEST TIMESTAMP PUSH1 0x4 SLOAD PUSH1 0x3 SLOAD PUSH2 0x8F7 SWAP2 SWAP1 PUSH2 0x18C7 JUMP JUMPDEST GT PUSH1 0x40 MLOAD DUP1 PUSH1 0x40 ADD PUSH1 0x40 MSTORE DUP1 PUSH1 0x14 DUP2 MSTORE PUSH1 0x20 ADD PUSH20 0x1513D55493905351539517D21054D7D153911151 PUSH1 0x62 SHL DUP2 MSTORE POP SWAP1 PUSH2 0x943 JUMPI PUSH1 0x40 MLOAD PUSH3 0x461BCD PUSH1 0xE5 SHL DUP2 MSTORE PUSH1 0x4 ADD PUSH2 0x41D SWAP2 SWAP1 PUSH2 0x1817 JUMP JUMPDEST POP PUSH1 0x6 SLOAD PUSH1 0x40 MLOAD PUSH4 0xA0BDC15 PUSH1 0xE1 SHL DUP2 MSTORE CALLER PUSH1 0x4 DUP3 ADD MSTORE PUSH1 0x0 SWAP2 PUSH1 0x1 PUSH1 0x1 PUSH1 0xA0 SHL SUB AND SWAP1 PUSH4 0x1417B82A SWAP1 PUSH1 0x24 ADD PUSH1 0x0 PUSH1 0x40 MLOAD DUP1 DUP4 SUB DUP2 DUP7 DUP1 EXTCODESIZE ISZERO DUP1 ISZERO PUSH2 0x988 JUMPI PUSH1 0x0 DUP1 REVERT JUMPDEST POP GAS STATICCALL ISZERO DUP1 ISZERO PUSH2 0x99C JUMPI RETURNDATASIZE PUSH1 0x0 DUP1 RETURNDATACOPY RETURNDATASIZE PUSH1 0x0 REVERT JUMPDEST POP POP POP POP PUSH1 0x40 MLOAD RETURNDATASIZE PUSH1 0x0 DUP3 RETURNDATACOPY PUSH1 0x1F RETURNDATASIZE SWAP1 DUP2 ADD PUSH1 0x1F NOT AND DUP3 ADD PUSH1 0x40 MSTORE PUSH2 0x9C4 SWAP2 SWAP1 DUP2 ADD SWAP1 PUSH2 0x163B JUMP JUMPDEST POP SWAP1 POP DUP1 PUSH1 0x40 MLOAD DUP1 PUSH1 0x40 ADD PUSH1 0x40 MSTORE DUP1 PUSH1 0x15 DUP2 MSTORE PUSH1 0x20 ADD PUSH21 0x14131056515497D393D517D49151D254D511549151 PUSH1 0x5A SHL DUP2 MSTORE POP SWAP1 PUSH2 0xA14 JUMPI PUSH1 0x40 MLOAD PUSH3 0x461BCD PUSH1 0xE5 SHL DUP2 MSTORE PUSH1 0x4 ADD PUSH2 0x41D SWAP2 SWAP1 PUSH2 0x1817 JUMP JUMPDEST POP PUSH1 0x5 SLOAD CALLVALUE EQ PUSH1 0x40 MLOAD DUP1 PUSH1 0x40 ADD PUSH1 0x40 MSTORE DUP1 PUSH1 0x19 DUP2 MSTORE PUSH1 0x20 ADD PUSH32 0x4E4F545F454E4F5547485F46554E44535F50524F564944454400000000000000 DUP2 MSTORE POP SWAP1 PUSH2 0xA6E JUMPI PUSH1 0x40 MLOAD PUSH3 0x461BCD PUSH1 0xE5 SHL DUP2 MSTORE PUSH1 0x4 ADD PUSH2 0x41D SWAP2 SWAP1 PUSH2 0x1817 JUMP JUMPDEST POP PUSH2 0xA7A PUSH1 0xD CALLER PUSH2 0x10EC JUMP JUMPDEST POP PUSH1 0x6 SLOAD PUSH1 0x40 MLOAD PUSH4 0x15A4C083 PUSH1 0xE3 SHL DUP2 MSTORE CALLER PUSH1 0x4 DUP3 ADD MSTORE PUSH1 0x1 PUSH1 0x1 PUSH1 0xA0 SHL SUB SWAP1 SWAP2 AND SWAP1 PUSH4 0xAD260418 SWAP1 PUSH1 0x24 ADD PUSH1 0x0 PUSH1 0x40 MLOAD DUP1 DUP4 SUB DUP2 PUSH1 0x0 DUP8 DUP1 EXTCODESIZE ISZERO DUP1 ISZERO PUSH2 0xAC0 JUMPI PUSH1 0x0 DUP1 REVERT JUMPDEST POP GAS CALL ISZERO DUP1 ISZERO PUSH2 0xAD4 JUMPI RETURNDATASIZE PUSH1 0x0 DUP1 RETURNDATACOPY RETURNDATASIZE PUSH1 0x0 REVERT JUMPDEST POP POP POP POP POP JUMP JUMPDEST PUSH1 0x8 DUP1 SLOAD PUSH1 0x9 SLOAD PUSH1 0xA SLOAD PUSH1 0xB DUP1 SLOAD PUSH1 0xFF SWAP1 SWAP5 AND SWAP5 SWAP3 SWAP4 SWAP2 SWAP3 SWAP2 PUSH2 0xAFD SWAP1 PUSH2 0x19E4 JUMP JUMPDEST DUP1 PUSH1 0x1F ADD PUSH1 0x20 DUP1 SWAP2 DIV MUL PUSH1 0x20 ADD PUSH1 0x40 MLOAD SWAP1 DUP2 ADD PUSH1 0x40 MSTORE DUP1 SWAP3 SWAP2 SWAP1 DUP2 DUP2 MSTORE PUSH1 0x20 ADD DUP3 DUP1 SLOAD PUSH2 0xB29 SWAP1 PUSH2 0x19E4 JUMP JUMPDEST DUP1 ISZERO PUSH2 0xB76 JUMPI DUP1 PUSH1 0x1F LT PUSH2 0xB4B JUMPI PUSH2 0x100 DUP1 DUP4 SLOAD DIV MUL DUP4 MSTORE SWAP2 PUSH1 0x20 ADD SWAP2 PUSH2 0xB76 JUMP JUMPDEST DUP3 ADD SWAP2 SWAP1 PUSH1 0x0 MSTORE PUSH1 0x20 PUSH1 0x0 KECCAK256 SWAP1 JUMPDEST DUP2 SLOAD DUP2 MSTORE SWAP1 PUSH1 0x1 ADD SWAP1 PUSH1 0x20 ADD DUP1 DUP4 GT PUSH2 0xB59 JUMPI DUP3 SWAP1 SUB PUSH1 0x1F AND DUP3 ADD SWAP2 JUMPDEST POP POP POP POP POP SWAP1 DUP1 PUSH1 0x4 ADD SLOAD SWAP1 POP DUP6 JUMP JUMPDEST PUSH1 0x60 PUSH1 0x0 PUSH2 0xB94 PUSH1 0xD PUSH2 0xFFB JUMP JUMPDEST PUSH8 0xFFFFFFFFFFFFFFFF DUP2 GT ISZERO PUSH2 0xBAC JUMPI PUSH2 0xBAC PUSH2 0x1A91 JUMP JUMPDEST PUSH1 0x40 MLOAD SWAP1 DUP1 DUP3 MSTORE DUP1 PUSH1 0x20 MUL PUSH1 0x20 ADD DUP3 ADD PUSH1 0x40 MSTORE DUP1 ISZERO PUSH2 0xC11 JUMPI DUP2 PUSH1 0x20 ADD JUMPDEST PUSH2 0xBFE PUSH1 0x40 MLOAD DUP1 PUSH1 0x80 ADD PUSH1 0x40 MSTORE DUP1 PUSH1 0x0 PUSH1 0x1 PUSH1 0x1 PUSH1 0xA0 SHL SUB AND DUP2 MSTORE PUSH1 0x20 ADD PUSH1 0x60 DUP2 MSTORE PUSH1 0x20 ADD PUSH1 0x0 DUP2 MSTORE PUSH1 0x20 ADD PUSH1 0x0 DUP2 MSTORE POP SWAP1 JUMP JUMPDEST DUP2 MSTORE PUSH1 0x20 ADD SWAP1 PUSH1 0x1 SWAP1 SUB SWAP1 DUP2 PUSH2 0xBCA JUMPI SWAP1 POP JUMPDEST POP SWAP1 POP PUSH2 0xC1E PUSH1 0xD PUSH2 0xFFB JUMP JUMPDEST PUSH2 0xC27 JUMPI SWAP2 SWAP1 POP JUMP JUMPDEST PUSH1 0x0 JUMPDEST PUSH2 0xC34 PUSH1 0xD PUSH2 0xFFB JUMP JUMPDEST DUP2 LT ISZERO PUSH2 0xD60 JUMPI PUSH1 0x6 SLOAD PUSH1 0x40 MLOAD PUSH4 0xA0BDC15 PUSH1 0xE1 SHL DUP2 MSTORE CALLER PUSH1 0x4 DUP3 ADD MSTORE PUSH1 0x0 SWAP2 PUSH1 0x1 PUSH1 0x1 PUSH1 0xA0 SHL SUB AND SWAP1 PUSH4 0x1417B82A SWAP1 PUSH1 0x24 ADD PUSH1 0x0 PUSH1 0x40 MLOAD DUP1 DUP4 SUB DUP2 DUP7 DUP1 EXTCODESIZE ISZERO DUP1 ISZERO PUSH2 0xC7F JUMPI PUSH1 0x0 DUP1 REVERT JUMPDEST POP GAS STATICCALL ISZERO DUP1 ISZERO PUSH2 0xC93 JUMPI RETURNDATASIZE PUSH1 0x0 DUP1 RETURNDATACOPY RETURNDATASIZE PUSH1 0x0 REVERT JUMPDEST POP POP POP POP PUSH1 0x40 MLOAD RETURNDATASIZE PUSH1 0x0 DUP3 RETURNDATACOPY PUSH1 0x1F RETURNDATASIZE SWAP1 DUP2 ADD PUSH1 0x1F NOT AND DUP3 ADD PUSH1 0x40 MSTORE PUSH2 0xCBB SWAP2 SWAP1 DUP2 ADD SWAP1 PUSH2 0x163B JUMP JUMPDEST SWAP2 POP POP PUSH1 0x40 MLOAD DUP1 PUSH1 0x80 ADD PUSH1 0x40 MSTORE DUP1 PUSH2 0xCDD DUP5 PUSH1 0xD PUSH2 0x1101 SWAP1 SWAP2 SWAP1 PUSH4 0xFFFFFFFF AND JUMP JUMPDEST PUSH1 0x1 PUSH1 0x1 PUSH1 0xA0 SHL SUB AND DUP2 MSTORE PUSH1 0x20 DUP2 ADD DUP4 SWAP1 MSTORE PUSH1 0x40 ADD PUSH1 0xF PUSH1 0x0 PUSH2 0xD01 PUSH1 0xD DUP8 PUSH2 0x1101 JUMP JUMPDEST PUSH1 0x1 PUSH1 0x1 PUSH1 0xA0 SHL SUB AND PUSH1 0x1 PUSH1 0x1 PUSH1 0xA0 SHL SUB AND DUP2 MSTORE PUSH1 0x20 ADD SWAP1 DUP2 MSTORE PUSH1 0x20 ADD PUSH1 0x0 KECCAK256 PUSH1 0x1 ADD SLOAD DUP2 MSTORE PUSH1 0x20 ADD PUSH1 0x0 DUP2 MSTORE POP DUP4 DUP4 DUP2 MLOAD DUP2 LT PUSH2 0xD41 JUMPI PUSH2 0xD41 PUSH2 0x1A7B JUMP JUMPDEST PUSH1 0x20 MUL PUSH1 0x20 ADD ADD DUP2 SWAP1 MSTORE POP POP DUP1 DUP1 PUSH2 0xD58 SWAP1 PUSH2 0x1A3F JUMP JUMPDEST SWAP2 POP POP PUSH2 0xC2A JUMP JUMPDEST POP PUSH2 0xD82 DUP2 PUSH1 0x0 PUSH1 0x1 PUSH2 0xD73 PUSH1 0xD PUSH2 0xFFB JUMP JUMPDEST PUSH2 0xD7D SWAP2 SWAP1 PUSH2 0x197F JUMP JUMPDEST PUSH2 0x110D JUMP JUMPDEST SWAP1 POP PUSH1 0x0 PUSH2 0xD8E PUSH2 0x651 JUMP JUMPDEST POP POP SWAP1 POP PUSH1 0x0 PUSH2 0xDA6 PUSH2 0xDA1 PUSH1 0xD PUSH2 0xFFB JUMP JUMPDEST PUSH2 0x12AC JUMP JUMPDEST SWAP1 POP PUSH1 0x0 PUSH3 0xF4240 PUSH2 0xDBC DUP4 DUP6 PUSH1 0x40 ADD MLOAD PUSH2 0x148D JUMP JUMPDEST PUSH2 0xDC6 SWAP2 SWAP1 PUSH2 0x197F JUMP JUMPDEST PUSH2 0xDD3 PUSH3 0xF4240 DUP5 PUSH2 0x197F JUMP JUMPDEST DUP5 PUSH1 0x20 ADD MLOAD PUSH2 0xDE2 SWAP2 SWAP1 PUSH2 0x1921 JUMP JUMPDEST PUSH2 0xDEC SWAP2 SWAP1 PUSH2 0x190D JUMP JUMPDEST SWAP1 POP PUSH1 0x0 JUMPDEST PUSH2 0xDFB PUSH1 0xD PUSH2 0xFFB JUMP JUMPDEST DUP2 LT ISZERO PUSH2 0xE49 JUMPI PUSH2 0xE0C DUP4 DUP3 PUSH2 0x148D JUMP JUMPDEST PUSH2 0xE16 SWAP1 DUP4 PUSH2 0x1921 JUMP JUMPDEST DUP6 DUP3 DUP2 MLOAD DUP2 LT PUSH2 0xE28 JUMPI PUSH2 0xE28 PUSH2 0x1A7B JUMP JUMPDEST PUSH1 0x20 SWAP1 DUP2 MUL SWAP2 SWAP1 SWAP2 ADD ADD MLOAD PUSH1 0x60 ADD MSTORE DUP1 PUSH2 0xE41 DUP2 PUSH2 0x1A3F JUMP JUMPDEST SWAP2 POP POP PUSH2 0xDF1 JUMP JUMPDEST POP SWAP3 SWAP5 SWAP4 POP POP POP POP JUMP JUMPDEST PUSH1 0x7 SLOAD PUSH1 0x40 DUP1 MLOAD DUP1 DUP3 ADD SWAP1 SWAP2 MSTORE PUSH1 0x15 DUP2 MSTORE PUSH21 0x10D05313115497D393D517D055551213D492569151 PUSH1 0x5A SHL PUSH1 0x20 DUP3 ADD MSTORE SWAP1 PUSH1 0x1 PUSH1 0x1 PUSH1 0xA0 SHL SUB AND CALLER EQ PUSH2 0xEAB JUMPI PUSH1 0x40 MLOAD PUSH3 0x461BCD PUSH1 0xE5 SHL DUP2 MSTORE PUSH1 0x4 ADD PUSH2 0x41D SWAP2 SWAP1 PUSH2 0x1817 JUMP JUMPDEST POP TIMESTAMP PUSH1 0x4 SLOAD PUSH1 0x3 SLOAD PUSH2 0xEBD SWAP2 SWAP1 PUSH2 0x18C7 JUMP JUMPDEST GT PUSH1 0x40 MLOAD DUP1 PUSH1 0x40 ADD PUSH1 0x40 MSTORE DUP1 PUSH1 0x14 DUP2 MSTORE PUSH1 0x20 ADD PUSH20 0x1513D55493905351539517D21054D7D153911151 PUSH1 0x62 SHL DUP2 MSTORE POP SWAP1 PUSH2 0xF09 JUMPI PUSH1 0x40 MLOAD PUSH3 0x461BCD PUSH1 0xE5 SHL DUP2 MSTORE PUSH1 0x4 ADD PUSH2 0x41D SWAP2 SWAP1 PUSH2 0x1817 JUMP JUMPDEST POP PUSH1 0x6 SLOAD PUSH1 0x40 MLOAD PUSH4 0xA0BDC15 PUSH1 0xE1 SHL DUP2 MSTORE CALLER PUSH1 0x4 DUP3 ADD MSTORE PUSH1 0x0 SWAP2 PUSH1 0x1 PUSH1 0x1 PUSH1 0xA0 SHL SUB AND SWAP1 PUSH4 0x1417B82A SWAP1 PUSH1 0x24 ADD PUSH1 0x0 PUSH1 0x40 MLOAD DUP1 DUP4 SUB DUP2 DUP7 DUP1 EXTCODESIZE ISZERO DUP1 ISZERO PUSH2 0xF4E JUMPI PUSH1 0x0 DUP1 REVERT JUMPDEST POP GAS STATICCALL ISZERO DUP1 ISZERO PUSH2 0xF62 JUMPI RETURNDATASIZE PUSH1 0x0 DUP1 RETURNDATACOPY RETURNDATASIZE PUSH1 0x0 REVERT JUMPDEST POP POP POP POP PUSH1 0x40 MLOAD RETURNDATASIZE PUSH1 0x0 DUP3 RETURNDATACOPY PUSH1 0x1F RETURNDATASIZE SWAP1 DUP2 ADD PUSH1 0x1F NOT AND DUP3 ADD PUSH1 0x40 MSTORE PUSH2 0xF8A SWAP2 SWAP1 DUP2 ADD SWAP1 PUSH2 0x163B JUMP JUMPDEST POP SWAP1 POP DUP1 PUSH1 0x40 MLOAD DUP1 PUSH1 0x40 ADD PUSH1 0x40 MSTORE DUP1 PUSH1 0x15 DUP2 MSTORE PUSH1 0x20 ADD PUSH21 0x14131056515497D393D517D49151D254D511549151 PUSH1 0x5A SHL DUP2 MSTORE POP SWAP1 PUSH2 0xFDA JUMPI PUSH1 0x40 MLOAD PUSH3 0x461BCD PUSH1 0xE5 SHL DUP2 MSTORE PUSH1 0x4 ADD PUSH2 0x41D SWAP2 SWAP1 PUSH2 0x1817 JUMP JUMPDEST POP POP PUSH1 0x1 PUSH1 0x1 PUSH1 0xA0 SHL SUB SWAP1 SWAP2 AND PUSH1 0x0 SWAP1 DUP2 MSTORE PUSH1 0xF PUSH1 0x20 MSTORE PUSH1 0x40 SWAP1 KECCAK256 PUSH1 0x1 ADD SSTORE JUMP JUMPDEST PUSH1 0x0 PUSH2 0x1005 DUP3 SLOAD SWAP1 JUMP JUMPDEST SWAP3 SWAP2 POP POP JUMP JUMPDEST PUSH1 0x0 DUP3 ISZERO DUP1 PUSH2 0x1018 JUMPI POP DUP2 ISZERO JUMPDEST ISZERO PUSH2 0x1025 JUMPI POP PUSH1 0x0 PUSH2 0x1005 JUMP JUMPDEST DUP2 PUSH2 0x1033 PUSH1 0x2 PUSH2 0x2710 PUSH2 0x190D JUMP JUMPDEST PUSH2 0x103F SWAP1 PUSH1 0x0 NOT PUSH2 0x197F JUMP JUMPDEST PUSH2 0x1049 SWAP2 SWAP1 PUSH2 0x190D JUMP JUMPDEST DUP4 GT ISZERO PUSH1 0x40 MLOAD DUP1 PUSH1 0x40 ADD PUSH1 0x40 MSTORE DUP1 PUSH1 0x1C DUP2 MSTORE PUSH1 0x20 ADD PUSH32 0x4D4154485F4D554C5449504C49434154494F4E5F4F564552464C4F5700000000 DUP2 MSTORE POP SWAP1 PUSH2 0x10A0 JUMPI PUSH1 0x40 MLOAD PUSH3 0x461BCD PUSH1 0xE5 SHL DUP2 MSTORE PUSH1 0x4 ADD PUSH2 0x41D SWAP2 SWAP1 PUSH2 0x1817 JUMP JUMPDEST POP PUSH2 0x2710 PUSH2 0x10AF PUSH1 0x2 DUP3 PUSH2 0x190D JUMP JUMPDEST PUSH2 0x10B9 DUP5 DUP7 PUSH2 0x1921 JUMP JUMPDEST PUSH2 0x10C3 SWAP2 SWAP1 PUSH2 0x18C7 JUMP JUMPDEST PUSH2 0x10CD SWAP2 SWAP1 PUSH2 0x190D JUMP JUMPDEST SWAP4 SWAP3 POP POP POP JUMP JUMPDEST PUSH1 0x0 DUP2 DUP4 GT ISZERO PUSH2 0x10E5 JUMPI POP DUP1 PUSH2 0x1005 JUMP JUMPDEST POP SWAP1 SWAP2 SWAP1 POP JUMP JUMPDEST PUSH1 0x0 PUSH2 0x10CD DUP4 PUSH1 0x1 PUSH1 0x1 PUSH1 0xA0 SHL SUB DUP5 AND PUSH2 0x14C0 JUMP JUMPDEST PUSH1 0x0 PUSH2 0x10CD DUP4 DUP4 PUSH2 0x150F JUMP JUMPDEST PUSH1 0x60 DUP2 DUP4 SLT PUSH2 0x111D JUMPI POP DUP3 PUSH2 0x10CD JUMP JUMPDEST PUSH1 0x0 DUP5 PUSH1 0x2 PUSH2 0x112C DUP7 DUP7 PUSH2 0x1940 JUMP JUMPDEST PUSH2 0x1136 SWAP2 SWAP1 PUSH2 0x18DF JUMP JUMPDEST PUSH2 0x1140 SWAP1 DUP7 PUSH2 0x1886 JUMP JUMPDEST DUP2 MLOAD DUP2 LT PUSH2 0x1150 JUMPI PUSH2 0x1150 PUSH2 0x1A7B JUMP JUMPDEST PUSH1 0x20 SWAP1 DUP2 MUL SWAP2 SWAP1 SWAP2 ADD ADD MLOAD PUSH1 0x40 ADD MLOAD SWAP1 POP DUP4 DUP4 JUMPDEST DUP1 DUP3 SGT PUSH2 0x1277 JUMPI JUMPDEST DUP3 DUP8 DUP4 DUP2 MLOAD DUP2 LT PUSH2 0x117F JUMPI PUSH2 0x117F PUSH2 0x1A7B JUMP JUMPDEST PUSH1 0x20 MUL PUSH1 0x20 ADD ADD MLOAD PUSH1 0x40 ADD MLOAD GT ISZERO PUSH2 0x11A3 JUMPI DUP2 PUSH2 0x119B DUP2 PUSH2 0x1A1F JUMP JUMPDEST SWAP3 POP POP PUSH2 0x116C JUMP JUMPDEST DUP7 DUP2 DUP2 MLOAD DUP2 LT PUSH2 0x11B5 JUMPI PUSH2 0x11B5 PUSH2 0x1A7B JUMP JUMPDEST PUSH1 0x20 MUL PUSH1 0x20 ADD ADD MLOAD PUSH1 0x40 ADD MLOAD DUP4 GT ISZERO PUSH2 0x11DA JUMPI DUP1 PUSH2 0x11D2 DUP2 PUSH2 0x19C6 JUMP JUMPDEST SWAP2 POP POP PUSH2 0x11A3 JUMP JUMPDEST DUP1 DUP3 SGT PUSH2 0x1272 JUMPI PUSH1 0x0 DUP8 DUP4 DUP2 MLOAD DUP2 LT PUSH2 0x11F5 JUMPI PUSH2 0x11F5 PUSH2 0x1A7B JUMP JUMPDEST PUSH1 0x20 MUL PUSH1 0x20 ADD ADD MLOAD SWAP1 POP DUP8 DUP3 DUP2 MLOAD DUP2 LT PUSH2 0x1211 JUMPI PUSH2 0x1211 PUSH2 0x1A7B JUMP JUMPDEST PUSH1 0x20 MUL PUSH1 0x20 ADD ADD MLOAD DUP9 DUP5 DUP2 MLOAD DUP2 LT PUSH2 0x122B JUMPI PUSH2 0x122B PUSH2 0x1A7B JUMP JUMPDEST PUSH1 0x20 MUL PUSH1 0x20 ADD ADD DUP2 SWAP1 MSTORE POP DUP1 DUP9 DUP4 DUP2 MLOAD DUP2 LT PUSH2 0x1249 JUMPI PUSH2 0x1249 PUSH2 0x1A7B JUMP JUMPDEST PUSH1 0x20 MUL PUSH1 0x20 ADD ADD DUP2 SWAP1 MSTORE POP DUP3 DUP1 PUSH2 0x125F SWAP1 PUSH2 0x1A1F JUMP JUMPDEST SWAP4 POP POP DUP2 DUP1 PUSH2 0x126D SWAP1 PUSH2 0x19C6 JUMP JUMPDEST SWAP3 POP POP POP JUMPDEST PUSH2 0x1164 JUMP JUMPDEST DUP1 DUP7 SLT ISZERO PUSH2 0x128C JUMPI PUSH2 0x128A DUP8 DUP8 DUP4 PUSH2 0x110D JUMP JUMPDEST POP JUMPDEST DUP5 DUP3 SLT ISZERO PUSH2 0x12A1 JUMPI PUSH2 0x129F DUP8 DUP4 DUP8 PUSH2 0x110D JUMP JUMPDEST POP JUMPDEST POP SWAP5 SWAP6 SWAP5 POP POP POP POP POP JUMP JUMPDEST PUSH1 0x0 PUSH1 0xA DUP3 LT ISZERO PUSH2 0x1334 JUMPI PUSH1 0x6 SLOAD PUSH1 0x40 MLOAD PUSH4 0x3438D199 PUSH1 0xE2 SHL DUP2 MSTORE PUSH1 0xA PUSH1 0x4 DUP3 ADD MSTORE PUSH1 0x1 PUSH1 0x1 PUSH1 0xA0 SHL SUB SWAP1 SWAP2 AND SWAP1 PUSH4 0xD0E34664 SWAP1 PUSH1 0x24 ADD JUMPDEST PUSH1 0x20 PUSH1 0x40 MLOAD DUP1 DUP4 SUB DUP2 DUP7 DUP1 EXTCODESIZE ISZERO DUP1 ISZERO PUSH2 0x12FC JUMPI PUSH1 0x0 DUP1 REVERT JUMPDEST POP GAS STATICCALL ISZERO DUP1 ISZERO PUSH2 0x1310 JUMPI RETURNDATASIZE PUSH1 0x0 DUP1 RETURNDATACOPY RETURNDATASIZE PUSH1 0x0 REVERT JUMPDEST POP POP POP POP PUSH1 0x40 MLOAD RETURNDATASIZE PUSH1 0x1F NOT PUSH1 0x1F DUP3 ADD AND DUP3 ADD DUP1 PUSH1 0x40 MSTORE POP DUP2 ADD SWAP1 PUSH2 0x1005 SWAP2 SWAP1 PUSH2 0x1703 JUMP JUMPDEST PUSH1 0x14 DUP3 LT ISZERO PUSH2 0x136E JUMPI PUSH1 0x6 SLOAD PUSH1 0x40 MLOAD PUSH4 0x3438D199 PUSH1 0xE2 SHL DUP2 MSTORE PUSH1 0x14 PUSH1 0x4 DUP3 ADD MSTORE PUSH1 0x1 PUSH1 0x1 PUSH1 0xA0 SHL SUB SWAP1 SWAP2 AND SWAP1 PUSH4 0xD0E34664 SWAP1 PUSH1 0x24 ADD PUSH2 0x12E4 JUMP JUMPDEST PUSH1 0x1E DUP3 LT ISZERO PUSH2 0x13A8 JUMPI PUSH1 0x6 SLOAD PUSH1 0x40 MLOAD PUSH4 0x3438D199 PUSH1 0xE2 SHL DUP2 MSTORE PUSH1 0x1E PUSH1 0x4 DUP3 ADD MSTORE PUSH1 0x1 PUSH1 0x1 PUSH1 0xA0 SHL SUB SWAP1 SWAP2 AND SWAP1 PUSH4 0xD0E34664 SWAP1 PUSH1 0x24 ADD PUSH2 0x12E4 JUMP JUMPDEST PUSH1 0x28 DUP3 LT ISZERO PUSH2 0x13E2 JUMPI PUSH1 0x6 SLOAD PUSH1 0x40 MLOAD PUSH4 0x3438D199 PUSH1 0xE2 SHL DUP2 MSTORE PUSH1 0x28 PUSH1 0x4 DUP3 ADD MSTORE PUSH1 0x1 PUSH1 0x1 PUSH1 0xA0 SHL SUB SWAP1 SWAP2 AND SWAP1 PUSH4 0xD0E34664 SWAP1 PUSH1 0x24 ADD PUSH2 0x12E4 JUMP JUMPDEST PUSH1 0x32 DUP3 LT ISZERO PUSH2 0x141C JUMPI PUSH1 0x6 SLOAD PUSH1 0x40 MLOAD PUSH4 0x3438D199 PUSH1 0xE2 SHL DUP2 MSTORE PUSH1 0x32 PUSH1 0x4 DUP3 ADD MSTORE PUSH1 0x1 PUSH1 0x1 PUSH1 0xA0 SHL SUB SWAP1 SWAP2 AND SWAP1 PUSH4 0xD0E34664 SWAP1 PUSH1 0x24 ADD PUSH2 0x12E4 JUMP JUMPDEST PUSH1 0x64 DUP3 LT ISZERO PUSH2 0x1456 JUMPI PUSH1 0x6 SLOAD PUSH1 0x40 MLOAD PUSH4 0x3438D199 PUSH1 0xE2 SHL DUP2 MSTORE PUSH1 0x64 PUSH1 0x4 DUP3 ADD MSTORE PUSH1 0x1 PUSH1 0x1 PUSH1 0xA0 SHL SUB SWAP1 SWAP2 AND SWAP1 PUSH4 0xD0E34664 SWAP1 PUSH1 0x24 ADD PUSH2 0x12E4 JUMP JUMPDEST PUSH1 0x6 SLOAD PUSH1 0x40 MLOAD PUSH4 0x3438D199 PUSH1 0xE2 SHL DUP2 MSTORE PUSH2 0x3E8 PUSH1 0x4 DUP3 ADD MSTORE PUSH1 0x1 PUSH1 0x1 PUSH1 0xA0 SHL SUB SWAP1 SWAP2 AND SWAP1 PUSH4 0xD0E34664 SWAP1 PUSH1 0x24 ADD PUSH2 0x12E4 JUMP JUMPDEST SWAP2 SWAP1 POP JUMP JUMPDEST PUSH1 0x0 DUP3 DUP2 JUMPDEST DUP4 DUP2 LT ISZERO PUSH2 0x14B8 JUMPI PUSH2 0x14A4 DUP3 DUP7 PUSH2 0x1539 JUMP JUMPDEST SWAP2 POP DUP1 PUSH2 0x14B0 DUP2 PUSH2 0x1A3F JUMP JUMPDEST SWAP2 POP POP PUSH2 0x1492 JUMP JUMPDEST POP SWAP4 SWAP3 POP POP POP JUMP JUMPDEST PUSH1 0x0 DUP2 DUP2 MSTORE PUSH1 0x1 DUP4 ADD PUSH1 0x20 MSTORE PUSH1 0x40 DUP2 KECCAK256 SLOAD PUSH2 0x1507 JUMPI POP DUP2 SLOAD PUSH1 0x1 DUP2 DUP2 ADD DUP5 SSTORE PUSH1 0x0 DUP5 DUP2 MSTORE PUSH1 0x20 DUP1 DUP3 KECCAK256 SWAP1 SWAP4 ADD DUP5 SWAP1 SSTORE DUP5 SLOAD DUP5 DUP3 MSTORE DUP3 DUP7 ADD SWAP1 SWAP4 MSTORE PUSH1 0x40 SWAP1 KECCAK256 SWAP2 SWAP1 SWAP2 SSTORE PUSH2 0x1005 JUMP JUMPDEST POP PUSH1 0x0 PUSH2 0x1005 JUMP JUMPDEST PUSH1 0x0 DUP3 PUSH1 0x0 ADD DUP3 DUP2 SLOAD DUP2 LT PUSH2 0x1526 JUMPI PUSH2 0x1526 PUSH2 0x1A7B JUMP JUMPDEST SWAP1 PUSH1 0x0 MSTORE PUSH1 0x20 PUSH1 0x0 KECCAK256 ADD SLOAD SWAP1 POP SWAP3 SWAP2 POP POP JUMP JUMPDEST PUSH1 0x0 DUP3 ISZERO DUP1 PUSH2 0x1546 JUMPI POP DUP2 ISZERO JUMPDEST ISZERO PUSH2 0x1553 JUMPI POP PUSH1 0x0 PUSH2 0x1005 JUMP JUMPDEST DUP2 PUSH2 0x1562 PUSH1 0x2 PUSH3 0xF4240 PUSH2 0x190D JUMP JUMPDEST PUSH2 0x156E SWAP1 PUSH1 0x0 NOT PUSH2 0x197F JUMP JUMPDEST PUSH2 0x1578 SWAP2 SWAP1 PUSH2 0x190D JUMP JUMPDEST DUP4 GT ISZERO PUSH1 0x40 MLOAD DUP1 PUSH1 0x40 ADD PUSH1 0x40 MSTORE DUP1 PUSH1 0x1C DUP2 MSTORE PUSH1 0x20 ADD PUSH32 0x4D4154485F4D554C5449504C49434154494F4E5F4F564552464C4F5700000000 DUP2 MSTORE POP SWAP1 PUSH2 0x15CF JUMPI PUSH1 0x40 MLOAD PUSH3 0x461BCD PUSH1 0xE5 SHL DUP2 MSTORE PUSH1 0x4 ADD PUSH2 0x41D SWAP2 SWAP1 PUSH2 0x1817 JUMP JUMPDEST POP PUSH3 0xF4240 PUSH2 0x10AF PUSH1 0x2 DUP3 PUSH2 0x190D JUMP JUMPDEST DUP1 CALLDATALOAD PUSH1 0x1 PUSH1 0x1 PUSH1 0xA0 SHL SUB DUP2 AND DUP2 EQ PUSH2 0x1488 JUMPI PUSH1 0x0 DUP1 REVERT JUMPDEST PUSH1 0x0 PUSH1 0x20 DUP3 DUP5 SUB SLT ISZERO PUSH2 0x1608 JUMPI PUSH1 0x0 DUP1 REVERT JUMPDEST PUSH2 0x10CD DUP3 PUSH2 0x15DF JUMP JUMPDEST PUSH1 0x0 DUP1 PUSH1 0x40 DUP4 DUP6 SUB SLT ISZERO PUSH2 0x1624 JUMPI PUSH1 0x0 DUP1 REVERT JUMPDEST PUSH2 0x162D DUP4 PUSH2 0x15DF JUMP JUMPDEST SWAP5 PUSH1 0x20 SWAP4 SWAP1 SWAP4 ADD CALLDATALOAD SWAP4 POP POP POP JUMP JUMPDEST PUSH1 0x0 DUP1 PUSH1 0x40 DUP4 DUP6 SUB SLT ISZERO PUSH2 0x164E JUMPI PUSH1 0x0 DUP1 REVERT JUMPDEST DUP3 MLOAD DUP1 ISZERO ISZERO DUP2 EQ PUSH2 0x165E JUMPI PUSH1 0x0 DUP1 REVERT JUMPDEST PUSH1 0x20 DUP5 ADD MLOAD SWAP1 SWAP3 POP PUSH8 0xFFFFFFFFFFFFFFFF DUP1 DUP3 GT ISZERO PUSH2 0x167C JUMPI PUSH1 0x0 DUP1 REVERT JUMPDEST DUP2 DUP6 ADD SWAP2 POP DUP6 PUSH1 0x1F DUP4 ADD SLT PUSH2 0x1690 JUMPI PUSH1 0x0 DUP1 REVERT JUMPDEST DUP2 MLOAD DUP2 DUP2 GT ISZERO PUSH2 0x16A2 JUMPI PUSH2 0x16A2 PUSH2 0x1A91 JUMP JUMPDEST PUSH1 0x40 MLOAD PUSH1 0x1F DUP3 ADD PUSH1 0x1F NOT SWAP1 DUP2 AND PUSH1 0x3F ADD AND DUP2 ADD SWAP1 DUP4 DUP3 GT DUP2 DUP4 LT OR ISZERO PUSH2 0x16CA JUMPI PUSH2 0x16CA PUSH2 0x1A91 JUMP JUMPDEST DUP2 PUSH1 0x40 MSTORE DUP3 DUP2 MSTORE DUP9 PUSH1 0x20 DUP5 DUP8 ADD ADD GT ISZERO PUSH2 0x16E3 JUMPI PUSH1 0x0 DUP1 REVERT JUMPDEST PUSH2 0x16F4 DUP4 PUSH1 0x20 DUP4 ADD PUSH1 0x20 DUP9 ADD PUSH2 0x1996 JUMP JUMPDEST DUP1 SWAP6 POP POP POP POP POP POP SWAP3 POP SWAP3 SWAP1 POP JUMP JUMPDEST PUSH1 0x0 PUSH1 0x20 DUP3 DUP5 SUB SLT ISZERO PUSH2 0x1715 JUMPI PUSH1 0x0 DUP1 REVERT JUMPDEST POP MLOAD SWAP2 SWAP1 POP JUMP JUMPDEST PUSH1 0x0 DUP2 MLOAD DUP1 DUP5 MSTORE PUSH2 0x1734 DUP2 PUSH1 0x20 DUP7 ADD PUSH1 0x20 DUP7 ADD PUSH2 0x1996 JUMP JUMPDEST PUSH1 0x1F ADD PUSH1 0x1F NOT AND SWAP3 SWAP1 SWAP3 ADD PUSH1 0x20 ADD SWAP3 SWAP2 POP POP JUMP JUMPDEST PUSH1 0x0 PUSH1 0x20 DUP1 DUP4 ADD DUP2 DUP5 MSTORE DUP1 DUP6 MLOAD DUP1 DUP4 MSTORE PUSH1 0x40 SWAP3 POP DUP3 DUP7 ADD SWAP2 POP DUP3 DUP2 PUSH1 0x5 SHL DUP8 ADD ADD DUP5 DUP9 ADD PUSH1 0x0 JUMPDEST DUP4 DUP2 LT ISZERO PUSH2 0x17D0 JUMPI DUP9 DUP4 SUB PUSH1 0x3F NOT ADD DUP6 MSTORE DUP2 MLOAD DUP1 MLOAD PUSH1 0x1 PUSH1 0x1 PUSH1 0xA0 SHL SUB AND DUP5 MSTORE DUP8 DUP2 ADD MLOAD PUSH1 0x80 DUP10 DUP7 ADD DUP2 SWAP1 MSTORE SWAP1 PUSH2 0x17A8 DUP3 DUP8 ADD DUP3 PUSH2 0x171C JUMP JUMPDEST DUP4 DUP11 ADD MLOAD DUP8 DUP12 ADD MSTORE PUSH1 0x60 SWAP4 DUP5 ADD MLOAD SWAP4 SWAP1 SWAP7 ADD SWAP3 SWAP1 SWAP3 MSTORE POP POP SWAP4 DUP7 ADD SWAP4 SWAP1 DUP7 ADD SWAP1 PUSH1 0x1 ADD PUSH2 0x176F JUMP JUMPDEST POP SWAP1 SWAP9 SWAP8 POP POP POP POP POP POP POP POP JUMP JUMPDEST DUP6 ISZERO ISZERO DUP2 MSTORE DUP5 PUSH1 0x20 DUP3 ADD MSTORE DUP4 PUSH1 0x40 DUP3 ADD MSTORE PUSH1 0xA0 PUSH1 0x60 DUP3 ADD MSTORE PUSH1 0x0 PUSH2 0x1805 PUSH1 0xA0 DUP4 ADD DUP6 PUSH2 0x171C JUMP JUMPDEST SWAP1 POP DUP3 PUSH1 0x80 DUP4 ADD MSTORE SWAP7 SWAP6 POP POP POP POP POP POP JUMP JUMPDEST PUSH1 0x20 DUP2 MSTORE PUSH1 0x0 PUSH2 0x10CD PUSH1 0x20 DUP4 ADD DUP5 PUSH2 0x171C JUMP JUMPDEST PUSH1 0x60 DUP2 MSTORE DUP4 MLOAD ISZERO ISZERO PUSH1 0x60 DUP3 ADD MSTORE PUSH1 0x20 DUP5 ADD MLOAD PUSH1 0x80 DUP3 ADD MSTORE PUSH1 0x40 DUP5 ADD MLOAD PUSH1 0xA0 DUP3 ADD MSTORE PUSH1 0x0 PUSH1 0x60 DUP6 ADD MLOAD PUSH1 0xA0 PUSH1 0xC0 DUP5 ADD MSTORE PUSH2 0x1867 PUSH2 0x100 DUP5 ADD DUP3 PUSH2 0x171C JUMP JUMPDEST PUSH1 0x80 SWAP7 SWAP1 SWAP7 ADD MLOAD PUSH1 0xE0 DUP5 ADD MSTORE POP POP PUSH1 0x20 DUP2 ADD SWAP3 SWAP1 SWAP3 MSTORE PUSH1 0x40 SWAP1 SWAP2 ADD MSTORE SWAP1 JUMP JUMPDEST PUSH1 0x0 DUP1 DUP3 SLT DUP1 ISZERO PUSH1 0x1 PUSH1 0x1 PUSH1 0xFF SHL SUB DUP5 SWAP1 SUB DUP6 SGT AND ISZERO PUSH2 0x18A8 JUMPI PUSH2 0x18A8 PUSH2 0x1A4F JUMP JUMPDEST PUSH1 0x1 PUSH1 0xFF SHL DUP4 SWAP1 SUB DUP5 SLT DUP2 AND ISZERO PUSH2 0x18C1 JUMPI PUSH2 0x18C1 PUSH2 0x1A4F JUMP JUMPDEST POP POP ADD SWAP1 JUMP JUMPDEST PUSH1 0x0 DUP3 NOT DUP3 GT ISZERO PUSH2 0x18DA JUMPI PUSH2 0x18DA PUSH2 0x1A4F JUMP JUMPDEST POP ADD SWAP1 JUMP JUMPDEST PUSH1 0x0 DUP3 PUSH2 0x18EE JUMPI PUSH2 0x18EE PUSH2 0x1A65 JUMP JUMPDEST PUSH1 0x1 PUSH1 0xFF SHL DUP3 EQ PUSH1 0x0 NOT DUP5 EQ AND ISZERO PUSH2 0x1908 JUMPI PUSH2 0x1908 PUSH2 0x1A4F JUMP JUMPDEST POP SDIV SWAP1 JUMP JUMPDEST PUSH1 0x0 DUP3 PUSH2 0x191C JUMPI PUSH2 0x191C PUSH2 0x1A65 JUMP JUMPDEST POP DIV SWAP1 JUMP JUMPDEST PUSH1 0x0 DUP2 PUSH1 0x0 NOT DIV DUP4 GT DUP3 ISZERO ISZERO AND ISZERO PUSH2 0x193B JUMPI PUSH2 0x193B PUSH2 0x1A4F JUMP JUMPDEST POP MUL SWAP1 JUMP JUMPDEST PUSH1 0x0 DUP1 DUP4 SLT DUP1 ISZERO PUSH1 0x1 PUSH1 0xFF SHL DUP6 ADD DUP5 SLT AND ISZERO PUSH2 0x195E JUMPI PUSH2 0x195E PUSH2 0x1A4F JUMP JUMPDEST PUSH1 0x1 PUSH1 0x1 PUSH1 0xFF SHL SUB DUP5 ADD DUP4 SGT DUP2 AND ISZERO PUSH2 0x1979 JUMPI PUSH2 0x1979 PUSH2 0x1A4F JUMP JUMPDEST POP POP SUB SWAP1 JUMP JUMPDEST PUSH1 0x0 DUP3 DUP3 LT ISZERO PUSH2 0x1991 JUMPI PUSH2 0x1991 PUSH2 0x1A4F JUMP JUMPDEST POP SUB SWAP1 JUMP JUMPDEST PUSH1 0x0 JUMPDEST DUP4 DUP2 LT ISZERO PUSH2 0x19B1 JUMPI DUP2 DUP2 ADD MLOAD DUP4 DUP3 ADD MSTORE PUSH1 0x20 ADD PUSH2 0x1999 JUMP JUMPDEST DUP4 DUP2 GT ISZERO PUSH2 0x19C0 JUMPI PUSH1 0x0 DUP5 DUP5 ADD MSTORE JUMPDEST POP POP POP POP JUMP JUMPDEST PUSH1 0x0 PUSH1 0x1 PUSH1 0xFF SHL DUP3 EQ ISZERO PUSH2 0x19DC JUMPI PUSH2 0x19DC PUSH2 0x1A4F JUMP JUMPDEST POP PUSH1 0x0 NOT ADD SWAP1 JUMP JUMPDEST PUSH1 0x1 DUP2 DUP2 SHR SWAP1 DUP3 AND DUP1 PUSH2 0x19F8 JUMPI PUSH1 0x7F DUP3 AND SWAP2 POP JUMPDEST PUSH1 0x20 DUP3 LT DUP2 EQ ISZERO PUSH2 0x1A19 JUMPI PUSH4 0x4E487B71 PUSH1 0xE0 SHL PUSH1 0x0 MSTORE PUSH1 0x22 PUSH1 0x4 MSTORE PUSH1 0x24 PUSH1 0x0 REVERT JUMPDEST POP SWAP2 SWAP1 POP JUMP JUMPDEST PUSH1 0x0 PUSH1 0x1 PUSH1 0x1 PUSH1 0xFF SHL SUB DUP3 EQ ISZERO PUSH2 0x1A38 JUMPI PUSH2 0x1A38 PUSH2 0x1A4F JUMP JUMPDEST POP PUSH1 0x1 ADD SWAP1 JUMP JUMPDEST PUSH1 0x0 PUSH1 0x0 NOT DUP3 EQ ISZERO PUSH2 0x1A38 JUMPI PUSH2 0x1A38 JUMPDEST PUSH4 0x4E487B71 PUSH1 0xE0 SHL PUSH1 0x0 MSTORE PUSH1 0x11 PUSH1 0x4 MSTORE PUSH1 0x24 PUSH1 0x0 REVERT JUMPDEST PUSH4 0x4E487B71 PUSH1 0xE0 SHL PUSH1 0x0 MSTORE PUSH1 0x12 PUSH1 0x4 MSTORE PUSH1 0x24 PUSH1 0x0 REVERT JUMPDEST PUSH4 0x4E487B71 PUSH1 0xE0 SHL PUSH1 0x0 MSTORE PUSH1 0x32 PUSH1 0x4 MSTORE PUSH1 0x24 PUSH1 0x0 REVERT JUMPDEST PUSH4 0x4E487B71 PUSH1 0xE0 SHL PUSH1 0x0 MSTORE PUSH1 0x41 PUSH1 0x4 MSTORE PUSH1 0x24 PUSH1 0x0 REVERT INVALID LOG2 PUSH5 0x6970667358 0x22 SLT KECCAK256 0xA5 0xFC CALLVALUE SWAP13 0xEB STOP PC 0x29 CREATE PUSH6 0x7A58B4814625 PUSH18 0x56C3F4F5F5908C698160EB66991DF364736F PUSH13 0x63430008070033A26469706673 PC 0x22 SLT KECCAK256 SELFBALANCE 0xBA SELFBALANCE 0x1F SWAP5 0xF6 0x5E 0xE8 0xD7 JUMPI 0xBE PUSH7 0xE1991B7FB50896 JUMPDEST 0x5E DUP14 0x4C PUSH31 0x2602482D57D76FCA64736F6C63430008070033000000000000000000000000 "},"methodIdentifiers":{"addPlayerToTournament(address)":"ad260418","createTournament(string,(bool,uint256,uint256,string,uint256))":"fbf7c5ee","currentTournamentId()":"fc8e7504","getJoinedTournamentsByPlayer(address)":"86106b1f","getOwner()":"893d20e8","isPlayerRegistered(address)":"1417b82a","joiningFees()":"4959d977","owner()":"8da5cb5b","r_values(uint256)":"d0e34664","register(string,uint256)":"ea87152b","renounceOwnership()":"715018a6","setJoiningFees(uint256)":"e33e879a","setTimeLimit(uint256)":"e2889c82","timeLimit()":"c08d1fe5","tournaments(uint256)":"7503e1b7","transferOwnership(address)":"f2fde38b","winnersPercentage()":"005a0e3d"}}}}}