{"contracts/utils/Errors.sol":{"Errors":{"abi":[{"inputs":[],"name":"MATH_ADDITION_OVERFLOW","outputs":[{"internalType":"string","name":"","type":"string"}],"stateMutability":"view","type":"function"},{"inputs":[],"name":"MATH_DIVISION_BY_ZERO","outputs":[{"internalType":"string","name":"","type":"string"}],"stateMutability":"view","type":"function"},{"inputs":[],"name":"MATH_MULTIPLICATION_OVERFLOW","outputs":[{"internalType":"string","name":"","type":"string"}],"stateMutability":"view","type":"function"}],"evm":{"bytecode":{"linkReferences":{},"object":"61015461003a600b82828239805160001a60731461002d57634e487b7160e01b600052600060045260246000fd5b30600052607381538281f3fe730000000000000000000000000000000000000000301460806040526004361061004b5760003560e01c8063029d2344146100505780630f5ee482146100875780634349e3d8146100a8575b600080fd5b61007160405180604001604052806002815260200161068760f31b81525081565b60405161007e91906100c9565b60405180910390f35b61007160405180604001604052806002815260200161343960f01b81525081565b61007160405180604001604052806002815260200161035360f41b81525081565b600060208083528351808285015260005b818110156100f6578581018301518582016040015282016100da565b81811115610108576000604083870101525b50601f01601f191692909201604001939250505056fea264697066735822122030d53fb40ceb5b792aef439f73c12a5292ff7eaf62d27ab71f338aa277537b2d64736f6c63430008070033","opcodes":"PUSH2 0x154 PUSH2 0x3A PUSH1 0xB DUP3 DUP3 DUP3 CODECOPY DUP1 MLOAD PUSH1 0x0 BYTE PUSH1 0x73 EQ PUSH2 0x2D JUMPI PUSH4 0x4E487B71 PUSH1 0xE0 SHL PUSH1 0x0 MSTORE PUSH1 0x0 PUSH1 0x4 MSTORE PUSH1 0x24 PUSH1 0x0 REVERT JUMPDEST ADDRESS PUSH1 0x0 MSTORE PUSH1 0x73 DUP2 MSTORE8 DUP3 DUP2 RETURN INVALID PUSH20 0x0 ADDRESS EQ PUSH1 0x80 PUSH1 0x40 MSTORE PUSH1 0x4 CALLDATASIZE LT PUSH2 0x4B JUMPI PUSH1 0x0 CALLDATALOAD PUSH1 0xE0 SHR DUP1 PUSH4 0x29D2344 EQ PUSH2 0x50 JUMPI DUP1 PUSH4 0xF5EE482 EQ PUSH2 0x87 JUMPI DUP1 PUSH4 0x4349E3D8 EQ PUSH2 0xA8 JUMPI JUMPDEST PUSH1 0x0 DUP1 REVERT JUMPDEST PUSH2 0x71 PUSH1 0x40 MLOAD DUP1 PUSH1 0x40 ADD PUSH1 0x40 MSTORE DUP1 PUSH1 0x2 DUP2 MSTORE PUSH1 0x20 ADD PUSH2 0x687 PUSH1 0xF3 SHL DUP2 MSTORE POP DUP2 JUMP JUMPDEST PUSH1 0x40 MLOAD PUSH2 0x7E SWAP2 SWAP1 PUSH2 0xC9 JUMP JUMPDEST PUSH1 0x40 MLOAD DUP1 SWAP2 SUB SWAP1 RETURN JUMPDEST PUSH2 0x71 PUSH1 0x40 MLOAD DUP1 PUSH1 0x40 ADD PUSH1 0x40 MSTORE DUP1 PUSH1 0x2 DUP2 MSTORE PUSH1 0x20 ADD PUSH2 0x3439 PUSH1 0xF0 SHL DUP2 MSTORE POP DUP2 JUMP JUMPDEST PUSH2 0x71 PUSH1 0x40 MLOAD DUP1 PUSH1 0x40 ADD PUSH1 0x40 MSTORE DUP1 PUSH1 0x2 DUP2 MSTORE PUSH1 0x20 ADD PUSH2 0x353 PUSH1 0xF4 SHL DUP2 MSTORE POP DUP2 JUMP JUMPDEST PUSH1 0x0 PUSH1 0x20 DUP1 DUP4 MSTORE DUP4 MLOAD DUP1 DUP3 DUP6 ADD MSTORE PUSH1 0x0 JUMPDEST DUP2 DUP2 LT ISZERO PUSH2 0xF6 JUMPI DUP6 DUP2 ADD DUP4 ADD MLOAD DUP6 DUP3 ADD PUSH1 0x40 ADD MSTORE DUP3 ADD PUSH2 0xDA JUMP JUMPDEST DUP2 DUP2 GT ISZERO PUSH2 0x108 JUMPI PUSH1 0x0 PUSH1 0x40 DUP4 DUP8 ADD ADD MSTORE JUMPDEST POP PUSH1 0x1F ADD PUSH1 0x1F NOT AND SWAP3 SWAP1 SWAP3 ADD PUSH1 0x40 ADD SWAP4 SWAP3 POP POP POP JUMP INVALID LOG2 PUSH5 0x6970667358 0x22 SLT KECCAK256 ADDRESS 0xD5 EXTCODEHASH 0xB4 0xC 0xEB JUMPDEST PUSH26 0x2AEF439F73C12A5292FF7EAF62D27AB71F338AA277537B2D6473 PUSH16 0x6C634300080700330000000000000000 "},"methodIdentifiers":{"MATH_ADDITION_OVERFLOW()":"0f5ee482","MATH_DIVISION_BY_ZERO()":"4349e3d8","MATH_MULTIPLICATION_OVERFLOW()":"029d2344"}}}}}