{"contracts/ToTheMooon.sol":{"ToTheMooon":{"abi":[{"inputs":[],"stateMutability":"nonpayable","type":"constructor"},{"anonymous":false,"inputs":[{"indexed":true,"internalType":"address","name":"previousOwner","type":"address"},{"indexed":true,"internalType":"address","name":"newOwner","type":"address"}],"name":"OwnershipTransferred","type":"event"},{"inputs":[{"internalType":"string","name":"_name","type":"string"},{"components":[{"internalType":"bool","name":"isSponsored","type":"bool"},{"internalType":"uint256","name":"prizePool","type":"uint256"},{"internalType":"uint256","name":"nWinners","type":"uint256"},{"internalType":"string","name":"sponsorMetadata","type":"string"},{"internalType":"uint256","name":"commissionPercentage","type":"uint256"}],"internalType":"struct RewardVars","name":"_rewardVars","type":"tuple"}],"name":"createTournament","outputs":[],"stateMutability":"payable","type":"function"},{"inputs":[],"name":"currentTournamentId","outputs":[{"internalType":"uint256","name":"","type":"uint256"}],"stateMutability":"view","type":"function"},{"inputs":[{"internalType":"address","name":"wallet_","type":"address"}],"name":"isPlayerRegistered","outputs":[{"internalType":"bool","name":"","type":"bool"},{"internalType":"string","name":"","type":"string"}],"stateMutability":"view","type":"function"},{"inputs":[],"name":"joiningFees","outputs":[{"internalType":"uint256","name":"","type":"uint256"}],"stateMutability":"view","type":"function"},{"inputs":[],"name":"owner","outputs":[{"internalType":"address","name":"","type":"address"}],"stateMutability":"view","type":"function"},{"inputs":[{"internalType":"uint256","name":"","type":"uint256"}],"name":"r_values","outputs":[{"internalType":"uint256","name":"","type":"uint256"}],"stateMutability":"view","type":"function"},{"inputs":[{"internalType":"string","name":"_name","type":"string"},{"internalType":"uint256","name":"_strlen","type":"uint256"}],"name":"register","outputs":[],"stateMutability":"nonpayable","type":"function"},{"inputs":[],"name":"renounceOwnership","outputs":[],"stateMutability":"nonpayable","type":"function"},{"inputs":[{"internalType":"uint256","name":"joiningFees_","type":"uint256"}],"name":"setJoiningFees","outputs":[],"stateMutability":"nonpayable","type":"function"},{"inputs":[{"internalType":"uint256","name":"timeLimit_","type":"uint256"}],"name":"setTimeLimit","outputs":[],"stateMutability":"nonpayable","type":"function"},{"inputs":[],"name":"timeLimit","outputs":[{"internalType":"uint256","name":"","type":"uint256"}],"stateMutability":"view","type":"function"},{"inputs":[{"internalType":"uint256","name":"","type":"uint256"}],"name":"tournaments","outputs":[{"internalType":"string","name":"name","type":"string"},{"internalType":"uint256","name":"startTime","type":"uint256"},{"internalType":"address","name":"contractAddress","type":"address"},{"components":[{"internalType":"bool","name":"isSponsored","type":"bool"},{"internalType":"uint256","name":"prizePool","type":"uint256"},{"internalType":"uint256","name":"nWinners","type":"uint256"},{"internalType":"string","name":"sponsorMetadata","type":"string"},{"internalType":"uint256","name":"commissionPercentage","type":"uint256"}],"internalType":"struct RewardVars","name":"rewardVars","type":"tuple"}],"stateMutability":"view","type":"function"},{"inputs":[{"internalType":"address","name":"newOwner","type":"address"}],"name":"transferOwnership","outputs":[],"stateMutability":"nonpayable","type":"function"},{"inputs":[],"name":"winnersPercentage","outputs":[{"internalType":"uint256","name":"","type":"uint256"}],"stateMutability":"view","type":"function"}],"evm":{"bytecode":{"linkReferences":{},"object":"608060405262015180600855600a600955611af4600a5534801561002257600080fd5b5061002c3361014a565b60018055600660205262118c307f4da38fc8e544afc56a4c2a17752b8ddb67d8e23ac4583c9029d2e2d1dbe6c98855621067387f098d468efb4f874d617491296c759dc9ae46efb517fe36bcf30699ad3f714c0f55621005907fb6ba906ff52451a7a924e2eaeb8aea3ebee7350a8703e5e417edb25358c7dcc155620fa3e87f95205ee1597333a2b36cc31b0a8c074c0c1fa2918672c4e3dde98e6eb3460fe455620f90607fd4c27e5d2ce7b7345f78d7f5ddc8b90697d63512e00b9f949b158a467d0bfffc55620f69507f294249a73dade72954ce261e2d3e7a241ea69fbb9c559454dd3e40f332fd4f17556103e8600052620f55c87ff416400a389b2271c5c6051273e6b62961b6906215e5f4d9099a99323151c03f5561019a565b600080546001600160a01b038381166001600160a01b0319831681178455604051919092169283917f8be0079c531659141344cd1fd0a4f28419497f9722a3daafe3b4186f6b6457e09190a35050565b612dc0806101a96000396000f3fe608060405260043610620000ee5760003560e01c8063d0e346641162000089578063ea87152b1162000060578063ea87152b1462000279578063f2fde38b146200029e578063fbf7c5ee14620002c3578063fc8e750414620002da57600080fd5b8063d0e3466414620001fe578063e2889c82146200022f578063e33e879a146200025457600080fd5b8063715018a611620000ca578063715018a6146200016b5780637503e1b714620001855780638da5cb5b14620001bc578063c08d1fe514620001e657600080fd5b80625a0e3d14620000f35780631417b82a146200011e5780634959d9771462000153575b600080fd5b3480156200010057600080fd5b506200010b600a5481565b6040519081526020015b60405180910390f35b3480156200012b57600080fd5b50620001436200013d36600462000c48565b620002f2565b6040516200011592919062000e4c565b3480156200016057600080fd5b506200010b60095481565b3480156200017857600080fd5b5062000183620003b8565b005b3480156200019257600080fd5b50620001aa620001a436600462000d9b565b620003d0565b60405162000115949392919062000e71565b348015620001c957600080fd5b506000546040516001600160a01b03909116815260200162000115565b348015620001f357600080fd5b506200010b60085481565b3480156200020b57600080fd5b506200010b6200021d36600462000d9b565b60066020526000908152604090205481565b3480156200023c57600080fd5b50620001836200024e36600462000d9b565b62000568565b3480156200026157600080fd5b50620001836200027336600462000d9b565b62000577565b3480156200028657600080fd5b50620001836200029836600462000d52565b62000586565b348015620002ab57600080fd5b5062000183620002bd36600462000c48565b620006b1565b62000183620002d436600462000c7a565b62000730565b348015620002e757600080fd5b506200010b60075481565b6001600160a01b038116600090815260026020526040812080546001820180546060939260ff1691908190620003289062000fa0565b80601f0160208091040260200160405190810160405280929190818152602001828054620003569062000fa0565b8015620003a75780601f106200037b57610100808354040283529160200191620003a7565b820191906000526020600020905b8154815290600101906020018083116200038957829003601f168201915b505050505090509250925050915091565b620003c2620008f7565b620003ce600062000953565b565b600560205260009081526040902080548190620003ed9062000fa0565b80601f01602080910402602001604051908101604052809291908181526020018280546200041b9062000fa0565b80156200046c5780601f1062000440576101008083540402835291602001916200046c565b820191906000526020600020905b8154815290600101906020018083116200044e57829003601f168201915b50505050600183015460028401546040805160a08101825260038701805460ff161515825260048801546020830152600588015492820192909252600687018054969794966001600160a01b0390941695509092606084019190620004d19062000fa0565b80601f0160208091040260200160405190810160405280929190818152602001828054620004ff9062000fa0565b8015620005505780601f10620005245761010080835404028352916020019162000550565b820191906000526020600020905b8154815290600101906020018083116200053257829003601f168201915b50505050508152602001600482015481525050905084565b62000572620008f7565b600855565b62000581620008f7565b600955565b620005c4826040516020016200059d919062000e2e565b604051602081830303815290604052805190602001206003620009a390919063ffffffff16565b15620006105760405162461bcd60e51b81526020600482015260166024820152752ab9b2b93730b6b29030b63932b0b23c903a30b5b2b760511b60448201526064015b60405180910390fd5b336000908152600260205260409020805460ff16620006ac57620006678360405160200162000640919062000e2e565b604051602081830303815290604052805190602001206003620009c090919063ffffffff16565b506014821162000678578262000687565b620006878360006014620009ce565b80516200069f91600184019160209091019062000aff565b50805460ff191660011781555b505050565b620006bb620008f7565b6001600160a01b038116620007225760405162461bcd60e51b815260206004820152602660248201527f4f776e61626c653a206e6577206f776e657220697320746865207a65726f206160448201526564647265737360d01b606482015260840162000607565b6200072d8162000953565b50565b6200073a620008f7565b60085460075460009081526005602052604090206001015442916200075f9162000f38565b10620007ae5760405162461bcd60e51b815260206004820152601860248201527f546f75726e616d656e74206973207374696c6c206c6976650000000000000000604482015260640162000607565b6000600760008154620007c19062000fdd565b91905081905583423085604051620007d99062000b8e565b620007e995949392919062000ebb565b604051809103906000f08015801562000806573d6000803e3d6000fd5b5090506040518060800160405280848152602001428152602001826001600160a01b031681526020018381525060056000600754815260200190815260200160002060008201518160000190805190602001906200086692919062000aff565b5060208281015160018301556040808401516002840180546001600160a01b0319166001600160a01b03909216919091179055606080850151805160038601805460ff19169115159190911781558185015160048701559281015160058601559081015180519193620008e29260068701929091019062000aff565b50608082015181600401555050905050505050565b6000546001600160a01b03163314620003ce5760405162461bcd60e51b815260206004820181905260248201527f4f776e61626c653a2063616c6c6572206973206e6f7420746865206f776e6572604482015260640162000607565b600080546001600160a01b038381166001600160a01b0319831681178455604051919092169283917f8be0079c531659141344cd1fd0a4f28419497f9722a3daafe3b4186f6b6457e09190a35050565b600081815260018301602052604081205415155b90505b92915050565b6000620009b7838362000aad565b6060836000620009df858562000f53565b67ffffffffffffffff811115620009fa57620009fa62001027565b6040519080825280601f01601f19166020018201604052801562000a25576020820181803683370190505b509050845b8481101562000aa35782818151811062000a485762000a4862001011565b01602001516001600160f81b0319168262000a64888462000f53565b8151811062000a775762000a7762001011565b60200101906001600160f81b031916908160001a9053508062000a9a8162000fdd565b91505062000a2a565b5095945050505050565b600081815260018301602052604081205462000af657508154600181810184556000848152602080822090930184905584548482528286019093526040902091909155620009ba565b506000620009ba565b82805462000b0d9062000fa0565b90600052602060002090601f01602090048101928262000b31576000855562000b7c565b82601f1062000b4c57805160ff191683800117855562000b7c565b8280016001018555821562000b7c579182015b8281111562000b7c57825182559160200191906001019062000b5f565b5062000b8a92915062000b9c565b5090565b611d4d806200103e83390190565b5b8082111562000b8a576000815560010162000b9d565b600082601f83011262000bc557600080fd5b813567ffffffffffffffff8082111562000be35762000be362001027565b604051601f8301601f19908116603f0116810190828211818310171562000c0e5762000c0e62001027565b8160405283815286602085880101111562000c2857600080fd5b836020870160208301376000602085830101528094505050505092915050565b60006020828403121562000c5b57600080fd5b81356001600160a01b038116811462000c7357600080fd5b9392505050565b6000806040838503121562000c8e57600080fd5b823567ffffffffffffffff8082111562000ca757600080fd5b62000cb58683870162000bb3565b9350602085013591508082111562000ccc57600080fd5b9084019060a0828703121562000ce157600080fd5b62000ceb62000f0c565b8235801515811462000cfc57600080fd5b80825250602083013560208201526040830135604082015260608301358281111562000d2757600080fd5b62000d358882860162000bb3565b606083015250608083013560808201528093505050509250929050565b6000806040838503121562000d6657600080fd5b823567ffffffffffffffff81111562000d7e57600080fd5b62000d8c8582860162000bb3565b95602094909401359450505050565b60006020828403121562000dae57600080fd5b5035919050565b6000815180845262000dcf81602086016020860162000f6d565b601f01601f19169290920160200192915050565b80511515825260208101516020830152604081015160408301526000606082015160a0606085015262000e1a60a085018262000db5565b608093840151949093019390935250919050565b6000825162000e4281846020870162000f6d565b9190910192915050565b821515815260406020820152600062000e69604083018462000db5565b949350505050565b60808152600062000e86608083018762000db5565b602083018690526001600160a01b0385166040840152828103606084015262000eb0818562000de3565b979650505050505050565b85815260a06020820152600062000ed660a083018762000db5565b604083018690526001600160a01b0385166060840152828103608084015262000f00818562000de3565b98975050505050505050565b60405160a0810167ffffffffffffffff8111828210171562000f325762000f3262001027565b60405290565b6000821982111562000f4e5762000f4e62000ffb565b500190565b60008282101562000f685762000f6862000ffb565b500390565b60005b8381101562000f8a57818101518382015260200162000f70565b8381111562000f9a576000848401525b50505050565b600181811c9082168062000fb557607f821691505b6020821081141562000fd757634e487b7160e01b600052602260045260246000fd5b50919050565b600060001982141562000ff45762000ff462000ffb565b5060010190565b634e487b7160e01b600052601160045260246000fd5b634e487b7160e01b600052603260045260246000fd5b634e487b7160e01b600052604160045260246000fdfe60806040523480156200001157600080fd5b5060405162001d4d38038062001d4d8339810160408190526200003491620003fe565b6001600081905585905583516200005390600290602087019062000267565b506003839055600680546001600160a01b0319166001600160a01b0384169081179091556040805163c08d1fe560e01b8152905163c08d1fe591600480820192602092909190829003018186803b158015620000ae57600080fd5b505afa158015620000c3573d6000803e3d6000fd5b505050506040513d601f19601f82011682018060405250810190620000e99190620003e4565b600490815560065460408051634959d97760e01b815290516001600160a01b0390921692634959d977928282019260209290829003018186803b1580156200013057600080fd5b505afa15801562000145573d6000803e3d6000fd5b505050506040513d601f19601f820116820180604052508101906200016b9190620003e4565b60055560065460408051638da5cb5b60e01b815290516001600160a01b0390921691638da5cb5b91600480820192602092909190829003018186803b158015620001b457600080fd5b505afa158015620001c9573d6000803e3d6000fd5b505050506040513d601f19601f82011682018060405250810190620001ef9190620003bf565b600780546001600160a01b0319166001600160a01b039290921691909117905580516008805460ff19169115159190911781556020808301516009556040830151600a55606083015180518493926200024e92600b9291019062000267565b50608082015181600401559050505050505050620005ad565b82805462000275906200055a565b90600052602060002090601f016020900481019282620002995760008555620002e4565b82601f10620002b457805160ff1916838001178555620002e4565b82800160010185558215620002e4579182015b82811115620002e4578251825591602001919060010190620002c7565b50620002f2929150620002f6565b5090565b5b80821115620002f25760008155600101620002f7565b80516001600160a01b03811681146200032557600080fd5b919050565b600082601f8301126200033c57600080fd5b81516001600160401b0381111562000358576200035862000597565b60206200036e601f8301601f1916820162000527565b82815285828487010111156200038357600080fd5b60005b83811015620003a357858101830151828201840152820162000386565b83811115620003b55760008385840101525b5095945050505050565b600060208284031215620003d257600080fd5b620003dd826200030d565b9392505050565b600060208284031215620003f757600080fd5b5051919050565b600080600080600060a086880312156200041757600080fd5b855160208701519095506001600160401b03808211156200043757600080fd5b6200044589838a016200032a565b9550604088015194506200045c606089016200030d565b935060808801519150808211156200047357600080fd5b9087019060a0828a0312156200048857600080fd5b62000492620004fc565b82518015158114620004a357600080fd5b808252506020830151602082015260408301516040820152606083015182811115620004ce57600080fd5b620004dc8b8286016200032a565b606083015250608083015160808201528093505050509295509295909350565b60405160a081016001600160401b038111828210171562000521576200052162000597565b60405290565b604051601f8201601f191681016001600160401b038111828210171562000552576200055262000597565b604052919050565b600181811c908216806200056f57607f821691505b602082108114156200059157634e487b7160e01b600052602260045260246000fd5b50919050565b634e487b7160e01b600052604160045260246000fd5b61179080620005bd6000396000f3fe6080604052600436106100dd5760003560e01c8063858dbf7d1161007f578063c08d1fe511610059578063c08d1fe514610251578063c29d72bc14610267578063d3f3300914610289578063fbd53482146102a957600080fd5b8063858dbf7d146101b3578063ab632d4a146101d9578063af640d0f1461023b57600080fd5b80634959d977116100bb5780634959d9771461015c5780634d633a8f1461018057806378e97925146101955780637ce11861146101ab57600080fd5b806306fdde03146100e257806345446d711461010d57806348d37a5814610145575b600080fd5b3480156100ee57600080fd5b506100f76102c9565b6040516101049190611526565b60405180910390f35b34801561011957600080fd5b5060075461012d906001600160a01b031681565b6040516001600160a01b039091168152602001610104565b34801561015157600080fd5b5061015a610357565b005b34801561016857600080fd5b5061017260055481565b604051908152602001610104565b34801561018c57600080fd5b5061015a6103a5565b3480156101a157600080fd5b5061017260035481565b61015a610567565b3480156101bf57600080fd5b506101c86106e0565b6040516101049594939291906114ed565b3480156101e557600080fd5b5061021b6101f4366004611305565b600f6020526000908152604090208054600182015460028301546003909301549192909184565b604080519485526020850193909352918301526060820152608001610104565b34801561024757600080fd5b5061017260015481565b34801561025d57600080fd5b5061017260045481565b34801561027357600080fd5b5061027c61078b565b6040516101049190611457565b34801561029557600080fd5b5060065461012d906001600160a01b031681565b3480156102b557600080fd5b5061015a6102c4366004611320565b610c81565b600280546102d690611697565b80601f016020809104026020016040519081016040528092919081815260200182805461030290611697565b801561034f5780601f106103245761010080835404028352916020019161034f565b820191906000526020600020905b81548152906001019060200180831161033257829003601f168201915b505050505081565b336000908152600f602052604090206003810154156103a25760006003820181905560405133916108fc9181818181818888f193505050501580156103a0573d6000803e3d6000fd5b505b50565b6007546001600160a01b031633146103f55760405162461bcd60e51b815260206004820152600e60248201526d139bdd08185d5d1a1bdc9a5e995960921b60448201526064015b60405180910390fd5b42600454600354610406919061157a565b106104535760405162461bcd60e51b815260206004820152601860248201527f546f75726e616d656e74206973207374696c6c206c697665000000000000000060448201526064016103ec565b600061045d61078b565b905060005b61046c600d610d40565b8110156103a057604051806080016040528082600161048b919061157a565b81526020018383815181106104a2576104a261172e565b60200260200101516040015181526020018383815181106104c5576104c561172e565b60200260200101516060015181526020018383815181106104e8576104e861172e565b602002602001015160600151815250600f600084848151811061050d5761050d61172e565b602090810291909101810151516001600160a01b031682528181019290925260409081016000208351815591830151600183015582015160028201556060909101516003909101558061055f816116f2565b915050610462565b42600454600354610578919061157a565b116105bc5760405162461bcd60e51b8152602060048201526014602482015273151bdd5c9b985b595b9d081a185cc8195b99195960621b60448201526064016103ec565b600654604051630a0bdc1560e11b81523360048201526000916001600160a01b031690631417b82a9060240160006040518083038186803b15801561060057600080fd5b505afa158015610614573d6000803e3d6000fd5b505050506040513d6000823e601f3d908101601f1916820160405261063c919081019061134a565b509050806106845760405162461bcd60e51b8152602060048201526015602482015274141b185e595c881b9bdd081c9959da5cdd195c9959605a1b60448201526064016103ec565b60055434146106d55760405162461bcd60e51b815260206004820152601960248201527f4a6f696e696e672046656573206e6f742070726f76696465640000000000000060448201526064016103ec565b6103a0600d33610d50565b60088054600954600a54600b805460ff90941694929391929161070290611697565b80601f016020809104026020016040519081016040528092919081815260200182805461072e90611697565b801561077b5780601f106107505761010080835404028352916020019161077b565b820191906000526020600020905b81548152906001019060200180831161075e57829003601f168201915b5050505050908060040154905085565b60606000610799600d610d40565b67ffffffffffffffff8111156107b1576107b1611744565b60405190808252806020026020018201604052801561081657816020015b610803604051806080016040528060006001600160a01b031681526020016060815260200160008152602001600081525090565b8152602001906001900390816107cf5790505b50905060005b610826600d610d40565b81101561095257600654604051630a0bdc1560e11b81523360048201526000916001600160a01b031690631417b82a9060240160006040518083038186803b15801561087157600080fd5b505afa158015610885573d6000803e3d6000fd5b505050506040513d6000823e601f3d908101601f191682016040526108ad919081019061134a565b91505060405180608001604052806108cf84600d610d6c90919063ffffffff16565b6001600160a01b0316815260208101839052604001600f60006108f3600d87610d6c565b6001600160a01b03166001600160a01b0316815260200190815260200160002060010154815260200160008152508383815181106109335761093361172e565b602002602001018190525050808061094a906116f2565b91505061081c565b506109748160006001610965600d610d40565b61096f9190611632565b610d78565b6040805160a0810190915260085460ff16801515825291925060009160208201906109e5576109bf6008600401546005546109af600d610d40565b6109b991906115d4565b90610f17565b6005546109cc600d610d40565b6109d691906115d4565b6109e09190611632565b6109e9565b6009545b8152602001610b1f610a83600660009054906101000a90046001600160a01b03166001600160a01b0316625a0e3d6040518163ffffffff1660e01b815260040160206040518083038186803b158015610a4157600080fd5b505afa158015610a55573d6000803e3d6000fd5b505050506040513d601f19601f82011682018060405250810190610a799190611412565b6109b9600d610d40565b60085460ff16610b175760065460408051625a0e3d60e01b81529051600a926001600160a01b031691625a0e3d916004808301926020929190829003018186803b158015610ad057600080fd5b505afa158015610ae4573d6000803e3d6000fd5b505050506040513d601f19601f82011682018060405250810190610b089190611412565b610b1291906115c0565b610fbe565b600a54610fbe565b815260200160086003018054610b3490611697565b80601f0160208091040260200160405190810160405280929190818152602001828054610b6090611697565b8015610bad5780601f10610b8257610100808354040283529160200191610bad565b820191906000526020600020905b815481529060010190602001808311610b9057829003601f168201915b5050509183525050600c5460209091015290506000610bd4610bcf600d610d40565b610fd6565b90506000620f4240610bea8385604001516111b7565b610bf49190611632565b610c01620f424084611632565b8460200151610c1091906115d4565b610c1a91906115c0565b905060005b610c29600d610d40565b811015610c7757610c3a83826111b7565b610c4490836115d4565b858281518110610c5657610c5661172e565b60209081029190910101516060015280610c6f816116f2565b915050610c1f565b5092949350505050565b6007546001600160a01b03163314610ccc5760405162461bcd60e51b815260206004820152600e60248201526d139bdd08185d5d1a1bdc9a5e995960921b60448201526064016103ec565b42600454600354610cdd919061157a565b11610d215760405162461bcd60e51b8152602060048201526014602482015273151bdd5c9b985b595b9d081a185cc8195b99195960621b60448201526064016103ec565b6001600160a01b039091166000908152600f6020526040902060010155565b6000610d4a825490565b92915050565b6000610d65836001600160a01b0384166111ea565b9392505050565b6000610d658383611239565b6060818312610d88575082610d65565b6000846002610d9786866115f3565b610da19190611592565b610dab9086611539565b81518110610dbb57610dbb61172e565b602090810291909101015160400151905083835b808213610ee2575b82878381518110610dea57610dea61172e565b6020026020010151604001511115610e0e5781610e06816116d2565b925050610dd7565b868181518110610e2057610e2061172e565b602002602001015160400151831115610e455780610e3d81611679565b915050610e0e565b808213610edd576000878381518110610e6057610e6061172e565b60200260200101519050878281518110610e7c57610e7c61172e565b6020026020010151888481518110610e9657610e9661172e565b602002602001018190525080888381518110610eb457610eb461172e565b60200260200101819052508280610eca906116d2565b9350508180610ed890611679565b925050505b610dcf565b80861215610ef757610ef5878783610d78565b505b84821215610f0c57610f0a878387610d78565b505b509495945050505050565b6000821580610f24575081155b15610f3157506000610d4a565b81610f3f60026127106115c0565b610f4b90600019611632565b610f5591906115c0565b83111560405180604001604052806002815260200161068760f31b81525090610f915760405162461bcd60e51b81526004016103ec9190611526565b50612710610fa06002826115c0565b610faa84866115d4565b610fb4919061157a565b610d6591906115c0565b600081831115610fcf575080610d4a565b5090919050565b6000600a82101561105e57600654604051633438d19960e21b8152600a60048201526001600160a01b039091169063d0e34664906024015b60206040518083038186803b15801561102657600080fd5b505afa15801561103a573d6000803e3d6000fd5b505050506040513d601f19601f82011682018060405250810190610d4a9190611412565b601482101561109857600654604051633438d19960e21b8152601460048201526001600160a01b039091169063d0e346649060240161100e565b601e8210156110d257600654604051633438d19960e21b8152601e60048201526001600160a01b039091169063d0e346649060240161100e565b602882101561110c57600654604051633438d19960e21b8152602860048201526001600160a01b039091169063d0e346649060240161100e565b603282101561114657600654604051633438d19960e21b8152603260048201526001600160a01b039091169063d0e346649060240161100e565b606482101561118057600654604051633438d19960e21b8152606460048201526001600160a01b039091169063d0e346649060240161100e565b600654604051633438d19960e21b81526103e860048201526001600160a01b039091169063d0e346649060240161100e565b919050565b600082815b838110156111e2576111ce8286611263565b9150806111da816116f2565b9150506111bc565b509392505050565b600081815260018301602052604081205461123157508154600181810184556000848152602080822090930184905584548482528286019093526040902091909155610d4a565b506000610d4a565b60008260000182815481106112505761125061172e565b9060005260206000200154905092915050565b6000821580611270575081155b1561127d57506000610d4a565b8161128c6002620f42406115c0565b61129890600019611632565b6112a291906115c0565b83111560405180604001604052806002815260200161068760f31b815250906112de5760405162461bcd60e51b81526004016103ec9190611526565b50620f4240610fa06002826115c0565b80356001600160a01b03811681146111b257600080fd5b60006020828403121561131757600080fd5b610d65826112ee565b6000806040838503121561133357600080fd5b61133c836112ee565b946020939093013593505050565b6000806040838503121561135d57600080fd5b8251801515811461136d57600080fd5b602084015190925067ffffffffffffffff8082111561138b57600080fd5b818501915085601f83011261139f57600080fd5b8151818111156113b1576113b1611744565b604051601f8201601f19908116603f011681019083821181831017156113d9576113d9611744565b816040528281528860208487010111156113f257600080fd5b611403836020830160208801611649565b80955050505050509250929050565b60006020828403121561142457600080fd5b5051919050565b60008151808452611443816020860160208601611649565b601f01601f19169290920160200192915050565b60006020808301818452808551808352604092508286019150828160051b87010184880160005b838110156114df57888303603f19018552815180516001600160a01b03168452878101516080898601819052906114b78287018261142b565b838a0151878b015260609384015193909601929092525050938601939086019060010161147e565b509098975050505050505050565b851515815284602082015283604082015260a06060820152600061151460a083018561142b565b90508260808301529695505050505050565b602081526000610d65602083018461142b565b600080821280156001600160ff1b038490038513161561155b5761155b611702565b600160ff1b839003841281161561157457611574611702565b50500190565b6000821982111561158d5761158d611702565b500190565b6000826115a1576115a1611718565b600160ff1b8214600019841416156115bb576115bb611702565b500590565b6000826115cf576115cf611718565b500490565b60008160001904831182151516156115ee576115ee611702565b500290565b60008083128015600160ff1b85018412161561161157611611611702565b6001600160ff1b038401831381161561162c5761162c611702565b50500390565b60008282101561164457611644611702565b500390565b60005b8381101561166457818101518382015260200161164c565b83811115611673576000848401525b50505050565b6000600160ff1b82141561168f5761168f611702565b506000190190565b600181811c908216806116ab57607f821691505b602082108114156116cc57634e487b7160e01b600052602260045260246000fd5b50919050565b60006001600160ff1b038214156116eb576116eb611702565b5060010190565b60006000198214156116eb576116eb5b634e487b7160e01b600052601160045260246000fd5b634e487b7160e01b600052601260045260246000fd5b634e487b7160e01b600052603260045260246000fd5b634e487b7160e01b600052604160045260246000fdfea264697066735822122020665c1b6dc239ad5593946faa61dd005c4723a8b4c884885051f3fa81a7ee3a64736f6c63430008070033a264697066735822122043940c429de75e0350b969894dab8fd5b99dfbcc692491a0ba5668416c1f42cc64736f6c63430008070033","opcodes":"PUSH1 0x80 PUSH1 0x40 MSTORE PUSH3 0x15180 PUSH1 0x8 SSTORE PUSH1 0xA PUSH1 0x9 SSTORE PUSH2 0x1AF4 PUSH1 0xA SSTORE CALLVALUE DUP1 ISZERO PUSH2 0x22 JUMPI PUSH1 0x0 DUP1 REVERT JUMPDEST POP PUSH2 0x2C CALLER PUSH2 0x14A JUMP JUMPDEST PUSH1 0x1 DUP1 SSTORE PUSH1 0x6 PUSH1 0x20 MSTORE PUSH3 0x118C30 PUSH32 0x4DA38FC8E544AFC56A4C2A17752B8DDB67D8E23AC4583C9029D2E2D1DBE6C988 SSTORE PUSH3 0x106738 PUSH32 0x98D468EFB4F874D617491296C759DC9AE46EFB517FE36BCF30699AD3F714C0F SSTORE PUSH3 0x100590 PUSH32 0xB6BA906FF52451A7A924E2EAEB8AEA3EBEE7350A8703E5E417EDB25358C7DCC1 SSTORE PUSH3 0xFA3E8 PUSH32 0x95205EE1597333A2B36CC31B0A8C074C0C1FA2918672C4E3DDE98E6EB3460FE4 SSTORE PUSH3 0xF9060 PUSH32 0xD4C27E5D2CE7B7345F78D7F5DDC8B90697D63512E00B9F949B158A467D0BFFFC SSTORE PUSH3 0xF6950 PUSH32 0x294249A73DADE72954CE261E2D3E7A241EA69FBB9C559454DD3E40F332FD4F17 SSTORE PUSH2 0x3E8 PUSH1 0x0 MSTORE PUSH3 0xF55C8 PUSH32 0xF416400A389B2271C5C6051273E6B62961B6906215E5F4D9099A99323151C03F SSTORE PUSH2 0x19A JUMP JUMPDEST PUSH1 0x0 DUP1 SLOAD PUSH1 0x1 PUSH1 0x1 PUSH1 0xA0 SHL SUB DUP4 DUP2 AND PUSH1 0x1 PUSH1 0x1 PUSH1 0xA0 SHL SUB NOT DUP4 AND DUP2 OR DUP5 SSTORE PUSH1 0x40 MLOAD SWAP2 SWAP1 SWAP3 AND SWAP3 DUP4 SWAP2 PUSH32 0x8BE0079C531659141344CD1FD0A4F28419497F9722A3DAAFE3B4186F6B6457E0 SWAP2 SWAP1 LOG3 POP POP JUMP JUMPDEST PUSH2 0x2DC0 DUP1 PUSH2 0x1A9 PUSH1 0x0 CODECOPY PUSH1 0x0 RETURN INVALID PUSH1 0x80 PUSH1 0x40 MSTORE PUSH1 0x4 CALLDATASIZE LT PUSH3 0xEE JUMPI PUSH1 0x0 CALLDATALOAD PUSH1 0xE0 SHR DUP1 PUSH4 0xD0E34664 GT PUSH3 0x89 JUMPI DUP1 PUSH4 0xEA87152B GT PUSH3 0x60 JUMPI DUP1 PUSH4 0xEA87152B EQ PUSH3 0x279 JUMPI DUP1 PUSH4 0xF2FDE38B EQ PUSH3 0x29E JUMPI DUP1 PUSH4 0xFBF7C5EE EQ PUSH3 0x2C3 JUMPI DUP1 PUSH4 0xFC8E7504 EQ PUSH3 0x2DA JUMPI PUSH1 0x0 DUP1 REVERT JUMPDEST DUP1 PUSH4 0xD0E34664 EQ PUSH3 0x1FE JUMPI DUP1 PUSH4 0xE2889C82 EQ PUSH3 0x22F JUMPI DUP1 PUSH4 0xE33E879A EQ PUSH3 0x254 JUMPI PUSH1 0x0 DUP1 REVERT JUMPDEST DUP1 PUSH4 0x715018A6 GT PUSH3 0xCA JUMPI DUP1 PUSH4 0x715018A6 EQ PUSH3 0x16B JUMPI DUP1 PUSH4 0x7503E1B7 EQ PUSH3 0x185 JUMPI DUP1 PUSH4 0x8DA5CB5B EQ PUSH3 0x1BC JUMPI DUP1 PUSH4 0xC08D1FE5 EQ PUSH3 0x1E6 JUMPI PUSH1 0x0 DUP1 REVERT JUMPDEST DUP1 PUSH3 0x5A0E3D EQ PUSH3 0xF3 JUMPI DUP1 PUSH4 0x1417B82A EQ PUSH3 0x11E JUMPI DUP1 PUSH4 0x4959D977 EQ PUSH3 0x153 JUMPI JUMPDEST PUSH1 0x0 DUP1 REVERT JUMPDEST CALLVALUE DUP1 ISZERO PUSH3 0x100 JUMPI PUSH1 0x0 DUP1 REVERT JUMPDEST POP PUSH3 0x10B PUSH1 0xA SLOAD DUP2 JUMP JUMPDEST PUSH1 0x40 MLOAD SWAP1 DUP2 MSTORE PUSH1 0x20 ADD JUMPDEST PUSH1 0x40 MLOAD DUP1 SWAP2 SUB SWAP1 RETURN JUMPDEST CALLVALUE DUP1 ISZERO PUSH3 0x12B JUMPI PUSH1 0x0 DUP1 REVERT JUMPDEST POP PUSH3 0x143 PUSH3 0x13D CALLDATASIZE PUSH1 0x4 PUSH3 0xC48 JUMP JUMPDEST PUSH3 0x2F2 JUMP JUMPDEST PUSH1 0x40 MLOAD PUSH3 0x115 SWAP3 SWAP2 SWAP1 PUSH3 0xE4C JUMP JUMPDEST CALLVALUE DUP1 ISZERO PUSH3 0x160 JUMPI PUSH1 0x0 DUP1 REVERT JUMPDEST POP PUSH3 0x10B PUSH1 0x9 SLOAD DUP2 JUMP JUMPDEST CALLVALUE DUP1 ISZERO PUSH3 0x178 JUMPI PUSH1 0x0 DUP1 REVERT JUMPDEST POP PUSH3 0x183 PUSH3 0x3B8 JUMP JUMPDEST STOP JUMPDEST CALLVALUE DUP1 ISZERO PUSH3 0x192 JUMPI PUSH1 0x0 DUP1 REVERT JUMPDEST POP PUSH3 0x1AA PUSH3 0x1A4 CALLDATASIZE PUSH1 0x4 PUSH3 0xD9B JUMP JUMPDEST PUSH3 0x3D0 JUMP JUMPDEST PUSH1 0x40 MLOAD PUSH3 0x115 SWAP5 SWAP4 SWAP3 SWAP2 SWAP1 PUSH3 0xE71 JUMP JUMPDEST CALLVALUE DUP1 ISZERO PUSH3 0x1C9 JUMPI PUSH1 0x0 DUP1 REVERT JUMPDEST POP PUSH1 0x0 SLOAD PUSH1 0x40 MLOAD PUSH1 0x1 PUSH1 0x1 PUSH1 0xA0 SHL SUB SWAP1 SWAP2 AND DUP2 MSTORE PUSH1 0x20 ADD PUSH3 0x115 JUMP JUMPDEST CALLVALUE DUP1 ISZERO PUSH3 0x1F3 JUMPI PUSH1 0x0 DUP1 REVERT JUMPDEST POP PUSH3 0x10B PUSH1 0x8 SLOAD DUP2 JUMP JUMPDEST CALLVALUE DUP1 ISZERO PUSH3 0x20B JUMPI PUSH1 0x0 DUP1 REVERT JUMPDEST POP PUSH3 0x10B PUSH3 0x21D CALLDATASIZE PUSH1 0x4 PUSH3 0xD9B JUMP JUMPDEST PUSH1 0x6 PUSH1 0x20 MSTORE PUSH1 0x0 SWAP1 DUP2 MSTORE PUSH1 0x40 SWAP1 KECCAK256 SLOAD DUP2 JUMP JUMPDEST CALLVALUE DUP1 ISZERO PUSH3 0x23C JUMPI PUSH1 0x0 DUP1 REVERT JUMPDEST POP PUSH3 0x183 PUSH3 0x24E CALLDATASIZE PUSH1 0x4 PUSH3 0xD9B JUMP JUMPDEST PUSH3 0x568 JUMP JUMPDEST CALLVALUE DUP1 ISZERO PUSH3 0x261 JUMPI PUSH1 0x0 DUP1 REVERT JUMPDEST POP PUSH3 0x183 PUSH3 0x273 CALLDATASIZE PUSH1 0x4 PUSH3 0xD9B JUMP JUMPDEST PUSH3 0x577 JUMP JUMPDEST CALLVALUE DUP1 ISZERO PUSH3 0x286 JUMPI PUSH1 0x0 DUP1 REVERT JUMPDEST POP PUSH3 0x183 PUSH3 0x298 CALLDATASIZE PUSH1 0x4 PUSH3 0xD52 JUMP JUMPDEST PUSH3 0x586 JUMP JUMPDEST CALLVALUE DUP1 ISZERO PUSH3 0x2AB JUMPI PUSH1 0x0 DUP1 REVERT JUMPDEST POP PUSH3 0x183 PUSH3 0x2BD CALLDATASIZE PUSH1 0x4 PUSH3 0xC48 JUMP JUMPDEST PUSH3 0x6B1 JUMP JUMPDEST PUSH3 0x183 PUSH3 0x2D4 CALLDATASIZE PUSH1 0x4 PUSH3 0xC7A JUMP JUMPDEST PUSH3 0x730 JUMP JUMPDEST CALLVALUE DUP1 ISZERO PUSH3 0x2E7 JUMPI PUSH1 0x0 DUP1 REVERT JUMPDEST POP PUSH3 0x10B PUSH1 0x7 SLOAD DUP2 JUMP JUMPDEST PUSH1 0x1 PUSH1 0x1 PUSH1 0xA0 SHL SUB DUP2 AND PUSH1 0x0 SWAP1 DUP2 MSTORE PUSH1 0x2 PUSH1 0x20 MSTORE PUSH1 0x40 DUP2 KECCAK256 DUP1 SLOAD PUSH1 0x1 DUP3 ADD DUP1 SLOAD PUSH1 0x60 SWAP4 SWAP3 PUSH1 0xFF AND SWAP2 SWAP1 DUP2 SWAP1 PUSH3 0x328 SWAP1 PUSH3 0xFA0 JUMP JUMPDEST DUP1 PUSH1 0x1F ADD PUSH1 0x20 DUP1 SWAP2 DIV MUL PUSH1 0x20 ADD PUSH1 0x40 MLOAD SWAP1 DUP2 ADD PUSH1 0x40 MSTORE DUP1 SWAP3 SWAP2 SWAP1 DUP2 DUP2 MSTORE PUSH1 0x20 ADD DUP3 DUP1 SLOAD PUSH3 0x356 SWAP1 PUSH3 0xFA0 JUMP JUMPDEST DUP1 ISZERO PUSH3 0x3A7 JUMPI DUP1 PUSH1 0x1F LT PUSH3 0x37B JUMPI PUSH2 0x100 DUP1 DUP4 SLOAD DIV MUL DUP4 MSTORE SWAP2 PUSH1 0x20 ADD SWAP2 PUSH3 0x3A7 JUMP JUMPDEST DUP3 ADD SWAP2 SWAP1 PUSH1 0x0 MSTORE PUSH1 0x20 PUSH1 0x0 KECCAK256 SWAP1 JUMPDEST DUP2 SLOAD DUP2 MSTORE SWAP1 PUSH1 0x1 ADD SWAP1 PUSH1 0x20 ADD DUP1 DUP4 GT PUSH3 0x389 JUMPI DUP3 SWAP1 SUB PUSH1 0x1F AND DUP3 ADD SWAP2 JUMPDEST POP POP POP POP POP SWAP1 POP SWAP3 POP SWAP3 POP POP SWAP2 POP SWAP2 JUMP JUMPDEST PUSH3 0x3C2 PUSH3 0x8F7 JUMP JUMPDEST PUSH3 0x3CE PUSH1 0x0 PUSH3 0x953 JUMP JUMPDEST JUMP JUMPDEST PUSH1 0x5 PUSH1 0x20 MSTORE PUSH1 0x0 SWAP1 DUP2 MSTORE PUSH1 0x40 SWAP1 KECCAK256 DUP1 SLOAD DUP2 SWAP1 PUSH3 0x3ED SWAP1 PUSH3 0xFA0 JUMP JUMPDEST DUP1 PUSH1 0x1F ADD PUSH1 0x20 DUP1 SWAP2 DIV MUL PUSH1 0x20 ADD PUSH1 0x40 MLOAD SWAP1 DUP2 ADD PUSH1 0x40 MSTORE DUP1 SWAP3 SWAP2 SWAP1 DUP2 DUP2 MSTORE PUSH1 0x20 ADD DUP3 DUP1 SLOAD PUSH3 0x41B SWAP1 PUSH3 0xFA0 JUMP JUMPDEST DUP1 ISZERO PUSH3 0x46C JUMPI DUP1 PUSH1 0x1F LT PUSH3 0x440 JUMPI PUSH2 0x100 DUP1 DUP4 SLOAD DIV MUL DUP4 MSTORE SWAP2 PUSH1 0x20 ADD SWAP2 PUSH3 0x46C JUMP JUMPDEST DUP3 ADD SWAP2 SWAP1 PUSH1 0x0 MSTORE PUSH1 0x20 PUSH1 0x0 KECCAK256 SWAP1 JUMPDEST DUP2 SLOAD DUP2 MSTORE SWAP1 PUSH1 0x1 ADD SWAP1 PUSH1 0x20 ADD DUP1 DUP4 GT PUSH3 0x44E JUMPI DUP3 SWAP1 SUB PUSH1 0x1F AND DUP3 ADD SWAP2 JUMPDEST POP POP POP POP PUSH1 0x1 DUP4 ADD SLOAD PUSH1 0x2 DUP5 ADD SLOAD PUSH1 0x40 DUP1 MLOAD PUSH1 0xA0 DUP2 ADD DUP3 MSTORE PUSH1 0x3 DUP8 ADD DUP1 SLOAD PUSH1 0xFF AND ISZERO ISZERO DUP3 MSTORE PUSH1 0x4 DUP9 ADD SLOAD PUSH1 0x20 DUP4 ADD MSTORE PUSH1 0x5 DUP9 ADD SLOAD SWAP3 DUP3 ADD SWAP3 SWAP1 SWAP3 MSTORE PUSH1 0x6 DUP8 ADD DUP1 SLOAD SWAP7 SWAP8 SWAP5 SWAP7 PUSH1 0x1 PUSH1 0x1 PUSH1 0xA0 SHL SUB SWAP1 SWAP5 AND SWAP6 POP SWAP1 SWAP3 PUSH1 0x60 DUP5 ADD SWAP2 SWAP1 PUSH3 0x4D1 SWAP1 PUSH3 0xFA0 JUMP JUMPDEST DUP1 PUSH1 0x1F ADD PUSH1 0x20 DUP1 SWAP2 DIV MUL PUSH1 0x20 ADD PUSH1 0x40 MLOAD SWAP1 DUP2 ADD PUSH1 0x40 MSTORE DUP1 SWAP3 SWAP2 SWAP1 DUP2 DUP2 MSTORE PUSH1 0x20 ADD DUP3 DUP1 SLOAD PUSH3 0x4FF SWAP1 PUSH3 0xFA0 JUMP JUMPDEST DUP1 ISZERO PUSH3 0x550 JUMPI DUP1 PUSH1 0x1F LT PUSH3 0x524 JUMPI PUSH2 0x100 DUP1 DUP4 SLOAD DIV MUL DUP4 MSTORE SWAP2 PUSH1 0x20 ADD SWAP2 PUSH3 0x550 JUMP JUMPDEST DUP3 ADD SWAP2 SWAP1 PUSH1 0x0 MSTORE PUSH1 0x20 PUSH1 0x0 KECCAK256 SWAP1 JUMPDEST DUP2 SLOAD DUP2 MSTORE SWAP1 PUSH1 0x1 ADD SWAP1 PUSH1 0x20 ADD DUP1 DUP4 GT PUSH3 0x532 JUMPI DUP3 SWAP1 SUB PUSH1 0x1F AND DUP3 ADD SWAP2 JUMPDEST POP POP POP POP POP DUP2 MSTORE PUSH1 0x20 ADD PUSH1 0x4 DUP3 ADD SLOAD DUP2 MSTORE POP POP SWAP1 POP DUP5 JUMP JUMPDEST PUSH3 0x572 PUSH3 0x8F7 JUMP JUMPDEST PUSH1 0x8 SSTORE JUMP JUMPDEST PUSH3 0x581 PUSH3 0x8F7 JUMP JUMPDEST PUSH1 0x9 SSTORE JUMP JUMPDEST PUSH3 0x5C4 DUP3 PUSH1 0x40 MLOAD PUSH1 0x20 ADD PUSH3 0x59D SWAP2 SWAP1 PUSH3 0xE2E JUMP JUMPDEST PUSH1 0x40 MLOAD PUSH1 0x20 DUP2 DUP4 SUB SUB DUP2 MSTORE SWAP1 PUSH1 0x40 MSTORE DUP1 MLOAD SWAP1 PUSH1 0x20 ADD KECCAK256 PUSH1 0x3 PUSH3 0x9A3 SWAP1 SWAP2 SWAP1 PUSH4 0xFFFFFFFF AND JUMP JUMPDEST ISZERO PUSH3 0x610 JUMPI PUSH1 0x40 MLOAD PUSH3 0x461BCD PUSH1 0xE5 SHL DUP2 MSTORE PUSH1 0x20 PUSH1 0x4 DUP3 ADD MSTORE PUSH1 0x16 PUSH1 0x24 DUP3 ADD MSTORE PUSH22 0x2AB9B2B93730B6B29030B63932B0B23C903A30B5B2B7 PUSH1 0x51 SHL PUSH1 0x44 DUP3 ADD MSTORE PUSH1 0x64 ADD JUMPDEST PUSH1 0x40 MLOAD DUP1 SWAP2 SUB SWAP1 REVERT JUMPDEST CALLER PUSH1 0x0 SWAP1 DUP2 MSTORE PUSH1 0x2 PUSH1 0x20 MSTORE PUSH1 0x40 SWAP1 KECCAK256 DUP1 SLOAD PUSH1 0xFF AND PUSH3 0x6AC JUMPI PUSH3 0x667 DUP4 PUSH1 0x40 MLOAD PUSH1 0x20 ADD PUSH3 0x640 SWAP2 SWAP1 PUSH3 0xE2E JUMP JUMPDEST PUSH1 0x40 MLOAD PUSH1 0x20 DUP2 DUP4 SUB SUB DUP2 MSTORE SWAP1 PUSH1 0x40 MSTORE DUP1 MLOAD SWAP1 PUSH1 0x20 ADD KECCAK256 PUSH1 0x3 PUSH3 0x9C0 SWAP1 SWAP2 SWAP1 PUSH4 0xFFFFFFFF AND JUMP JUMPDEST POP PUSH1 0x14 DUP3 GT PUSH3 0x678 JUMPI DUP3 PUSH3 0x687 JUMP JUMPDEST PUSH3 0x687 DUP4 PUSH1 0x0 PUSH1 0x14 PUSH3 0x9CE JUMP JUMPDEST DUP1 MLOAD PUSH3 0x69F SWAP2 PUSH1 0x1 DUP5 ADD SWAP2 PUSH1 0x20 SWAP1 SWAP2 ADD SWAP1 PUSH3 0xAFF JUMP JUMPDEST POP DUP1 SLOAD PUSH1 0xFF NOT AND PUSH1 0x1 OR DUP2 SSTORE JUMPDEST POP POP POP JUMP JUMPDEST PUSH3 0x6BB PUSH3 0x8F7 JUMP JUMPDEST PUSH1 0x1 PUSH1 0x1 PUSH1 0xA0 SHL SUB DUP2 AND PUSH3 0x722 JUMPI PUSH1 0x40 MLOAD PUSH3 0x461BCD PUSH1 0xE5 SHL DUP2 MSTORE PUSH1 0x20 PUSH1 0x4 DUP3 ADD MSTORE PUSH1 0x26 PUSH1 0x24 DUP3 ADD MSTORE PUSH32 0x4F776E61626C653A206E6577206F776E657220697320746865207A65726F2061 PUSH1 0x44 DUP3 ADD MSTORE PUSH6 0x646472657373 PUSH1 0xD0 SHL PUSH1 0x64 DUP3 ADD MSTORE PUSH1 0x84 ADD PUSH3 0x607 JUMP JUMPDEST PUSH3 0x72D DUP2 PUSH3 0x953 JUMP JUMPDEST POP JUMP JUMPDEST PUSH3 0x73A PUSH3 0x8F7 JUMP JUMPDEST PUSH1 0x8 SLOAD PUSH1 0x7 SLOAD PUSH1 0x0 SWAP1 DUP2 MSTORE PUSH1 0x5 PUSH1 0x20 MSTORE PUSH1 0x40 SWAP1 KECCAK256 PUSH1 0x1 ADD SLOAD TIMESTAMP SWAP2 PUSH3 0x75F SWAP2 PUSH3 0xF38 JUMP JUMPDEST LT PUSH3 0x7AE JUMPI PUSH1 0x40 MLOAD PUSH3 0x461BCD PUSH1 0xE5 SHL DUP2 MSTORE PUSH1 0x20 PUSH1 0x4 DUP3 ADD MSTORE PUSH1 0x18 PUSH1 0x24 DUP3 ADD MSTORE PUSH32 0x546F75726E616D656E74206973207374696C6C206C6976650000000000000000 PUSH1 0x44 DUP3 ADD MSTORE PUSH1 0x64 ADD PUSH3 0x607 JUMP JUMPDEST PUSH1 0x0 PUSH1 0x7 PUSH1 0x0 DUP2 SLOAD PUSH3 0x7C1 SWAP1 PUSH3 0xFDD JUMP JUMPDEST SWAP2 SWAP1 POP DUP2 SWAP1 SSTORE DUP4 TIMESTAMP ADDRESS DUP6 PUSH1 0x40 MLOAD PUSH3 0x7D9 SWAP1 PUSH3 0xB8E JUMP JUMPDEST PUSH3 0x7E9 SWAP6 SWAP5 SWAP4 SWAP3 SWAP2 SWAP1 PUSH3 0xEBB JUMP JUMPDEST PUSH1 0x40 MLOAD DUP1 SWAP2 SUB SWAP1 PUSH1 0x0 CREATE DUP1 ISZERO DUP1 ISZERO PUSH3 0x806 JUMPI RETURNDATASIZE PUSH1 0x0 DUP1 RETURNDATACOPY RETURNDATASIZE PUSH1 0x0 REVERT JUMPDEST POP SWAP1 POP PUSH1 0x40 MLOAD DUP1 PUSH1 0x80 ADD PUSH1 0x40 MSTORE DUP1 DUP5 DUP2 MSTORE PUSH1 0x20 ADD TIMESTAMP DUP2 MSTORE PUSH1 0x20 ADD DUP3 PUSH1 0x1 PUSH1 0x1 PUSH1 0xA0 SHL SUB AND DUP2 MSTORE PUSH1 0x20 ADD DUP4 DUP2 MSTORE POP PUSH1 0x5 PUSH1 0x0 PUSH1 0x7 SLOAD DUP2 MSTORE PUSH1 0x20 ADD SWAP1 DUP2 MSTORE PUSH1 0x20 ADD PUSH1 0x0 KECCAK256 PUSH1 0x0 DUP3 ADD MLOAD DUP2 PUSH1 0x0 ADD SWAP1 DUP1 MLOAD SWAP1 PUSH1 0x20 ADD SWAP1 PUSH3 0x866 SWAP3 SWAP2 SWAP1 PUSH3 0xAFF JUMP JUMPDEST POP PUSH1 0x20 DUP3 DUP2 ADD MLOAD PUSH1 0x1 DUP4 ADD SSTORE PUSH1 0x40 DUP1 DUP5 ADD MLOAD PUSH1 0x2 DUP5 ADD DUP1 SLOAD PUSH1 0x1 PUSH1 0x1 PUSH1 0xA0 SHL SUB NOT AND PUSH1 0x1 PUSH1 0x1 PUSH1 0xA0 SHL SUB SWAP1 SWAP3 AND SWAP2 SWAP1 SWAP2 OR SWAP1 SSTORE PUSH1 0x60 DUP1 DUP6 ADD MLOAD DUP1 MLOAD PUSH1 0x3 DUP7 ADD DUP1 SLOAD PUSH1 0xFF NOT AND SWAP2 ISZERO ISZERO SWAP2 SWAP1 SWAP2 OR DUP2 SSTORE DUP2 DUP6 ADD MLOAD PUSH1 0x4 DUP8 ADD SSTORE SWAP3 DUP2 ADD MLOAD PUSH1 0x5 DUP7 ADD SSTORE SWAP1 DUP2 ADD MLOAD DUP1 MLOAD SWAP2 SWAP4 PUSH3 0x8E2 SWAP3 PUSH1 0x6 DUP8 ADD SWAP3 SWAP1 SWAP2 ADD SWAP1 PUSH3 0xAFF JUMP JUMPDEST POP PUSH1 0x80 DUP3 ADD MLOAD DUP2 PUSH1 0x4 ADD SSTORE POP POP SWAP1 POP POP POP POP POP JUMP JUMPDEST PUSH1 0x0 SLOAD PUSH1 0x1 PUSH1 0x1 PUSH1 0xA0 SHL SUB AND CALLER EQ PUSH3 0x3CE JUMPI PUSH1 0x40 MLOAD PUSH3 0x461BCD PUSH1 0xE5 SHL DUP2 MSTORE PUSH1 0x20 PUSH1 0x4 DUP3 ADD DUP2 SWAP1 MSTORE PUSH1 0x24 DUP3 ADD MSTORE PUSH32 0x4F776E61626C653A2063616C6C6572206973206E6F7420746865206F776E6572 PUSH1 0x44 DUP3 ADD MSTORE PUSH1 0x64 ADD PUSH3 0x607 JUMP JUMPDEST PUSH1 0x0 DUP1 SLOAD PUSH1 0x1 PUSH1 0x1 PUSH1 0xA0 SHL SUB DUP4 DUP2 AND PUSH1 0x1 PUSH1 0x1 PUSH1 0xA0 SHL SUB NOT DUP4 AND DUP2 OR DUP5 SSTORE PUSH1 0x40 MLOAD SWAP2 SWAP1 SWAP3 AND SWAP3 DUP4 SWAP2 PUSH32 0x8BE0079C531659141344CD1FD0A4F28419497F9722A3DAAFE3B4186F6B6457E0 SWAP2 SWAP1 LOG3 POP POP JUMP JUMPDEST PUSH1 0x0 DUP2 DUP2 MSTORE PUSH1 0x1 DUP4 ADD PUSH1 0x20 MSTORE PUSH1 0x40 DUP2 KECCAK256 SLOAD ISZERO ISZERO JUMPDEST SWAP1 POP JUMPDEST SWAP3 SWAP2 POP POP JUMP JUMPDEST PUSH1 0x0 PUSH3 0x9B7 DUP4 DUP4 PUSH3 0xAAD JUMP JUMPDEST PUSH1 0x60 DUP4 PUSH1 0x0 PUSH3 0x9DF DUP6 DUP6 PUSH3 0xF53 JUMP JUMPDEST PUSH8 0xFFFFFFFFFFFFFFFF DUP2 GT ISZERO PUSH3 0x9FA JUMPI PUSH3 0x9FA PUSH3 0x1027 JUMP JUMPDEST PUSH1 0x40 MLOAD SWAP1 DUP1 DUP3 MSTORE DUP1 PUSH1 0x1F ADD PUSH1 0x1F NOT AND PUSH1 0x20 ADD DUP3 ADD PUSH1 0x40 MSTORE DUP1 ISZERO PUSH3 0xA25 JUMPI PUSH1 0x20 DUP3 ADD DUP2 DUP1 CALLDATASIZE DUP4 CALLDATACOPY ADD SWAP1 POP JUMPDEST POP SWAP1 POP DUP5 JUMPDEST DUP5 DUP2 LT ISZERO PUSH3 0xAA3 JUMPI DUP3 DUP2 DUP2 MLOAD DUP2 LT PUSH3 0xA48 JUMPI PUSH3 0xA48 PUSH3 0x1011 JUMP JUMPDEST ADD PUSH1 0x20 ADD MLOAD PUSH1 0x1 PUSH1 0x1 PUSH1 0xF8 SHL SUB NOT AND DUP3 PUSH3 0xA64 DUP9 DUP5 PUSH3 0xF53 JUMP JUMPDEST DUP2 MLOAD DUP2 LT PUSH3 0xA77 JUMPI PUSH3 0xA77 PUSH3 0x1011 JUMP JUMPDEST PUSH1 0x20 ADD ADD SWAP1 PUSH1 0x1 PUSH1 0x1 PUSH1 0xF8 SHL SUB NOT AND SWAP1 DUP2 PUSH1 0x0 BYTE SWAP1 MSTORE8 POP DUP1 PUSH3 0xA9A DUP2 PUSH3 0xFDD JUMP JUMPDEST SWAP2 POP POP PUSH3 0xA2A JUMP JUMPDEST POP SWAP6 SWAP5 POP POP POP POP POP JUMP JUMPDEST PUSH1 0x0 DUP2 DUP2 MSTORE PUSH1 0x1 DUP4 ADD PUSH1 0x20 MSTORE PUSH1 0x40 DUP2 KECCAK256 SLOAD PUSH3 0xAF6 JUMPI POP DUP2 SLOAD PUSH1 0x1 DUP2 DUP2 ADD DUP5 SSTORE PUSH1 0x0 DUP5 DUP2 MSTORE PUSH1 0x20 DUP1 DUP3 KECCAK256 SWAP1 SWAP4 ADD DUP5 SWAP1 SSTORE DUP5 SLOAD DUP5 DUP3 MSTORE DUP3 DUP7 ADD SWAP1 SWAP4 MSTORE PUSH1 0x40 SWAP1 KECCAK256 SWAP2 SWAP1 SWAP2 SSTORE PUSH3 0x9BA JUMP JUMPDEST POP PUSH1 0x0 PUSH3 0x9BA JUMP JUMPDEST DUP3 DUP1 SLOAD PUSH3 0xB0D SWAP1 PUSH3 0xFA0 JUMP JUMPDEST SWAP1 PUSH1 0x0 MSTORE PUSH1 0x20 PUSH1 0x0 KECCAK256 SWAP1 PUSH1 0x1F ADD PUSH1 0x20 SWAP1 DIV DUP2 ADD SWAP3 DUP3 PUSH3 0xB31 JUMPI PUSH1 0x0 DUP6 SSTORE PUSH3 0xB7C JUMP JUMPDEST DUP3 PUSH1 0x1F LT PUSH3 0xB4C JUMPI DUP1 MLOAD PUSH1 0xFF NOT AND DUP4 DUP1 ADD OR DUP6 SSTORE PUSH3 0xB7C JUMP JUMPDEST DUP3 DUP1 ADD PUSH1 0x1 ADD DUP6 SSTORE DUP3 ISZERO PUSH3 0xB7C JUMPI SWAP2 DUP3 ADD JUMPDEST DUP3 DUP2 GT ISZERO PUSH3 0xB7C JUMPI DUP3 MLOAD DUP3 SSTORE SWAP2 PUSH1 0x20 ADD SWAP2 SWAP1 PUSH1 0x1 ADD SWAP1 PUSH3 0xB5F JUMP JUMPDEST POP PUSH3 0xB8A SWAP3 SWAP2 POP PUSH3 0xB9C JUMP JUMPDEST POP SWAP1 JUMP JUMPDEST PUSH2 0x1D4D DUP1 PUSH3 0x103E DUP4 CODECOPY ADD SWAP1 JUMP JUMPDEST JUMPDEST DUP1 DUP3 GT ISZERO PUSH3 0xB8A JUMPI PUSH1 0x0 DUP2 SSTORE PUSH1 0x1 ADD PUSH3 0xB9D JUMP JUMPDEST PUSH1 0x0 DUP3 PUSH1 0x1F DUP4 ADD SLT PUSH3 0xBC5 JUMPI PUSH1 0x0 DUP1 REVERT JUMPDEST DUP2 CALLDATALOAD PUSH8 0xFFFFFFFFFFFFFFFF DUP1 DUP3 GT ISZERO PUSH3 0xBE3 JUMPI PUSH3 0xBE3 PUSH3 0x1027 JUMP JUMPDEST PUSH1 0x40 MLOAD PUSH1 0x1F DUP4 ADD PUSH1 0x1F NOT SWAP1 DUP2 AND PUSH1 0x3F ADD AND DUP2 ADD SWAP1 DUP3 DUP3 GT DUP2 DUP4 LT OR ISZERO PUSH3 0xC0E JUMPI PUSH3 0xC0E PUSH3 0x1027 JUMP JUMPDEST DUP2 PUSH1 0x40 MSTORE DUP4 DUP2 MSTORE DUP7 PUSH1 0x20 DUP6 DUP9 ADD ADD GT ISZERO PUSH3 0xC28 JUMPI PUSH1 0x0 DUP1 REVERT JUMPDEST DUP4 PUSH1 0x20 DUP8 ADD PUSH1 0x20 DUP4 ADD CALLDATACOPY PUSH1 0x0 PUSH1 0x20 DUP6 DUP4 ADD ADD MSTORE DUP1 SWAP5 POP POP POP POP POP SWAP3 SWAP2 POP POP JUMP JUMPDEST PUSH1 0x0 PUSH1 0x20 DUP3 DUP5 SUB SLT ISZERO PUSH3 0xC5B JUMPI PUSH1 0x0 DUP1 REVERT JUMPDEST DUP2 CALLDATALOAD PUSH1 0x1 PUSH1 0x1 PUSH1 0xA0 SHL SUB DUP2 AND DUP2 EQ PUSH3 0xC73 JUMPI PUSH1 0x0 DUP1 REVERT JUMPDEST SWAP4 SWAP3 POP POP POP JUMP JUMPDEST PUSH1 0x0 DUP1 PUSH1 0x40 DUP4 DUP6 SUB SLT ISZERO PUSH3 0xC8E JUMPI PUSH1 0x0 DUP1 REVERT JUMPDEST DUP3 CALLDATALOAD PUSH8 0xFFFFFFFFFFFFFFFF DUP1 DUP3 GT ISZERO PUSH3 0xCA7 JUMPI PUSH1 0x0 DUP1 REVERT JUMPDEST PUSH3 0xCB5 DUP7 DUP4 DUP8 ADD PUSH3 0xBB3 JUMP JUMPDEST SWAP4 POP PUSH1 0x20 DUP6 ADD CALLDATALOAD SWAP2 POP DUP1 DUP3 GT ISZERO PUSH3 0xCCC JUMPI PUSH1 0x0 DUP1 REVERT JUMPDEST SWAP1 DUP5 ADD SWAP1 PUSH1 0xA0 DUP3 DUP8 SUB SLT ISZERO PUSH3 0xCE1 JUMPI PUSH1 0x0 DUP1 REVERT JUMPDEST PUSH3 0xCEB PUSH3 0xF0C JUMP JUMPDEST DUP3 CALLDATALOAD DUP1 ISZERO ISZERO DUP2 EQ PUSH3 0xCFC JUMPI PUSH1 0x0 DUP1 REVERT JUMPDEST DUP1 DUP3 MSTORE POP PUSH1 0x20 DUP4 ADD CALLDATALOAD PUSH1 0x20 DUP3 ADD MSTORE PUSH1 0x40 DUP4 ADD CALLDATALOAD PUSH1 0x40 DUP3 ADD MSTORE PUSH1 0x60 DUP4 ADD CALLDATALOAD DUP3 DUP2 GT ISZERO PUSH3 0xD27 JUMPI PUSH1 0x0 DUP1 REVERT JUMPDEST PUSH3 0xD35 DUP9 DUP3 DUP7 ADD PUSH3 0xBB3 JUMP JUMPDEST PUSH1 0x60 DUP4 ADD MSTORE POP PUSH1 0x80 DUP4 ADD CALLDATALOAD PUSH1 0x80 DUP3 ADD MSTORE DUP1 SWAP4 POP POP POP POP SWAP3 POP SWAP3 SWAP1 POP JUMP JUMPDEST PUSH1 0x0 DUP1 PUSH1 0x40 DUP4 DUP6 SUB SLT ISZERO PUSH3 0xD66 JUMPI PUSH1 0x0 DUP1 REVERT JUMPDEST DUP3 CALLDATALOAD PUSH8 0xFFFFFFFFFFFFFFFF DUP2 GT ISZERO PUSH3 0xD7E JUMPI PUSH1 0x0 DUP1 REVERT JUMPDEST PUSH3 0xD8C DUP6 DUP3 DUP7 ADD PUSH3 0xBB3 JUMP JUMPDEST SWAP6 PUSH1 0x20 SWAP5 SWAP1 SWAP5 ADD CALLDATALOAD SWAP5 POP POP POP POP JUMP JUMPDEST PUSH1 0x0 PUSH1 0x20 DUP3 DUP5 SUB SLT ISZERO PUSH3 0xDAE JUMPI PUSH1 0x0 DUP1 REVERT JUMPDEST POP CALLDATALOAD SWAP2 SWAP1 POP JUMP JUMPDEST PUSH1 0x0 DUP2 MLOAD DUP1 DUP5 MSTORE PUSH3 0xDCF DUP2 PUSH1 0x20 DUP7 ADD PUSH1 0x20 DUP7 ADD PUSH3 0xF6D JUMP JUMPDEST PUSH1 0x1F ADD PUSH1 0x1F NOT AND SWAP3 SWAP1 SWAP3 ADD PUSH1 0x20 ADD SWAP3 SWAP2 POP POP JUMP JUMPDEST DUP1 MLOAD ISZERO ISZERO DUP3 MSTORE PUSH1 0x20 DUP2 ADD MLOAD PUSH1 0x20 DUP4 ADD MSTORE PUSH1 0x40 DUP2 ADD MLOAD PUSH1 0x40 DUP4 ADD MSTORE PUSH1 0x0 PUSH1 0x60 DUP3 ADD MLOAD PUSH1 0xA0 PUSH1 0x60 DUP6 ADD MSTORE PUSH3 0xE1A PUSH1 0xA0 DUP6 ADD DUP3 PUSH3 0xDB5 JUMP JUMPDEST PUSH1 0x80 SWAP4 DUP5 ADD MLOAD SWAP5 SWAP1 SWAP4 ADD SWAP4 SWAP1 SWAP4 MSTORE POP SWAP2 SWAP1 POP JUMP JUMPDEST PUSH1 0x0 DUP3 MLOAD PUSH3 0xE42 DUP2 DUP5 PUSH1 0x20 DUP8 ADD PUSH3 0xF6D JUMP JUMPDEST SWAP2 SWAP1 SWAP2 ADD SWAP3 SWAP2 POP POP JUMP JUMPDEST DUP3 ISZERO ISZERO DUP2 MSTORE PUSH1 0x40 PUSH1 0x20 DUP3 ADD MSTORE PUSH1 0x0 PUSH3 0xE69 PUSH1 0x40 DUP4 ADD DUP5 PUSH3 0xDB5 JUMP JUMPDEST SWAP5 SWAP4 POP POP POP POP JUMP JUMPDEST PUSH1 0x80 DUP2 MSTORE PUSH1 0x0 PUSH3 0xE86 PUSH1 0x80 DUP4 ADD DUP8 PUSH3 0xDB5 JUMP JUMPDEST PUSH1 0x20 DUP4 ADD DUP7 SWAP1 MSTORE PUSH1 0x1 PUSH1 0x1 PUSH1 0xA0 SHL SUB DUP6 AND PUSH1 0x40 DUP5 ADD MSTORE DUP3 DUP2 SUB PUSH1 0x60 DUP5 ADD MSTORE PUSH3 0xEB0 DUP2 DUP6 PUSH3 0xDE3 JUMP JUMPDEST SWAP8 SWAP7 POP POP POP POP POP POP POP JUMP JUMPDEST DUP6 DUP2 MSTORE PUSH1 0xA0 PUSH1 0x20 DUP3 ADD MSTORE PUSH1 0x0 PUSH3 0xED6 PUSH1 0xA0 DUP4 ADD DUP8 PUSH3 0xDB5 JUMP JUMPDEST PUSH1 0x40 DUP4 ADD DUP7 SWAP1 MSTORE PUSH1 0x1 PUSH1 0x1 PUSH1 0xA0 SHL SUB DUP6 AND PUSH1 0x60 DUP5 ADD MSTORE DUP3 DUP2 SUB PUSH1 0x80 DUP5 ADD MSTORE PUSH3 0xF00 DUP2 DUP6 PUSH3 0xDE3 JUMP JUMPDEST SWAP9 SWAP8 POP POP POP POP POP POP POP POP JUMP JUMPDEST PUSH1 0x40 MLOAD PUSH1 0xA0 DUP2 ADD PUSH8 0xFFFFFFFFFFFFFFFF DUP2 GT DUP3 DUP3 LT OR ISZERO PUSH3 0xF32 JUMPI PUSH3 0xF32 PUSH3 0x1027 JUMP JUMPDEST PUSH1 0x40 MSTORE SWAP1 JUMP JUMPDEST PUSH1 0x0 DUP3 NOT DUP3 GT ISZERO PUSH3 0xF4E JUMPI PUSH3 0xF4E PUSH3 0xFFB JUMP JUMPDEST POP ADD SWAP1 JUMP JUMPDEST PUSH1 0x0 DUP3 DUP3 LT ISZERO PUSH3 0xF68 JUMPI PUSH3 0xF68 PUSH3 0xFFB JUMP JUMPDEST POP SUB SWAP1 JUMP JUMPDEST PUSH1 0x0 JUMPDEST DUP4 DUP2 LT ISZERO PUSH3 0xF8A JUMPI DUP2 DUP2 ADD MLOAD DUP4 DUP3 ADD MSTORE PUSH1 0x20 ADD PUSH3 0xF70 JUMP JUMPDEST DUP4 DUP2 GT ISZERO PUSH3 0xF9A JUMPI PUSH1 0x0 DUP5 DUP5 ADD MSTORE JUMPDEST POP POP POP POP JUMP JUMPDEST PUSH1 0x1 DUP2 DUP2 SHR SWAP1 DUP3 AND DUP1 PUSH3 0xFB5 JUMPI PUSH1 0x7F DUP3 AND SWAP2 POP JUMPDEST PUSH1 0x20 DUP3 LT DUP2 EQ ISZERO PUSH3 0xFD7 JUMPI PUSH4 0x4E487B71 PUSH1 0xE0 SHL PUSH1 0x0 MSTORE PUSH1 0x22 PUSH1 0x4 MSTORE PUSH1 0x24 PUSH1 0x0 REVERT JUMPDEST POP SWAP2 SWAP1 POP JUMP JUMPDEST PUSH1 0x0 PUSH1 0x0 NOT DUP3 EQ ISZERO PUSH3 0xFF4 JUMPI PUSH3 0xFF4 PUSH3 0xFFB JUMP JUMPDEST POP PUSH1 0x1 ADD SWAP1 JUMP JUMPDEST PUSH4 0x4E487B71 PUSH1 0xE0 SHL PUSH1 0x0 MSTORE PUSH1 0x11 PUSH1 0x4 MSTORE PUSH1 0x24 PUSH1 0x0 REVERT JUMPDEST PUSH4 0x4E487B71 PUSH1 0xE0 SHL PUSH1 0x0 MSTORE PUSH1 0x32 PUSH1 0x4 MSTORE PUSH1 0x24 PUSH1 0x0 REVERT JUMPDEST PUSH4 0x4E487B71 PUSH1 0xE0 SHL PUSH1 0x0 MSTORE PUSH1 0x41 PUSH1 0x4 MSTORE PUSH1 0x24 PUSH1 0x0 REVERT INVALID PUSH1 0x80 PUSH1 0x40 MSTORE CALLVALUE DUP1 ISZERO PUSH3 0x11 JUMPI PUSH1 0x0 DUP1 REVERT JUMPDEST POP PUSH1 0x40 MLOAD PUSH3 0x1D4D CODESIZE SUB DUP1 PUSH3 0x1D4D DUP4 CODECOPY DUP2 ADD PUSH1 0x40 DUP2 SWAP1 MSTORE PUSH3 0x34 SWAP2 PUSH3 0x3FE JUMP JUMPDEST PUSH1 0x1 PUSH1 0x0 DUP2 SWAP1 SSTORE DUP6 SWAP1 SSTORE DUP4 MLOAD PUSH3 0x53 SWAP1 PUSH1 0x2 SWAP1 PUSH1 0x20 DUP8 ADD SWAP1 PUSH3 0x267 JUMP JUMPDEST POP PUSH1 0x3 DUP4 SWAP1 SSTORE PUSH1 0x6 DUP1 SLOAD PUSH1 0x1 PUSH1 0x1 PUSH1 0xA0 SHL SUB NOT AND PUSH1 0x1 PUSH1 0x1 PUSH1 0xA0 SHL SUB DUP5 AND SWAP1 DUP2 OR SWAP1 SWAP2 SSTORE PUSH1 0x40 DUP1 MLOAD PUSH4 0xC08D1FE5 PUSH1 0xE0 SHL DUP2 MSTORE SWAP1 MLOAD PUSH4 0xC08D1FE5 SWAP2 PUSH1 0x4 DUP1 DUP3 ADD SWAP3 PUSH1 0x20 SWAP3 SWAP1 SWAP2 SWAP1 DUP3 SWAP1 SUB ADD DUP2 DUP7 DUP1 EXTCODESIZE ISZERO DUP1 ISZERO PUSH3 0xAE JUMPI PUSH1 0x0 DUP1 REVERT JUMPDEST POP GAS STATICCALL ISZERO DUP1 ISZERO PUSH3 0xC3 JUMPI RETURNDATASIZE PUSH1 0x0 DUP1 RETURNDATACOPY RETURNDATASIZE PUSH1 0x0 REVERT JUMPDEST POP POP POP POP PUSH1 0x40 MLOAD RETURNDATASIZE PUSH1 0x1F NOT PUSH1 0x1F DUP3 ADD AND DUP3 ADD DUP1 PUSH1 0x40 MSTORE POP DUP2 ADD SWAP1 PUSH3 0xE9 SWAP2 SWAP1 PUSH3 0x3E4 JUMP JUMPDEST PUSH1 0x4 SWAP1 DUP2 SSTORE PUSH1 0x6 SLOAD PUSH1 0x40 DUP1 MLOAD PUSH4 0x4959D977 PUSH1 0xE0 SHL DUP2 MSTORE SWAP1 MLOAD PUSH1 0x1 PUSH1 0x1 PUSH1 0xA0 SHL SUB SWAP1 SWAP3 AND SWAP3 PUSH4 0x4959D977 SWAP3 DUP3 DUP3 ADD SWAP3 PUSH1 0x20 SWAP3 SWAP1 DUP3 SWAP1 SUB ADD DUP2 DUP7 DUP1 EXTCODESIZE ISZERO DUP1 ISZERO PUSH3 0x130 JUMPI PUSH1 0x0 DUP1 REVERT JUMPDEST POP GAS STATICCALL ISZERO DUP1 ISZERO PUSH3 0x145 JUMPI RETURNDATASIZE PUSH1 0x0 DUP1 RETURNDATACOPY RETURNDATASIZE PUSH1 0x0 REVERT JUMPDEST POP POP POP POP PUSH1 0x40 MLOAD RETURNDATASIZE PUSH1 0x1F NOT PUSH1 0x1F DUP3 ADD AND DUP3 ADD DUP1 PUSH1 0x40 MSTORE POP DUP2 ADD SWAP1 PUSH3 0x16B SWAP2 SWAP1 PUSH3 0x3E4 JUMP JUMPDEST PUSH1 0x5 SSTORE PUSH1 0x6 SLOAD PUSH1 0x40 DUP1 MLOAD PUSH4 0x8DA5CB5B PUSH1 0xE0 SHL DUP2 MSTORE SWAP1 MLOAD PUSH1 0x1 PUSH1 0x1 PUSH1 0xA0 SHL SUB SWAP1 SWAP3 AND SWAP2 PUSH4 0x8DA5CB5B SWAP2 PUSH1 0x4 DUP1 DUP3 ADD SWAP3 PUSH1 0x20 SWAP3 SWAP1 SWAP2 SWAP1 DUP3 SWAP1 SUB ADD DUP2 DUP7 DUP1 EXTCODESIZE ISZERO DUP1 ISZERO PUSH3 0x1B4 JUMPI PUSH1 0x0 DUP1 REVERT JUMPDEST POP GAS STATICCALL ISZERO DUP1 ISZERO PUSH3 0x1C9 JUMPI RETURNDATASIZE PUSH1 0x0 DUP1 RETURNDATACOPY RETURNDATASIZE PUSH1 0x0 REVERT JUMPDEST POP POP POP POP PUSH1 0x40 MLOAD RETURNDATASIZE PUSH1 0x1F NOT PUSH1 0x1F DUP3 ADD AND DUP3 ADD DUP1 PUSH1 0x40 MSTORE POP DUP2 ADD SWAP1 PUSH3 0x1EF SWAP2 SWAP1 PUSH3 0x3BF JUMP JUMPDEST PUSH1 0x7 DUP1 SLOAD PUSH1 0x1 PUSH1 0x1 PUSH1 0xA0 SHL SUB NOT AND PUSH1 0x1 PUSH1 0x1 PUSH1 0xA0 SHL SUB SWAP3 SWAP1 SWAP3 AND SWAP2 SWAP1 SWAP2 OR SWAP1 SSTORE DUP1 MLOAD PUSH1 0x8 DUP1 SLOAD PUSH1 0xFF NOT AND SWAP2 ISZERO ISZERO SWAP2 SWAP1 SWAP2 OR DUP2 SSTORE PUSH1 0x20 DUP1 DUP4 ADD MLOAD PUSH1 0x9 SSTORE PUSH1 0x40 DUP4 ADD MLOAD PUSH1 0xA SSTORE PUSH1 0x60 DUP4 ADD MLOAD DUP1 MLOAD DUP5 SWAP4 SWAP3 PUSH3 0x24E SWAP3 PUSH1 0xB SWAP3 SWAP2 ADD SWAP1 PUSH3 0x267 JUMP JUMPDEST POP PUSH1 0x80 DUP3 ADD MLOAD DUP2 PUSH1 0x4 ADD SSTORE SWAP1 POP POP POP POP POP POP POP PUSH3 0x5AD JUMP JUMPDEST DUP3 DUP1 SLOAD PUSH3 0x275 SWAP1 PUSH3 0x55A JUMP JUMPDEST SWAP1 PUSH1 0x0 MSTORE PUSH1 0x20 PUSH1 0x0 KECCAK256 SWAP1 PUSH1 0x1F ADD PUSH1 0x20 SWAP1 DIV DUP2 ADD SWAP3 DUP3 PUSH3 0x299 JUMPI PUSH1 0x0 DUP6 SSTORE PUSH3 0x2E4 JUMP JUMPDEST DUP3 PUSH1 0x1F LT PUSH3 0x2B4 JUMPI DUP1 MLOAD PUSH1 0xFF NOT AND DUP4 DUP1 ADD OR DUP6 SSTORE PUSH3 0x2E4 JUMP JUMPDEST DUP3 DUP1 ADD PUSH1 0x1 ADD DUP6 SSTORE DUP3 ISZERO PUSH3 0x2E4 JUMPI SWAP2 DUP3 ADD JUMPDEST DUP3 DUP2 GT ISZERO PUSH3 0x2E4 JUMPI DUP3 MLOAD DUP3 SSTORE SWAP2 PUSH1 0x20 ADD SWAP2 SWAP1 PUSH1 0x1 ADD SWAP1 PUSH3 0x2C7 JUMP JUMPDEST POP PUSH3 0x2F2 SWAP3 SWAP2 POP PUSH3 0x2F6 JUMP JUMPDEST POP SWAP1 JUMP JUMPDEST JUMPDEST DUP1 DUP3 GT ISZERO PUSH3 0x2F2 JUMPI PUSH1 0x0 DUP2 SSTORE PUSH1 0x1 ADD PUSH3 0x2F7 JUMP JUMPDEST DUP1 MLOAD PUSH1 0x1 PUSH1 0x1 PUSH1 0xA0 SHL SUB DUP2 AND DUP2 EQ PUSH3 0x325 JUMPI PUSH1 0x0 DUP1 REVERT JUMPDEST SWAP2 SWAP1 POP JUMP JUMPDEST PUSH1 0x0 DUP3 PUSH1 0x1F DUP4 ADD SLT PUSH3 0x33C JUMPI PUSH1 0x0 DUP1 REVERT JUMPDEST DUP2 MLOAD PUSH1 0x1 PUSH1 0x1 PUSH1 0x40 SHL SUB DUP2 GT ISZERO PUSH3 0x358 JUMPI PUSH3 0x358 PUSH3 0x597 JUMP JUMPDEST PUSH1 0x20 PUSH3 0x36E PUSH1 0x1F DUP4 ADD PUSH1 0x1F NOT AND DUP3 ADD PUSH3 0x527 JUMP JUMPDEST DUP3 DUP2 MSTORE DUP6 DUP3 DUP5 DUP8 ADD ADD GT ISZERO PUSH3 0x383 JUMPI PUSH1 0x0 DUP1 REVERT JUMPDEST PUSH1 0x0 JUMPDEST DUP4 DUP2 LT ISZERO PUSH3 0x3A3 JUMPI DUP6 DUP2 ADD DUP4 ADD MLOAD DUP3 DUP3 ADD DUP5 ADD MSTORE DUP3 ADD PUSH3 0x386 JUMP JUMPDEST DUP4 DUP2 GT ISZERO PUSH3 0x3B5 JUMPI PUSH1 0x0 DUP4 DUP6 DUP5 ADD ADD MSTORE JUMPDEST POP SWAP6 SWAP5 POP POP POP POP POP JUMP JUMPDEST PUSH1 0x0 PUSH1 0x20 DUP3 DUP5 SUB SLT ISZERO PUSH3 0x3D2 JUMPI PUSH1 0x0 DUP1 REVERT JUMPDEST PUSH3 0x3DD DUP3 PUSH3 0x30D JUMP JUMPDEST SWAP4 SWAP3 POP POP POP JUMP JUMPDEST PUSH1 0x0 PUSH1 0x20 DUP3 DUP5 SUB SLT ISZERO PUSH3 0x3F7 JUMPI PUSH1 0x0 DUP1 REVERT JUMPDEST POP MLOAD SWAP2 SWAP1 POP JUMP JUMPDEST PUSH1 0x0 DUP1 PUSH1 0x0 DUP1 PUSH1 0x0 PUSH1 0xA0 DUP7 DUP9 SUB SLT ISZERO PUSH3 0x417 JUMPI PUSH1 0x0 DUP1 REVERT JUMPDEST DUP6 MLOAD PUSH1 0x20 DUP8 ADD MLOAD SWAP1 SWAP6 POP PUSH1 0x1 PUSH1 0x1 PUSH1 0x40 SHL SUB DUP1 DUP3 GT ISZERO PUSH3 0x437 JUMPI PUSH1 0x0 DUP1 REVERT JUMPDEST PUSH3 0x445 DUP10 DUP4 DUP11 ADD PUSH3 0x32A JUMP JUMPDEST SWAP6 POP PUSH1 0x40 DUP9 ADD MLOAD SWAP5 POP PUSH3 0x45C PUSH1 0x60 DUP10 ADD PUSH3 0x30D JUMP JUMPDEST SWAP4 POP PUSH1 0x80 DUP9 ADD MLOAD SWAP2 POP DUP1 DUP3 GT ISZERO PUSH3 0x473 JUMPI PUSH1 0x0 DUP1 REVERT JUMPDEST SWAP1 DUP8 ADD SWAP1 PUSH1 0xA0 DUP3 DUP11 SUB SLT ISZERO PUSH3 0x488 JUMPI PUSH1 0x0 DUP1 REVERT JUMPDEST PUSH3 0x492 PUSH3 0x4FC JUMP JUMPDEST DUP3 MLOAD DUP1 ISZERO ISZERO DUP2 EQ PUSH3 0x4A3 JUMPI PUSH1 0x0 DUP1 REVERT JUMPDEST DUP1 DUP3 MSTORE POP PUSH1 0x20 DUP4 ADD MLOAD PUSH1 0x20 DUP3 ADD MSTORE PUSH1 0x40 DUP4 ADD MLOAD PUSH1 0x40 DUP3 ADD MSTORE PUSH1 0x60 DUP4 ADD MLOAD DUP3 DUP2 GT ISZERO PUSH3 0x4CE JUMPI PUSH1 0x0 DUP1 REVERT JUMPDEST PUSH3 0x4DC DUP12 DUP3 DUP7 ADD PUSH3 0x32A JUMP JUMPDEST PUSH1 0x60 DUP4 ADD MSTORE POP PUSH1 0x80 DUP4 ADD MLOAD PUSH1 0x80 DUP3 ADD MSTORE DUP1 SWAP4 POP POP POP POP SWAP3 SWAP6 POP SWAP3 SWAP6 SWAP1 SWAP4 POP JUMP JUMPDEST PUSH1 0x40 MLOAD PUSH1 0xA0 DUP2 ADD PUSH1 0x1 PUSH1 0x1 PUSH1 0x40 SHL SUB DUP2 GT DUP3 DUP3 LT OR ISZERO PUSH3 0x521 JUMPI PUSH3 0x521 PUSH3 0x597 JUMP JUMPDEST PUSH1 0x40 MSTORE SWAP1 JUMP JUMPDEST PUSH1 0x40 MLOAD PUSH1 0x1F DUP3 ADD PUSH1 0x1F NOT AND DUP2 ADD PUSH1 0x1 PUSH1 0x1 PUSH1 0x40 SHL SUB DUP2 GT DUP3 DUP3 LT OR ISZERO PUSH3 0x552 JUMPI PUSH3 0x552 PUSH3 0x597 JUMP JUMPDEST PUSH1 0x40 MSTORE SWAP2 SWAP1 POP JUMP JUMPDEST PUSH1 0x1 DUP2 DUP2 SHR SWAP1 DUP3 AND DUP1 PUSH3 0x56F JUMPI PUSH1 0x7F DUP3 AND SWAP2 POP JUMPDEST PUSH1 0x20 DUP3 LT DUP2 EQ ISZERO PUSH3 0x591 JUMPI PUSH4 0x4E487B71 PUSH1 0xE0 SHL PUSH1 0x0 MSTORE PUSH1 0x22 PUSH1 0x4 MSTORE PUSH1 0x24 PUSH1 0x0 REVERT JUMPDEST POP SWAP2 SWAP1 POP JUMP JUMPDEST PUSH4 0x4E487B71 PUSH1 0xE0 SHL PUSH1 0x0 MSTORE PUSH1 0x41 PUSH1 0x4 MSTORE PUSH1 0x24 PUSH1 0x0 REVERT JUMPDEST PUSH2 0x1790 DUP1 PUSH3 0x5BD PUSH1 0x0 CODECOPY PUSH1 0x0 RETURN INVALID PUSH1 0x80 PUSH1 0x40 MSTORE PUSH1 0x4 CALLDATASIZE LT PUSH2 0xDD JUMPI PUSH1 0x0 CALLDATALOAD PUSH1 0xE0 SHR DUP1 PUSH4 0x858DBF7D GT PUSH2 0x7F JUMPI DUP1 PUSH4 0xC08D1FE5 GT PUSH2 0x59 JUMPI DUP1 PUSH4 0xC08D1FE5 EQ PUSH2 0x251 JUMPI DUP1 PUSH4 0xC29D72BC EQ PUSH2 0x267 JUMPI DUP1 PUSH4 0xD3F33009 EQ PUSH2 0x289 JUMPI DUP1 PUSH4 0xFBD53482 EQ PUSH2 0x2A9 JUMPI PUSH1 0x0 DUP1 REVERT JUMPDEST DUP1 PUSH4 0x858DBF7D EQ PUSH2 0x1B3 JUMPI DUP1 PUSH4 0xAB632D4A EQ PUSH2 0x1D9 JUMPI DUP1 PUSH4 0xAF640D0F EQ PUSH2 0x23B JUMPI PUSH1 0x0 DUP1 REVERT JUMPDEST DUP1 PUSH4 0x4959D977 GT PUSH2 0xBB JUMPI DUP1 PUSH4 0x4959D977 EQ PUSH2 0x15C JUMPI DUP1 PUSH4 0x4D633A8F EQ PUSH2 0x180 JUMPI DUP1 PUSH4 0x78E97925 EQ PUSH2 0x195 JUMPI DUP1 PUSH4 0x7CE11861 EQ PUSH2 0x1AB JUMPI PUSH1 0x0 DUP1 REVERT JUMPDEST DUP1 PUSH4 0x6FDDE03 EQ PUSH2 0xE2 JUMPI DUP1 PUSH4 0x45446D71 EQ PUSH2 0x10D JUMPI DUP1 PUSH4 0x48D37A58 EQ PUSH2 0x145 JUMPI JUMPDEST PUSH1 0x0 DUP1 REVERT JUMPDEST CALLVALUE DUP1 ISZERO PUSH2 0xEE JUMPI PUSH1 0x0 DUP1 REVERT JUMPDEST POP PUSH2 0xF7 PUSH2 0x2C9 JUMP JUMPDEST PUSH1 0x40 MLOAD PUSH2 0x104 SWAP2 SWAP1 PUSH2 0x1526 JUMP JUMPDEST PUSH1 0x40 MLOAD DUP1 SWAP2 SUB SWAP1 RETURN JUMPDEST CALLVALUE DUP1 ISZERO PUSH2 0x119 JUMPI PUSH1 0x0 DUP1 REVERT JUMPDEST POP PUSH1 0x7 SLOAD PUSH2 0x12D SWAP1 PUSH1 0x1 PUSH1 0x1 PUSH1 0xA0 SHL SUB AND DUP2 JUMP JUMPDEST PUSH1 0x40 MLOAD PUSH1 0x1 PUSH1 0x1 PUSH1 0xA0 SHL SUB SWAP1 SWAP2 AND DUP2 MSTORE PUSH1 0x20 ADD PUSH2 0x104 JUMP JUMPDEST CALLVALUE DUP1 ISZERO PUSH2 0x151 JUMPI PUSH1 0x0 DUP1 REVERT JUMPDEST POP PUSH2 0x15A PUSH2 0x357 JUMP JUMPDEST STOP JUMPDEST CALLVALUE DUP1 ISZERO PUSH2 0x168 JUMPI PUSH1 0x0 DUP1 REVERT JUMPDEST POP PUSH2 0x172 PUSH1 0x5 SLOAD DUP2 JUMP JUMPDEST PUSH1 0x40 MLOAD SWAP1 DUP2 MSTORE PUSH1 0x20 ADD PUSH2 0x104 JUMP JUMPDEST CALLVALUE DUP1 ISZERO PUSH2 0x18C JUMPI PUSH1 0x0 DUP1 REVERT JUMPDEST POP PUSH2 0x15A PUSH2 0x3A5 JUMP JUMPDEST CALLVALUE DUP1 ISZERO PUSH2 0x1A1 JUMPI PUSH1 0x0 DUP1 REVERT JUMPDEST POP PUSH2 0x172 PUSH1 0x3 SLOAD DUP2 JUMP JUMPDEST PUSH2 0x15A PUSH2 0x567 JUMP JUMPDEST CALLVALUE DUP1 ISZERO PUSH2 0x1BF JUMPI PUSH1 0x0 DUP1 REVERT JUMPDEST POP PUSH2 0x1C8 PUSH2 0x6E0 JUMP JUMPDEST PUSH1 0x40 MLOAD PUSH2 0x104 SWAP6 SWAP5 SWAP4 SWAP3 SWAP2 SWAP1 PUSH2 0x14ED JUMP JUMPDEST CALLVALUE DUP1 ISZERO PUSH2 0x1E5 JUMPI PUSH1 0x0 DUP1 REVERT JUMPDEST POP PUSH2 0x21B PUSH2 0x1F4 CALLDATASIZE PUSH1 0x4 PUSH2 0x1305 JUMP JUMPDEST PUSH1 0xF PUSH1 0x20 MSTORE PUSH1 0x0 SWAP1 DUP2 MSTORE PUSH1 0x40 SWAP1 KECCAK256 DUP1 SLOAD PUSH1 0x1 DUP3 ADD SLOAD PUSH1 0x2 DUP4 ADD SLOAD PUSH1 0x3 SWAP1 SWAP4 ADD SLOAD SWAP2 SWAP3 SWAP1 SWAP2 DUP5 JUMP JUMPDEST PUSH1 0x40 DUP1 MLOAD SWAP5 DUP6 MSTORE PUSH1 0x20 DUP6 ADD SWAP4 SWAP1 SWAP4 MSTORE SWAP2 DUP4 ADD MSTORE PUSH1 0x60 DUP3 ADD MSTORE PUSH1 0x80 ADD PUSH2 0x104 JUMP JUMPDEST CALLVALUE DUP1 ISZERO PUSH2 0x247 JUMPI PUSH1 0x0 DUP1 REVERT JUMPDEST POP PUSH2 0x172 PUSH1 0x1 SLOAD DUP2 JUMP JUMPDEST CALLVALUE DUP1 ISZERO PUSH2 0x25D JUMPI PUSH1 0x0 DUP1 REVERT JUMPDEST POP PUSH2 0x172 PUSH1 0x4 SLOAD DUP2 JUMP JUMPDEST CALLVALUE DUP1 ISZERO PUSH2 0x273 JUMPI PUSH1 0x0 DUP1 REVERT JUMPDEST POP PUSH2 0x27C PUSH2 0x78B JUMP JUMPDEST PUSH1 0x40 MLOAD PUSH2 0x104 SWAP2 SWAP1 PUSH2 0x1457 JUMP JUMPDEST CALLVALUE DUP1 ISZERO PUSH2 0x295 JUMPI PUSH1 0x0 DUP1 REVERT JUMPDEST POP PUSH1 0x6 SLOAD PUSH2 0x12D SWAP1 PUSH1 0x1 PUSH1 0x1 PUSH1 0xA0 SHL SUB AND DUP2 JUMP JUMPDEST CALLVALUE DUP1 ISZERO PUSH2 0x2B5 JUMPI PUSH1 0x0 DUP1 REVERT JUMPDEST POP PUSH2 0x15A PUSH2 0x2C4 CALLDATASIZE PUSH1 0x4 PUSH2 0x1320 JUMP JUMPDEST PUSH2 0xC81 JUMP JUMPDEST PUSH1 0x2 DUP1 SLOAD PUSH2 0x2D6 SWAP1 PUSH2 0x1697 JUMP JUMPDEST DUP1 PUSH1 0x1F ADD PUSH1 0x20 DUP1 SWAP2 DIV MUL PUSH1 0x20 ADD PUSH1 0x40 MLOAD SWAP1 DUP2 ADD PUSH1 0x40 MSTORE DUP1 SWAP3 SWAP2 SWAP1 DUP2 DUP2 MSTORE PUSH1 0x20 ADD DUP3 DUP1 SLOAD PUSH2 0x302 SWAP1 PUSH2 0x1697 JUMP JUMPDEST DUP1 ISZERO PUSH2 0x34F JUMPI DUP1 PUSH1 0x1F LT PUSH2 0x324 JUMPI PUSH2 0x100 DUP1 DUP4 SLOAD DIV MUL DUP4 MSTORE SWAP2 PUSH1 0x20 ADD SWAP2 PUSH2 0x34F JUMP JUMPDEST DUP3 ADD SWAP2 SWAP1 PUSH1 0x0 MSTORE PUSH1 0x20 PUSH1 0x0 KECCAK256 SWAP1 JUMPDEST DUP2 SLOAD DUP2 MSTORE SWAP1 PUSH1 0x1 ADD SWAP1 PUSH1 0x20 ADD DUP1 DUP4 GT PUSH2 0x332 JUMPI DUP3 SWAP1 SUB PUSH1 0x1F AND DUP3 ADD SWAP2 JUMPDEST POP POP POP POP POP DUP2 JUMP JUMPDEST CALLER PUSH1 0x0 SWAP1 DUP2 MSTORE PUSH1 0xF PUSH1 0x20 MSTORE PUSH1 0x40 SWAP1 KECCAK256 PUSH1 0x3 DUP2 ADD SLOAD ISZERO PUSH2 0x3A2 JUMPI PUSH1 0x0 PUSH1 0x3 DUP3 ADD DUP2 SWAP1 SSTORE PUSH1 0x40 MLOAD CALLER SWAP2 PUSH2 0x8FC SWAP2 DUP2 DUP2 DUP2 DUP2 DUP2 DUP9 DUP9 CALL SWAP4 POP POP POP POP ISZERO DUP1 ISZERO PUSH2 0x3A0 JUMPI RETURNDATASIZE PUSH1 0x0 DUP1 RETURNDATACOPY RETURNDATASIZE PUSH1 0x0 REVERT JUMPDEST POP JUMPDEST POP JUMP JUMPDEST PUSH1 0x7 SLOAD PUSH1 0x1 PUSH1 0x1 PUSH1 0xA0 SHL SUB AND CALLER EQ PUSH2 0x3F5 JUMPI PUSH1 0x40 MLOAD PUSH3 0x461BCD PUSH1 0xE5 SHL DUP2 MSTORE PUSH1 0x20 PUSH1 0x4 DUP3 ADD MSTORE PUSH1 0xE PUSH1 0x24 DUP3 ADD MSTORE PUSH14 0x139BDD08185D5D1A1BDC9A5E9959 PUSH1 0x92 SHL PUSH1 0x44 DUP3 ADD MSTORE PUSH1 0x64 ADD JUMPDEST PUSH1 0x40 MLOAD DUP1 SWAP2 SUB SWAP1 REVERT JUMPDEST TIMESTAMP PUSH1 0x4 SLOAD PUSH1 0x3 SLOAD PUSH2 0x406 SWAP2 SWAP1 PUSH2 0x157A JUMP JUMPDEST LT PUSH2 0x453 JUMPI PUSH1 0x40 MLOAD PUSH3 0x461BCD PUSH1 0xE5 SHL DUP2 MSTORE PUSH1 0x20 PUSH1 0x4 DUP3 ADD MSTORE PUSH1 0x18 PUSH1 0x24 DUP3 ADD MSTORE PUSH32 0x546F75726E616D656E74206973207374696C6C206C6976650000000000000000 PUSH1 0x44 DUP3 ADD MSTORE PUSH1 0x64 ADD PUSH2 0x3EC JUMP JUMPDEST PUSH1 0x0 PUSH2 0x45D PUSH2 0x78B JUMP JUMPDEST SWAP1 POP PUSH1 0x0 JUMPDEST PUSH2 0x46C PUSH1 0xD PUSH2 0xD40 JUMP JUMPDEST DUP2 LT ISZERO PUSH2 0x3A0 JUMPI PUSH1 0x40 MLOAD DUP1 PUSH1 0x80 ADD PUSH1 0x40 MSTORE DUP1 DUP3 PUSH1 0x1 PUSH2 0x48B SWAP2 SWAP1 PUSH2 0x157A JUMP JUMPDEST DUP2 MSTORE PUSH1 0x20 ADD DUP4 DUP4 DUP2 MLOAD DUP2 LT PUSH2 0x4A2 JUMPI PUSH2 0x4A2 PUSH2 0x172E JUMP JUMPDEST PUSH1 0x20 MUL PUSH1 0x20 ADD ADD MLOAD PUSH1 0x40 ADD MLOAD DUP2 MSTORE PUSH1 0x20 ADD DUP4 DUP4 DUP2 MLOAD DUP2 LT PUSH2 0x4C5 JUMPI PUSH2 0x4C5 PUSH2 0x172E JUMP JUMPDEST PUSH1 0x20 MUL PUSH1 0x20 ADD ADD MLOAD PUSH1 0x60 ADD MLOAD DUP2 MSTORE PUSH1 0x20 ADD DUP4 DUP4 DUP2 MLOAD DUP2 LT PUSH2 0x4E8 JUMPI PUSH2 0x4E8 PUSH2 0x172E JUMP JUMPDEST PUSH1 0x20 MUL PUSH1 0x20 ADD ADD MLOAD PUSH1 0x60 ADD MLOAD DUP2 MSTORE POP PUSH1 0xF PUSH1 0x0 DUP5 DUP5 DUP2 MLOAD DUP2 LT PUSH2 0x50D JUMPI PUSH2 0x50D PUSH2 0x172E JUMP JUMPDEST PUSH1 0x20 SWAP1 DUP2 MUL SWAP2 SWAP1 SWAP2 ADD DUP2 ADD MLOAD MLOAD PUSH1 0x1 PUSH1 0x1 PUSH1 0xA0 SHL SUB AND DUP3 MSTORE DUP2 DUP2 ADD SWAP3 SWAP1 SWAP3 MSTORE PUSH1 0x40 SWAP1 DUP2 ADD PUSH1 0x0 KECCAK256 DUP4 MLOAD DUP2 SSTORE SWAP2 DUP4 ADD MLOAD PUSH1 0x1 DUP4 ADD SSTORE DUP3 ADD MLOAD PUSH1 0x2 DUP3 ADD SSTORE PUSH1 0x60 SWAP1 SWAP2 ADD MLOAD PUSH1 0x3 SWAP1 SWAP2 ADD SSTORE DUP1 PUSH2 0x55F DUP2 PUSH2 0x16F2 JUMP JUMPDEST SWAP2 POP POP PUSH2 0x462 JUMP JUMPDEST TIMESTAMP PUSH1 0x4 SLOAD PUSH1 0x3 SLOAD PUSH2 0x578 SWAP2 SWAP1 PUSH2 0x157A JUMP JUMPDEST GT PUSH2 0x5BC JUMPI PUSH1 0x40 MLOAD PUSH3 0x461BCD PUSH1 0xE5 SHL DUP2 MSTORE PUSH1 0x20 PUSH1 0x4 DUP3 ADD MSTORE PUSH1 0x14 PUSH1 0x24 DUP3 ADD MSTORE PUSH20 0x151BDD5C9B985B595B9D081A185CC8195B991959 PUSH1 0x62 SHL PUSH1 0x44 DUP3 ADD MSTORE PUSH1 0x64 ADD PUSH2 0x3EC JUMP JUMPDEST PUSH1 0x6 SLOAD PUSH1 0x40 MLOAD PUSH4 0xA0BDC15 PUSH1 0xE1 SHL DUP2 MSTORE CALLER PUSH1 0x4 DUP3 ADD MSTORE PUSH1 0x0 SWAP2 PUSH1 0x1 PUSH1 0x1 PUSH1 0xA0 SHL SUB AND SWAP1 PUSH4 0x1417B82A SWAP1 PUSH1 0x24 ADD PUSH1 0x0 PUSH1 0x40 MLOAD DUP1 DUP4 SUB DUP2 DUP7 DUP1 EXTCODESIZE ISZERO DUP1 ISZERO PUSH2 0x600 JUMPI PUSH1 0x0 DUP1 REVERT JUMPDEST POP GAS STATICCALL ISZERO DUP1 ISZERO PUSH2 0x614 JUMPI RETURNDATASIZE PUSH1 0x0 DUP1 RETURNDATACOPY RETURNDATASIZE PUSH1 0x0 REVERT JUMPDEST POP POP POP POP PUSH1 0x40 MLOAD RETURNDATASIZE PUSH1 0x0 DUP3 RETURNDATACOPY PUSH1 0x1F RETURNDATASIZE SWAP1 DUP2 ADD PUSH1 0x1F NOT AND DUP3 ADD PUSH1 0x40 MSTORE PUSH2 0x63C SWAP2 SWAP1 DUP2 ADD SWAP1 PUSH2 0x134A JUMP JUMPDEST POP SWAP1 POP DUP1 PUSH2 0x684 JUMPI PUSH1 0x40 MLOAD PUSH3 0x461BCD PUSH1 0xE5 SHL DUP2 MSTORE PUSH1 0x20 PUSH1 0x4 DUP3 ADD MSTORE PUSH1 0x15 PUSH1 0x24 DUP3 ADD MSTORE PUSH21 0x141B185E595C881B9BDD081C9959DA5CDD195C9959 PUSH1 0x5A SHL PUSH1 0x44 DUP3 ADD MSTORE PUSH1 0x64 ADD PUSH2 0x3EC JUMP JUMPDEST PUSH1 0x5 SLOAD CALLVALUE EQ PUSH2 0x6D5 JUMPI PUSH1 0x40 MLOAD PUSH3 0x461BCD PUSH1 0xE5 SHL DUP2 MSTORE PUSH1 0x20 PUSH1 0x4 DUP3 ADD MSTORE PUSH1 0x19 PUSH1 0x24 DUP3 ADD MSTORE PUSH32 0x4A6F696E696E672046656573206E6F742070726F766964656400000000000000 PUSH1 0x44 DUP3 ADD MSTORE PUSH1 0x64 ADD PUSH2 0x3EC JUMP JUMPDEST PUSH2 0x3A0 PUSH1 0xD CALLER PUSH2 0xD50 JUMP JUMPDEST PUSH1 0x8 DUP1 SLOAD PUSH1 0x9 SLOAD PUSH1 0xA SLOAD PUSH1 0xB DUP1 SLOAD PUSH1 0xFF SWAP1 SWAP5 AND SWAP5 SWAP3 SWAP4 SWAP2 SWAP3 SWAP2 PUSH2 0x702 SWAP1 PUSH2 0x1697 JUMP JUMPDEST DUP1 PUSH1 0x1F ADD PUSH1 0x20 DUP1 SWAP2 DIV MUL PUSH1 0x20 ADD PUSH1 0x40 MLOAD SWAP1 DUP2 ADD PUSH1 0x40 MSTORE DUP1 SWAP3 SWAP2 SWAP1 DUP2 DUP2 MSTORE PUSH1 0x20 ADD DUP3 DUP1 SLOAD PUSH2 0x72E SWAP1 PUSH2 0x1697 JUMP JUMPDEST DUP1 ISZERO PUSH2 0x77B JUMPI DUP1 PUSH1 0x1F LT PUSH2 0x750 JUMPI PUSH2 0x100 DUP1 DUP4 SLOAD DIV MUL DUP4 MSTORE SWAP2 PUSH1 0x20 ADD SWAP2 PUSH2 0x77B JUMP JUMPDEST DUP3 ADD SWAP2 SWAP1 PUSH1 0x0 MSTORE PUSH1 0x20 PUSH1 0x0 KECCAK256 SWAP1 JUMPDEST DUP2 SLOAD DUP2 MSTORE SWAP1 PUSH1 0x1 ADD SWAP1 PUSH1 0x20 ADD DUP1 DUP4 GT PUSH2 0x75E JUMPI DUP3 SWAP1 SUB PUSH1 0x1F AND DUP3 ADD SWAP2 JUMPDEST POP POP POP POP POP SWAP1 DUP1 PUSH1 0x4 ADD SLOAD SWAP1 POP DUP6 JUMP JUMPDEST PUSH1 0x60 PUSH1 0x0 PUSH2 0x799 PUSH1 0xD PUSH2 0xD40 JUMP JUMPDEST PUSH8 0xFFFFFFFFFFFFFFFF DUP2 GT ISZERO PUSH2 0x7B1 JUMPI PUSH2 0x7B1 PUSH2 0x1744 JUMP JUMPDEST PUSH1 0x40 MLOAD SWAP1 DUP1 DUP3 MSTORE DUP1 PUSH1 0x20 MUL PUSH1 0x20 ADD DUP3 ADD PUSH1 0x40 MSTORE DUP1 ISZERO PUSH2 0x816 JUMPI DUP2 PUSH1 0x20 ADD JUMPDEST PUSH2 0x803 PUSH1 0x40 MLOAD DUP1 PUSH1 0x80 ADD PUSH1 0x40 MSTORE DUP1 PUSH1 0x0 PUSH1 0x1 PUSH1 0x1 PUSH1 0xA0 SHL SUB AND DUP2 MSTORE PUSH1 0x20 ADD PUSH1 0x60 DUP2 MSTORE PUSH1 0x20 ADD PUSH1 0x0 DUP2 MSTORE PUSH1 0x20 ADD PUSH1 0x0 DUP2 MSTORE POP SWAP1 JUMP JUMPDEST DUP2 MSTORE PUSH1 0x20 ADD SWAP1 PUSH1 0x1 SWAP1 SUB SWAP1 DUP2 PUSH2 0x7CF JUMPI SWAP1 POP JUMPDEST POP SWAP1 POP PUSH1 0x0 JUMPDEST PUSH2 0x826 PUSH1 0xD PUSH2 0xD40 JUMP JUMPDEST DUP2 LT ISZERO PUSH2 0x952 JUMPI PUSH1 0x6 SLOAD PUSH1 0x40 MLOAD PUSH4 0xA0BDC15 PUSH1 0xE1 SHL DUP2 MSTORE CALLER PUSH1 0x4 DUP3 ADD MSTORE PUSH1 0x0 SWAP2 PUSH1 0x1 PUSH1 0x1 PUSH1 0xA0 SHL SUB AND SWAP1 PUSH4 0x1417B82A SWAP1 PUSH1 0x24 ADD PUSH1 0x0 PUSH1 0x40 MLOAD DUP1 DUP4 SUB DUP2 DUP7 DUP1 EXTCODESIZE ISZERO DUP1 ISZERO PUSH2 0x871 JUMPI PUSH1 0x0 DUP1 REVERT JUMPDEST POP GAS STATICCALL ISZERO DUP1 ISZERO PUSH2 0x885 JUMPI RETURNDATASIZE PUSH1 0x0 DUP1 RETURNDATACOPY RETURNDATASIZE PUSH1 0x0 REVERT JUMPDEST POP POP POP POP PUSH1 0x40 MLOAD RETURNDATASIZE PUSH1 0x0 DUP3 RETURNDATACOPY PUSH1 0x1F RETURNDATASIZE SWAP1 DUP2 ADD PUSH1 0x1F NOT AND DUP3 ADD PUSH1 0x40 MSTORE PUSH2 0x8AD SWAP2 SWAP1 DUP2 ADD SWAP1 PUSH2 0x134A JUMP JUMPDEST SWAP2 POP POP PUSH1 0x40 MLOAD DUP1 PUSH1 0x80 ADD PUSH1 0x40 MSTORE DUP1 PUSH2 0x8CF DUP5 PUSH1 0xD PUSH2 0xD6C SWAP1 SWAP2 SWAP1 PUSH4 0xFFFFFFFF AND JUMP JUMPDEST PUSH1 0x1 PUSH1 0x1 PUSH1 0xA0 SHL SUB AND DUP2 MSTORE PUSH1 0x20 DUP2 ADD DUP4 SWAP1 MSTORE PUSH1 0x40 ADD PUSH1 0xF PUSH1 0x0 PUSH2 0x8F3 PUSH1 0xD DUP8 PUSH2 0xD6C JUMP JUMPDEST PUSH1 0x1 PUSH1 0x1 PUSH1 0xA0 SHL SUB AND PUSH1 0x1 PUSH1 0x1 PUSH1 0xA0 SHL SUB AND DUP2 MSTORE PUSH1 0x20 ADD SWAP1 DUP2 MSTORE PUSH1 0x20 ADD PUSH1 0x0 KECCAK256 PUSH1 0x1 ADD SLOAD DUP2 MSTORE PUSH1 0x20 ADD PUSH1 0x0 DUP2 MSTORE POP DUP4 DUP4 DUP2 MLOAD DUP2 LT PUSH2 0x933 JUMPI PUSH2 0x933 PUSH2 0x172E JUMP JUMPDEST PUSH1 0x20 MUL PUSH1 0x20 ADD ADD DUP2 SWAP1 MSTORE POP POP DUP1 DUP1 PUSH2 0x94A SWAP1 PUSH2 0x16F2 JUMP JUMPDEST SWAP2 POP POP PUSH2 0x81C JUMP JUMPDEST POP PUSH2 0x974 DUP2 PUSH1 0x0 PUSH1 0x1 PUSH2 0x965 PUSH1 0xD PUSH2 0xD40 JUMP JUMPDEST PUSH2 0x96F SWAP2 SWAP1 PUSH2 0x1632 JUMP JUMPDEST PUSH2 0xD78 JUMP JUMPDEST PUSH1 0x40 DUP1 MLOAD PUSH1 0xA0 DUP2 ADD SWAP1 SWAP2 MSTORE PUSH1 0x8 SLOAD PUSH1 0xFF AND DUP1 ISZERO ISZERO DUP3 MSTORE SWAP2 SWAP3 POP PUSH1 0x0 SWAP2 PUSH1 0x20 DUP3 ADD SWAP1 PUSH2 0x9E5 JUMPI PUSH2 0x9BF PUSH1 0x8 PUSH1 0x4 ADD SLOAD PUSH1 0x5 SLOAD PUSH2 0x9AF PUSH1 0xD PUSH2 0xD40 JUMP JUMPDEST PUSH2 0x9B9 SWAP2 SWAP1 PUSH2 0x15D4 JUMP JUMPDEST SWAP1 PUSH2 0xF17 JUMP JUMPDEST PUSH1 0x5 SLOAD PUSH2 0x9CC PUSH1 0xD PUSH2 0xD40 JUMP JUMPDEST PUSH2 0x9D6 SWAP2 SWAP1 PUSH2 0x15D4 JUMP JUMPDEST PUSH2 0x9E0 SWAP2 SWAP1 PUSH2 0x1632 JUMP JUMPDEST PUSH2 0x9E9 JUMP JUMPDEST PUSH1 0x9 SLOAD JUMPDEST DUP2 MSTORE PUSH1 0x20 ADD PUSH2 0xB1F PUSH2 0xA83 PUSH1 0x6 PUSH1 0x0 SWAP1 SLOAD SWAP1 PUSH2 0x100 EXP SWAP1 DIV PUSH1 0x1 PUSH1 0x1 PUSH1 0xA0 SHL SUB AND PUSH1 0x1 PUSH1 0x1 PUSH1 0xA0 SHL SUB AND PUSH3 0x5A0E3D PUSH1 0x40 MLOAD DUP2 PUSH4 0xFFFFFFFF AND PUSH1 0xE0 SHL DUP2 MSTORE PUSH1 0x4 ADD PUSH1 0x20 PUSH1 0x40 MLOAD DUP1 DUP4 SUB DUP2 DUP7 DUP1 EXTCODESIZE ISZERO DUP1 ISZERO PUSH2 0xA41 JUMPI PUSH1 0x0 DUP1 REVERT JUMPDEST POP GAS STATICCALL ISZERO DUP1 ISZERO PUSH2 0xA55 JUMPI RETURNDATASIZE PUSH1 0x0 DUP1 RETURNDATACOPY RETURNDATASIZE PUSH1 0x0 REVERT JUMPDEST POP POP POP POP PUSH1 0x40 MLOAD RETURNDATASIZE PUSH1 0x1F NOT PUSH1 0x1F DUP3 ADD AND DUP3 ADD DUP1 PUSH1 0x40 MSTORE POP DUP2 ADD SWAP1 PUSH2 0xA79 SWAP2 SWAP1 PUSH2 0x1412 JUMP JUMPDEST PUSH2 0x9B9 PUSH1 0xD PUSH2 0xD40 JUMP JUMPDEST PUSH1 0x8 SLOAD PUSH1 0xFF AND PUSH2 0xB17 JUMPI PUSH1 0x6 SLOAD PUSH1 0x40 DUP1 MLOAD PUSH3 0x5A0E3D PUSH1 0xE0 SHL DUP2 MSTORE SWAP1 MLOAD PUSH1 0xA SWAP3 PUSH1 0x1 PUSH1 0x1 PUSH1 0xA0 SHL SUB AND SWAP2 PUSH3 0x5A0E3D SWAP2 PUSH1 0x4 DUP1 DUP4 ADD SWAP3 PUSH1 0x20 SWAP3 SWAP2 SWAP1 DUP3 SWAP1 SUB ADD DUP2 DUP7 DUP1 EXTCODESIZE ISZERO DUP1 ISZERO PUSH2 0xAD0 JUMPI PUSH1 0x0 DUP1 REVERT JUMPDEST POP GAS STATICCALL ISZERO DUP1 ISZERO PUSH2 0xAE4 JUMPI RETURNDATASIZE PUSH1 0x0 DUP1 RETURNDATACOPY RETURNDATASIZE PUSH1 0x0 REVERT JUMPDEST POP POP POP POP PUSH1 0x40 MLOAD RETURNDATASIZE PUSH1 0x1F NOT PUSH1 0x1F DUP3 ADD AND DUP3 ADD DUP1 PUSH1 0x40 MSTORE POP DUP2 ADD SWAP1 PUSH2 0xB08 SWAP2 SWAP1 PUSH2 0x1412 JUMP JUMPDEST PUSH2 0xB12 SWAP2 SWAP1 PUSH2 0x15C0 JUMP JUMPDEST PUSH2 0xFBE JUMP JUMPDEST PUSH1 0xA SLOAD PUSH2 0xFBE JUMP JUMPDEST DUP2 MSTORE PUSH1 0x20 ADD PUSH1 0x8 PUSH1 0x3 ADD DUP1 SLOAD PUSH2 0xB34 SWAP1 PUSH2 0x1697 JUMP JUMPDEST DUP1 PUSH1 0x1F ADD PUSH1 0x20 DUP1 SWAP2 DIV MUL PUSH1 0x20 ADD PUSH1 0x40 MLOAD SWAP1 DUP2 ADD PUSH1 0x40 MSTORE DUP1 SWAP3 SWAP2 SWAP1 DUP2 DUP2 MSTORE PUSH1 0x20 ADD DUP3 DUP1 SLOAD PUSH2 0xB60 SWAP1 PUSH2 0x1697 JUMP JUMPDEST DUP1 ISZERO PUSH2 0xBAD JUMPI DUP1 PUSH1 0x1F LT PUSH2 0xB82 JUMPI PUSH2 0x100 DUP1 DUP4 SLOAD DIV MUL DUP4 MSTORE SWAP2 PUSH1 0x20 ADD SWAP2 PUSH2 0xBAD JUMP JUMPDEST DUP3 ADD SWAP2 SWAP1 PUSH1 0x0 MSTORE PUSH1 0x20 PUSH1 0x0 KECCAK256 SWAP1 JUMPDEST DUP2 SLOAD DUP2 MSTORE SWAP1 PUSH1 0x1 ADD SWAP1 PUSH1 0x20 ADD DUP1 DUP4 GT PUSH2 0xB90 JUMPI DUP3 SWAP1 SUB PUSH1 0x1F AND DUP3 ADD SWAP2 JUMPDEST POP POP POP SWAP2 DUP4 MSTORE POP POP PUSH1 0xC SLOAD PUSH1 0x20 SWAP1 SWAP2 ADD MSTORE SWAP1 POP PUSH1 0x0 PUSH2 0xBD4 PUSH2 0xBCF PUSH1 0xD PUSH2 0xD40 JUMP JUMPDEST PUSH2 0xFD6 JUMP JUMPDEST SWAP1 POP PUSH1 0x0 PUSH3 0xF4240 PUSH2 0xBEA DUP4 DUP6 PUSH1 0x40 ADD MLOAD PUSH2 0x11B7 JUMP JUMPDEST PUSH2 0xBF4 SWAP2 SWAP1 PUSH2 0x1632 JUMP JUMPDEST PUSH2 0xC01 PUSH3 0xF4240 DUP5 PUSH2 0x1632 JUMP JUMPDEST DUP5 PUSH1 0x20 ADD MLOAD PUSH2 0xC10 SWAP2 SWAP1 PUSH2 0x15D4 JUMP JUMPDEST PUSH2 0xC1A SWAP2 SWAP1 PUSH2 0x15C0 JUMP JUMPDEST SWAP1 POP PUSH1 0x0 JUMPDEST PUSH2 0xC29 PUSH1 0xD PUSH2 0xD40 JUMP JUMPDEST DUP2 LT ISZERO PUSH2 0xC77 JUMPI PUSH2 0xC3A DUP4 DUP3 PUSH2 0x11B7 JUMP JUMPDEST PUSH2 0xC44 SWAP1 DUP4 PUSH2 0x15D4 JUMP JUMPDEST DUP6 DUP3 DUP2 MLOAD DUP2 LT PUSH2 0xC56 JUMPI PUSH2 0xC56 PUSH2 0x172E JUMP JUMPDEST PUSH1 0x20 SWAP1 DUP2 MUL SWAP2 SWAP1 SWAP2 ADD ADD MLOAD PUSH1 0x60 ADD MSTORE DUP1 PUSH2 0xC6F DUP2 PUSH2 0x16F2 JUMP JUMPDEST SWAP2 POP POP PUSH2 0xC1F JUMP JUMPDEST POP SWAP3 SWAP5 SWAP4 POP POP POP POP JUMP JUMPDEST PUSH1 0x7 SLOAD PUSH1 0x1 PUSH1 0x1 PUSH1 0xA0 SHL SUB AND CALLER EQ PUSH2 0xCCC JUMPI PUSH1 0x40 MLOAD PUSH3 0x461BCD PUSH1 0xE5 SHL DUP2 MSTORE PUSH1 0x20 PUSH1 0x4 DUP3 ADD MSTORE PUSH1 0xE PUSH1 0x24 DUP3 ADD MSTORE PUSH14 0x139BDD08185D5D1A1BDC9A5E9959 PUSH1 0x92 SHL PUSH1 0x44 DUP3 ADD MSTORE PUSH1 0x64 ADD PUSH2 0x3EC JUMP JUMPDEST TIMESTAMP PUSH1 0x4 SLOAD PUSH1 0x3 SLOAD PUSH2 0xCDD SWAP2 SWAP1 PUSH2 0x157A JUMP JUMPDEST GT PUSH2 0xD21 JUMPI PUSH1 0x40 MLOAD PUSH3 0x461BCD PUSH1 0xE5 SHL DUP2 MSTORE PUSH1 0x20 PUSH1 0x4 DUP3 ADD MSTORE PUSH1 0x14 PUSH1 0x24 DUP3 ADD MSTORE PUSH20 0x151BDD5C9B985B595B9D081A185CC8195B991959 PUSH1 0x62 SHL PUSH1 0x44 DUP3 ADD MSTORE PUSH1 0x64 ADD PUSH2 0x3EC JUMP JUMPDEST PUSH1 0x1 PUSH1 0x1 PUSH1 0xA0 SHL SUB SWAP1 SWAP2 AND PUSH1 0x0 SWAP1 DUP2 MSTORE PUSH1 0xF PUSH1 0x20 MSTORE PUSH1 0x40 SWAP1 KECCAK256 PUSH1 0x1 ADD SSTORE JUMP JUMPDEST PUSH1 0x0 PUSH2 0xD4A DUP3 SLOAD SWAP1 JUMP JUMPDEST SWAP3 SWAP2 POP POP JUMP JUMPDEST PUSH1 0x0 PUSH2 0xD65 DUP4 PUSH1 0x1 PUSH1 0x1 PUSH1 0xA0 SHL SUB DUP5 AND PUSH2 0x11EA JUMP JUMPDEST SWAP4 SWAP3 POP POP POP JUMP JUMPDEST PUSH1 0x0 PUSH2 0xD65 DUP4 DUP4 PUSH2 0x1239 JUMP JUMPDEST PUSH1 0x60 DUP2 DUP4 SLT PUSH2 0xD88 JUMPI POP DUP3 PUSH2 0xD65 JUMP JUMPDEST PUSH1 0x0 DUP5 PUSH1 0x2 PUSH2 0xD97 DUP7 DUP7 PUSH2 0x15F3 JUMP JUMPDEST PUSH2 0xDA1 SWAP2 SWAP1 PUSH2 0x1592 JUMP JUMPDEST PUSH2 0xDAB SWAP1 DUP7 PUSH2 0x1539 JUMP JUMPDEST DUP2 MLOAD DUP2 LT PUSH2 0xDBB JUMPI PUSH2 0xDBB PUSH2 0x172E JUMP JUMPDEST PUSH1 0x20 SWAP1 DUP2 MUL SWAP2 SWAP1 SWAP2 ADD ADD MLOAD PUSH1 0x40 ADD MLOAD SWAP1 POP DUP4 DUP4 JUMPDEST DUP1 DUP3 SGT PUSH2 0xEE2 JUMPI JUMPDEST DUP3 DUP8 DUP4 DUP2 MLOAD DUP2 LT PUSH2 0xDEA JUMPI PUSH2 0xDEA PUSH2 0x172E JUMP JUMPDEST PUSH1 0x20 MUL PUSH1 0x20 ADD ADD MLOAD PUSH1 0x40 ADD MLOAD GT ISZERO PUSH2 0xE0E JUMPI DUP2 PUSH2 0xE06 DUP2 PUSH2 0x16D2 JUMP JUMPDEST SWAP3 POP POP PUSH2 0xDD7 JUMP JUMPDEST DUP7 DUP2 DUP2 MLOAD DUP2 LT PUSH2 0xE20 JUMPI PUSH2 0xE20 PUSH2 0x172E JUMP JUMPDEST PUSH1 0x20 MUL PUSH1 0x20 ADD ADD MLOAD PUSH1 0x40 ADD MLOAD DUP4 GT ISZERO PUSH2 0xE45 JUMPI DUP1 PUSH2 0xE3D DUP2 PUSH2 0x1679 JUMP JUMPDEST SWAP2 POP POP PUSH2 0xE0E JUMP JUMPDEST DUP1 DUP3 SGT PUSH2 0xEDD JUMPI PUSH1 0x0 DUP8 DUP4 DUP2 MLOAD DUP2 LT PUSH2 0xE60 JUMPI PUSH2 0xE60 PUSH2 0x172E JUMP JUMPDEST PUSH1 0x20 MUL PUSH1 0x20 ADD ADD MLOAD SWAP1 POP DUP8 DUP3 DUP2 MLOAD DUP2 LT PUSH2 0xE7C JUMPI PUSH2 0xE7C PUSH2 0x172E JUMP JUMPDEST PUSH1 0x20 MUL PUSH1 0x20 ADD ADD MLOAD DUP9 DUP5 DUP2 MLOAD DUP2 LT PUSH2 0xE96 JUMPI PUSH2 0xE96 PUSH2 0x172E JUMP JUMPDEST PUSH1 0x20 MUL PUSH1 0x20 ADD ADD DUP2 SWAP1 MSTORE POP DUP1 DUP9 DUP4 DUP2 MLOAD DUP2 LT PUSH2 0xEB4 JUMPI PUSH2 0xEB4 PUSH2 0x172E JUMP JUMPDEST PUSH1 0x20 MUL PUSH1 0x20 ADD ADD DUP2 SWAP1 MSTORE POP DUP3 DUP1 PUSH2 0xECA SWAP1 PUSH2 0x16D2 JUMP JUMPDEST SWAP4 POP POP DUP2 DUP1 PUSH2 0xED8 SWAP1 PUSH2 0x1679 JUMP JUMPDEST SWAP3 POP POP POP JUMPDEST PUSH2 0xDCF JUMP JUMPDEST DUP1 DUP7 SLT ISZERO PUSH2 0xEF7 JUMPI PUSH2 0xEF5 DUP8 DUP8 DUP4 PUSH2 0xD78 JUMP JUMPDEST POP JUMPDEST DUP5 DUP3 SLT ISZERO PUSH2 0xF0C JUMPI PUSH2 0xF0A DUP8 DUP4 DUP8 PUSH2 0xD78 JUMP JUMPDEST POP JUMPDEST POP SWAP5 SWAP6 SWAP5 POP POP POP POP POP JUMP JUMPDEST PUSH1 0x0 DUP3 ISZERO DUP1 PUSH2 0xF24 JUMPI POP DUP2 ISZERO JUMPDEST ISZERO PUSH2 0xF31 JUMPI POP PUSH1 0x0 PUSH2 0xD4A JUMP JUMPDEST DUP2 PUSH2 0xF3F PUSH1 0x2 PUSH2 0x2710 PUSH2 0x15C0 JUMP JUMPDEST PUSH2 0xF4B SWAP1 PUSH1 0x0 NOT PUSH2 0x1632 JUMP JUMPDEST PUSH2 0xF55 SWAP2 SWAP1 PUSH2 0x15C0 JUMP JUMPDEST DUP4 GT ISZERO PUSH1 0x40 MLOAD DUP1 PUSH1 0x40 ADD PUSH1 0x40 MSTORE DUP1 PUSH1 0x2 DUP2 MSTORE PUSH1 0x20 ADD PUSH2 0x687 PUSH1 0xF3 SHL DUP2 MSTORE POP SWAP1 PUSH2 0xF91 JUMPI PUSH1 0x40 MLOAD PUSH3 0x461BCD PUSH1 0xE5 SHL DUP2 MSTORE PUSH1 0x4 ADD PUSH2 0x3EC SWAP2 SWAP1 PUSH2 0x1526 JUMP JUMPDEST POP PUSH2 0x2710 PUSH2 0xFA0 PUSH1 0x2 DUP3 PUSH2 0x15C0 JUMP JUMPDEST PUSH2 0xFAA DUP5 DUP7 PUSH2 0x15D4 JUMP JUMPDEST PUSH2 0xFB4 SWAP2 SWAP1 PUSH2 0x157A JUMP JUMPDEST PUSH2 0xD65 SWAP2 SWAP1 PUSH2 0x15C0 JUMP JUMPDEST PUSH1 0x0 DUP2 DUP4 GT ISZERO PUSH2 0xFCF JUMPI POP DUP1 PUSH2 0xD4A JUMP JUMPDEST POP SWAP1 SWAP2 SWAP1 POP JUMP JUMPDEST PUSH1 0x0 PUSH1 0xA DUP3 LT ISZERO PUSH2 0x105E JUMPI PUSH1 0x6 SLOAD PUSH1 0x40 MLOAD PUSH4 0x3438D199 PUSH1 0xE2 SHL DUP2 MSTORE PUSH1 0xA PUSH1 0x4 DUP3 ADD MSTORE PUSH1 0x1 PUSH1 0x1 PUSH1 0xA0 SHL SUB SWAP1 SWAP2 AND SWAP1 PUSH4 0xD0E34664 SWAP1 PUSH1 0x24 ADD JUMPDEST PUSH1 0x20 PUSH1 0x40 MLOAD DUP1 DUP4 SUB DUP2 DUP7 DUP1 EXTCODESIZE ISZERO DUP1 ISZERO PUSH2 0x1026 JUMPI PUSH1 0x0 DUP1 REVERT JUMPDEST POP GAS STATICCALL ISZERO DUP1 ISZERO PUSH2 0x103A JUMPI RETURNDATASIZE PUSH1 0x0 DUP1 RETURNDATACOPY RETURNDATASIZE PUSH1 0x0 REVERT JUMPDEST POP POP POP POP PUSH1 0x40 MLOAD RETURNDATASIZE PUSH1 0x1F NOT PUSH1 0x1F DUP3 ADD AND DUP3 ADD DUP1 PUSH1 0x40 MSTORE POP DUP2 ADD SWAP1 PUSH2 0xD4A SWAP2 SWAP1 PUSH2 0x1412 JUMP JUMPDEST PUSH1 0x14 DUP3 LT ISZERO PUSH2 0x1098 JUMPI PUSH1 0x6 SLOAD PUSH1 0x40 MLOAD PUSH4 0x3438D199 PUSH1 0xE2 SHL DUP2 MSTORE PUSH1 0x14 PUSH1 0x4 DUP3 ADD MSTORE PUSH1 0x1 PUSH1 0x1 PUSH1 0xA0 SHL SUB SWAP1 SWAP2 AND SWAP1 PUSH4 0xD0E34664 SWAP1 PUSH1 0x24 ADD PUSH2 0x100E JUMP JUMPDEST PUSH1 0x1E DUP3 LT ISZERO PUSH2 0x10D2 JUMPI PUSH1 0x6 SLOAD PUSH1 0x40 MLOAD PUSH4 0x3438D199 PUSH1 0xE2 SHL DUP2 MSTORE PUSH1 0x1E PUSH1 0x4 DUP3 ADD MSTORE PUSH1 0x1 PUSH1 0x1 PUSH1 0xA0 SHL SUB SWAP1 SWAP2 AND SWAP1 PUSH4 0xD0E34664 SWAP1 PUSH1 0x24 ADD PUSH2 0x100E JUMP JUMPDEST PUSH1 0x28 DUP3 LT ISZERO PUSH2 0x110C JUMPI PUSH1 0x6 SLOAD PUSH1 0x40 MLOAD PUSH4 0x3438D199 PUSH1 0xE2 SHL DUP2 MSTORE PUSH1 0x28 PUSH1 0x4 DUP3 ADD MSTORE PUSH1 0x1 PUSH1 0x1 PUSH1 0xA0 SHL SUB SWAP1 SWAP2 AND SWAP1 PUSH4 0xD0E34664 SWAP1 PUSH1 0x24 ADD PUSH2 0x100E JUMP JUMPDEST PUSH1 0x32 DUP3 LT ISZERO PUSH2 0x1146 JUMPI PUSH1 0x6 SLOAD PUSH1 0x40 MLOAD PUSH4 0x3438D199 PUSH1 0xE2 SHL DUP2 MSTORE PUSH1 0x32 PUSH1 0x4 DUP3 ADD MSTORE PUSH1 0x1 PUSH1 0x1 PUSH1 0xA0 SHL SUB SWAP1 SWAP2 AND SWAP1 PUSH4 0xD0E34664 SWAP1 PUSH1 0x24 ADD PUSH2 0x100E JUMP JUMPDEST PUSH1 0x64 DUP3 LT ISZERO PUSH2 0x1180 JUMPI PUSH1 0x6 SLOAD PUSH1 0x40 MLOAD PUSH4 0x3438D199 PUSH1 0xE2 SHL DUP2 MSTORE PUSH1 0x64 PUSH1 0x4 DUP3 ADD MSTORE PUSH1 0x1 PUSH1 0x1 PUSH1 0xA0 SHL SUB SWAP1 SWAP2 AND SWAP1 PUSH4 0xD0E34664 SWAP1 PUSH1 0x24 ADD PUSH2 0x100E JUMP JUMPDEST PUSH1 0x6 SLOAD PUSH1 0x40 MLOAD PUSH4 0x3438D199 PUSH1 0xE2 SHL DUP2 MSTORE PUSH2 0x3E8 PUSH1 0x4 DUP3 ADD MSTORE PUSH1 0x1 PUSH1 0x1 PUSH1 0xA0 SHL SUB SWAP1 SWAP2 AND SWAP1 PUSH4 0xD0E34664 SWAP1 PUSH1 0x24 ADD PUSH2 0x100E JUMP JUMPDEST SWAP2 SWAP1 POP JUMP JUMPDEST PUSH1 0x0 DUP3 DUP2 JUMPDEST DUP4 DUP2 LT ISZERO PUSH2 0x11E2 JUMPI PUSH2 0x11CE DUP3 DUP7 PUSH2 0x1263 JUMP JUMPDEST SWAP2 POP DUP1 PUSH2 0x11DA DUP2 PUSH2 0x16F2 JUMP JUMPDEST SWAP2 POP POP PUSH2 0x11BC JUMP JUMPDEST POP SWAP4 SWAP3 POP POP POP JUMP JUMPDEST PUSH1 0x0 DUP2 DUP2 MSTORE PUSH1 0x1 DUP4 ADD PUSH1 0x20 MSTORE PUSH1 0x40 DUP2 KECCAK256 SLOAD PUSH2 0x1231 JUMPI POP DUP2 SLOAD PUSH1 0x1 DUP2 DUP2 ADD DUP5 SSTORE PUSH1 0x0 DUP5 DUP2 MSTORE PUSH1 0x20 DUP1 DUP3 KECCAK256 SWAP1 SWAP4 ADD DUP5 SWAP1 SSTORE DUP5 SLOAD DUP5 DUP3 MSTORE DUP3 DUP7 ADD SWAP1 SWAP4 MSTORE PUSH1 0x40 SWAP1 KECCAK256 SWAP2 SWAP1 SWAP2 SSTORE PUSH2 0xD4A JUMP JUMPDEST POP PUSH1 0x0 PUSH2 0xD4A JUMP JUMPDEST PUSH1 0x0 DUP3 PUSH1 0x0 ADD DUP3 DUP2 SLOAD DUP2 LT PUSH2 0x1250 JUMPI PUSH2 0x1250 PUSH2 0x172E JUMP JUMPDEST SWAP1 PUSH1 0x0 MSTORE PUSH1 0x20 PUSH1 0x0 KECCAK256 ADD SLOAD SWAP1 POP SWAP3 SWAP2 POP POP JUMP JUMPDEST PUSH1 0x0 DUP3 ISZERO DUP1 PUSH2 0x1270 JUMPI POP DUP2 ISZERO JUMPDEST ISZERO PUSH2 0x127D JUMPI POP PUSH1 0x0 PUSH2 0xD4A JUMP JUMPDEST DUP2 PUSH2 0x128C PUSH1 0x2 PUSH3 0xF4240 PUSH2 0x15C0 JUMP JUMPDEST PUSH2 0x1298 SWAP1 PUSH1 0x0 NOT PUSH2 0x1632 JUMP JUMPDEST PUSH2 0x12A2 SWAP2 SWAP1 PUSH2 0x15C0 JUMP JUMPDEST DUP4 GT ISZERO PUSH1 0x40 MLOAD DUP1 PUSH1 0x40 ADD PUSH1 0x40 MSTORE DUP1 PUSH1 0x2 DUP2 MSTORE PUSH1 0x20 ADD PUSH2 0x687 PUSH1 0xF3 SHL DUP2 MSTORE POP SWAP1 PUSH2 0x12DE JUMPI PUSH1 0x40 MLOAD PUSH3 0x461BCD PUSH1 0xE5 SHL DUP2 MSTORE PUSH1 0x4 ADD PUSH2 0x3EC SWAP2 SWAP1 PUSH2 0x1526 JUMP JUMPDEST POP PUSH3 0xF4240 PUSH2 0xFA0 PUSH1 0x2 DUP3 PUSH2 0x15C0 JUMP JUMPDEST DUP1 CALLDATALOAD PUSH1 0x1 PUSH1 0x1 PUSH1 0xA0 SHL SUB DUP2 AND DUP2 EQ PUSH2 0x11B2 JUMPI PUSH1 0x0 DUP1 REVERT JUMPDEST PUSH1 0x0 PUSH1 0x20 DUP3 DUP5 SUB SLT ISZERO PUSH2 0x1317 JUMPI PUSH1 0x0 DUP1 REVERT JUMPDEST PUSH2 0xD65 DUP3 PUSH2 0x12EE JUMP JUMPDEST PUSH1 0x0 DUP1 PUSH1 0x40 DUP4 DUP6 SUB SLT ISZERO PUSH2 0x1333 JUMPI PUSH1 0x0 DUP1 REVERT JUMPDEST PUSH2 0x133C DUP4 PUSH2 0x12EE JUMP JUMPDEST SWAP5 PUSH1 0x20 SWAP4 SWAP1 SWAP4 ADD CALLDATALOAD SWAP4 POP POP POP JUMP JUMPDEST PUSH1 0x0 DUP1 PUSH1 0x40 DUP4 DUP6 SUB SLT ISZERO PUSH2 0x135D JUMPI PUSH1 0x0 DUP1 REVERT JUMPDEST DUP3 MLOAD DUP1 ISZERO ISZERO DUP2 EQ PUSH2 0x136D JUMPI PUSH1 0x0 DUP1 REVERT JUMPDEST PUSH1 0x20 DUP5 ADD MLOAD SWAP1 SWAP3 POP PUSH8 0xFFFFFFFFFFFFFFFF DUP1 DUP3 GT ISZERO PUSH2 0x138B JUMPI PUSH1 0x0 DUP1 REVERT JUMPDEST DUP2 DUP6 ADD SWAP2 POP DUP6 PUSH1 0x1F DUP4 ADD SLT PUSH2 0x139F JUMPI PUSH1 0x0 DUP1 REVERT JUMPDEST DUP2 MLOAD DUP2 DUP2 GT ISZERO PUSH2 0x13B1 JUMPI PUSH2 0x13B1 PUSH2 0x1744 JUMP JUMPDEST PUSH1 0x40 MLOAD PUSH1 0x1F DUP3 ADD PUSH1 0x1F NOT SWAP1 DUP2 AND PUSH1 0x3F ADD AND DUP2 ADD SWAP1 DUP4 DUP3 GT DUP2 DUP4 LT OR ISZERO PUSH2 0x13D9 JUMPI PUSH2 0x13D9 PUSH2 0x1744 JUMP JUMPDEST DUP2 PUSH1 0x40 MSTORE DUP3 DUP2 MSTORE DUP9 PUSH1 0x20 DUP5 DUP8 ADD ADD GT ISZERO PUSH2 0x13F2 JUMPI PUSH1 0x0 DUP1 REVERT JUMPDEST PUSH2 0x1403 DUP4 PUSH1 0x20 DUP4 ADD PUSH1 0x20 DUP9 ADD PUSH2 0x1649 JUMP JUMPDEST DUP1 SWAP6 POP POP POP POP POP POP SWAP3 POP SWAP3 SWAP1 POP JUMP JUMPDEST PUSH1 0x0 PUSH1 0x20 DUP3 DUP5 SUB SLT ISZERO PUSH2 0x1424 JUMPI PUSH1 0x0 DUP1 REVERT JUMPDEST POP MLOAD SWAP2 SWAP1 POP JUMP JUMPDEST PUSH1 0x0 DUP2 MLOAD DUP1 DUP5 MSTORE PUSH2 0x1443 DUP2 PUSH1 0x20 DUP7 ADD PUSH1 0x20 DUP7 ADD PUSH2 0x1649 JUMP JUMPDEST PUSH1 0x1F ADD PUSH1 0x1F NOT AND SWAP3 SWAP1 SWAP3 ADD PUSH1 0x20 ADD SWAP3 SWAP2 POP POP JUMP JUMPDEST PUSH1 0x0 PUSH1 0x20 DUP1 DUP4 ADD DUP2 DUP5 MSTORE DUP1 DUP6 MLOAD DUP1 DUP4 MSTORE PUSH1 0x40 SWAP3 POP DUP3 DUP7 ADD SWAP2 POP DUP3 DUP2 PUSH1 0x5 SHL DUP8 ADD ADD DUP5 DUP9 ADD PUSH1 0x0 JUMPDEST DUP4 DUP2 LT ISZERO PUSH2 0x14DF JUMPI DUP9 DUP4 SUB PUSH1 0x3F NOT ADD DUP6 MSTORE DUP2 MLOAD DUP1 MLOAD PUSH1 0x1 PUSH1 0x1 PUSH1 0xA0 SHL SUB AND DUP5 MSTORE DUP8 DUP2 ADD MLOAD PUSH1 0x80 DUP10 DUP7 ADD DUP2 SWAP1 MSTORE SWAP1 PUSH2 0x14B7 DUP3 DUP8 ADD DUP3 PUSH2 0x142B JUMP JUMPDEST DUP4 DUP11 ADD MLOAD DUP8 DUP12 ADD MSTORE PUSH1 0x60 SWAP4 DUP5 ADD MLOAD SWAP4 SWAP1 SWAP7 ADD SWAP3 SWAP1 SWAP3 MSTORE POP POP SWAP4 DUP7 ADD SWAP4 SWAP1 DUP7 ADD SWAP1 PUSH1 0x1 ADD PUSH2 0x147E JUMP JUMPDEST POP SWAP1 SWAP9 SWAP8 POP POP POP POP POP POP POP POP JUMP JUMPDEST DUP6 ISZERO ISZERO DUP2 MSTORE DUP5 PUSH1 0x20 DUP3 ADD MSTORE DUP4 PUSH1 0x40 DUP3 ADD MSTORE PUSH1 0xA0 PUSH1 0x60 DUP3 ADD MSTORE PUSH1 0x0 PUSH2 0x1514 PUSH1 0xA0 DUP4 ADD DUP6 PUSH2 0x142B JUMP JUMPDEST SWAP1 POP DUP3 PUSH1 0x80 DUP4 ADD MSTORE SWAP7 SWAP6 POP POP POP POP POP POP JUMP JUMPDEST PUSH1 0x20 DUP2 MSTORE PUSH1 0x0 PUSH2 0xD65 PUSH1 0x20 DUP4 ADD DUP5 PUSH2 0x142B JUMP JUMPDEST PUSH1 0x0 DUP1 DUP3 SLT DUP1 ISZERO PUSH1 0x1 PUSH1 0x1 PUSH1 0xFF SHL SUB DUP5 SWAP1 SUB DUP6 SGT AND ISZERO PUSH2 0x155B JUMPI PUSH2 0x155B PUSH2 0x1702 JUMP JUMPDEST PUSH1 0x1 PUSH1 0xFF SHL DUP4 SWAP1 SUB DUP5 SLT DUP2 AND ISZERO PUSH2 0x1574 JUMPI PUSH2 0x1574 PUSH2 0x1702 JUMP JUMPDEST POP POP ADD SWAP1 JUMP JUMPDEST PUSH1 0x0 DUP3 NOT DUP3 GT ISZERO PUSH2 0x158D JUMPI PUSH2 0x158D PUSH2 0x1702 JUMP JUMPDEST POP ADD SWAP1 JUMP JUMPDEST PUSH1 0x0 DUP3 PUSH2 0x15A1 JUMPI PUSH2 0x15A1 PUSH2 0x1718 JUMP JUMPDEST PUSH1 0x1 PUSH1 0xFF SHL DUP3 EQ PUSH1 0x0 NOT DUP5 EQ AND ISZERO PUSH2 0x15BB JUMPI PUSH2 0x15BB PUSH2 0x1702 JUMP JUMPDEST POP SDIV SWAP1 JUMP JUMPDEST PUSH1 0x0 DUP3 PUSH2 0x15CF JUMPI PUSH2 0x15CF PUSH2 0x1718 JUMP JUMPDEST POP DIV SWAP1 JUMP JUMPDEST PUSH1 0x0 DUP2 PUSH1 0x0 NOT DIV DUP4 GT DUP3 ISZERO ISZERO AND ISZERO PUSH2 0x15EE JUMPI PUSH2 0x15EE PUSH2 0x1702 JUMP JUMPDEST POP MUL SWAP1 JUMP JUMPDEST PUSH1 0x0 DUP1 DUP4 SLT DUP1 ISZERO PUSH1 0x1 PUSH1 0xFF SHL DUP6 ADD DUP5 SLT AND ISZERO PUSH2 0x1611 JUMPI PUSH2 0x1611 PUSH2 0x1702 JUMP JUMPDEST PUSH1 0x1 PUSH1 0x1 PUSH1 0xFF SHL SUB DUP5 ADD DUP4 SGT DUP2 AND ISZERO PUSH2 0x162C JUMPI PUSH2 0x162C PUSH2 0x1702 JUMP JUMPDEST POP POP SUB SWAP1 JUMP JUMPDEST PUSH1 0x0 DUP3 DUP3 LT ISZERO PUSH2 0x1644 JUMPI PUSH2 0x1644 PUSH2 0x1702 JUMP JUMPDEST POP SUB SWAP1 JUMP JUMPDEST PUSH1 0x0 JUMPDEST DUP4 DUP2 LT ISZERO PUSH2 0x1664 JUMPI DUP2 DUP2 ADD MLOAD DUP4 DUP3 ADD MSTORE PUSH1 0x20 ADD PUSH2 0x164C JUMP JUMPDEST DUP4 DUP2 GT ISZERO PUSH2 0x1673 JUMPI PUSH1 0x0 DUP5 DUP5 ADD MSTORE JUMPDEST POP POP POP POP JUMP JUMPDEST PUSH1 0x0 PUSH1 0x1 PUSH1 0xFF SHL DUP3 EQ ISZERO PUSH2 0x168F JUMPI PUSH2 0x168F PUSH2 0x1702 JUMP JUMPDEST POP PUSH1 0x0 NOT ADD SWAP1 JUMP JUMPDEST PUSH1 0x1 DUP2 DUP2 SHR SWAP1 DUP3 AND DUP1 PUSH2 0x16AB JUMPI PUSH1 0x7F DUP3 AND SWAP2 POP JUMPDEST PUSH1 0x20 DUP3 LT DUP2 EQ ISZERO PUSH2 0x16CC JUMPI PUSH4 0x4E487B71 PUSH1 0xE0 SHL PUSH1 0x0 MSTORE PUSH1 0x22 PUSH1 0x4 MSTORE PUSH1 0x24 PUSH1 0x0 REVERT JUMPDEST POP SWAP2 SWAP1 POP JUMP JUMPDEST PUSH1 0x0 PUSH1 0x1 PUSH1 0x1 PUSH1 0xFF SHL SUB DUP3 EQ ISZERO PUSH2 0x16EB JUMPI PUSH2 0x16EB PUSH2 0x1702 JUMP JUMPDEST POP PUSH1 0x1 ADD SWAP1 JUMP JUMPDEST PUSH1 0x0 PUSH1 0x0 NOT DUP3 EQ ISZERO PUSH2 0x16EB JUMPI PUSH2 0x16EB JUMPDEST PUSH4 0x4E487B71 PUSH1 0xE0 SHL PUSH1 0x0 MSTORE PUSH1 0x11 PUSH1 0x4 MSTORE PUSH1 0x24 PUSH1 0x0 REVERT JUMPDEST PUSH4 0x4E487B71 PUSH1 0xE0 SHL PUSH1 0x0 MSTORE PUSH1 0x12 PUSH1 0x4 MSTORE PUSH1 0x24 PUSH1 0x0 REVERT JUMPDEST PUSH4 0x4E487B71 PUSH1 0xE0 SHL PUSH1 0x0 MSTORE PUSH1 0x32 PUSH1 0x4 MSTORE PUSH1 0x24 PUSH1 0x0 REVERT JUMPDEST PUSH4 0x4E487B71 PUSH1 0xE0 SHL PUSH1 0x0 MSTORE PUSH1 0x41 PUSH1 0x4 MSTORE PUSH1 0x24 PUSH1 0x0 REVERT INVALID LOG2 PUSH5 0x6970667358 0x22 SLT KECCAK256 KECCAK256 PUSH7 0x5C1B6DC239AD55 SWAP4 SWAP5 PUSH16 0xAA61DD005C4723A8B4C884885051F3FA DUP2 0xA7 0xEE GASPRICE PUSH5 0x736F6C6343 STOP ADDMOD SMOD STOP CALLER LOG2 PUSH5 0x6970667358 0x22 SLT KECCAK256 NUMBER SWAP5 0xC TIMESTAMP SWAP14 0xE7 0x5E SUB POP 0xB9 PUSH10 0x894DAB8FD5B99DFBCC69 0x24 SWAP2 LOG0 0xBA JUMP PUSH9 0x416C1F42CC64736F6C PUSH4 0x43000807 STOP CALLER "},"methodIdentifiers":{"createTournament(string,(bool,uint256,uint256,string,uint256))":"fbf7c5ee","currentTournamentId()":"fc8e7504","isPlayerRegistered(address)":"1417b82a","joiningFees()":"4959d977","owner()":"8da5cb5b","r_values(uint256)":"d0e34664","register(string,uint256)":"ea87152b","renounceOwnership()":"715018a6","setJoiningFees(uint256)":"e33e879a","setTimeLimit(uint256)":"e2889c82","timeLimit()":"c08d1fe5","tournaments(uint256)":"7503e1b7","transferOwnership(address)":"f2fde38b","winnersPercentage()":"005a0e3d"}}}}}