{"contracts/math/WadRayMath.sol":{"WadRayMath":{"abi":[{"inputs":[{"internalType":"uint256","name":"num","type":"uint256"}],"name":"toRay","outputs":[{"internalType":"uint256","name":"","type":"uint256"}],"stateMutability":"pure","type":"function"}],"evm":{"bytecode":{"linkReferences":{},"object":"60ee610039600b82828239805160001a60731461002c57634e487b7160e01b600052600060045260246000fd5b30600052607381538281f3fe730000000000000000000000000000000000000000301460806040526004361060335760003560e01c8063820f0fb5146038575b600080fd5b604760433660046074565b6059565b60405190815260200160405180910390f35b6000606e826a084595161401484a000000608c565b92915050565b600060208284031215608557600080fd5b5035919050565b600081600019048311821515161560b357634e487b7160e01b600052601160045260246000fd5b50029056fea264697066735822122050d6fe15e116626279b9cc108f2e99cc01abb8c74bf6bc6f24d0fb642d34f77464736f6c63430008070033","opcodes":"PUSH1 0xEE PUSH2 0x39 PUSH1 0xB DUP3 DUP3 DUP3 CODECOPY DUP1 MLOAD PUSH1 0x0 BYTE PUSH1 0x73 EQ PUSH2 0x2C JUMPI PUSH4 0x4E487B71 PUSH1 0xE0 SHL PUSH1 0x0 MSTORE PUSH1 0x0 PUSH1 0x4 MSTORE PUSH1 0x24 PUSH1 0x0 REVERT JUMPDEST ADDRESS PUSH1 0x0 MSTORE PUSH1 0x73 DUP2 MSTORE8 DUP3 DUP2 RETURN INVALID PUSH20 0x0 ADDRESS EQ PUSH1 0x80 PUSH1 0x40 MSTORE PUSH1 0x4 CALLDATASIZE LT PUSH1 0x33 JUMPI PUSH1 0x0 CALLDATALOAD PUSH1 0xE0 SHR DUP1 PUSH4 0x820F0FB5 EQ PUSH1 0x38 JUMPI JUMPDEST PUSH1 0x0 DUP1 REVERT JUMPDEST PUSH1 0x47 PUSH1 0x43 CALLDATASIZE PUSH1 0x4 PUSH1 0x74 JUMP JUMPDEST PUSH1 0x59 JUMP JUMPDEST PUSH1 0x40 MLOAD SWAP1 DUP2 MSTORE PUSH1 0x20 ADD PUSH1 0x40 MLOAD DUP1 SWAP2 SUB SWAP1 RETURN JUMPDEST PUSH1 0x0 PUSH1 0x6E DUP3 PUSH11 0x84595161401484A000000 PUSH1 0x8C JUMP JUMPDEST SWAP3 SWAP2 POP POP JUMP JUMPDEST PUSH1 0x0 PUSH1 0x20 DUP3 DUP5 SUB SLT ISZERO PUSH1 0x85 JUMPI PUSH1 0x0 DUP1 REVERT JUMPDEST POP CALLDATALOAD SWAP2 SWAP1 POP JUMP JUMPDEST PUSH1 0x0 DUP2 PUSH1 0x0 NOT DIV DUP4 GT DUP3 ISZERO ISZERO AND ISZERO PUSH1 0xB3 JUMPI PUSH4 0x4E487B71 PUSH1 0xE0 SHL PUSH1 0x0 MSTORE PUSH1 0x11 PUSH1 0x4 MSTORE PUSH1 0x24 PUSH1 0x0 REVERT JUMPDEST POP MUL SWAP1 JUMP INVALID LOG2 PUSH5 0x6970667358 0x22 SLT KECCAK256 POP 0xD6 INVALID ISZERO 0xE1 AND PUSH3 0x6279B9 0xCC LT DUP16 0x2E SWAP10 0xCC ADD 0xAB 0xB8 0xC7 0x4B 0xF6 0xBC PUSH16 0x24D0FB642D34F77464736F6C63430008 SMOD STOP CALLER "},"methodIdentifiers":{"toRay(uint256)":"820f0fb5"}}}}}