{"contracts/utils/Errors.sol":{"Errors":{"abi":[{"inputs":[],"name":"ATTEMPTS_LEFT","outputs":[{"internalType":"string","name":"","type":"string"}],"stateMutability":"view","type":"function"},{"inputs":[],"name":"CALLER_NOT_AUTHORIZED","outputs":[{"internalType":"string","name":"","type":"string"}],"stateMutability":"view","type":"function"},{"inputs":[],"name":"MATH_ADDITION_OVERFLOW","outputs":[{"internalType":"string","name":"","type":"string"}],"stateMutability":"view","type":"function"},{"inputs":[],"name":"MATH_DIVISION_BY_ZERO","outputs":[{"internalType":"string","name":"","type":"string"}],"stateMutability":"view","type":"function"},{"inputs":[],"name":"MATH_MULTIPLICATION_OVERFLOW","outputs":[{"internalType":"string","name":"","type":"string"}],"stateMutability":"view","type":"function"},{"inputs":[],"name":"NOT_ENOUGH_FUNDS_PROVIDED","outputs":[{"internalType":"string","name":"","type":"string"}],"stateMutability":"view","type":"function"},{"inputs":[],"name":"NO_ATTEMPTS_LEFT","outputs":[{"internalType":"string","name":"","type":"string"}],"stateMutability":"view","type":"function"},{"inputs":[],"name":"PLAYER_NOT_JOINED","outputs":[{"internalType":"string","name":"","type":"string"}],"stateMutability":"view","type":"function"},{"inputs":[],"name":"TOURNAMENT_HAS_ENDED","outputs":[{"internalType":"string","name":"","type":"string"}],"stateMutability":"view","type":"function"},{"inputs":[],"name":"TOURNAMENT_IS_LIVE","outputs":[{"internalType":"string","name":"","type":"string"}],"stateMutability":"view","type":"function"},{"inputs":[],"name":"USERNAME_TAKEN","outputs":[{"internalType":"string","name":"","type":"string"}],"stateMutability":"view","type":"function"}],"evm":{"bytecode":{"linkReferences":{},"object":"61038a61003a600b82828239805160001a60731461002d57634e487b7160e01b600052600060045260246000fd5b30600052607381538281f3fe73000000000000000000000000000000000000000030146080604052600436106100b35760003560e01c80634349e3d81161007b5780634349e3d8146101db578063685cc7091461020f578063addacced1461023f578063ba162cae1461026b578063cb783f061461029a578063f28ce147146102ce57600080fd5b8063029d2344146100b85780630a8bd97a1461010a5780630f5ee4821461013d5780632fac901d1461017257806334d8ac7e146101ae575b600080fd5b6100f46040518060400160405280601c81526020017f4d4154485f4d554c5449504c49434154494f4e5f4f564552464c4f570000000081525081565b60405161010191906102ff565b60405180910390f35b6100f4604051806040016040528060148152602001731513d55493905351539517d21054d7d15391115160621b81525081565b6100f4604051806040016040528060168152602001754d4154485f4144444954494f4e5f4f564552464c4f5760501b81525081565b6100f46040518060400160405280601981526020017f4e4f545f454e4f5547485f46554e44535f50524f56494445440000000000000081525081565b6100f46040518060400160405280600e81526020016d2aa9a2a92720a6a2afaa20a5a2a760911b81525081565b6100f4604051806040016040528060158152602001744d4154485f4449564953494f4e5f42595f5a45524f60581b81525081565b6100f46040518060400160405280601181526020017014131056515497d393d517d293d2539151607a1b81525081565b6100f46040518060400160405280600d81526020016c1055151153541514d7d3115195609a1b81525081565b6100f46040518060400160405280601081526020016f1393d7d055151153541514d7d311519560821b81525081565b6100f46040518060400160405280601581526020017410d05313115497d393d517d055551213d492569151605a1b81525081565b6100f460405180604001604052806012815260200171544f55524e414d454e545f49535f4c49564560701b81525081565b600060208083528351808285015260005b8181101561032c57858101830151858201604001528201610310565b8181111561033e576000604083870101525b50601f01601f191692909201604001939250505056fea26469706673582212203d1ffdef150814dbc89ce41dbe70c97597cb55ed7ca60457a9c93d2ab3d55e9d64736f6c63430008070033","opcodes":"PUSH2 0x38A PUSH2 0x3A PUSH1 0xB DUP3 DUP3 DUP3 CODECOPY DUP1 MLOAD PUSH1 0x0 BYTE PUSH1 0x73 EQ PUSH2 0x2D JUMPI PUSH4 0x4E487B71 PUSH1 0xE0 SHL PUSH1 0x0 MSTORE PUSH1 0x0 PUSH1 0x4 MSTORE PUSH1 0x24 PUSH1 0x0 REVERT JUMPDEST ADDRESS PUSH1 0x0 MSTORE PUSH1 0x73 DUP2 MSTORE8 DUP3 DUP2 RETURN INVALID PUSH20 0x0 ADDRESS EQ PUSH1 0x80 PUSH1 0x40 MSTORE PUSH1 0x4 CALLDATASIZE LT PUSH2 0xB3 JUMPI PUSH1 0x0 CALLDATALOAD PUSH1 0xE0 SHR DUP1 PUSH4 0x4349E3D8 GT PUSH2 0x7B JUMPI DUP1 PUSH4 0x4349E3D8 EQ PUSH2 0x1DB JUMPI DUP1 PUSH4 0x685CC709 EQ PUSH2 0x20F JUMPI DUP1 PUSH4 0xADDACCED EQ PUSH2 0x23F JUMPI DUP1 PUSH4 0xBA162CAE EQ PUSH2 0x26B JUMPI DUP1 PUSH4 0xCB783F06 EQ PUSH2 0x29A JUMPI DUP1 PUSH4 0xF28CE147 EQ PUSH2 0x2CE JUMPI PUSH1 0x0 DUP1 REVERT JUMPDEST DUP1 PUSH4 0x29D2344 EQ PUSH2 0xB8 JUMPI DUP1 PUSH4 0xA8BD97A EQ PUSH2 0x10A JUMPI DUP1 PUSH4 0xF5EE482 EQ PUSH2 0x13D JUMPI DUP1 PUSH4 0x2FAC901D EQ PUSH2 0x172 JUMPI DUP1 PUSH4 0x34D8AC7E EQ PUSH2 0x1AE JUMPI JUMPDEST PUSH1 0x0 DUP1 REVERT JUMPDEST PUSH2 0xF4 PUSH1 0x40 MLOAD DUP1 PUSH1 0x40 ADD PUSH1 0x40 MSTORE DUP1 PUSH1 0x1C DUP2 MSTORE PUSH1 0x20 ADD PUSH32 0x4D4154485F4D554C5449504C49434154494F4E5F4F564552464C4F5700000000 DUP2 MSTORE POP DUP2 JUMP JUMPDEST PUSH1 0x40 MLOAD PUSH2 0x101 SWAP2 SWAP1 PUSH2 0x2FF JUMP JUMPDEST PUSH1 0x40 MLOAD DUP1 SWAP2 SUB SWAP1 RETURN JUMPDEST PUSH2 0xF4 PUSH1 0x40 MLOAD DUP1 PUSH1 0x40 ADD PUSH1 0x40 MSTORE DUP1 PUSH1 0x14 DUP2 MSTORE PUSH1 0x20 ADD PUSH20 0x1513D55493905351539517D21054D7D153911151 PUSH1 0x62 SHL DUP2 MSTORE POP DUP2 JUMP JUMPDEST PUSH2 0xF4 PUSH1 0x40 MLOAD DUP1 PUSH1 0x40 ADD PUSH1 0x40 MSTORE DUP1 PUSH1 0x16 DUP2 MSTORE PUSH1 0x20 ADD PUSH22 0x4D4154485F4144444954494F4E5F4F564552464C4F57 PUSH1 0x50 SHL DUP2 MSTORE POP DUP2 JUMP JUMPDEST PUSH2 0xF4 PUSH1 0x40 MLOAD DUP1 PUSH1 0x40 ADD PUSH1 0x40 MSTORE DUP1 PUSH1 0x19 DUP2 MSTORE PUSH1 0x20 ADD PUSH32 0x4E4F545F454E4F5547485F46554E44535F50524F564944454400000000000000 DUP2 MSTORE POP DUP2 JUMP JUMPDEST PUSH2 0xF4 PUSH1 0x40 MLOAD DUP1 PUSH1 0x40 ADD PUSH1 0x40 MSTORE DUP1 PUSH1 0xE DUP2 MSTORE PUSH1 0x20 ADD PUSH14 0x2AA9A2A92720A6A2AFAA20A5A2A7 PUSH1 0x91 SHL DUP2 MSTORE POP DUP2 JUMP JUMPDEST PUSH2 0xF4 PUSH1 0x40 MLOAD DUP1 PUSH1 0x40 ADD PUSH1 0x40 MSTORE DUP1 PUSH1 0x15 DUP2 MSTORE PUSH1 0x20 ADD PUSH21 0x4D4154485F4449564953494F4E5F42595F5A45524F PUSH1 0x58 SHL DUP2 MSTORE POP DUP2 JUMP JUMPDEST PUSH2 0xF4 PUSH1 0x40 MLOAD DUP1 PUSH1 0x40 ADD PUSH1 0x40 MSTORE DUP1 PUSH1 0x11 DUP2 MSTORE PUSH1 0x20 ADD PUSH17 0x14131056515497D393D517D293D2539151 PUSH1 0x7A SHL DUP2 MSTORE POP DUP2 JUMP JUMPDEST PUSH2 0xF4 PUSH1 0x40 MLOAD DUP1 PUSH1 0x40 ADD PUSH1 0x40 MSTORE DUP1 PUSH1 0xD DUP2 MSTORE PUSH1 0x20 ADD PUSH13 0x1055151153541514D7D3115195 PUSH1 0x9A SHL DUP2 MSTORE POP DUP2 JUMP JUMPDEST PUSH2 0xF4 PUSH1 0x40 MLOAD DUP1 PUSH1 0x40 ADD PUSH1 0x40 MSTORE DUP1 PUSH1 0x10 DUP2 MSTORE PUSH1 0x20 ADD PUSH16 0x1393D7D055151153541514D7D3115195 PUSH1 0x82 SHL DUP2 MSTORE POP DUP2 JUMP JUMPDEST PUSH2 0xF4 PUSH1 0x40 MLOAD DUP1 PUSH1 0x40 ADD PUSH1 0x40 MSTORE DUP1 PUSH1 0x15 DUP2 MSTORE PUSH1 0x20 ADD PUSH21 0x10D05313115497D393D517D055551213D492569151 PUSH1 0x5A SHL DUP2 MSTORE POP DUP2 JUMP JUMPDEST PUSH2 0xF4 PUSH1 0x40 MLOAD DUP1 PUSH1 0x40 ADD PUSH1 0x40 MSTORE DUP1 PUSH1 0x12 DUP2 MSTORE PUSH1 0x20 ADD PUSH18 0x544F55524E414D454E545F49535F4C495645 PUSH1 0x70 SHL DUP2 MSTORE POP DUP2 JUMP JUMPDEST PUSH1 0x0 PUSH1 0x20 DUP1 DUP4 MSTORE DUP4 MLOAD DUP1 DUP3 DUP6 ADD MSTORE PUSH1 0x0 JUMPDEST DUP2 DUP2 LT ISZERO PUSH2 0x32C JUMPI DUP6 DUP2 ADD DUP4 ADD MLOAD DUP6 DUP3 ADD PUSH1 0x40 ADD MSTORE DUP3 ADD PUSH2 0x310 JUMP JUMPDEST DUP2 DUP2 GT ISZERO PUSH2 0x33E JUMPI PUSH1 0x0 PUSH1 0x40 DUP4 DUP8 ADD ADD MSTORE JUMPDEST POP PUSH1 0x1F ADD PUSH1 0x1F NOT AND SWAP3 SWAP1 SWAP3 ADD PUSH1 0x40 ADD SWAP4 SWAP3 POP POP POP JUMP INVALID LOG2 PUSH5 0x6970667358 0x22 SLT KECCAK256 RETURNDATASIZE 0x1F REVERT 0xEF ISZERO ADDMOD EQ 0xDB 0xC8 SWAP13 0xE4 SAR 0xBE PUSH17 0xC97597CB55ED7CA60457A9C93D2AB3D55E SWAP14 PUSH5 0x736F6C6343 STOP ADDMOD SMOD STOP CALLER "},"methodIdentifiers":{"ATTEMPTS_LEFT()":"addacced","CALLER_NOT_AUTHORIZED()":"cb783f06","MATH_ADDITION_OVERFLOW()":"0f5ee482","MATH_DIVISION_BY_ZERO()":"4349e3d8","MATH_MULTIPLICATION_OVERFLOW()":"029d2344","NOT_ENOUGH_FUNDS_PROVIDED()":"2fac901d","NO_ATTEMPTS_LEFT()":"ba162cae","PLAYER_NOT_JOINED()":"685cc709","TOURNAMENT_HAS_ENDED()":"0a8bd97a","TOURNAMENT_IS_LIVE()":"f28ce147","USERNAME_TAKEN()":"34d8ac7e"}}}}}