{"contracts/ToTheMooon.sol":{"ToTheMooon":{"abi":[{"inputs":[],"stateMutability":"nonpayable","type":"constructor"},{"anonymous":false,"inputs":[{"indexed":true,"internalType":"address","name":"previousOwner","type":"address"},{"indexed":true,"internalType":"address","name":"newOwner","type":"address"}],"name":"OwnershipTransferred","type":"event"},{"inputs":[{"internalType":"address","name":"_playerAddress","type":"address"}],"name":"addPlayerToTournament","outputs":[],"stateMutability":"nonpayable","type":"function"},{"inputs":[{"internalType":"string","name":"_name","type":"string"},{"components":[{"internalType":"bool","name":"isSponsored","type":"bool"},{"internalType":"uint256","name":"prizePool","type":"uint256"},{"internalType":"uint256","name":"nWinners","type":"uint256"},{"internalType":"string","name":"sponsorMetadata","type":"string"},{"internalType":"uint256","name":"commissionPercentage","type":"uint256"}],"internalType":"struct DataTypes.RewardVars","name":"_rewardVars","type":"tuple"}],"name":"createTournament","outputs":[],"stateMutability":"payable","type":"function"},{"inputs":[],"name":"currentTournamentId","outputs":[{"internalType":"uint256","name":"","type":"uint256"}],"stateMutability":"view","type":"function"},{"inputs":[{"internalType":"address","name":"_player","type":"address"}],"name":"getJoinedTournamentsByPlayer","outputs":[{"components":[{"internalType":"uint256","name":"id","type":"uint256"},{"internalType":"string","name":"name","type":"string"},{"internalType":"uint256","name":"startTime","type":"uint256"},{"internalType":"address","name":"contractAddress","type":"address"},{"components":[{"internalType":"bool","name":"isSponsored","type":"bool"},{"internalType":"uint256","name":"prizePool","type":"uint256"},{"internalType":"uint256","name":"nWinners","type":"uint256"},{"internalType":"string","name":"sponsorMetadata","type":"string"},{"internalType":"uint256","name":"commissionPercentage","type":"uint256"}],"internalType":"struct DataTypes.RewardVars","name":"rewardVars","type":"tuple"}],"internalType":"struct DataTypes.TournamentStruct[]","name":"","type":"tuple[]"}],"stateMutability":"view","type":"function"},{"inputs":[],"name":"getOwner","outputs":[{"internalType":"address","name":"","type":"address"}],"stateMutability":"view","type":"function"},{"inputs":[{"internalType":"address","name":"wallet_","type":"address"}],"name":"getUserName","outputs":[{"internalType":"string","name":"","type":"string"}],"stateMutability":"view","type":"function"},{"inputs":[{"internalType":"address","name":"_wallet","type":"address"},{"internalType":"uint256","name":"tournamentId","type":"uint256"}],"name":"hasJoinedTournament","outputs":[{"internalType":"bool","name":"","type":"bool"}],"stateMutability":"view","type":"function"},{"inputs":[],"name":"joiningFees","outputs":[{"internalType":"uint256","name":"","type":"uint256"}],"stateMutability":"view","type":"function"},{"inputs":[],"name":"owner","outputs":[{"internalType":"address","name":"","type":"address"}],"stateMutability":"view","type":"function"},{"inputs":[{"internalType":"uint256","name":"","type":"uint256"}],"name":"r_values","outputs":[{"internalType":"uint256","name":"","type":"uint256"}],"stateMutability":"view","type":"function"},{"inputs":[],"name":"renounceOwnership","outputs":[],"stateMutability":"nonpayable","type":"function"},{"inputs":[{"internalType":"uint256","name":"joiningFees_","type":"uint256"}],"name":"setJoiningFees","outputs":[],"stateMutability":"nonpayable","type":"function"},{"inputs":[{"internalType":"uint256","name":"timeLimit_","type":"uint256"}],"name":"setTimeLimit","outputs":[],"stateMutability":"nonpayable","type":"function"},{"inputs":[{"internalType":"string","name":"_name","type":"string"},{"internalType":"uint256","name":"_strlen","type":"uint256"}],"name":"setUserName","outputs":[],"stateMutability":"nonpayable","type":"function"},{"inputs":[],"name":"timeLimit","outputs":[{"internalType":"uint256","name":"","type":"uint256"}],"stateMutability":"view","type":"function"},{"inputs":[{"internalType":"uint256","name":"","type":"uint256"}],"name":"tournaments","outputs":[{"internalType":"uint256","name":"id","type":"uint256"},{"internalType":"string","name":"name","type":"string"},{"internalType":"uint256","name":"startTime","type":"uint256"},{"internalType":"address","name":"contractAddress","type":"address"},{"components":[{"internalType":"bool","name":"isSponsored","type":"bool"},{"internalType":"uint256","name":"prizePool","type":"uint256"},{"internalType":"uint256","name":"nWinners","type":"uint256"},{"internalType":"string","name":"sponsorMetadata","type":"string"},{"internalType":"uint256","name":"commissionPercentage","type":"uint256"}],"internalType":"struct DataTypes.RewardVars","name":"rewardVars","type":"tuple"}],"stateMutability":"view","type":"function"},{"inputs":[{"internalType":"address","name":"newOwner","type":"address"}],"name":"transferOwnership","outputs":[],"stateMutability":"nonpayable","type":"function"},{"inputs":[],"name":"winnersPercentage","outputs":[{"internalType":"uint256","name":"","type":"uint256"}],"stateMutability":"view","type":"function"}],"evm":{"bytecode":{"linkReferences":{},"object":"608060405261012c600855670de0b6b3a7640000600955611af4600a5534801561002857600080fd5b5061003233610173565b600180556006602052670ff59ee833b300007f4da38fc8e544afc56a4c2a17752b8ddb67d8e23ac4583c9029d2e2d1dbe6c98855670eeb2acded8b80007f098d468efb4f874d617491296c759dc9ae46efb517fe36bcf30699ad3f714c0f55670e92596fd62900007fb6ba906ff52451a7a924e2eaeb8aea3ebee7350a8703e5e417edb25358c7dcc155670e398811bec680007f95205ee1597333a2b36cc31b0a8c074c0c1fa2918672c4e3dde98e6eb3460fe455670e27c49886e600007fd4c27e5d2ce7b7345f78d7f5ddc8b90697d63512e00b9f949b158a467d0bfffc55670e043da6172500007f294249a73dade72954ce261e2d3e7a241ea69fbb9c559454dd3e40f332fd4f17556103e8600052670df27a2cdf4480007ff416400a389b2271c5c6051273e6b62961b6906215e5f4d9099a99323151c03f556101c3565b600080546001600160a01b038381166001600160a01b0319831681178455604051919092169283917f8be0079c531659141344cd1fd0a4f28419497f9722a3daafe3b4186f6b6457e09190a35050565b613f2f806101d26000396000f3fe6080604052600436106200011e5760003560e01c8063c08d1fe511620000a1578063e33e879a116200006c578063e33e879a146200033d578063f2fde38b1462000362578063f4afd4f61462000387578063fbf7c5ee14620003ac578063fc8e750414620003c357600080fd5b8063c08d1fe5146200029b578063d0e3466414620002b3578063d84f55ee14620002e4578063e2889c82146200031857600080fd5b80637503e1b711620000ee5780637503e1b714620001b657806386106b1f14620001ee578063893d20e814620002225780638da5cb5b1462000256578063ad260418146200027657600080fd5b80625a0e3d1462000123578063298aec2c146200014e5780634959d9771462000184578063715018a6146200019c575b600080fd5b3480156200013057600080fd5b506200013b600a5481565b6040519081526020015b60405180910390f35b3480156200015b57600080fd5b50620001736200016d36600462001416565b620003db565b604051901515815260200162000145565b3480156200019157600080fd5b506200013b60095481565b348015620001a957600080fd5b50620001b46200040b565b005b348015620001c357600080fd5b50620001db620001d536600462001587565b62000423565b60405162000145959493929190620017a7565b348015620001fb57600080fd5b50620002136200020d366004620013f8565b620005c2565b604051620001459190620016dc565b3480156200022f57600080fd5b506000546001600160a01b03165b6040516001600160a01b03909116815260200162000145565b3480156200026357600080fd5b506000546001600160a01b03166200023d565b3480156200028357600080fd5b50620001b462000295366004620013f8565b62000880565b348015620002a857600080fd5b506200013b60085481565b348015620002c057600080fd5b506200013b620002d236600462001587565b60066020526000908152604090205481565b348015620002f157600080fd5b506200030962000303366004620013f8565b62000944565b60405162000145919062001792565b3480156200032557600080fd5b50620001b46200033736600462001587565b620009fe565b3480156200034a57600080fd5b50620001b46200035c36600462001587565b62000a0d565b3480156200036f57600080fd5b50620001b462000381366004620013f8565b62000a1c565b3480156200039457600080fd5b50620001b4620003a63660046200153e565b62000a9b565b620001b4620003bd3660046200146a565b62000bf2565b348015620003d057600080fd5b506200013b60075481565b6001600160a01b038216600090815260026020819052604082206200040291018362000ecc565b90505b92915050565b6200041562000ee5565b62000421600062000f41565b565b60056020526000908152604090208054600182018054919291620004479062001888565b80601f0160208091040260200160405190810160405280929190818152602001828054620004759062001888565b8015620004c65780601f106200049a57610100808354040283529160200191620004c6565b820191906000526020600020905b815481529060010190602001808311620004a857829003601f168201915b50505050600283015460038401546040805160a08101825260048701805460ff161515825260058801546020830152600688015492820192909252600787018054969794966001600160a01b03909416955090926060840191906200052b9062001888565b80601f0160208091040260200160405190810160405280929190818152602001828054620005599062001888565b8015620005aa5780601f106200057e57610100808354040283529160200191620005aa565b820191906000526020600020905b8154815290600101906020018083116200058c57829003601f168201915b50505050508152602001600482015481525050905085565b6060600060075467ffffffffffffffff811115620005e457620005e462001925565b6040519080825280602002602001820160405280156200062157816020015b6200060d62001228565b815260200190600190039081620006035790505b50905060005b6001600160a01b03841660009081526002602081905260409091206200064e910162000f91565b81101562000879576001600160a01b03841660009081526002602081905260408220600592916200068191018462000f9c565b81526020019081526020016000206040518060a001604052908160008201548152602001600182018054620006b69062001888565b80601f0160208091040260200160405190810160405280929190818152602001828054620006e49062001888565b8015620007355780601f10620007095761010080835404028352916020019162000735565b820191906000526020600020905b8154815290600101906020018083116200071757829003601f168201915b5050509183525050600282015460208083019190915260038301546001600160a01b0316604080840191909152805160a08101825260048501805460ff161515825260058601549382019390935260068501549181019190915260078401805460609485019492939284019190620007ad9062001888565b80601f0160208091040260200160405190810160405280929190818152602001828054620007db9062001888565b80156200082c5780601f1062000800576101008083540402835291602001916200082c565b820191906000526020600020905b8154815290600101906020018083116200080e57829003601f168201915b50505050508152602001600482015481525050815250508282815181106200085857620008586200190f565b602002602001018190525080806200087090620018c5565b91505062000627565b5092915050565b600754600090815260056020908152604091829020600301548251808401909352601583527410d05313115497d393d517d055551213d492569151605a1b918301919091526001600160a01b03163314620008f95760405162461bcd60e51b8152600401620008f0919062001792565b60405180910390fd5b506001600160a01b0381166000908152600260208190526040909120600754909162000929919083019062000faa565b50805460ff166200094057805460ff191660011781555b5050565b6001600160a01b03811660009081526002602052604090206001810180546060929190620009729062001888565b80601f0160208091040260200160405190810160405280929190818152602001828054620009a09062001888565b8015620009f15780601f10620009c557610100808354040283529160200191620009f1565b820191906000526020600020905b815481529060010190602001808311620009d357829003601f168201915b5050505050915050919050565b62000a0862000ee5565b600855565b62000a1762000ee5565b600955565b62000a2662000ee5565b6001600160a01b03811662000a8d5760405162461bcd60e51b815260206004820152602660248201527f4f776e61626c653a206e6577206f776e657220697320746865207a65726f206160448201526564647265737360d01b6064820152608401620008f0565b62000a988162000f41565b50565b62000ad98260405160200162000ab291906200161a565b60405160208183030381529060405280519060200120600362000ecc90919063ffffffff16565b156040518060400160405280600e81526020016d2aa9a2a92720a6a2afaa20a5a2a760911b8152509062000b225760405162461bcd60e51b8152600401620008f0919062001792565b5033600090815260026020908152604091829020915162000b759162000b4e9160018501910162001638565b60405160208183030381529060405280519060200120600362000fb890919063ffffffff16565b5062000bb48360405160200162000b8d91906200161a565b60405160208183030381529060405280519060200120600362000faa90919063ffffffff16565b506014821162000bc5578262000bd4565b62000bd4836000601462000fc6565b805162000bec91600184019160209091019062001292565b50505050565b62000bfc62000ee5565b600754158062000cc65750600854600754600090815260056020526040902060020154429162000c2c9162001824565b10801562000cc6575060075460009081526005602090815260409182902060030154825163ecb70fb760e01b815292516001600160a01b039091169263ecb70fb7926004808301939192829003018186803b15801562000c8b57600080fd5b505afa15801562000ca0573d6000803e3d6000fd5b505050506040513d601f19601f8201168201806040525081019062000cc6919062001443565b60405180604001604052806012815260200171544f55524e414d454e545f49535f4c49564560701b8152509062000d125760405162461bcd60e51b8152600401620008f0919062001792565b50805162000d2257600162000d2a565b806020015134145b6040518060400160405280601981526020017f4e4f545f454e4f5547485f46554e44535f50524f5649444544000000000000008152509062000d815760405162461bcd60e51b8152600401620008f0919062001792565b50600060076000815462000d9590620018c5565b9190508190558342308560405162000dad9062001321565b62000dbd959493929190620017a7565b604051809103906000f08015801562000dda573d6000803e3d6000fd5b506040805160a081018252600754808252602080830188815242848601526001600160a01b038616606085015260808401889052600092835260058252939091208251815592518051949550919362000e3a926001850192019062001292565b5060408281015160028301556060808401516003840180546001600160a01b0319166001600160a01b039092169190911790556080840151805160048501805460ff19169115159190911781556020808301516005870155938201516006860155918101518051919362000eb79260078701929091019062001292565b50608082015181600401555050905050505050565b6000818152600183016020526040812054151562000402565b6000546001600160a01b03163314620004215760405162461bcd60e51b815260206004820181905260248201527f4f776e61626c653a2063616c6c6572206973206e6f7420746865206f776e65726044820152606401620008f0565b600080546001600160a01b038381166001600160a01b0319831681178455604051919092169283917f8be0079c531659141344cd1fd0a4f28419497f9722a3daafe3b4186f6b6457e09190a35050565b600062000405825490565b6000620004028383620010a5565b6000620004028383620010d2565b600062000402838362001124565b606083600062000fd785856200183f565b67ffffffffffffffff81111562000ff25762000ff262001925565b6040519080825280601f01601f1916602001820160405280156200101d576020820181803683370190505b509050845b848110156200109b578281815181106200104057620010406200190f565b01602001516001600160f81b031916826200105c88846200183f565b815181106200106f576200106f6200190f565b60200101906001600160f81b031916908160001a905350806200109281620018c5565b91505062001022565b5095945050505050565b6000826000018281548110620010bf57620010bf6200190f565b9060005260206000200154905092915050565b60008181526001830160205260408120546200111b5750815460018181018455600084815260208082209093018490558454848252828601909352604090209190915562000405565b50600062000405565b600081815260018301602052604081205480156200121d5760006200114b6001836200183f565b855490915060009062001161906001906200183f565b9050818114620011cd5760008660000182815481106200118557620011856200190f565b9060005260206000200154905080876000018481548110620011ab57620011ab6200190f565b6000918252602080832090910192909255918252600188019052604090208390555b8554869080620011e157620011e1620018f9565b60019003818190600052602060002001600090559055856001016000868152602001908152602001600020600090556001935050505062000405565b600091505062000405565b6040518060a0016040528060008152602001606081526020016000815260200160006001600160a01b031681526020016200128d6040518060a00160405280600015158152602001600081526020016000815260200160608152602001600081525090565b905290565b828054620012a09062001888565b90600052602060002090601f016020900481019282620012c457600085556200130f565b82601f10620012df57805160ff19168380011785556200130f565b828001600101855582156200130f579182015b828111156200130f578251825591602001919060010190620012f2565b506200131d9291506200132f565b5090565b6125af806200194b83390190565b5b808211156200131d576000815560010162001330565b80356001600160a01b03811681146200135e57600080fd5b919050565b600082601f8301126200137557600080fd5b813567ffffffffffffffff8082111562001393576200139362001925565b604051601f8301601f19908116603f01168101908282118183101715620013be57620013be62001925565b81604052838152866020858801011115620013d857600080fd5b836020870160208301376000602085830101528094505050505092915050565b6000602082840312156200140b57600080fd5b620004028262001346565b600080604083850312156200142a57600080fd5b620014358362001346565b946020939093013593505050565b6000602082840312156200145657600080fd5b815162001463816200193b565b9392505050565b600080604083850312156200147e57600080fd5b823567ffffffffffffffff808211156200149757600080fd5b620014a58683870162001363565b93506020850135915080821115620014bc57600080fd5b9084019060a08287031215620014d157600080fd5b620014db620017f8565b8235620014e8816200193b565b8082525060208301356020820152604083013560408201526060830135828111156200151357600080fd5b620015218882860162001363565b606083015250608083013560808201528093505050509250929050565b600080604083850312156200155257600080fd5b823567ffffffffffffffff8111156200156a57600080fd5b620015788582860162001363565b95602094909401359450505050565b6000602082840312156200159a57600080fd5b5035919050565b60008151808452620015bb81602086016020860162001859565b601f01601f19169290920160200192915050565b80511515825260208101516020830152604081015160408301526000606082015160a060608501526200160660a0850182620015a1565b608093840151949093019390935250919050565b600082516200162e81846020870162001859565b9190910192915050565b600080835481600182811c9150808316806200165557607f831692505b60208084108214156200167657634e487b7160e01b86526022600452602486fd5b8180156200168d57600181146200169f57620016ce565b60ff19861689528489019650620016ce565b60008a81526020902060005b86811015620016c65781548b820152908501908301620016ab565b505084890196505b509498975050505050505050565b60006020808301818452808551808352604092508286019150828160051b87010184880160005b838110156200178457603f19898403018552815160a08151855288820151818a8701526200173482870182620015a1565b838a0151878b01526060808501516001600160a01b0316908801526080938401518782039488019490945291506200176f90508183620015cf565b96890196945050509086019060010162001703565b509098975050505050505050565b602081526000620004026020830184620015a1565b85815260a060208201526000620017c260a0830187620015a1565b604083018690526001600160a01b03851660608401528281036080840152620017ec8185620015cf565b98975050505050505050565b60405160a0810167ffffffffffffffff811182821017156200181e576200181e62001925565b60405290565b600082198211156200183a576200183a620018e3565b500190565b600082821015620018545762001854620018e3565b500390565b60005b83811015620018765781810151838201526020016200185c565b8381111562000bec5750506000910152565b600181811c908216806200189d57607f821691505b60208210811415620018bf57634e487b7160e01b600052602260045260246000fd5b50919050565b6000600019821415620018dc57620018dc620018e3565b5060010190565b634e487b7160e01b600052601160045260246000fd5b634e487b7160e01b600052603160045260246000fd5b634e487b7160e01b600052603260045260246000fd5b634e487b7160e01b600052604160045260246000fd5b801515811462000a9857600080fdfe60806040523480156200001157600080fd5b50604051620025af380380620025af8339810160408190526200003491620003fe565b6001600081905585905583516200005390600290602087019062000267565b506003839055600680546001600160a01b0319166001600160a01b0384169081179091556040805163c08d1fe560e01b8152905163c08d1fe591600480820192602092909190829003018186803b158015620000ae57600080fd5b505afa158015620000c3573d6000803e3d6000fd5b505050506040513d601f19601f82011682018060405250810190620000e99190620003e4565b600490815560065460408051634959d97760e01b815290516001600160a01b0390921692634959d977928282019260209290829003018186803b1580156200013057600080fd5b505afa15801562000145573d6000803e3d6000fd5b505050506040513d601f19601f820116820180604052508101906200016b9190620003e4565b60055560065460408051631127a41d60e31b815290516001600160a01b039092169163893d20e891600480820192602092909190829003018186803b158015620001b457600080fd5b505afa158015620001c9573d6000803e3d6000fd5b505050506040513d601f19601f82011682018060405250810190620001ef9190620003bf565b600780546001600160a01b0319166001600160a01b039290921691909117905580516008805460ff19169115159190911781556020808301516009556040830151600a55606083015180518493926200024e92600b9291019062000267565b50608082015181600401559050505050505050620005ad565b82805462000275906200055a565b90600052602060002090601f016020900481019282620002995760008555620002e4565b82601f10620002b457805160ff1916838001178555620002e4565b82800160010185558215620002e4579182015b82811115620002e4578251825591602001919060010190620002c7565b50620002f2929150620002f6565b5090565b5b80821115620002f25760008155600101620002f7565b80516001600160a01b03811681146200032557600080fd5b919050565b600082601f8301126200033c57600080fd5b81516001600160401b0381111562000358576200035862000597565b60206200036e601f8301601f1916820162000527565b82815285828487010111156200038357600080fd5b60005b83811015620003a357858101830151828201840152820162000386565b83811115620003b55760008385840101525b5095945050505050565b600060208284031215620003d257600080fd5b620003dd826200030d565b9392505050565b600060208284031215620003f757600080fd5b5051919050565b600080600080600060a086880312156200041757600080fd5b855160208701519095506001600160401b03808211156200043757600080fd5b6200044589838a016200032a565b9550604088015194506200045c606089016200030d565b935060808801519150808211156200047357600080fd5b9087019060a0828a0312156200048857600080fd5b62000492620004fc565b82518015158114620004a357600080fd5b808252506020830151602082015260408301516040820152606083015182811115620004ce57600080fd5b620004dc8b8286016200032a565b606083015250608083015160808201528093505050509295509295909350565b60405160a081016001600160401b038111828210171562000521576200052162000597565b60405290565b604051601f8201601f191681016001600160401b038111828210171562000552576200055262000597565b604052919050565b600181811c908216806200056f57607f821691505b602082108114156200059157634e487b7160e01b600052602260045260246000fd5b50919050565b634e487b7160e01b600052604160045260246000fd5b611ff280620005bd6000396000f3fe6080604052600436106100fe5760003560e01c806378e9792511610095578063af640d0f11610064578063af640d0f146102c3578063c08d1fe5146102d9578063c29d72bc146102ef578063ecb70fb714610311578063fbd534821461034257600080fd5b806378e97925146102025780637ce1186114610218578063858dbf7d14610220578063ab632d4a1461024657600080fd5b80634d633a8f116100d15780634d633a8f146101a157806350ed9193146101b657806363df0ef7146101be578063699c8f33146101de57600080fd5b806306fdde031461010357806345446d711461012e57806348d37a58146101665780634959d9771461017d575b600080fd5b34801561010f57600080fd5b50610118610362565b6040516101259190611d21565b60405180910390f35b34801561013a57600080fd5b5060075461014e906001600160a01b031681565b6040516001600160a01b039091168152602001610125565b34801561017257600080fd5b5061017b6103f0565b005b34801561018957600080fd5b5061019360055481565b604051908152602001610125565b3480156101ad57600080fd5b5061017b610577565b61017b6107fd565b3480156101ca57600080fd5b5060065461014e906001600160a01b031681565b3480156101ea57600080fd5b506101f36109f8565b60405161012593929190611d34565b34801561020e57600080fd5b5061019360035481565b61017b610c8d565b34801561022c57600080fd5b50610235610dc4565b604051610125959493929190611ce8565b34801561025257600080fd5b50610296610261366004611af9565b600f60205260009081526040902080546001820154600283015460038401546004850154600590950154939492939192909186565b604080519687526020870195909552938501929092526060840152608083015260a082015260c001610125565b3480156102cf57600080fd5b5061019360015481565b3480156102e557600080fd5b5061019360045481565b3480156102fb57600080fd5b50610304610e6f565b6040516101259190611c52565b34801561031d57600080fd5b5060075461033290600160a01b900460ff1681565b6040519015158152602001610125565b34801561034e57600080fd5b5061017b61035d366004611b14565b611165565b6002805461036f90611ef9565b80601f016020809104026020016040519081016040528092919081815260200182805461039b90611ef9565b80156103e85780601f106103bd576101008083540402835291602001916103e8565b820191906000526020600020905b8154815290600101906020018083116103cb57829003601f168201915b505050505081565b426004546003546104019190611dd1565b1060405180604001604052806012815260200171544f55524e414d454e545f49535f4c49564560701b815250906104545760405162461bcd60e51b815260040161044b9190611d21565b60405180910390fd5b50600654600154604051630a62bb0b60e21b815233600482015260248101919091526000916001600160a01b03169063298aec2c9060440160206040518083038186803b1580156104a457600080fd5b505afa1580156104b8573d6000803e3d6000fd5b505050506040513d601f19601f820116820180604052508101906104dc9190611b3e565b9050806040518060400160405280601181526020017014131056515497d393d517d293d2539151607a1b815250906105275760405162461bcd60e51b815260040161044b9190611d21565b50336000908152600f602052604090206005810154156105735760006005820181905560405133916108fc9181818181818888f19350505050158015610571573d6000803e3d6000fd5b505b5050565b60075460408051808201909152601581527410d05313115497d393d517d055551213d492569151605a1b6020820152906001600160a01b031633146105cf5760405162461bcd60e51b815260040161044b9190611d21565b50426004546003546105e19190611dd1565b1060405180604001604052806012815260200171544f55524e414d454e545f49535f4c49564560701b8152509061062b5760405162461bcd60e51b815260040161044b9190611d21565b506007805460ff60a01b1916600160a01b1790556000610649610e6f565b905060005b610658600d6113f0565b811015610573576040518060c001604052808260016106779190611dd1565b815260200183838151811061068e5761068e611f90565b6020026020010151604001518152602001600f60008585815181106106b5576106b5611f90565b6020026020010151600001516001600160a01b03166001600160a01b03168152602001908152602001600020600201548152602001600f600085858151811061070057610700611f90565b6020026020010151600001516001600160a01b03166001600160a01b0316815260200190815260200160002060030154815260200183838151811061074757610747611f90565b602002602001015160600151815260200183838151811061076a5761076a611f90565b602002602001015160600151815250600f600084848151811061078f5761078f611f90565b602090810291909101810151516001600160a01b03168252818101929092526040908101600020835181559183015160018301558201516002820155606082015160038201556080820151600482015560a090910151600590910155806107f581611f54565b91505061064e565b4260045460035461080e9190611dd1565b11604051806040016040528060148152602001731513d55493905351539517d21054d7d15391115160621b8152509061085a5760405162461bcd60e51b815260040161044b9190611d21565b50600654600154604051630a62bb0b60e21b815233600482015260248101919091526000916001600160a01b03169063298aec2c9060440160206040518083038186803b1580156108aa57600080fd5b505afa1580156108be573d6000803e3d6000fd5b505050506040513d601f19601f820116820180604052508101906108e29190611b3e565b9050806040518060400160405280601181526020017014131056515497d393d517d293d2539151607a1b8152509061092d5760405162461bcd60e51b815260040161044b9190611d21565b506005543414604051806040016040528060198152602001781393d517d15393d551d217d195539114d7d41493d592511151603a1b815250906109835760405162461bcd60e51b815260040161044b9190611d21565b50336000908152600f6020908152604091829020600201548251808401909352600d83526c1055151153541514d7d3115195609a1b91830191909152156109dd5760405162461bcd60e51b815260040161044b9190611d21565b5050336000908152600f602052604090206003600290910155565b610a2c6040518060a00160405280600015158152602001600081526020016000815260200160608152602001600081525090565b6040805160a0810190915260085460ff16801515825260009182916020820190610a9c57610a76600860040154600554610a66600d6113f0565b610a709190611e2b565b90611400565b600554610a83600d6113f0565b610a8d9190611e2b565b610a979190611e89565b610aa0565b6009545b8152602001610bd6610b3a600660009054906101000a90046001600160a01b03166001600160a01b0316625a0e3d6040518163ffffffff1660e01b815260040160206040518083038186803b158015610af857600080fd5b505afa158015610b0c573d6000803e3d6000fd5b505050506040513d601f19601f82011682018060405250810190610b309190611c0d565b610a70600d6113f0565b60085460ff16610bce5760065460408051625a0e3d60e01b81529051600a926001600160a01b031691625a0e3d916004808301926020929190829003018186803b158015610b8757600080fd5b505afa158015610b9b573d6000803e3d6000fd5b505050506040513d601f19601f82011682018060405250810190610bbf9190611c0d565b610bc99190611e17565b6114c9565b600a546114c9565b815260200160086003018054610beb90611ef9565b80601f0160208091040260200160405190810160405280929190818152602001828054610c1790611ef9565b8015610c645780601f10610c3957610100808354040283529160200191610c64565b820191906000526020600020905b815481529060010190602001808311610c4757829003601f168201915b5050509183525050600c54602090910152600554610c82600d6113f0565b925092509250909192565b42600454600354610c9e9190611dd1565b11604051806040016040528060148152602001731513d55493905351539517d21054d7d15391115160621b81525090610cea5760405162461bcd60e51b815260040161044b9190611d21565b506005543414604051806040016040528060198152602001781393d517d15393d551d217d195539114d7d41493d592511151603a1b81525090610d405760405162461bcd60e51b815260040161044b9190611d21565b50610d4c600d336114e1565b50336000818152600f602052604090819020600360029091015560065490516315a4c08360e31b815260048101929092526001600160a01b03169063ad26041890602401600060405180830381600087803b158015610daa57600080fd5b505af1158015610dbe573d6000803e3d6000fd5b50505050565b60088054600954600a54600b805460ff909416949293919291610de690611ef9565b80601f0160208091040260200160405190810160405280929190818152602001828054610e1290611ef9565b8015610e5f5780601f10610e3457610100808354040283529160200191610e5f565b820191906000526020600020905b815481529060010190602001808311610e4257829003601f168201915b5050505050908060040154905085565b60606000610e7d600d6113f0565b67ffffffffffffffff811115610e9557610e95611fa6565b604051908082528060200260200182016040528015610efa57816020015b610ee7604051806080016040528060006001600160a01b031681526020016060815260200160008152602001600081525090565b815260200190600190039081610eb35790505b509050610f07600d6113f0565b610f1057919050565b60005b610f1d600d6113f0565b81101561104f57604080516080810190915280610f3b600d846114f6565b6001600160a01b0390811682526006546020909201911663d84f55ee610f62600d866114f6565b6040516001600160e01b031960e084901b1681526001600160a01b03909116600482015260240160006040518083038186803b158015610fa157600080fd5b505afa158015610fb5573d6000803e3d6000fd5b505050506040513d6000823e601f3d908101601f19168201604052610fdd9190810190611b60565b8152602001600f6000610ff1600d866114f6565b6001600160a01b03166001600160a01b03168152602001908152602001600020600101548152602001600081525082828151811061103157611031611f90565b6020026020010181905250808061104790611f54565b915050610f13565b506110718160006001611062600d6113f0565b61106c9190611e89565b611502565b9050600061107d6109f8565b505090506000611095611090600d6113f0565b6116a1565b905060006110e3670de0b6b3a76400006110b3848660400151611882565b6110bd9190611e89565b6110dd6110d2670de0b6b3a764000086611e89565b6020870151906118b5565b90611965565b905060005b6110f2600d6113f0565b81101561115b576111286111218460018488604001516111129190611e89565b61111c9190611e89565b611882565b83906118b5565b85828151811061113a5761113a611f90565b6020908102919091010151606001528061115381611f54565b9150506110e8565b5092949350505050565b60075460408051808201909152601581527410d05313115497d393d517d055551213d492569151605a1b6020820152906001600160a01b031633146111bd5760405162461bcd60e51b815260040161044b9190611d21565b50426004546003546111cf9190611dd1565b11604051806040016040528060148152602001731513d55493905351539517d21054d7d15391115160621b8152509061121b5760405162461bcd60e51b815260040161044b9190611d21565b50600654600154604051630a62bb0b60e21b81526000926001600160a01b03169163298aec2c916112649187916004016001600160a01b03929092168252602082015260400190565b60206040518083038186803b15801561127c57600080fd5b505afa158015611290573d6000803e3d6000fd5b505050506040513d601f19601f820116820180604052508101906112b49190611b3e565b9050806040518060400160405280601181526020017014131056515497d393d517d293d2539151607a1b815250906112ff5760405162461bcd60e51b815260040161044b9190611d21565b506000600f6000856001600160a01b03166001600160a01b0316815260200190815260200160002060020154116040518060400160405280601081526020016f1393d7d055151153541514d7d311519560821b815250906113735760405162461bcd60e51b815260040161044b9190611d21565b506001600160a01b0383166000908152600f60205260408120600181018490556002018054916113a283611eea565b919050555042836001600160a01b03167f4713603fe21be537b9c9ca4c33240e81665fb6e4a681bdd1318c039f16b5aff6846040516113e391815260200190565b60405180910390a3505050565b60006113fa825490565b92915050565b600082158061140d575081155b1561141a575060006113fa565b816114286002612710611e17565b61143490600019611e89565b61143e9190611e17565b8311156040518060400160405280601c81526020017f4d4154485f4d554c5449504c49434154494f4e5f4f564552464c4f5700000000815250906114955760405162461bcd60e51b815260040161044b9190611d21565b506127106114a4600282611e17565b6114ae8486611e2b565b6114b89190611dd1565b6114c29190611e17565b9392505050565b6000818311156114da5750806113fa565b5090919050565b60006114c2836001600160a01b038416611a69565b60006114c28383611ab8565b60608183126115125750826114c2565b60008460026115218686611e4a565b61152b9190611de9565b6115359086611d90565b8151811061154557611545611f90565b602090810291909101015160400151905083835b80821361166c575b8287838151811061157457611574611f90565b6020026020010151604001511115611598578161159081611f34565b925050611561565b8681815181106115aa576115aa611f90565b6020026020010151604001518311156115cf57806115c781611ecc565b915050611598565b8082136116675760008783815181106115ea576115ea611f90565b6020026020010151905087828151811061160657611606611f90565b602002602001015188848151811061162057611620611f90565b60200260200101819052508088838151811061163e5761163e611f90565b6020026020010181905250828061165490611f34565b935050818061166290611ecc565b925050505b611559565b808612156116815761167f878783611502565b505b8482121561169657611694878387611502565b505b509495945050505050565b6000600a82101561172957600654604051633438d19960e21b8152600a60048201526001600160a01b039091169063d0e34664906024015b60206040518083038186803b1580156116f157600080fd5b505afa158015611705573d6000803e3d6000fd5b505050506040513d601f19601f820116820180604052508101906113fa9190611c0d565b601482101561176357600654604051633438d19960e21b8152601460048201526001600160a01b039091169063d0e34664906024016116d9565b601e82101561179d57600654604051633438d19960e21b8152601e60048201526001600160a01b039091169063d0e34664906024016116d9565b60288210156117d757600654604051633438d19960e21b8152602860048201526001600160a01b039091169063d0e34664906024016116d9565b603282101561181157600654604051633438d19960e21b8152603260048201526001600160a01b039091169063d0e34664906024016116d9565b606482101561184b57600654604051633438d19960e21b8152606460048201526001600160a01b039091169063d0e34664906024016116d9565b600654604051633438d19960e21b81526103e860048201526001600160a01b039091169063d0e34664906024016116d9565b919050565b600082815b838110156118ad5761189982866118b5565b9150806118a581611f54565b915050611887565b509392505050565b60008215806118c2575081155b156118cf575060006113fa565b816118e36002670de0b6b3a7640000611e17565b6118ef90600019611e89565b6118f99190611e17565b8311156040518060400160405280601c81526020017f4d4154485f4d554c5449504c49434154494f4e5f4f564552464c4f5700000000815250906119505760405162461bcd60e51b815260040161044b9190611d21565b50670de0b6b3a76400006114a4600282611e17565b6040805180820190915260158152744d4154485f4449564953494f4e5f42595f5a45524f60581b6020820152600090826119b25760405162461bcd60e51b815260040161044b9190611d21565b5060006119c0600284611e17565b9050670de0b6b3a76400006119d782600019611e89565b6119e19190611e17565b8411156040518060400160405280601c81526020017f4d4154485f4d554c5449504c49434154494f4e5f4f564552464c4f570000000081525090611a385760405162461bcd60e51b815260040161044b9190611d21565b508281611a4d670de0b6b3a764000087611e2b565b611a579190611dd1565b611a619190611e17565b949350505050565b6000818152600183016020526040812054611ab0575081546001818101845560008481526020808220909301849055845484825282860190935260409020919091556113fa565b5060006113fa565b6000826000018281548110611acf57611acf611f90565b9060005260206000200154905092915050565b80356001600160a01b038116811461187d57600080fd5b600060208284031215611b0b57600080fd5b6114c282611ae2565b60008060408385031215611b2757600080fd5b611b3083611ae2565b946020939093013593505050565b600060208284031215611b5057600080fd5b815180151581146114c257600080fd5b600060208284031215611b7257600080fd5b815167ffffffffffffffff80821115611b8a57600080fd5b818401915084601f830112611b9e57600080fd5b815181811115611bb057611bb0611fa6565b604051601f8201601f19908116603f01168101908382118183101715611bd857611bd8611fa6565b81604052828152876020848701011115611bf157600080fd5b611c02836020830160208801611ea0565b979650505050505050565b600060208284031215611c1f57600080fd5b5051919050565b60008151808452611c3e816020860160208601611ea0565b601f01601f19169290920160200192915050565b60006020808301818452808551808352604092508286019150828160051b87010184880160005b83811015611cda57888303603f19018552815180516001600160a01b0316845287810151608089860181905290611cb282870182611c26565b838a0151878b0152606093840151939096019290925250509386019390860190600101611c79565b509098975050505050505050565b851515815284602082015283604082015260a060608201526000611d0f60a0830185611c26565b90508260808301529695505050505050565b6020815260006114c26020830184611c26565b6060815283511515606082015260208401516080820152604084015160a08201526000606085015160a060c0840152611d71610100840182611c26565b6080969096015160e08401525050602081019290925260409091015290565b600080821280156001600160ff1b0384900385131615611db257611db2611f64565b600160ff1b8390038412811615611dcb57611dcb611f64565b50500190565b60008219821115611de457611de4611f64565b500190565b600082611df857611df8611f7a565b600160ff1b821460001984141615611e1257611e12611f64565b500590565b600082611e2657611e26611f7a565b500490565b6000816000190483118215151615611e4557611e45611f64565b500290565b60008083128015600160ff1b850184121615611e6857611e68611f64565b6001600160ff1b0384018313811615611e8357611e83611f64565b50500390565b600082821015611e9b57611e9b611f64565b500390565b60005b83811015611ebb578181015183820152602001611ea3565b83811115610dbe5750506000910152565b6000600160ff1b821415611ee257611ee2611f64565b506000190190565b600081611ee257611ee2611f64565b600181811c90821680611f0d57607f821691505b60208210811415611f2e57634e487b7160e01b600052602260045260246000fd5b50919050565b60006001600160ff1b03821415611f4d57611f4d611f64565b5060010190565b6000600019821415611f4d57611f4d5b634e487b7160e01b600052601160045260246000fd5b634e487b7160e01b600052601260045260246000fd5b634e487b7160e01b600052603260045260246000fd5b634e487b7160e01b600052604160045260246000fdfea2646970667358221220d9a599a5ac73d04adeb214f3e81efe4595a791a6b6868cecaee9aca4f22b909f64736f6c63430008070033a264697066735822122047f6beff84703bd8be40ef1f59216841b44c23d7941084fd9452442a615eb76e64736f6c63430008070033","opcodes":"PUSH1 0x80 PUSH1 0x40 MSTORE PUSH2 0x12C PUSH1 0x8 SSTORE PUSH8 0xDE0B6B3A7640000 PUSH1 0x9 SSTORE PUSH2 0x1AF4 PUSH1 0xA SSTORE CALLVALUE DUP1 ISZERO PUSH2 0x28 JUMPI PUSH1 0x0 DUP1 REVERT JUMPDEST POP PUSH2 0x32 CALLER PUSH2 0x173 JUMP JUMPDEST PUSH1 0x1 DUP1 SSTORE PUSH1 0x6 PUSH1 0x20 MSTORE PUSH8 0xFF59EE833B30000 PUSH32 0x4DA38FC8E544AFC56A4C2A17752B8DDB67D8E23AC4583C9029D2E2D1DBE6C988 SSTORE PUSH8 0xEEB2ACDED8B8000 PUSH32 0x98D468EFB4F874D617491296C759DC9AE46EFB517FE36BCF30699AD3F714C0F SSTORE PUSH8 0xE92596FD6290000 PUSH32 0xB6BA906FF52451A7A924E2EAEB8AEA3EBEE7350A8703E5E417EDB25358C7DCC1 SSTORE PUSH8 0xE398811BEC68000 PUSH32 0x95205EE1597333A2B36CC31B0A8C074C0C1FA2918672C4E3DDE98E6EB3460FE4 SSTORE PUSH8 0xE27C49886E60000 PUSH32 0xD4C27E5D2CE7B7345F78D7F5DDC8B90697D63512E00B9F949B158A467D0BFFFC SSTORE PUSH8 0xE043DA617250000 PUSH32 0x294249A73DADE72954CE261E2D3E7A241EA69FBB9C559454DD3E40F332FD4F17 SSTORE PUSH2 0x3E8 PUSH1 0x0 MSTORE PUSH8 0xDF27A2CDF448000 PUSH32 0xF416400A389B2271C5C6051273E6B62961B6906215E5F4D9099A99323151C03F SSTORE PUSH2 0x1C3 JUMP JUMPDEST PUSH1 0x0 DUP1 SLOAD PUSH1 0x1 PUSH1 0x1 PUSH1 0xA0 SHL SUB DUP4 DUP2 AND PUSH1 0x1 PUSH1 0x1 PUSH1 0xA0 SHL SUB NOT DUP4 AND DUP2 OR DUP5 SSTORE PUSH1 0x40 MLOAD SWAP2 SWAP1 SWAP3 AND SWAP3 DUP4 SWAP2 PUSH32 0x8BE0079C531659141344CD1FD0A4F28419497F9722A3DAAFE3B4186F6B6457E0 SWAP2 SWAP1 LOG3 POP POP JUMP JUMPDEST PUSH2 0x3F2F DUP1 PUSH2 0x1D2 PUSH1 0x0 CODECOPY PUSH1 0x0 RETURN INVALID PUSH1 0x80 PUSH1 0x40 MSTORE PUSH1 0x4 CALLDATASIZE LT PUSH3 0x11E JUMPI PUSH1 0x0 CALLDATALOAD PUSH1 0xE0 SHR DUP1 PUSH4 0xC08D1FE5 GT PUSH3 0xA1 JUMPI DUP1 PUSH4 0xE33E879A GT PUSH3 0x6C JUMPI DUP1 PUSH4 0xE33E879A EQ PUSH3 0x33D JUMPI DUP1 PUSH4 0xF2FDE38B EQ PUSH3 0x362 JUMPI DUP1 PUSH4 0xF4AFD4F6 EQ PUSH3 0x387 JUMPI DUP1 PUSH4 0xFBF7C5EE EQ PUSH3 0x3AC JUMPI DUP1 PUSH4 0xFC8E7504 EQ PUSH3 0x3C3 JUMPI PUSH1 0x0 DUP1 REVERT JUMPDEST DUP1 PUSH4 0xC08D1FE5 EQ PUSH3 0x29B JUMPI DUP1 PUSH4 0xD0E34664 EQ PUSH3 0x2B3 JUMPI DUP1 PUSH4 0xD84F55EE EQ PUSH3 0x2E4 JUMPI DUP1 PUSH4 0xE2889C82 EQ PUSH3 0x318 JUMPI PUSH1 0x0 DUP1 REVERT JUMPDEST DUP1 PUSH4 0x7503E1B7 GT PUSH3 0xEE JUMPI DUP1 PUSH4 0x7503E1B7 EQ PUSH3 0x1B6 JUMPI DUP1 PUSH4 0x86106B1F EQ PUSH3 0x1EE JUMPI DUP1 PUSH4 0x893D20E8 EQ PUSH3 0x222 JUMPI DUP1 PUSH4 0x8DA5CB5B EQ PUSH3 0x256 JUMPI DUP1 PUSH4 0xAD260418 EQ PUSH3 0x276 JUMPI PUSH1 0x0 DUP1 REVERT JUMPDEST DUP1 PUSH3 0x5A0E3D EQ PUSH3 0x123 JUMPI DUP1 PUSH4 0x298AEC2C EQ PUSH3 0x14E JUMPI DUP1 PUSH4 0x4959D977 EQ PUSH3 0x184 JUMPI DUP1 PUSH4 0x715018A6 EQ PUSH3 0x19C JUMPI JUMPDEST PUSH1 0x0 DUP1 REVERT JUMPDEST CALLVALUE DUP1 ISZERO PUSH3 0x130 JUMPI PUSH1 0x0 DUP1 REVERT JUMPDEST POP PUSH3 0x13B PUSH1 0xA SLOAD DUP2 JUMP JUMPDEST PUSH1 0x40 MLOAD SWAP1 DUP2 MSTORE PUSH1 0x20 ADD JUMPDEST PUSH1 0x40 MLOAD DUP1 SWAP2 SUB SWAP1 RETURN JUMPDEST CALLVALUE DUP1 ISZERO PUSH3 0x15B JUMPI PUSH1 0x0 DUP1 REVERT JUMPDEST POP PUSH3 0x173 PUSH3 0x16D CALLDATASIZE PUSH1 0x4 PUSH3 0x1416 JUMP JUMPDEST PUSH3 0x3DB JUMP JUMPDEST PUSH1 0x40 MLOAD SWAP1 ISZERO ISZERO DUP2 MSTORE PUSH1 0x20 ADD PUSH3 0x145 JUMP JUMPDEST CALLVALUE DUP1 ISZERO PUSH3 0x191 JUMPI PUSH1 0x0 DUP1 REVERT JUMPDEST POP PUSH3 0x13B PUSH1 0x9 SLOAD DUP2 JUMP JUMPDEST CALLVALUE DUP1 ISZERO PUSH3 0x1A9 JUMPI PUSH1 0x0 DUP1 REVERT JUMPDEST POP PUSH3 0x1B4 PUSH3 0x40B JUMP JUMPDEST STOP JUMPDEST CALLVALUE DUP1 ISZERO PUSH3 0x1C3 JUMPI PUSH1 0x0 DUP1 REVERT JUMPDEST POP PUSH3 0x1DB PUSH3 0x1D5 CALLDATASIZE PUSH1 0x4 PUSH3 0x1587 JUMP JUMPDEST PUSH3 0x423 JUMP JUMPDEST PUSH1 0x40 MLOAD PUSH3 0x145 SWAP6 SWAP5 SWAP4 SWAP3 SWAP2 SWAP1 PUSH3 0x17A7 JUMP JUMPDEST CALLVALUE DUP1 ISZERO PUSH3 0x1FB JUMPI PUSH1 0x0 DUP1 REVERT JUMPDEST POP PUSH3 0x213 PUSH3 0x20D CALLDATASIZE PUSH1 0x4 PUSH3 0x13F8 JUMP JUMPDEST PUSH3 0x5C2 JUMP JUMPDEST PUSH1 0x40 MLOAD PUSH3 0x145 SWAP2 SWAP1 PUSH3 0x16DC JUMP JUMPDEST CALLVALUE DUP1 ISZERO PUSH3 0x22F JUMPI PUSH1 0x0 DUP1 REVERT JUMPDEST POP PUSH1 0x0 SLOAD PUSH1 0x1 PUSH1 0x1 PUSH1 0xA0 SHL SUB AND JUMPDEST PUSH1 0x40 MLOAD PUSH1 0x1 PUSH1 0x1 PUSH1 0xA0 SHL SUB SWAP1 SWAP2 AND DUP2 MSTORE PUSH1 0x20 ADD PUSH3 0x145 JUMP JUMPDEST CALLVALUE DUP1 ISZERO PUSH3 0x263 JUMPI PUSH1 0x0 DUP1 REVERT JUMPDEST POP PUSH1 0x0 SLOAD PUSH1 0x1 PUSH1 0x1 PUSH1 0xA0 SHL SUB AND PUSH3 0x23D JUMP JUMPDEST CALLVALUE DUP1 ISZERO PUSH3 0x283 JUMPI PUSH1 0x0 DUP1 REVERT JUMPDEST POP PUSH3 0x1B4 PUSH3 0x295 CALLDATASIZE PUSH1 0x4 PUSH3 0x13F8 JUMP JUMPDEST PUSH3 0x880 JUMP JUMPDEST CALLVALUE DUP1 ISZERO PUSH3 0x2A8 JUMPI PUSH1 0x0 DUP1 REVERT JUMPDEST POP PUSH3 0x13B PUSH1 0x8 SLOAD DUP2 JUMP JUMPDEST CALLVALUE DUP1 ISZERO PUSH3 0x2C0 JUMPI PUSH1 0x0 DUP1 REVERT JUMPDEST POP PUSH3 0x13B PUSH3 0x2D2 CALLDATASIZE PUSH1 0x4 PUSH3 0x1587 JUMP JUMPDEST PUSH1 0x6 PUSH1 0x20 MSTORE PUSH1 0x0 SWAP1 DUP2 MSTORE PUSH1 0x40 SWAP1 KECCAK256 SLOAD DUP2 JUMP JUMPDEST CALLVALUE DUP1 ISZERO PUSH3 0x2F1 JUMPI PUSH1 0x0 DUP1 REVERT JUMPDEST POP PUSH3 0x309 PUSH3 0x303 CALLDATASIZE PUSH1 0x4 PUSH3 0x13F8 JUMP JUMPDEST PUSH3 0x944 JUMP JUMPDEST PUSH1 0x40 MLOAD PUSH3 0x145 SWAP2 SWAP1 PUSH3 0x1792 JUMP JUMPDEST CALLVALUE DUP1 ISZERO PUSH3 0x325 JUMPI PUSH1 0x0 DUP1 REVERT JUMPDEST POP PUSH3 0x1B4 PUSH3 0x337 CALLDATASIZE PUSH1 0x4 PUSH3 0x1587 JUMP JUMPDEST PUSH3 0x9FE JUMP JUMPDEST CALLVALUE DUP1 ISZERO PUSH3 0x34A JUMPI PUSH1 0x0 DUP1 REVERT JUMPDEST POP PUSH3 0x1B4 PUSH3 0x35C CALLDATASIZE PUSH1 0x4 PUSH3 0x1587 JUMP JUMPDEST PUSH3 0xA0D JUMP JUMPDEST CALLVALUE DUP1 ISZERO PUSH3 0x36F JUMPI PUSH1 0x0 DUP1 REVERT JUMPDEST POP PUSH3 0x1B4 PUSH3 0x381 CALLDATASIZE PUSH1 0x4 PUSH3 0x13F8 JUMP JUMPDEST PUSH3 0xA1C JUMP JUMPDEST CALLVALUE DUP1 ISZERO PUSH3 0x394 JUMPI PUSH1 0x0 DUP1 REVERT JUMPDEST POP PUSH3 0x1B4 PUSH3 0x3A6 CALLDATASIZE PUSH1 0x4 PUSH3 0x153E JUMP JUMPDEST PUSH3 0xA9B JUMP JUMPDEST PUSH3 0x1B4 PUSH3 0x3BD CALLDATASIZE PUSH1 0x4 PUSH3 0x146A JUMP JUMPDEST PUSH3 0xBF2 JUMP JUMPDEST CALLVALUE DUP1 ISZERO PUSH3 0x3D0 JUMPI PUSH1 0x0 DUP1 REVERT JUMPDEST POP PUSH3 0x13B PUSH1 0x7 SLOAD DUP2 JUMP JUMPDEST PUSH1 0x1 PUSH1 0x1 PUSH1 0xA0 SHL SUB DUP3 AND PUSH1 0x0 SWAP1 DUP2 MSTORE PUSH1 0x2 PUSH1 0x20 DUP2 SWAP1 MSTORE PUSH1 0x40 DUP3 KECCAK256 PUSH3 0x402 SWAP2 ADD DUP4 PUSH3 0xECC JUMP JUMPDEST SWAP1 POP JUMPDEST SWAP3 SWAP2 POP POP JUMP JUMPDEST PUSH3 0x415 PUSH3 0xEE5 JUMP JUMPDEST PUSH3 0x421 PUSH1 0x0 PUSH3 0xF41 JUMP JUMPDEST JUMP JUMPDEST PUSH1 0x5 PUSH1 0x20 MSTORE PUSH1 0x0 SWAP1 DUP2 MSTORE PUSH1 0x40 SWAP1 KECCAK256 DUP1 SLOAD PUSH1 0x1 DUP3 ADD DUP1 SLOAD SWAP2 SWAP3 SWAP2 PUSH3 0x447 SWAP1 PUSH3 0x1888 JUMP JUMPDEST DUP1 PUSH1 0x1F ADD PUSH1 0x20 DUP1 SWAP2 DIV MUL PUSH1 0x20 ADD PUSH1 0x40 MLOAD SWAP1 DUP2 ADD PUSH1 0x40 MSTORE DUP1 SWAP3 SWAP2 SWAP1 DUP2 DUP2 MSTORE PUSH1 0x20 ADD DUP3 DUP1 SLOAD PUSH3 0x475 SWAP1 PUSH3 0x1888 JUMP JUMPDEST DUP1 ISZERO PUSH3 0x4C6 JUMPI DUP1 PUSH1 0x1F LT PUSH3 0x49A JUMPI PUSH2 0x100 DUP1 DUP4 SLOAD DIV MUL DUP4 MSTORE SWAP2 PUSH1 0x20 ADD SWAP2 PUSH3 0x4C6 JUMP JUMPDEST DUP3 ADD SWAP2 SWAP1 PUSH1 0x0 MSTORE PUSH1 0x20 PUSH1 0x0 KECCAK256 SWAP1 JUMPDEST DUP2 SLOAD DUP2 MSTORE SWAP1 PUSH1 0x1 ADD SWAP1 PUSH1 0x20 ADD DUP1 DUP4 GT PUSH3 0x4A8 JUMPI DUP3 SWAP1 SUB PUSH1 0x1F AND DUP3 ADD SWAP2 JUMPDEST POP POP POP POP PUSH1 0x2 DUP4 ADD SLOAD PUSH1 0x3 DUP5 ADD SLOAD PUSH1 0x40 DUP1 MLOAD PUSH1 0xA0 DUP2 ADD DUP3 MSTORE PUSH1 0x4 DUP8 ADD DUP1 SLOAD PUSH1 0xFF AND ISZERO ISZERO DUP3 MSTORE PUSH1 0x5 DUP9 ADD SLOAD PUSH1 0x20 DUP4 ADD MSTORE PUSH1 0x6 DUP9 ADD SLOAD SWAP3 DUP3 ADD SWAP3 SWAP1 SWAP3 MSTORE PUSH1 0x7 DUP8 ADD DUP1 SLOAD SWAP7 SWAP8 SWAP5 SWAP7 PUSH1 0x1 PUSH1 0x1 PUSH1 0xA0 SHL SUB SWAP1 SWAP5 AND SWAP6 POP SWAP1 SWAP3 PUSH1 0x60 DUP5 ADD SWAP2 SWAP1 PUSH3 0x52B SWAP1 PUSH3 0x1888 JUMP JUMPDEST DUP1 PUSH1 0x1F ADD PUSH1 0x20 DUP1 SWAP2 DIV MUL PUSH1 0x20 ADD PUSH1 0x40 MLOAD SWAP1 DUP2 ADD PUSH1 0x40 MSTORE DUP1 SWAP3 SWAP2 SWAP1 DUP2 DUP2 MSTORE PUSH1 0x20 ADD DUP3 DUP1 SLOAD PUSH3 0x559 SWAP1 PUSH3 0x1888 JUMP JUMPDEST DUP1 ISZERO PUSH3 0x5AA JUMPI DUP1 PUSH1 0x1F LT PUSH3 0x57E JUMPI PUSH2 0x100 DUP1 DUP4 SLOAD DIV MUL DUP4 MSTORE SWAP2 PUSH1 0x20 ADD SWAP2 PUSH3 0x5AA JUMP JUMPDEST DUP3 ADD SWAP2 SWAP1 PUSH1 0x0 MSTORE PUSH1 0x20 PUSH1 0x0 KECCAK256 SWAP1 JUMPDEST DUP2 SLOAD DUP2 MSTORE SWAP1 PUSH1 0x1 ADD SWAP1 PUSH1 0x20 ADD DUP1 DUP4 GT PUSH3 0x58C JUMPI DUP3 SWAP1 SUB PUSH1 0x1F AND DUP3 ADD SWAP2 JUMPDEST POP POP POP POP POP DUP2 MSTORE PUSH1 0x20 ADD PUSH1 0x4 DUP3 ADD SLOAD DUP2 MSTORE POP POP SWAP1 POP DUP6 JUMP JUMPDEST PUSH1 0x60 PUSH1 0x0 PUSH1 0x7 SLOAD PUSH8 0xFFFFFFFFFFFFFFFF DUP2 GT ISZERO PUSH3 0x5E4 JUMPI PUSH3 0x5E4 PUSH3 0x1925 JUMP JUMPDEST PUSH1 0x40 MLOAD SWAP1 DUP1 DUP3 MSTORE DUP1 PUSH1 0x20 MUL PUSH1 0x20 ADD DUP3 ADD PUSH1 0x40 MSTORE DUP1 ISZERO PUSH3 0x621 JUMPI DUP2 PUSH1 0x20 ADD JUMPDEST PUSH3 0x60D PUSH3 0x1228 JUMP JUMPDEST DUP2 MSTORE PUSH1 0x20 ADD SWAP1 PUSH1 0x1 SWAP1 SUB SWAP1 DUP2 PUSH3 0x603 JUMPI SWAP1 POP JUMPDEST POP SWAP1 POP PUSH1 0x0 JUMPDEST PUSH1 0x1 PUSH1 0x1 PUSH1 0xA0 SHL SUB DUP5 AND PUSH1 0x0 SWAP1 DUP2 MSTORE PUSH1 0x2 PUSH1 0x20 DUP2 SWAP1 MSTORE PUSH1 0x40 SWAP1 SWAP2 KECCAK256 PUSH3 0x64E SWAP2 ADD PUSH3 0xF91 JUMP JUMPDEST DUP2 LT ISZERO PUSH3 0x879 JUMPI PUSH1 0x1 PUSH1 0x1 PUSH1 0xA0 SHL SUB DUP5 AND PUSH1 0x0 SWAP1 DUP2 MSTORE PUSH1 0x2 PUSH1 0x20 DUP2 SWAP1 MSTORE PUSH1 0x40 DUP3 KECCAK256 PUSH1 0x5 SWAP3 SWAP2 PUSH3 0x681 SWAP2 ADD DUP5 PUSH3 0xF9C JUMP JUMPDEST DUP2 MSTORE PUSH1 0x20 ADD SWAP1 DUP2 MSTORE PUSH1 0x20 ADD PUSH1 0x0 KECCAK256 PUSH1 0x40 MLOAD DUP1 PUSH1 0xA0 ADD PUSH1 0x40 MSTORE SWAP1 DUP2 PUSH1 0x0 DUP3 ADD SLOAD DUP2 MSTORE PUSH1 0x20 ADD PUSH1 0x1 DUP3 ADD DUP1 SLOAD PUSH3 0x6B6 SWAP1 PUSH3 0x1888 JUMP JUMPDEST DUP1 PUSH1 0x1F ADD PUSH1 0x20 DUP1 SWAP2 DIV MUL PUSH1 0x20 ADD PUSH1 0x40 MLOAD SWAP1 DUP2 ADD PUSH1 0x40 MSTORE DUP1 SWAP3 SWAP2 SWAP1 DUP2 DUP2 MSTORE PUSH1 0x20 ADD DUP3 DUP1 SLOAD PUSH3 0x6E4 SWAP1 PUSH3 0x1888 JUMP JUMPDEST DUP1 ISZERO PUSH3 0x735 JUMPI DUP1 PUSH1 0x1F LT PUSH3 0x709 JUMPI PUSH2 0x100 DUP1 DUP4 SLOAD DIV MUL DUP4 MSTORE SWAP2 PUSH1 0x20 ADD SWAP2 PUSH3 0x735 JUMP JUMPDEST DUP3 ADD SWAP2 SWAP1 PUSH1 0x0 MSTORE PUSH1 0x20 PUSH1 0x0 KECCAK256 SWAP1 JUMPDEST DUP2 SLOAD DUP2 MSTORE SWAP1 PUSH1 0x1 ADD SWAP1 PUSH1 0x20 ADD DUP1 DUP4 GT PUSH3 0x717 JUMPI DUP3 SWAP1 SUB PUSH1 0x1F AND DUP3 ADD SWAP2 JUMPDEST POP POP POP SWAP2 DUP4 MSTORE POP POP PUSH1 0x2 DUP3 ADD SLOAD PUSH1 0x20 DUP1 DUP4 ADD SWAP2 SWAP1 SWAP2 MSTORE PUSH1 0x3 DUP4 ADD SLOAD PUSH1 0x1 PUSH1 0x1 PUSH1 0xA0 SHL SUB AND PUSH1 0x40 DUP1 DUP5 ADD SWAP2 SWAP1 SWAP2 MSTORE DUP1 MLOAD PUSH1 0xA0 DUP2 ADD DUP3 MSTORE PUSH1 0x4 DUP6 ADD DUP1 SLOAD PUSH1 0xFF AND ISZERO ISZERO DUP3 MSTORE PUSH1 0x5 DUP7 ADD SLOAD SWAP4 DUP3 ADD SWAP4 SWAP1 SWAP4 MSTORE PUSH1 0x6 DUP6 ADD SLOAD SWAP2 DUP2 ADD SWAP2 SWAP1 SWAP2 MSTORE PUSH1 0x7 DUP5 ADD DUP1 SLOAD PUSH1 0x60 SWAP5 DUP6 ADD SWAP5 SWAP3 SWAP4 SWAP3 DUP5 ADD SWAP2 SWAP1 PUSH3 0x7AD SWAP1 PUSH3 0x1888 JUMP JUMPDEST DUP1 PUSH1 0x1F ADD PUSH1 0x20 DUP1 SWAP2 DIV MUL PUSH1 0x20 ADD PUSH1 0x40 MLOAD SWAP1 DUP2 ADD PUSH1 0x40 MSTORE DUP1 SWAP3 SWAP2 SWAP1 DUP2 DUP2 MSTORE PUSH1 0x20 ADD DUP3 DUP1 SLOAD PUSH3 0x7DB SWAP1 PUSH3 0x1888 JUMP JUMPDEST DUP1 ISZERO PUSH3 0x82C JUMPI DUP1 PUSH1 0x1F LT PUSH3 0x800 JUMPI PUSH2 0x100 DUP1 DUP4 SLOAD DIV MUL DUP4 MSTORE SWAP2 PUSH1 0x20 ADD SWAP2 PUSH3 0x82C JUMP JUMPDEST DUP3 ADD SWAP2 SWAP1 PUSH1 0x0 MSTORE PUSH1 0x20 PUSH1 0x0 KECCAK256 SWAP1 JUMPDEST DUP2 SLOAD DUP2 MSTORE SWAP1 PUSH1 0x1 ADD SWAP1 PUSH1 0x20 ADD DUP1 DUP4 GT PUSH3 0x80E JUMPI DUP3 SWAP1 SUB PUSH1 0x1F AND DUP3 ADD SWAP2 JUMPDEST POP POP POP POP POP DUP2 MSTORE PUSH1 0x20 ADD PUSH1 0x4 DUP3 ADD SLOAD DUP2 MSTORE POP POP DUP2 MSTORE POP POP DUP3 DUP3 DUP2 MLOAD DUP2 LT PUSH3 0x858 JUMPI PUSH3 0x858 PUSH3 0x190F JUMP JUMPDEST PUSH1 0x20 MUL PUSH1 0x20 ADD ADD DUP2 SWAP1 MSTORE POP DUP1 DUP1 PUSH3 0x870 SWAP1 PUSH3 0x18C5 JUMP JUMPDEST SWAP2 POP POP PUSH3 0x627 JUMP JUMPDEST POP SWAP3 SWAP2 POP POP JUMP JUMPDEST PUSH1 0x7 SLOAD PUSH1 0x0 SWAP1 DUP2 MSTORE PUSH1 0x5 PUSH1 0x20 SWAP1 DUP2 MSTORE PUSH1 0x40 SWAP2 DUP3 SWAP1 KECCAK256 PUSH1 0x3 ADD SLOAD DUP3 MLOAD DUP1 DUP5 ADD SWAP1 SWAP4 MSTORE PUSH1 0x15 DUP4 MSTORE PUSH21 0x10D05313115497D393D517D055551213D492569151 PUSH1 0x5A SHL SWAP2 DUP4 ADD SWAP2 SWAP1 SWAP2 MSTORE PUSH1 0x1 PUSH1 0x1 PUSH1 0xA0 SHL SUB AND CALLER EQ PUSH3 0x8F9 JUMPI PUSH1 0x40 MLOAD PUSH3 0x461BCD PUSH1 0xE5 SHL DUP2 MSTORE PUSH1 0x4 ADD PUSH3 0x8F0 SWAP2 SWAP1 PUSH3 0x1792 JUMP JUMPDEST PUSH1 0x40 MLOAD DUP1 SWAP2 SUB SWAP1 REVERT JUMPDEST POP PUSH1 0x1 PUSH1 0x1 PUSH1 0xA0 SHL SUB DUP2 AND PUSH1 0x0 SWAP1 DUP2 MSTORE PUSH1 0x2 PUSH1 0x20 DUP2 SWAP1 MSTORE PUSH1 0x40 SWAP1 SWAP2 KECCAK256 PUSH1 0x7 SLOAD SWAP1 SWAP2 PUSH3 0x929 SWAP2 SWAP1 DUP4 ADD SWAP1 PUSH3 0xFAA JUMP JUMPDEST POP DUP1 SLOAD PUSH1 0xFF AND PUSH3 0x940 JUMPI DUP1 SLOAD PUSH1 0xFF NOT AND PUSH1 0x1 OR DUP2 SSTORE JUMPDEST POP POP JUMP JUMPDEST PUSH1 0x1 PUSH1 0x1 PUSH1 0xA0 SHL SUB DUP2 AND PUSH1 0x0 SWAP1 DUP2 MSTORE PUSH1 0x2 PUSH1 0x20 MSTORE PUSH1 0x40 SWAP1 KECCAK256 PUSH1 0x1 DUP2 ADD DUP1 SLOAD PUSH1 0x60 SWAP3 SWAP2 SWAP1 PUSH3 0x972 SWAP1 PUSH3 0x1888 JUMP JUMPDEST DUP1 PUSH1 0x1F ADD PUSH1 0x20 DUP1 SWAP2 DIV MUL PUSH1 0x20 ADD PUSH1 0x40 MLOAD SWAP1 DUP2 ADD PUSH1 0x40 MSTORE DUP1 SWAP3 SWAP2 SWAP1 DUP2 DUP2 MSTORE PUSH1 0x20 ADD DUP3 DUP1 SLOAD PUSH3 0x9A0 SWAP1 PUSH3 0x1888 JUMP JUMPDEST DUP1 ISZERO PUSH3 0x9F1 JUMPI DUP1 PUSH1 0x1F LT PUSH3 0x9C5 JUMPI PUSH2 0x100 DUP1 DUP4 SLOAD DIV MUL DUP4 MSTORE SWAP2 PUSH1 0x20 ADD SWAP2 PUSH3 0x9F1 JUMP JUMPDEST DUP3 ADD SWAP2 SWAP1 PUSH1 0x0 MSTORE PUSH1 0x20 PUSH1 0x0 KECCAK256 SWAP1 JUMPDEST DUP2 SLOAD DUP2 MSTORE SWAP1 PUSH1 0x1 ADD SWAP1 PUSH1 0x20 ADD DUP1 DUP4 GT PUSH3 0x9D3 JUMPI DUP3 SWAP1 SUB PUSH1 0x1F AND DUP3 ADD SWAP2 JUMPDEST POP POP POP POP POP SWAP2 POP POP SWAP2 SWAP1 POP JUMP JUMPDEST PUSH3 0xA08 PUSH3 0xEE5 JUMP JUMPDEST PUSH1 0x8 SSTORE JUMP JUMPDEST PUSH3 0xA17 PUSH3 0xEE5 JUMP JUMPDEST PUSH1 0x9 SSTORE JUMP JUMPDEST PUSH3 0xA26 PUSH3 0xEE5 JUMP JUMPDEST PUSH1 0x1 PUSH1 0x1 PUSH1 0xA0 SHL SUB DUP2 AND PUSH3 0xA8D JUMPI PUSH1 0x40 MLOAD PUSH3 0x461BCD PUSH1 0xE5 SHL DUP2 MSTORE PUSH1 0x20 PUSH1 0x4 DUP3 ADD MSTORE PUSH1 0x26 PUSH1 0x24 DUP3 ADD MSTORE PUSH32 0x4F776E61626C653A206E6577206F776E657220697320746865207A65726F2061 PUSH1 0x44 DUP3 ADD MSTORE PUSH6 0x646472657373 PUSH1 0xD0 SHL PUSH1 0x64 DUP3 ADD MSTORE PUSH1 0x84 ADD PUSH3 0x8F0 JUMP JUMPDEST PUSH3 0xA98 DUP2 PUSH3 0xF41 JUMP JUMPDEST POP JUMP JUMPDEST PUSH3 0xAD9 DUP3 PUSH1 0x40 MLOAD PUSH1 0x20 ADD PUSH3 0xAB2 SWAP2 SWAP1 PUSH3 0x161A JUMP JUMPDEST PUSH1 0x40 MLOAD PUSH1 0x20 DUP2 DUP4 SUB SUB DUP2 MSTORE SWAP1 PUSH1 0x40 MSTORE DUP1 MLOAD SWAP1 PUSH1 0x20 ADD KECCAK256 PUSH1 0x3 PUSH3 0xECC SWAP1 SWAP2 SWAP1 PUSH4 0xFFFFFFFF AND JUMP JUMPDEST ISZERO PUSH1 0x40 MLOAD DUP1 PUSH1 0x40 ADD PUSH1 0x40 MSTORE DUP1 PUSH1 0xE DUP2 MSTORE PUSH1 0x20 ADD PUSH14 0x2AA9A2A92720A6A2AFAA20A5A2A7 PUSH1 0x91 SHL DUP2 MSTORE POP SWAP1 PUSH3 0xB22 JUMPI PUSH1 0x40 MLOAD PUSH3 0x461BCD PUSH1 0xE5 SHL DUP2 MSTORE PUSH1 0x4 ADD PUSH3 0x8F0 SWAP2 SWAP1 PUSH3 0x1792 JUMP JUMPDEST POP CALLER PUSH1 0x0 SWAP1 DUP2 MSTORE PUSH1 0x2 PUSH1 0x20 SWAP1 DUP2 MSTORE PUSH1 0x40 SWAP2 DUP3 SWAP1 KECCAK256 SWAP2 MLOAD PUSH3 0xB75 SWAP2 PUSH3 0xB4E SWAP2 PUSH1 0x1 DUP6 ADD SWAP2 ADD PUSH3 0x1638 JUMP JUMPDEST PUSH1 0x40 MLOAD PUSH1 0x20 DUP2 DUP4 SUB SUB DUP2 MSTORE SWAP1 PUSH1 0x40 MSTORE DUP1 MLOAD SWAP1 PUSH1 0x20 ADD KECCAK256 PUSH1 0x3 PUSH3 0xFB8 SWAP1 SWAP2 SWAP1 PUSH4 0xFFFFFFFF AND JUMP JUMPDEST POP PUSH3 0xBB4 DUP4 PUSH1 0x40 MLOAD PUSH1 0x20 ADD PUSH3 0xB8D SWAP2 SWAP1 PUSH3 0x161A JUMP JUMPDEST PUSH1 0x40 MLOAD PUSH1 0x20 DUP2 DUP4 SUB SUB DUP2 MSTORE SWAP1 PUSH1 0x40 MSTORE DUP1 MLOAD SWAP1 PUSH1 0x20 ADD KECCAK256 PUSH1 0x3 PUSH3 0xFAA SWAP1 SWAP2 SWAP1 PUSH4 0xFFFFFFFF AND JUMP JUMPDEST POP PUSH1 0x14 DUP3 GT PUSH3 0xBC5 JUMPI DUP3 PUSH3 0xBD4 JUMP JUMPDEST PUSH3 0xBD4 DUP4 PUSH1 0x0 PUSH1 0x14 PUSH3 0xFC6 JUMP JUMPDEST DUP1 MLOAD PUSH3 0xBEC SWAP2 PUSH1 0x1 DUP5 ADD SWAP2 PUSH1 0x20 SWAP1 SWAP2 ADD SWAP1 PUSH3 0x1292 JUMP JUMPDEST POP POP POP POP JUMP JUMPDEST PUSH3 0xBFC PUSH3 0xEE5 JUMP JUMPDEST PUSH1 0x7 SLOAD ISZERO DUP1 PUSH3 0xCC6 JUMPI POP PUSH1 0x8 SLOAD PUSH1 0x7 SLOAD PUSH1 0x0 SWAP1 DUP2 MSTORE PUSH1 0x5 PUSH1 0x20 MSTORE PUSH1 0x40 SWAP1 KECCAK256 PUSH1 0x2 ADD SLOAD TIMESTAMP SWAP2 PUSH3 0xC2C SWAP2 PUSH3 0x1824 JUMP JUMPDEST LT DUP1 ISZERO PUSH3 0xCC6 JUMPI POP PUSH1 0x7 SLOAD PUSH1 0x0 SWAP1 DUP2 MSTORE PUSH1 0x5 PUSH1 0x20 SWAP1 DUP2 MSTORE PUSH1 0x40 SWAP2 DUP3 SWAP1 KECCAK256 PUSH1 0x3 ADD SLOAD DUP3 MLOAD PUSH4 0xECB70FB7 PUSH1 0xE0 SHL DUP2 MSTORE SWAP3 MLOAD PUSH1 0x1 PUSH1 0x1 PUSH1 0xA0 SHL SUB SWAP1 SWAP2 AND SWAP3 PUSH4 0xECB70FB7 SWAP3 PUSH1 0x4 DUP1 DUP4 ADD SWAP4 SWAP2 SWAP3 DUP3 SWAP1 SUB ADD DUP2 DUP7 DUP1 EXTCODESIZE ISZERO DUP1 ISZERO PUSH3 0xC8B JUMPI PUSH1 0x0 DUP1 REVERT JUMPDEST POP GAS STATICCALL ISZERO DUP1 ISZERO PUSH3 0xCA0 JUMPI RETURNDATASIZE PUSH1 0x0 DUP1 RETURNDATACOPY RETURNDATASIZE PUSH1 0x0 REVERT JUMPDEST POP POP POP POP PUSH1 0x40 MLOAD RETURNDATASIZE PUSH1 0x1F NOT PUSH1 0x1F DUP3 ADD AND DUP3 ADD DUP1 PUSH1 0x40 MSTORE POP DUP2 ADD SWAP1 PUSH3 0xCC6 SWAP2 SWAP1 PUSH3 0x1443 JUMP JUMPDEST PUSH1 0x40 MLOAD DUP1 PUSH1 0x40 ADD PUSH1 0x40 MSTORE DUP1 PUSH1 0x12 DUP2 MSTORE PUSH1 0x20 ADD PUSH18 0x544F55524E414D454E545F49535F4C495645 PUSH1 0x70 SHL DUP2 MSTORE POP SWAP1 PUSH3 0xD12 JUMPI PUSH1 0x40 MLOAD PUSH3 0x461BCD PUSH1 0xE5 SHL DUP2 MSTORE PUSH1 0x4 ADD PUSH3 0x8F0 SWAP2 SWAP1 PUSH3 0x1792 JUMP JUMPDEST POP DUP1 MLOAD PUSH3 0xD22 JUMPI PUSH1 0x1 PUSH3 0xD2A JUMP JUMPDEST DUP1 PUSH1 0x20 ADD MLOAD CALLVALUE EQ JUMPDEST PUSH1 0x40 MLOAD DUP1 PUSH1 0x40 ADD PUSH1 0x40 MSTORE DUP1 PUSH1 0x19 DUP2 MSTORE PUSH1 0x20 ADD PUSH32 0x4E4F545F454E4F5547485F46554E44535F50524F564944454400000000000000 DUP2 MSTORE POP SWAP1 PUSH3 0xD81 JUMPI PUSH1 0x40 MLOAD PUSH3 0x461BCD PUSH1 0xE5 SHL DUP2 MSTORE PUSH1 0x4 ADD PUSH3 0x8F0 SWAP2 SWAP1 PUSH3 0x1792 JUMP JUMPDEST POP PUSH1 0x0 PUSH1 0x7 PUSH1 0x0 DUP2 SLOAD PUSH3 0xD95 SWAP1 PUSH3 0x18C5 JUMP JUMPDEST SWAP2 SWAP1 POP DUP2 SWAP1 SSTORE DUP4 TIMESTAMP ADDRESS DUP6 PUSH1 0x40 MLOAD PUSH3 0xDAD SWAP1 PUSH3 0x1321 JUMP JUMPDEST PUSH3 0xDBD SWAP6 SWAP5 SWAP4 SWAP3 SWAP2 SWAP1 PUSH3 0x17A7 JUMP JUMPDEST PUSH1 0x40 MLOAD DUP1 SWAP2 SUB SWAP1 PUSH1 0x0 CREATE DUP1 ISZERO DUP1 ISZERO PUSH3 0xDDA JUMPI RETURNDATASIZE PUSH1 0x0 DUP1 RETURNDATACOPY RETURNDATASIZE PUSH1 0x0 REVERT JUMPDEST POP PUSH1 0x40 DUP1 MLOAD PUSH1 0xA0 DUP2 ADD DUP3 MSTORE PUSH1 0x7 SLOAD DUP1 DUP3 MSTORE PUSH1 0x20 DUP1 DUP4 ADD DUP9 DUP2 MSTORE TIMESTAMP DUP5 DUP7 ADD MSTORE PUSH1 0x1 PUSH1 0x1 PUSH1 0xA0 SHL SUB DUP7 AND PUSH1 0x60 DUP6 ADD MSTORE PUSH1 0x80 DUP5 ADD DUP9 SWAP1 MSTORE PUSH1 0x0 SWAP3 DUP4 MSTORE PUSH1 0x5 DUP3 MSTORE SWAP4 SWAP1 SWAP2 KECCAK256 DUP3 MLOAD DUP2 SSTORE SWAP3 MLOAD DUP1 MLOAD SWAP5 SWAP6 POP SWAP2 SWAP4 PUSH3 0xE3A SWAP3 PUSH1 0x1 DUP6 ADD SWAP3 ADD SWAP1 PUSH3 0x1292 JUMP JUMPDEST POP PUSH1 0x40 DUP3 DUP2 ADD MLOAD PUSH1 0x2 DUP4 ADD SSTORE PUSH1 0x60 DUP1 DUP5 ADD MLOAD PUSH1 0x3 DUP5 ADD DUP1 SLOAD PUSH1 0x1 PUSH1 0x1 PUSH1 0xA0 SHL SUB NOT AND PUSH1 0x1 PUSH1 0x1 PUSH1 0xA0 SHL SUB SWAP1 SWAP3 AND SWAP2 SWAP1 SWAP2 OR SWAP1 SSTORE PUSH1 0x80 DUP5 ADD MLOAD DUP1 MLOAD PUSH1 0x4 DUP6 ADD DUP1 SLOAD PUSH1 0xFF NOT AND SWAP2 ISZERO ISZERO SWAP2 SWAP1 SWAP2 OR DUP2 SSTORE PUSH1 0x20 DUP1 DUP4 ADD MLOAD PUSH1 0x5 DUP8 ADD SSTORE SWAP4 DUP3 ADD MLOAD PUSH1 0x6 DUP7 ADD SSTORE SWAP2 DUP2 ADD MLOAD DUP1 MLOAD SWAP2 SWAP4 PUSH3 0xEB7 SWAP3 PUSH1 0x7 DUP8 ADD SWAP3 SWAP1 SWAP2 ADD SWAP1 PUSH3 0x1292 JUMP JUMPDEST POP PUSH1 0x80 DUP3 ADD MLOAD DUP2 PUSH1 0x4 ADD SSTORE POP POP SWAP1 POP POP POP POP POP JUMP JUMPDEST PUSH1 0x0 DUP2 DUP2 MSTORE PUSH1 0x1 DUP4 ADD PUSH1 0x20 MSTORE PUSH1 0x40 DUP2 KECCAK256 SLOAD ISZERO ISZERO PUSH3 0x402 JUMP JUMPDEST PUSH1 0x0 SLOAD PUSH1 0x1 PUSH1 0x1 PUSH1 0xA0 SHL SUB AND CALLER EQ PUSH3 0x421 JUMPI PUSH1 0x40 MLOAD PUSH3 0x461BCD PUSH1 0xE5 SHL DUP2 MSTORE PUSH1 0x20 PUSH1 0x4 DUP3 ADD DUP2 SWAP1 MSTORE PUSH1 0x24 DUP3 ADD MSTORE PUSH32 0x4F776E61626C653A2063616C6C6572206973206E6F7420746865206F776E6572 PUSH1 0x44 DUP3 ADD MSTORE PUSH1 0x64 ADD PUSH3 0x8F0 JUMP JUMPDEST PUSH1 0x0 DUP1 SLOAD PUSH1 0x1 PUSH1 0x1 PUSH1 0xA0 SHL SUB DUP4 DUP2 AND PUSH1 0x1 PUSH1 0x1 PUSH1 0xA0 SHL SUB NOT DUP4 AND DUP2 OR DUP5 SSTORE PUSH1 0x40 MLOAD SWAP2 SWAP1 SWAP3 AND SWAP3 DUP4 SWAP2 PUSH32 0x8BE0079C531659141344CD1FD0A4F28419497F9722A3DAAFE3B4186F6B6457E0 SWAP2 SWAP1 LOG3 POP POP JUMP JUMPDEST PUSH1 0x0 PUSH3 0x405 DUP3 SLOAD SWAP1 JUMP JUMPDEST PUSH1 0x0 PUSH3 0x402 DUP4 DUP4 PUSH3 0x10A5 JUMP JUMPDEST PUSH1 0x0 PUSH3 0x402 DUP4 DUP4 PUSH3 0x10D2 JUMP JUMPDEST PUSH1 0x0 PUSH3 0x402 DUP4 DUP4 PUSH3 0x1124 JUMP JUMPDEST PUSH1 0x60 DUP4 PUSH1 0x0 PUSH3 0xFD7 DUP6 DUP6 PUSH3 0x183F JUMP JUMPDEST PUSH8 0xFFFFFFFFFFFFFFFF DUP2 GT ISZERO PUSH3 0xFF2 JUMPI PUSH3 0xFF2 PUSH3 0x1925 JUMP JUMPDEST PUSH1 0x40 MLOAD SWAP1 DUP1 DUP3 MSTORE DUP1 PUSH1 0x1F ADD PUSH1 0x1F NOT AND PUSH1 0x20 ADD DUP3 ADD PUSH1 0x40 MSTORE DUP1 ISZERO PUSH3 0x101D JUMPI PUSH1 0x20 DUP3 ADD DUP2 DUP1 CALLDATASIZE DUP4 CALLDATACOPY ADD SWAP1 POP JUMPDEST POP SWAP1 POP DUP5 JUMPDEST DUP5 DUP2 LT ISZERO PUSH3 0x109B JUMPI DUP3 DUP2 DUP2 MLOAD DUP2 LT PUSH3 0x1040 JUMPI PUSH3 0x1040 PUSH3 0x190F JUMP JUMPDEST ADD PUSH1 0x20 ADD MLOAD PUSH1 0x1 PUSH1 0x1 PUSH1 0xF8 SHL SUB NOT AND DUP3 PUSH3 0x105C DUP9 DUP5 PUSH3 0x183F JUMP JUMPDEST DUP2 MLOAD DUP2 LT PUSH3 0x106F JUMPI PUSH3 0x106F PUSH3 0x190F JUMP JUMPDEST PUSH1 0x20 ADD ADD SWAP1 PUSH1 0x1 PUSH1 0x1 PUSH1 0xF8 SHL SUB NOT AND SWAP1 DUP2 PUSH1 0x0 BYTE SWAP1 MSTORE8 POP DUP1 PUSH3 0x1092 DUP2 PUSH3 0x18C5 JUMP JUMPDEST SWAP2 POP POP PUSH3 0x1022 JUMP JUMPDEST POP SWAP6 SWAP5 POP POP POP POP POP JUMP JUMPDEST PUSH1 0x0 DUP3 PUSH1 0x0 ADD DUP3 DUP2 SLOAD DUP2 LT PUSH3 0x10BF JUMPI PUSH3 0x10BF PUSH3 0x190F JUMP JUMPDEST SWAP1 PUSH1 0x0 MSTORE PUSH1 0x20 PUSH1 0x0 KECCAK256 ADD SLOAD SWAP1 POP SWAP3 SWAP2 POP POP JUMP JUMPDEST PUSH1 0x0 DUP2 DUP2 MSTORE PUSH1 0x1 DUP4 ADD PUSH1 0x20 MSTORE PUSH1 0x40 DUP2 KECCAK256 SLOAD PUSH3 0x111B JUMPI POP DUP2 SLOAD PUSH1 0x1 DUP2 DUP2 ADD DUP5 SSTORE PUSH1 0x0 DUP5 DUP2 MSTORE PUSH1 0x20 DUP1 DUP3 KECCAK256 SWAP1 SWAP4 ADD DUP5 SWAP1 SSTORE DUP5 SLOAD DUP5 DUP3 MSTORE DUP3 DUP7 ADD SWAP1 SWAP4 MSTORE PUSH1 0x40 SWAP1 KECCAK256 SWAP2 SWAP1 SWAP2 SSTORE PUSH3 0x405 JUMP JUMPDEST POP PUSH1 0x0 PUSH3 0x405 JUMP JUMPDEST PUSH1 0x0 DUP2 DUP2 MSTORE PUSH1 0x1 DUP4 ADD PUSH1 0x20 MSTORE PUSH1 0x40 DUP2 KECCAK256 SLOAD DUP1 ISZERO PUSH3 0x121D JUMPI PUSH1 0x0 PUSH3 0x114B PUSH1 0x1 DUP4 PUSH3 0x183F JUMP JUMPDEST DUP6 SLOAD SWAP1 SWAP2 POP PUSH1 0x0 SWAP1 PUSH3 0x1161 SWAP1 PUSH1 0x1 SWAP1 PUSH3 0x183F JUMP JUMPDEST SWAP1 POP DUP2 DUP2 EQ PUSH3 0x11CD JUMPI PUSH1 0x0 DUP7 PUSH1 0x0 ADD DUP3 DUP2 SLOAD DUP2 LT PUSH3 0x1185 JUMPI PUSH3 0x1185 PUSH3 0x190F JUMP JUMPDEST SWAP1 PUSH1 0x0 MSTORE PUSH1 0x20 PUSH1 0x0 KECCAK256 ADD SLOAD SWAP1 POP DUP1 DUP8 PUSH1 0x0 ADD DUP5 DUP2 SLOAD DUP2 LT PUSH3 0x11AB JUMPI PUSH3 0x11AB PUSH3 0x190F JUMP JUMPDEST PUSH1 0x0 SWAP2 DUP3 MSTORE PUSH1 0x20 DUP1 DUP4 KECCAK256 SWAP1 SWAP2 ADD SWAP3 SWAP1 SWAP3 SSTORE SWAP2 DUP3 MSTORE PUSH1 0x1 DUP9 ADD SWAP1 MSTORE PUSH1 0x40 SWAP1 KECCAK256 DUP4 SWAP1 SSTORE JUMPDEST DUP6 SLOAD DUP7 SWAP1 DUP1 PUSH3 0x11E1 JUMPI PUSH3 0x11E1 PUSH3 0x18F9 JUMP JUMPDEST PUSH1 0x1 SWAP1 SUB DUP2 DUP2 SWAP1 PUSH1 0x0 MSTORE PUSH1 0x20 PUSH1 0x0 KECCAK256 ADD PUSH1 0x0 SWAP1 SSTORE SWAP1 SSTORE DUP6 PUSH1 0x1 ADD PUSH1 0x0 DUP7 DUP2 MSTORE PUSH1 0x20 ADD SWAP1 DUP2 MSTORE PUSH1 0x20 ADD PUSH1 0x0 KECCAK256 PUSH1 0x0 SWAP1 SSTORE PUSH1 0x1 SWAP4 POP POP POP POP PUSH3 0x405 JUMP JUMPDEST PUSH1 0x0 SWAP2 POP POP PUSH3 0x405 JUMP JUMPDEST PUSH1 0x40 MLOAD DUP1 PUSH1 0xA0 ADD PUSH1 0x40 MSTORE DUP1 PUSH1 0x0 DUP2 MSTORE PUSH1 0x20 ADD PUSH1 0x60 DUP2 MSTORE PUSH1 0x20 ADD PUSH1 0x0 DUP2 MSTORE PUSH1 0x20 ADD PUSH1 0x0 PUSH1 0x1 PUSH1 0x1 PUSH1 0xA0 SHL SUB AND DUP2 MSTORE PUSH1 0x20 ADD PUSH3 0x128D PUSH1 0x40 MLOAD DUP1 PUSH1 0xA0 ADD PUSH1 0x40 MSTORE DUP1 PUSH1 0x0 ISZERO ISZERO DUP2 MSTORE PUSH1 0x20 ADD PUSH1 0x0 DUP2 MSTORE PUSH1 0x20 ADD PUSH1 0x0 DUP2 MSTORE PUSH1 0x20 ADD PUSH1 0x60 DUP2 MSTORE PUSH1 0x20 ADD PUSH1 0x0 DUP2 MSTORE POP SWAP1 JUMP JUMPDEST SWAP1 MSTORE SWAP1 JUMP JUMPDEST DUP3 DUP1 SLOAD PUSH3 0x12A0 SWAP1 PUSH3 0x1888 JUMP JUMPDEST SWAP1 PUSH1 0x0 MSTORE PUSH1 0x20 PUSH1 0x0 KECCAK256 SWAP1 PUSH1 0x1F ADD PUSH1 0x20 SWAP1 DIV DUP2 ADD SWAP3 DUP3 PUSH3 0x12C4 JUMPI PUSH1 0x0 DUP6 SSTORE PUSH3 0x130F JUMP JUMPDEST DUP3 PUSH1 0x1F LT PUSH3 0x12DF JUMPI DUP1 MLOAD PUSH1 0xFF NOT AND DUP4 DUP1 ADD OR DUP6 SSTORE PUSH3 0x130F JUMP JUMPDEST DUP3 DUP1 ADD PUSH1 0x1 ADD DUP6 SSTORE DUP3 ISZERO PUSH3 0x130F JUMPI SWAP2 DUP3 ADD JUMPDEST DUP3 DUP2 GT ISZERO PUSH3 0x130F JUMPI DUP3 MLOAD DUP3 SSTORE SWAP2 PUSH1 0x20 ADD SWAP2 SWAP1 PUSH1 0x1 ADD SWAP1 PUSH3 0x12F2 JUMP JUMPDEST POP PUSH3 0x131D SWAP3 SWAP2 POP PUSH3 0x132F JUMP JUMPDEST POP SWAP1 JUMP JUMPDEST PUSH2 0x25AF DUP1 PUSH3 0x194B DUP4 CODECOPY ADD SWAP1 JUMP JUMPDEST JUMPDEST DUP1 DUP3 GT ISZERO PUSH3 0x131D JUMPI PUSH1 0x0 DUP2 SSTORE PUSH1 0x1 ADD PUSH3 0x1330 JUMP JUMPDEST DUP1 CALLDATALOAD PUSH1 0x1 PUSH1 0x1 PUSH1 0xA0 SHL SUB DUP2 AND DUP2 EQ PUSH3 0x135E JUMPI PUSH1 0x0 DUP1 REVERT JUMPDEST SWAP2 SWAP1 POP JUMP JUMPDEST PUSH1 0x0 DUP3 PUSH1 0x1F DUP4 ADD SLT PUSH3 0x1375 JUMPI PUSH1 0x0 DUP1 REVERT JUMPDEST DUP2 CALLDATALOAD PUSH8 0xFFFFFFFFFFFFFFFF DUP1 DUP3 GT ISZERO PUSH3 0x1393 JUMPI PUSH3 0x1393 PUSH3 0x1925 JUMP JUMPDEST PUSH1 0x40 MLOAD PUSH1 0x1F DUP4 ADD PUSH1 0x1F NOT SWAP1 DUP2 AND PUSH1 0x3F ADD AND DUP2 ADD SWAP1 DUP3 DUP3 GT DUP2 DUP4 LT OR ISZERO PUSH3 0x13BE JUMPI PUSH3 0x13BE PUSH3 0x1925 JUMP JUMPDEST DUP2 PUSH1 0x40 MSTORE DUP4 DUP2 MSTORE DUP7 PUSH1 0x20 DUP6 DUP9 ADD ADD GT ISZERO PUSH3 0x13D8 JUMPI PUSH1 0x0 DUP1 REVERT JUMPDEST DUP4 PUSH1 0x20 DUP8 ADD PUSH1 0x20 DUP4 ADD CALLDATACOPY PUSH1 0x0 PUSH1 0x20 DUP6 DUP4 ADD ADD MSTORE DUP1 SWAP5 POP POP POP POP POP SWAP3 SWAP2 POP POP JUMP JUMPDEST PUSH1 0x0 PUSH1 0x20 DUP3 DUP5 SUB SLT ISZERO PUSH3 0x140B JUMPI PUSH1 0x0 DUP1 REVERT JUMPDEST PUSH3 0x402 DUP3 PUSH3 0x1346 JUMP JUMPDEST PUSH1 0x0 DUP1 PUSH1 0x40 DUP4 DUP6 SUB SLT ISZERO PUSH3 0x142A JUMPI PUSH1 0x0 DUP1 REVERT JUMPDEST PUSH3 0x1435 DUP4 PUSH3 0x1346 JUMP JUMPDEST SWAP5 PUSH1 0x20 SWAP4 SWAP1 SWAP4 ADD CALLDATALOAD SWAP4 POP POP POP JUMP JUMPDEST PUSH1 0x0 PUSH1 0x20 DUP3 DUP5 SUB SLT ISZERO PUSH3 0x1456 JUMPI PUSH1 0x0 DUP1 REVERT JUMPDEST DUP2 MLOAD PUSH3 0x1463 DUP2 PUSH3 0x193B JUMP JUMPDEST SWAP4 SWAP3 POP POP POP JUMP JUMPDEST PUSH1 0x0 DUP1 PUSH1 0x40 DUP4 DUP6 SUB SLT ISZERO PUSH3 0x147E JUMPI PUSH1 0x0 DUP1 REVERT JUMPDEST DUP3 CALLDATALOAD PUSH8 0xFFFFFFFFFFFFFFFF DUP1 DUP3 GT ISZERO PUSH3 0x1497 JUMPI PUSH1 0x0 DUP1 REVERT JUMPDEST PUSH3 0x14A5 DUP7 DUP4 DUP8 ADD PUSH3 0x1363 JUMP JUMPDEST SWAP4 POP PUSH1 0x20 DUP6 ADD CALLDATALOAD SWAP2 POP DUP1 DUP3 GT ISZERO PUSH3 0x14BC JUMPI PUSH1 0x0 DUP1 REVERT JUMPDEST SWAP1 DUP5 ADD SWAP1 PUSH1 0xA0 DUP3 DUP8 SUB SLT ISZERO PUSH3 0x14D1 JUMPI PUSH1 0x0 DUP1 REVERT JUMPDEST PUSH3 0x14DB PUSH3 0x17F8 JUMP JUMPDEST DUP3 CALLDATALOAD PUSH3 0x14E8 DUP2 PUSH3 0x193B JUMP JUMPDEST DUP1 DUP3 MSTORE POP PUSH1 0x20 DUP4 ADD CALLDATALOAD PUSH1 0x20 DUP3 ADD MSTORE PUSH1 0x40 DUP4 ADD CALLDATALOAD PUSH1 0x40 DUP3 ADD MSTORE PUSH1 0x60 DUP4 ADD CALLDATALOAD DUP3 DUP2 GT ISZERO PUSH3 0x1513 JUMPI PUSH1 0x0 DUP1 REVERT JUMPDEST PUSH3 0x1521 DUP9 DUP3 DUP7 ADD PUSH3 0x1363 JUMP JUMPDEST PUSH1 0x60 DUP4 ADD MSTORE POP PUSH1 0x80 DUP4 ADD CALLDATALOAD PUSH1 0x80 DUP3 ADD MSTORE DUP1 SWAP4 POP POP POP POP SWAP3 POP SWAP3 SWAP1 POP JUMP JUMPDEST PUSH1 0x0 DUP1 PUSH1 0x40 DUP4 DUP6 SUB SLT ISZERO PUSH3 0x1552 JUMPI PUSH1 0x0 DUP1 REVERT JUMPDEST DUP3 CALLDATALOAD PUSH8 0xFFFFFFFFFFFFFFFF DUP2 GT ISZERO PUSH3 0x156A JUMPI PUSH1 0x0 DUP1 REVERT JUMPDEST PUSH3 0x1578 DUP6 DUP3 DUP7 ADD PUSH3 0x1363 JUMP JUMPDEST SWAP6 PUSH1 0x20 SWAP5 SWAP1 SWAP5 ADD CALLDATALOAD SWAP5 POP POP POP POP JUMP JUMPDEST PUSH1 0x0 PUSH1 0x20 DUP3 DUP5 SUB SLT ISZERO PUSH3 0x159A JUMPI PUSH1 0x0 DUP1 REVERT JUMPDEST POP CALLDATALOAD SWAP2 SWAP1 POP JUMP JUMPDEST PUSH1 0x0 DUP2 MLOAD DUP1 DUP5 MSTORE PUSH3 0x15BB DUP2 PUSH1 0x20 DUP7 ADD PUSH1 0x20 DUP7 ADD PUSH3 0x1859 JUMP JUMPDEST PUSH1 0x1F ADD PUSH1 0x1F NOT AND SWAP3 SWAP1 SWAP3 ADD PUSH1 0x20 ADD SWAP3 SWAP2 POP POP JUMP JUMPDEST DUP1 MLOAD ISZERO ISZERO DUP3 MSTORE PUSH1 0x20 DUP2 ADD MLOAD PUSH1 0x20 DUP4 ADD MSTORE PUSH1 0x40 DUP2 ADD MLOAD PUSH1 0x40 DUP4 ADD MSTORE PUSH1 0x0 PUSH1 0x60 DUP3 ADD MLOAD PUSH1 0xA0 PUSH1 0x60 DUP6 ADD MSTORE PUSH3 0x1606 PUSH1 0xA0 DUP6 ADD DUP3 PUSH3 0x15A1 JUMP JUMPDEST PUSH1 0x80 SWAP4 DUP5 ADD MLOAD SWAP5 SWAP1 SWAP4 ADD SWAP4 SWAP1 SWAP4 MSTORE POP SWAP2 SWAP1 POP JUMP JUMPDEST PUSH1 0x0 DUP3 MLOAD PUSH3 0x162E DUP2 DUP5 PUSH1 0x20 DUP8 ADD PUSH3 0x1859 JUMP JUMPDEST SWAP2 SWAP1 SWAP2 ADD SWAP3 SWAP2 POP POP JUMP JUMPDEST PUSH1 0x0 DUP1 DUP4 SLOAD DUP2 PUSH1 0x1 DUP3 DUP2 SHR SWAP2 POP DUP1 DUP4 AND DUP1 PUSH3 0x1655 JUMPI PUSH1 0x7F DUP4 AND SWAP3 POP JUMPDEST PUSH1 0x20 DUP1 DUP5 LT DUP3 EQ ISZERO PUSH3 0x1676 JUMPI PUSH4 0x4E487B71 PUSH1 0xE0 SHL DUP7 MSTORE PUSH1 0x22 PUSH1 0x4 MSTORE PUSH1 0x24 DUP7 REVERT JUMPDEST DUP2 DUP1 ISZERO PUSH3 0x168D JUMPI PUSH1 0x1 DUP2 EQ PUSH3 0x169F JUMPI PUSH3 0x16CE JUMP JUMPDEST PUSH1 0xFF NOT DUP7 AND DUP10 MSTORE DUP5 DUP10 ADD SWAP7 POP PUSH3 0x16CE JUMP JUMPDEST PUSH1 0x0 DUP11 DUP2 MSTORE PUSH1 0x20 SWAP1 KECCAK256 PUSH1 0x0 JUMPDEST DUP7 DUP2 LT ISZERO PUSH3 0x16C6 JUMPI DUP2 SLOAD DUP12 DUP3 ADD MSTORE SWAP1 DUP6 ADD SWAP1 DUP4 ADD PUSH3 0x16AB JUMP JUMPDEST POP POP DUP5 DUP10 ADD SWAP7 POP JUMPDEST POP SWAP5 SWAP9 SWAP8 POP POP POP POP POP POP POP POP JUMP JUMPDEST PUSH1 0x0 PUSH1 0x20 DUP1 DUP4 ADD DUP2 DUP5 MSTORE DUP1 DUP6 MLOAD DUP1 DUP4 MSTORE PUSH1 0x40 SWAP3 POP DUP3 DUP7 ADD SWAP2 POP DUP3 DUP2 PUSH1 0x5 SHL DUP8 ADD ADD DUP5 DUP9 ADD PUSH1 0x0 JUMPDEST DUP4 DUP2 LT ISZERO PUSH3 0x1784 JUMPI PUSH1 0x3F NOT DUP10 DUP5 SUB ADD DUP6 MSTORE DUP2 MLOAD PUSH1 0xA0 DUP2 MLOAD DUP6 MSTORE DUP9 DUP3 ADD MLOAD DUP2 DUP11 DUP8 ADD MSTORE PUSH3 0x1734 DUP3 DUP8 ADD DUP3 PUSH3 0x15A1 JUMP JUMPDEST DUP4 DUP11 ADD MLOAD DUP8 DUP12 ADD MSTORE PUSH1 0x60 DUP1 DUP6 ADD MLOAD PUSH1 0x1 PUSH1 0x1 PUSH1 0xA0 SHL SUB AND SWAP1 DUP9 ADD MSTORE PUSH1 0x80 SWAP4 DUP5 ADD MLOAD DUP8 DUP3 SUB SWAP5 DUP9 ADD SWAP5 SWAP1 SWAP5 MSTORE SWAP2 POP PUSH3 0x176F SWAP1 POP DUP2 DUP4 PUSH3 0x15CF JUMP JUMPDEST SWAP7 DUP10 ADD SWAP7 SWAP5 POP POP POP SWAP1 DUP7 ADD SWAP1 PUSH1 0x1 ADD PUSH3 0x1703 JUMP JUMPDEST POP SWAP1 SWAP9 SWAP8 POP POP POP POP POP POP POP POP JUMP JUMPDEST PUSH1 0x20 DUP2 MSTORE PUSH1 0x0 PUSH3 0x402 PUSH1 0x20 DUP4 ADD DUP5 PUSH3 0x15A1 JUMP JUMPDEST DUP6 DUP2 MSTORE PUSH1 0xA0 PUSH1 0x20 DUP3 ADD MSTORE PUSH1 0x0 PUSH3 0x17C2 PUSH1 0xA0 DUP4 ADD DUP8 PUSH3 0x15A1 JUMP JUMPDEST PUSH1 0x40 DUP4 ADD DUP7 SWAP1 MSTORE PUSH1 0x1 PUSH1 0x1 PUSH1 0xA0 SHL SUB DUP6 AND PUSH1 0x60 DUP5 ADD MSTORE DUP3 DUP2 SUB PUSH1 0x80 DUP5 ADD MSTORE PUSH3 0x17EC DUP2 DUP6 PUSH3 0x15CF JUMP JUMPDEST SWAP9 SWAP8 POP POP POP POP POP POP POP POP JUMP JUMPDEST PUSH1 0x40 MLOAD PUSH1 0xA0 DUP2 ADD PUSH8 0xFFFFFFFFFFFFFFFF DUP2 GT DUP3 DUP3 LT OR ISZERO PUSH3 0x181E JUMPI PUSH3 0x181E PUSH3 0x1925 JUMP JUMPDEST PUSH1 0x40 MSTORE SWAP1 JUMP JUMPDEST PUSH1 0x0 DUP3 NOT DUP3 GT ISZERO PUSH3 0x183A JUMPI PUSH3 0x183A PUSH3 0x18E3 JUMP JUMPDEST POP ADD SWAP1 JUMP JUMPDEST PUSH1 0x0 DUP3 DUP3 LT ISZERO PUSH3 0x1854 JUMPI PUSH3 0x1854 PUSH3 0x18E3 JUMP JUMPDEST POP SUB SWAP1 JUMP JUMPDEST PUSH1 0x0 JUMPDEST DUP4 DUP2 LT ISZERO PUSH3 0x1876 JUMPI DUP2 DUP2 ADD MLOAD DUP4 DUP3 ADD MSTORE PUSH1 0x20 ADD PUSH3 0x185C JUMP JUMPDEST DUP4 DUP2 GT ISZERO PUSH3 0xBEC JUMPI POP POP PUSH1 0x0 SWAP2 ADD MSTORE JUMP JUMPDEST PUSH1 0x1 DUP2 DUP2 SHR SWAP1 DUP3 AND DUP1 PUSH3 0x189D JUMPI PUSH1 0x7F DUP3 AND SWAP2 POP JUMPDEST PUSH1 0x20 DUP3 LT DUP2 EQ ISZERO PUSH3 0x18BF JUMPI PUSH4 0x4E487B71 PUSH1 0xE0 SHL PUSH1 0x0 MSTORE PUSH1 0x22 PUSH1 0x4 MSTORE PUSH1 0x24 PUSH1 0x0 REVERT JUMPDEST POP SWAP2 SWAP1 POP JUMP JUMPDEST PUSH1 0x0 PUSH1 0x0 NOT DUP3 EQ ISZERO PUSH3 0x18DC JUMPI PUSH3 0x18DC PUSH3 0x18E3 JUMP JUMPDEST POP PUSH1 0x1 ADD SWAP1 JUMP JUMPDEST PUSH4 0x4E487B71 PUSH1 0xE0 SHL PUSH1 0x0 MSTORE PUSH1 0x11 PUSH1 0x4 MSTORE PUSH1 0x24 PUSH1 0x0 REVERT JUMPDEST PUSH4 0x4E487B71 PUSH1 0xE0 SHL PUSH1 0x0 MSTORE PUSH1 0x31 PUSH1 0x4 MSTORE PUSH1 0x24 PUSH1 0x0 REVERT JUMPDEST PUSH4 0x4E487B71 PUSH1 0xE0 SHL PUSH1 0x0 MSTORE PUSH1 0x32 PUSH1 0x4 MSTORE PUSH1 0x24 PUSH1 0x0 REVERT JUMPDEST PUSH4 0x4E487B71 PUSH1 0xE0 SHL PUSH1 0x0 MSTORE PUSH1 0x41 PUSH1 0x4 MSTORE PUSH1 0x24 PUSH1 0x0 REVERT JUMPDEST DUP1 ISZERO ISZERO DUP2 EQ PUSH3 0xA98 JUMPI PUSH1 0x0 DUP1 REVERT INVALID PUSH1 0x80 PUSH1 0x40 MSTORE CALLVALUE DUP1 ISZERO PUSH3 0x11 JUMPI PUSH1 0x0 DUP1 REVERT JUMPDEST POP PUSH1 0x40 MLOAD PUSH3 0x25AF CODESIZE SUB DUP1 PUSH3 0x25AF DUP4 CODECOPY DUP2 ADD PUSH1 0x40 DUP2 SWAP1 MSTORE PUSH3 0x34 SWAP2 PUSH3 0x3FE JUMP JUMPDEST PUSH1 0x1 PUSH1 0x0 DUP2 SWAP1 SSTORE DUP6 SWAP1 SSTORE DUP4 MLOAD PUSH3 0x53 SWAP1 PUSH1 0x2 SWAP1 PUSH1 0x20 DUP8 ADD SWAP1 PUSH3 0x267 JUMP JUMPDEST POP PUSH1 0x3 DUP4 SWAP1 SSTORE PUSH1 0x6 DUP1 SLOAD PUSH1 0x1 PUSH1 0x1 PUSH1 0xA0 SHL SUB NOT AND PUSH1 0x1 PUSH1 0x1 PUSH1 0xA0 SHL SUB DUP5 AND SWAP1 DUP2 OR SWAP1 SWAP2 SSTORE PUSH1 0x40 DUP1 MLOAD PUSH4 0xC08D1FE5 PUSH1 0xE0 SHL DUP2 MSTORE SWAP1 MLOAD PUSH4 0xC08D1FE5 SWAP2 PUSH1 0x4 DUP1 DUP3 ADD SWAP3 PUSH1 0x20 SWAP3 SWAP1 SWAP2 SWAP1 DUP3 SWAP1 SUB ADD DUP2 DUP7 DUP1 EXTCODESIZE ISZERO DUP1 ISZERO PUSH3 0xAE JUMPI PUSH1 0x0 DUP1 REVERT JUMPDEST POP GAS STATICCALL ISZERO DUP1 ISZERO PUSH3 0xC3 JUMPI RETURNDATASIZE PUSH1 0x0 DUP1 RETURNDATACOPY RETURNDATASIZE PUSH1 0x0 REVERT JUMPDEST POP POP POP POP PUSH1 0x40 MLOAD RETURNDATASIZE PUSH1 0x1F NOT PUSH1 0x1F DUP3 ADD AND DUP3 ADD DUP1 PUSH1 0x40 MSTORE POP DUP2 ADD SWAP1 PUSH3 0xE9 SWAP2 SWAP1 PUSH3 0x3E4 JUMP JUMPDEST PUSH1 0x4 SWAP1 DUP2 SSTORE PUSH1 0x6 SLOAD PUSH1 0x40 DUP1 MLOAD PUSH4 0x4959D977 PUSH1 0xE0 SHL DUP2 MSTORE SWAP1 MLOAD PUSH1 0x1 PUSH1 0x1 PUSH1 0xA0 SHL SUB SWAP1 SWAP3 AND SWAP3 PUSH4 0x4959D977 SWAP3 DUP3 DUP3 ADD SWAP3 PUSH1 0x20 SWAP3 SWAP1 DUP3 SWAP1 SUB ADD DUP2 DUP7 DUP1 EXTCODESIZE ISZERO DUP1 ISZERO PUSH3 0x130 JUMPI PUSH1 0x0 DUP1 REVERT JUMPDEST POP GAS STATICCALL ISZERO DUP1 ISZERO PUSH3 0x145 JUMPI RETURNDATASIZE PUSH1 0x0 DUP1 RETURNDATACOPY RETURNDATASIZE PUSH1 0x0 REVERT JUMPDEST POP POP POP POP PUSH1 0x40 MLOAD RETURNDATASIZE PUSH1 0x1F NOT PUSH1 0x1F DUP3 ADD AND DUP3 ADD DUP1 PUSH1 0x40 MSTORE POP DUP2 ADD SWAP1 PUSH3 0x16B SWAP2 SWAP1 PUSH3 0x3E4 JUMP JUMPDEST PUSH1 0x5 SSTORE PUSH1 0x6 SLOAD PUSH1 0x40 DUP1 MLOAD PUSH4 0x1127A41D PUSH1 0xE3 SHL DUP2 MSTORE SWAP1 MLOAD PUSH1 0x1 PUSH1 0x1 PUSH1 0xA0 SHL SUB SWAP1 SWAP3 AND SWAP2 PUSH4 0x893D20E8 SWAP2 PUSH1 0x4 DUP1 DUP3 ADD SWAP3 PUSH1 0x20 SWAP3 SWAP1 SWAP2 SWAP1 DUP3 SWAP1 SUB ADD DUP2 DUP7 DUP1 EXTCODESIZE ISZERO DUP1 ISZERO PUSH3 0x1B4 JUMPI PUSH1 0x0 DUP1 REVERT JUMPDEST POP GAS STATICCALL ISZERO DUP1 ISZERO PUSH3 0x1C9 JUMPI RETURNDATASIZE PUSH1 0x0 DUP1 RETURNDATACOPY RETURNDATASIZE PUSH1 0x0 REVERT JUMPDEST POP POP POP POP PUSH1 0x40 MLOAD RETURNDATASIZE PUSH1 0x1F NOT PUSH1 0x1F DUP3 ADD AND DUP3 ADD DUP1 PUSH1 0x40 MSTORE POP DUP2 ADD SWAP1 PUSH3 0x1EF SWAP2 SWAP1 PUSH3 0x3BF JUMP JUMPDEST PUSH1 0x7 DUP1 SLOAD PUSH1 0x1 PUSH1 0x1 PUSH1 0xA0 SHL SUB NOT AND PUSH1 0x1 PUSH1 0x1 PUSH1 0xA0 SHL SUB SWAP3 SWAP1 SWAP3 AND SWAP2 SWAP1 SWAP2 OR SWAP1 SSTORE DUP1 MLOAD PUSH1 0x8 DUP1 SLOAD PUSH1 0xFF NOT AND SWAP2 ISZERO ISZERO SWAP2 SWAP1 SWAP2 OR DUP2 SSTORE PUSH1 0x20 DUP1 DUP4 ADD MLOAD PUSH1 0x9 SSTORE PUSH1 0x40 DUP4 ADD MLOAD PUSH1 0xA SSTORE PUSH1 0x60 DUP4 ADD MLOAD DUP1 MLOAD DUP5 SWAP4 SWAP3 PUSH3 0x24E SWAP3 PUSH1 0xB SWAP3 SWAP2 ADD SWAP1 PUSH3 0x267 JUMP JUMPDEST POP PUSH1 0x80 DUP3 ADD MLOAD DUP2 PUSH1 0x4 ADD SSTORE SWAP1 POP POP POP POP POP POP POP PUSH3 0x5AD JUMP JUMPDEST DUP3 DUP1 SLOAD PUSH3 0x275 SWAP1 PUSH3 0x55A JUMP JUMPDEST SWAP1 PUSH1 0x0 MSTORE PUSH1 0x20 PUSH1 0x0 KECCAK256 SWAP1 PUSH1 0x1F ADD PUSH1 0x20 SWAP1 DIV DUP2 ADD SWAP3 DUP3 PUSH3 0x299 JUMPI PUSH1 0x0 DUP6 SSTORE PUSH3 0x2E4 JUMP JUMPDEST DUP3 PUSH1 0x1F LT PUSH3 0x2B4 JUMPI DUP1 MLOAD PUSH1 0xFF NOT AND DUP4 DUP1 ADD OR DUP6 SSTORE PUSH3 0x2E4 JUMP JUMPDEST DUP3 DUP1 ADD PUSH1 0x1 ADD DUP6 SSTORE DUP3 ISZERO PUSH3 0x2E4 JUMPI SWAP2 DUP3 ADD JUMPDEST DUP3 DUP2 GT ISZERO PUSH3 0x2E4 JUMPI DUP3 MLOAD DUP3 SSTORE SWAP2 PUSH1 0x20 ADD SWAP2 SWAP1 PUSH1 0x1 ADD SWAP1 PUSH3 0x2C7 JUMP JUMPDEST POP PUSH3 0x2F2 SWAP3 SWAP2 POP PUSH3 0x2F6 JUMP JUMPDEST POP SWAP1 JUMP JUMPDEST JUMPDEST DUP1 DUP3 GT ISZERO PUSH3 0x2F2 JUMPI PUSH1 0x0 DUP2 SSTORE PUSH1 0x1 ADD PUSH3 0x2F7 JUMP JUMPDEST DUP1 MLOAD PUSH1 0x1 PUSH1 0x1 PUSH1 0xA0 SHL SUB DUP2 AND DUP2 EQ PUSH3 0x325 JUMPI PUSH1 0x0 DUP1 REVERT JUMPDEST SWAP2 SWAP1 POP JUMP JUMPDEST PUSH1 0x0 DUP3 PUSH1 0x1F DUP4 ADD SLT PUSH3 0x33C JUMPI PUSH1 0x0 DUP1 REVERT JUMPDEST DUP2 MLOAD PUSH1 0x1 PUSH1 0x1 PUSH1 0x40 SHL SUB DUP2 GT ISZERO PUSH3 0x358 JUMPI PUSH3 0x358 PUSH3 0x597 JUMP JUMPDEST PUSH1 0x20 PUSH3 0x36E PUSH1 0x1F DUP4 ADD PUSH1 0x1F NOT AND DUP3 ADD PUSH3 0x527 JUMP JUMPDEST DUP3 DUP2 MSTORE DUP6 DUP3 DUP5 DUP8 ADD ADD GT ISZERO PUSH3 0x383 JUMPI PUSH1 0x0 DUP1 REVERT JUMPDEST PUSH1 0x0 JUMPDEST DUP4 DUP2 LT ISZERO PUSH3 0x3A3 JUMPI DUP6 DUP2 ADD DUP4 ADD MLOAD DUP3 DUP3 ADD DUP5 ADD MSTORE DUP3 ADD PUSH3 0x386 JUMP JUMPDEST DUP4 DUP2 GT ISZERO PUSH3 0x3B5 JUMPI PUSH1 0x0 DUP4 DUP6 DUP5 ADD ADD MSTORE JUMPDEST POP SWAP6 SWAP5 POP POP POP POP POP JUMP JUMPDEST PUSH1 0x0 PUSH1 0x20 DUP3 DUP5 SUB SLT ISZERO PUSH3 0x3D2 JUMPI PUSH1 0x0 DUP1 REVERT JUMPDEST PUSH3 0x3DD DUP3 PUSH3 0x30D JUMP JUMPDEST SWAP4 SWAP3 POP POP POP JUMP JUMPDEST PUSH1 0x0 PUSH1 0x20 DUP3 DUP5 SUB SLT ISZERO PUSH3 0x3F7 JUMPI PUSH1 0x0 DUP1 REVERT JUMPDEST POP MLOAD SWAP2 SWAP1 POP JUMP JUMPDEST PUSH1 0x0 DUP1 PUSH1 0x0 DUP1 PUSH1 0x0 PUSH1 0xA0 DUP7 DUP9 SUB SLT ISZERO PUSH3 0x417 JUMPI PUSH1 0x0 DUP1 REVERT JUMPDEST DUP6 MLOAD PUSH1 0x20 DUP8 ADD MLOAD SWAP1 SWAP6 POP PUSH1 0x1 PUSH1 0x1 PUSH1 0x40 SHL SUB DUP1 DUP3 GT ISZERO PUSH3 0x437 JUMPI PUSH1 0x0 DUP1 REVERT JUMPDEST PUSH3 0x445 DUP10 DUP4 DUP11 ADD PUSH3 0x32A JUMP JUMPDEST SWAP6 POP PUSH1 0x40 DUP9 ADD MLOAD SWAP5 POP PUSH3 0x45C PUSH1 0x60 DUP10 ADD PUSH3 0x30D JUMP JUMPDEST SWAP4 POP PUSH1 0x80 DUP9 ADD MLOAD SWAP2 POP DUP1 DUP3 GT ISZERO PUSH3 0x473 JUMPI PUSH1 0x0 DUP1 REVERT JUMPDEST SWAP1 DUP8 ADD SWAP1 PUSH1 0xA0 DUP3 DUP11 SUB SLT ISZERO PUSH3 0x488 JUMPI PUSH1 0x0 DUP1 REVERT JUMPDEST PUSH3 0x492 PUSH3 0x4FC JUMP JUMPDEST DUP3 MLOAD DUP1 ISZERO ISZERO DUP2 EQ PUSH3 0x4A3 JUMPI PUSH1 0x0 DUP1 REVERT JUMPDEST DUP1 DUP3 MSTORE POP PUSH1 0x20 DUP4 ADD MLOAD PUSH1 0x20 DUP3 ADD MSTORE PUSH1 0x40 DUP4 ADD MLOAD PUSH1 0x40 DUP3 ADD MSTORE PUSH1 0x60 DUP4 ADD MLOAD DUP3 DUP2 GT ISZERO PUSH3 0x4CE JUMPI PUSH1 0x0 DUP1 REVERT JUMPDEST PUSH3 0x4DC DUP12 DUP3 DUP7 ADD PUSH3 0x32A JUMP JUMPDEST PUSH1 0x60 DUP4 ADD MSTORE POP PUSH1 0x80 DUP4 ADD MLOAD PUSH1 0x80 DUP3 ADD MSTORE DUP1 SWAP4 POP POP POP POP SWAP3 SWAP6 POP SWAP3 SWAP6 SWAP1 SWAP4 POP JUMP JUMPDEST PUSH1 0x40 MLOAD PUSH1 0xA0 DUP2 ADD PUSH1 0x1 PUSH1 0x1 PUSH1 0x40 SHL SUB DUP2 GT DUP3 DUP3 LT OR ISZERO PUSH3 0x521 JUMPI PUSH3 0x521 PUSH3 0x597 JUMP JUMPDEST PUSH1 0x40 MSTORE SWAP1 JUMP JUMPDEST PUSH1 0x40 MLOAD PUSH1 0x1F DUP3 ADD PUSH1 0x1F NOT AND DUP2 ADD PUSH1 0x1 PUSH1 0x1 PUSH1 0x40 SHL SUB DUP2 GT DUP3 DUP3 LT OR ISZERO PUSH3 0x552 JUMPI PUSH3 0x552 PUSH3 0x597 JUMP JUMPDEST PUSH1 0x40 MSTORE SWAP2 SWAP1 POP JUMP JUMPDEST PUSH1 0x1 DUP2 DUP2 SHR SWAP1 DUP3 AND DUP1 PUSH3 0x56F JUMPI PUSH1 0x7F DUP3 AND SWAP2 POP JUMPDEST PUSH1 0x20 DUP3 LT DUP2 EQ ISZERO PUSH3 0x591 JUMPI PUSH4 0x4E487B71 PUSH1 0xE0 SHL PUSH1 0x0 MSTORE PUSH1 0x22 PUSH1 0x4 MSTORE PUSH1 0x24 PUSH1 0x0 REVERT JUMPDEST POP SWAP2 SWAP1 POP JUMP JUMPDEST PUSH4 0x4E487B71 PUSH1 0xE0 SHL PUSH1 0x0 MSTORE PUSH1 0x41 PUSH1 0x4 MSTORE PUSH1 0x24 PUSH1 0x0 REVERT JUMPDEST PUSH2 0x1FF2 DUP1 PUSH3 0x5BD PUSH1 0x0 CODECOPY PUSH1 0x0 RETURN INVALID PUSH1 0x80 PUSH1 0x40 MSTORE PUSH1 0x4 CALLDATASIZE LT PUSH2 0xFE JUMPI PUSH1 0x0 CALLDATALOAD PUSH1 0xE0 SHR DUP1 PUSH4 0x78E97925 GT PUSH2 0x95 JUMPI DUP1 PUSH4 0xAF640D0F GT PUSH2 0x64 JUMPI DUP1 PUSH4 0xAF640D0F EQ PUSH2 0x2C3 JUMPI DUP1 PUSH4 0xC08D1FE5 EQ PUSH2 0x2D9 JUMPI DUP1 PUSH4 0xC29D72BC EQ PUSH2 0x2EF JUMPI DUP1 PUSH4 0xECB70FB7 EQ PUSH2 0x311 JUMPI DUP1 PUSH4 0xFBD53482 EQ PUSH2 0x342 JUMPI PUSH1 0x0 DUP1 REVERT JUMPDEST DUP1 PUSH4 0x78E97925 EQ PUSH2 0x202 JUMPI DUP1 PUSH4 0x7CE11861 EQ PUSH2 0x218 JUMPI DUP1 PUSH4 0x858DBF7D EQ PUSH2 0x220 JUMPI DUP1 PUSH4 0xAB632D4A EQ PUSH2 0x246 JUMPI PUSH1 0x0 DUP1 REVERT JUMPDEST DUP1 PUSH4 0x4D633A8F GT PUSH2 0xD1 JUMPI DUP1 PUSH4 0x4D633A8F EQ PUSH2 0x1A1 JUMPI DUP1 PUSH4 0x50ED9193 EQ PUSH2 0x1B6 JUMPI DUP1 PUSH4 0x63DF0EF7 EQ PUSH2 0x1BE JUMPI DUP1 PUSH4 0x699C8F33 EQ PUSH2 0x1DE JUMPI PUSH1 0x0 DUP1 REVERT JUMPDEST DUP1 PUSH4 0x6FDDE03 EQ PUSH2 0x103 JUMPI DUP1 PUSH4 0x45446D71 EQ PUSH2 0x12E JUMPI DUP1 PUSH4 0x48D37A58 EQ PUSH2 0x166 JUMPI DUP1 PUSH4 0x4959D977 EQ PUSH2 0x17D JUMPI JUMPDEST PUSH1 0x0 DUP1 REVERT JUMPDEST CALLVALUE DUP1 ISZERO PUSH2 0x10F JUMPI PUSH1 0x0 DUP1 REVERT JUMPDEST POP PUSH2 0x118 PUSH2 0x362 JUMP JUMPDEST PUSH1 0x40 MLOAD PUSH2 0x125 SWAP2 SWAP1 PUSH2 0x1D21 JUMP JUMPDEST PUSH1 0x40 MLOAD DUP1 SWAP2 SUB SWAP1 RETURN JUMPDEST CALLVALUE DUP1 ISZERO PUSH2 0x13A JUMPI PUSH1 0x0 DUP1 REVERT JUMPDEST POP PUSH1 0x7 SLOAD PUSH2 0x14E SWAP1 PUSH1 0x1 PUSH1 0x1 PUSH1 0xA0 SHL SUB AND DUP2 JUMP JUMPDEST PUSH1 0x40 MLOAD PUSH1 0x1 PUSH1 0x1 PUSH1 0xA0 SHL SUB SWAP1 SWAP2 AND DUP2 MSTORE PUSH1 0x20 ADD PUSH2 0x125 JUMP JUMPDEST CALLVALUE DUP1 ISZERO PUSH2 0x172 JUMPI PUSH1 0x0 DUP1 REVERT JUMPDEST POP PUSH2 0x17B PUSH2 0x3F0 JUMP JUMPDEST STOP JUMPDEST CALLVALUE DUP1 ISZERO PUSH2 0x189 JUMPI PUSH1 0x0 DUP1 REVERT JUMPDEST POP PUSH2 0x193 PUSH1 0x5 SLOAD DUP2 JUMP JUMPDEST PUSH1 0x40 MLOAD SWAP1 DUP2 MSTORE PUSH1 0x20 ADD PUSH2 0x125 JUMP JUMPDEST CALLVALUE DUP1 ISZERO PUSH2 0x1AD JUMPI PUSH1 0x0 DUP1 REVERT JUMPDEST POP PUSH2 0x17B PUSH2 0x577 JUMP JUMPDEST PUSH2 0x17B PUSH2 0x7FD JUMP JUMPDEST CALLVALUE DUP1 ISZERO PUSH2 0x1CA JUMPI PUSH1 0x0 DUP1 REVERT JUMPDEST POP PUSH1 0x6 SLOAD PUSH2 0x14E SWAP1 PUSH1 0x1 PUSH1 0x1 PUSH1 0xA0 SHL SUB AND DUP2 JUMP JUMPDEST CALLVALUE DUP1 ISZERO PUSH2 0x1EA JUMPI PUSH1 0x0 DUP1 REVERT JUMPDEST POP PUSH2 0x1F3 PUSH2 0x9F8 JUMP JUMPDEST PUSH1 0x40 MLOAD PUSH2 0x125 SWAP4 SWAP3 SWAP2 SWAP1 PUSH2 0x1D34 JUMP JUMPDEST CALLVALUE DUP1 ISZERO PUSH2 0x20E JUMPI PUSH1 0x0 DUP1 REVERT JUMPDEST POP PUSH2 0x193 PUSH1 0x3 SLOAD DUP2 JUMP JUMPDEST PUSH2 0x17B PUSH2 0xC8D JUMP JUMPDEST CALLVALUE DUP1 ISZERO PUSH2 0x22C JUMPI PUSH1 0x0 DUP1 REVERT JUMPDEST POP PUSH2 0x235 PUSH2 0xDC4 JUMP JUMPDEST PUSH1 0x40 MLOAD PUSH2 0x125 SWAP6 SWAP5 SWAP4 SWAP3 SWAP2 SWAP1 PUSH2 0x1CE8 JUMP JUMPDEST CALLVALUE DUP1 ISZERO PUSH2 0x252 JUMPI PUSH1 0x0 DUP1 REVERT JUMPDEST POP PUSH2 0x296 PUSH2 0x261 CALLDATASIZE PUSH1 0x4 PUSH2 0x1AF9 JUMP JUMPDEST PUSH1 0xF PUSH1 0x20 MSTORE PUSH1 0x0 SWAP1 DUP2 MSTORE PUSH1 0x40 SWAP1 KECCAK256 DUP1 SLOAD PUSH1 0x1 DUP3 ADD SLOAD PUSH1 0x2 DUP4 ADD SLOAD PUSH1 0x3 DUP5 ADD SLOAD PUSH1 0x4 DUP6 ADD SLOAD PUSH1 0x5 SWAP1 SWAP6 ADD SLOAD SWAP4 SWAP5 SWAP3 SWAP4 SWAP2 SWAP3 SWAP1 SWAP2 DUP7 JUMP JUMPDEST PUSH1 0x40 DUP1 MLOAD SWAP7 DUP8 MSTORE PUSH1 0x20 DUP8 ADD SWAP6 SWAP1 SWAP6 MSTORE SWAP4 DUP6 ADD SWAP3 SWAP1 SWAP3 MSTORE PUSH1 0x60 DUP5 ADD MSTORE PUSH1 0x80 DUP4 ADD MSTORE PUSH1 0xA0 DUP3 ADD MSTORE PUSH1 0xC0 ADD PUSH2 0x125 JUMP JUMPDEST CALLVALUE DUP1 ISZERO PUSH2 0x2CF JUMPI PUSH1 0x0 DUP1 REVERT JUMPDEST POP PUSH2 0x193 PUSH1 0x1 SLOAD DUP2 JUMP JUMPDEST CALLVALUE DUP1 ISZERO PUSH2 0x2E5 JUMPI PUSH1 0x0 DUP1 REVERT JUMPDEST POP PUSH2 0x193 PUSH1 0x4 SLOAD DUP2 JUMP JUMPDEST CALLVALUE DUP1 ISZERO PUSH2 0x2FB JUMPI PUSH1 0x0 DUP1 REVERT JUMPDEST POP PUSH2 0x304 PUSH2 0xE6F JUMP JUMPDEST PUSH1 0x40 MLOAD PUSH2 0x125 SWAP2 SWAP1 PUSH2 0x1C52 JUMP JUMPDEST CALLVALUE DUP1 ISZERO PUSH2 0x31D JUMPI PUSH1 0x0 DUP1 REVERT JUMPDEST POP PUSH1 0x7 SLOAD PUSH2 0x332 SWAP1 PUSH1 0x1 PUSH1 0xA0 SHL SWAP1 DIV PUSH1 0xFF AND DUP2 JUMP JUMPDEST PUSH1 0x40 MLOAD SWAP1 ISZERO ISZERO DUP2 MSTORE PUSH1 0x20 ADD PUSH2 0x125 JUMP JUMPDEST CALLVALUE DUP1 ISZERO PUSH2 0x34E JUMPI PUSH1 0x0 DUP1 REVERT JUMPDEST POP PUSH2 0x17B PUSH2 0x35D CALLDATASIZE PUSH1 0x4 PUSH2 0x1B14 JUMP JUMPDEST PUSH2 0x1165 JUMP JUMPDEST PUSH1 0x2 DUP1 SLOAD PUSH2 0x36F SWAP1 PUSH2 0x1EF9 JUMP JUMPDEST DUP1 PUSH1 0x1F ADD PUSH1 0x20 DUP1 SWAP2 DIV MUL PUSH1 0x20 ADD PUSH1 0x40 MLOAD SWAP1 DUP2 ADD PUSH1 0x40 MSTORE DUP1 SWAP3 SWAP2 SWAP1 DUP2 DUP2 MSTORE PUSH1 0x20 ADD DUP3 DUP1 SLOAD PUSH2 0x39B SWAP1 PUSH2 0x1EF9 JUMP JUMPDEST DUP1 ISZERO PUSH2 0x3E8 JUMPI DUP1 PUSH1 0x1F LT PUSH2 0x3BD JUMPI PUSH2 0x100 DUP1 DUP4 SLOAD DIV MUL DUP4 MSTORE SWAP2 PUSH1 0x20 ADD SWAP2 PUSH2 0x3E8 JUMP JUMPDEST DUP3 ADD SWAP2 SWAP1 PUSH1 0x0 MSTORE PUSH1 0x20 PUSH1 0x0 KECCAK256 SWAP1 JUMPDEST DUP2 SLOAD DUP2 MSTORE SWAP1 PUSH1 0x1 ADD SWAP1 PUSH1 0x20 ADD DUP1 DUP4 GT PUSH2 0x3CB JUMPI DUP3 SWAP1 SUB PUSH1 0x1F AND DUP3 ADD SWAP2 JUMPDEST POP POP POP POP POP DUP2 JUMP JUMPDEST TIMESTAMP PUSH1 0x4 SLOAD PUSH1 0x3 SLOAD PUSH2 0x401 SWAP2 SWAP1 PUSH2 0x1DD1 JUMP JUMPDEST LT PUSH1 0x40 MLOAD DUP1 PUSH1 0x40 ADD PUSH1 0x40 MSTORE DUP1 PUSH1 0x12 DUP2 MSTORE PUSH1 0x20 ADD PUSH18 0x544F55524E414D454E545F49535F4C495645 PUSH1 0x70 SHL DUP2 MSTORE POP SWAP1 PUSH2 0x454 JUMPI PUSH1 0x40 MLOAD PUSH3 0x461BCD PUSH1 0xE5 SHL DUP2 MSTORE PUSH1 0x4 ADD PUSH2 0x44B SWAP2 SWAP1 PUSH2 0x1D21 JUMP JUMPDEST PUSH1 0x40 MLOAD DUP1 SWAP2 SUB SWAP1 REVERT JUMPDEST POP PUSH1 0x6 SLOAD PUSH1 0x1 SLOAD PUSH1 0x40 MLOAD PUSH4 0xA62BB0B PUSH1 0xE2 SHL DUP2 MSTORE CALLER PUSH1 0x4 DUP3 ADD MSTORE PUSH1 0x24 DUP2 ADD SWAP2 SWAP1 SWAP2 MSTORE PUSH1 0x0 SWAP2 PUSH1 0x1 PUSH1 0x1 PUSH1 0xA0 SHL SUB AND SWAP1 PUSH4 0x298AEC2C SWAP1 PUSH1 0x44 ADD PUSH1 0x20 PUSH1 0x40 MLOAD DUP1 DUP4 SUB DUP2 DUP7 DUP1 EXTCODESIZE ISZERO DUP1 ISZERO PUSH2 0x4A4 JUMPI PUSH1 0x0 DUP1 REVERT JUMPDEST POP GAS STATICCALL ISZERO DUP1 ISZERO PUSH2 0x4B8 JUMPI RETURNDATASIZE PUSH1 0x0 DUP1 RETURNDATACOPY RETURNDATASIZE PUSH1 0x0 REVERT JUMPDEST POP POP POP POP PUSH1 0x40 MLOAD RETURNDATASIZE PUSH1 0x1F NOT PUSH1 0x1F DUP3 ADD AND DUP3 ADD DUP1 PUSH1 0x40 MSTORE POP DUP2 ADD SWAP1 PUSH2 0x4DC SWAP2 SWAP1 PUSH2 0x1B3E JUMP JUMPDEST SWAP1 POP DUP1 PUSH1 0x40 MLOAD DUP1 PUSH1 0x40 ADD PUSH1 0x40 MSTORE DUP1 PUSH1 0x11 DUP2 MSTORE PUSH1 0x20 ADD PUSH17 0x14131056515497D393D517D293D2539151 PUSH1 0x7A SHL DUP2 MSTORE POP SWAP1 PUSH2 0x527 JUMPI PUSH1 0x40 MLOAD PUSH3 0x461BCD PUSH1 0xE5 SHL DUP2 MSTORE PUSH1 0x4 ADD PUSH2 0x44B SWAP2 SWAP1 PUSH2 0x1D21 JUMP JUMPDEST POP CALLER PUSH1 0x0 SWAP1 DUP2 MSTORE PUSH1 0xF PUSH1 0x20 MSTORE PUSH1 0x40 SWAP1 KECCAK256 PUSH1 0x5 DUP2 ADD SLOAD ISZERO PUSH2 0x573 JUMPI PUSH1 0x0 PUSH1 0x5 DUP3 ADD DUP2 SWAP1 SSTORE PUSH1 0x40 MLOAD CALLER SWAP2 PUSH2 0x8FC SWAP2 DUP2 DUP2 DUP2 DUP2 DUP2 DUP9 DUP9 CALL SWAP4 POP POP POP POP ISZERO DUP1 ISZERO PUSH2 0x571 JUMPI RETURNDATASIZE PUSH1 0x0 DUP1 RETURNDATACOPY RETURNDATASIZE PUSH1 0x0 REVERT JUMPDEST POP JUMPDEST POP POP JUMP JUMPDEST PUSH1 0x7 SLOAD PUSH1 0x40 DUP1 MLOAD DUP1 DUP3 ADD SWAP1 SWAP2 MSTORE PUSH1 0x15 DUP2 MSTORE PUSH21 0x10D05313115497D393D517D055551213D492569151 PUSH1 0x5A SHL PUSH1 0x20 DUP3 ADD MSTORE SWAP1 PUSH1 0x1 PUSH1 0x1 PUSH1 0xA0 SHL SUB AND CALLER EQ PUSH2 0x5CF JUMPI PUSH1 0x40 MLOAD PUSH3 0x461BCD PUSH1 0xE5 SHL DUP2 MSTORE PUSH1 0x4 ADD PUSH2 0x44B SWAP2 SWAP1 PUSH2 0x1D21 JUMP JUMPDEST POP TIMESTAMP PUSH1 0x4 SLOAD PUSH1 0x3 SLOAD PUSH2 0x5E1 SWAP2 SWAP1 PUSH2 0x1DD1 JUMP JUMPDEST LT PUSH1 0x40 MLOAD DUP1 PUSH1 0x40 ADD PUSH1 0x40 MSTORE DUP1 PUSH1 0x12 DUP2 MSTORE PUSH1 0x20 ADD PUSH18 0x544F55524E414D454E545F49535F4C495645 PUSH1 0x70 SHL DUP2 MSTORE POP SWAP1 PUSH2 0x62B JUMPI PUSH1 0x40 MLOAD PUSH3 0x461BCD PUSH1 0xE5 SHL DUP2 MSTORE PUSH1 0x4 ADD PUSH2 0x44B SWAP2 SWAP1 PUSH2 0x1D21 JUMP JUMPDEST POP PUSH1 0x7 DUP1 SLOAD PUSH1 0xFF PUSH1 0xA0 SHL NOT AND PUSH1 0x1 PUSH1 0xA0 SHL OR SWAP1 SSTORE PUSH1 0x0 PUSH2 0x649 PUSH2 0xE6F JUMP JUMPDEST SWAP1 POP PUSH1 0x0 JUMPDEST PUSH2 0x658 PUSH1 0xD PUSH2 0x13F0 JUMP JUMPDEST DUP2 LT ISZERO PUSH2 0x573 JUMPI PUSH1 0x40 MLOAD DUP1 PUSH1 0xC0 ADD PUSH1 0x40 MSTORE DUP1 DUP3 PUSH1 0x1 PUSH2 0x677 SWAP2 SWAP1 PUSH2 0x1DD1 JUMP JUMPDEST DUP2 MSTORE PUSH1 0x20 ADD DUP4 DUP4 DUP2 MLOAD DUP2 LT PUSH2 0x68E JUMPI PUSH2 0x68E PUSH2 0x1F90 JUMP JUMPDEST PUSH1 0x20 MUL PUSH1 0x20 ADD ADD MLOAD PUSH1 0x40 ADD MLOAD DUP2 MSTORE PUSH1 0x20 ADD PUSH1 0xF PUSH1 0x0 DUP6 DUP6 DUP2 MLOAD DUP2 LT PUSH2 0x6B5 JUMPI PUSH2 0x6B5 PUSH2 0x1F90 JUMP JUMPDEST PUSH1 0x20 MUL PUSH1 0x20 ADD ADD MLOAD PUSH1 0x0 ADD MLOAD PUSH1 0x1 PUSH1 0x1 PUSH1 0xA0 SHL SUB AND PUSH1 0x1 PUSH1 0x1 PUSH1 0xA0 SHL SUB AND DUP2 MSTORE PUSH1 0x20 ADD SWAP1 DUP2 MSTORE PUSH1 0x20 ADD PUSH1 0x0 KECCAK256 PUSH1 0x2 ADD SLOAD DUP2 MSTORE PUSH1 0x20 ADD PUSH1 0xF PUSH1 0x0 DUP6 DUP6 DUP2 MLOAD DUP2 LT PUSH2 0x700 JUMPI PUSH2 0x700 PUSH2 0x1F90 JUMP JUMPDEST PUSH1 0x20 MUL PUSH1 0x20 ADD ADD MLOAD PUSH1 0x0 ADD MLOAD PUSH1 0x1 PUSH1 0x1 PUSH1 0xA0 SHL SUB AND PUSH1 0x1 PUSH1 0x1 PUSH1 0xA0 SHL SUB AND DUP2 MSTORE PUSH1 0x20 ADD SWAP1 DUP2 MSTORE PUSH1 0x20 ADD PUSH1 0x0 KECCAK256 PUSH1 0x3 ADD SLOAD DUP2 MSTORE PUSH1 0x20 ADD DUP4 DUP4 DUP2 MLOAD DUP2 LT PUSH2 0x747 JUMPI PUSH2 0x747 PUSH2 0x1F90 JUMP JUMPDEST PUSH1 0x20 MUL PUSH1 0x20 ADD ADD MLOAD PUSH1 0x60 ADD MLOAD DUP2 MSTORE PUSH1 0x20 ADD DUP4 DUP4 DUP2 MLOAD DUP2 LT PUSH2 0x76A JUMPI PUSH2 0x76A PUSH2 0x1F90 JUMP JUMPDEST PUSH1 0x20 MUL PUSH1 0x20 ADD ADD MLOAD PUSH1 0x60 ADD MLOAD DUP2 MSTORE POP PUSH1 0xF PUSH1 0x0 DUP5 DUP5 DUP2 MLOAD DUP2 LT PUSH2 0x78F JUMPI PUSH2 0x78F PUSH2 0x1F90 JUMP JUMPDEST PUSH1 0x20 SWAP1 DUP2 MUL SWAP2 SWAP1 SWAP2 ADD DUP2 ADD MLOAD MLOAD PUSH1 0x1 PUSH1 0x1 PUSH1 0xA0 SHL SUB AND DUP3 MSTORE DUP2 DUP2 ADD SWAP3 SWAP1 SWAP3 MSTORE PUSH1 0x40 SWAP1 DUP2 ADD PUSH1 0x0 KECCAK256 DUP4 MLOAD DUP2 SSTORE SWAP2 DUP4 ADD MLOAD PUSH1 0x1 DUP4 ADD SSTORE DUP3 ADD MLOAD PUSH1 0x2 DUP3 ADD SSTORE PUSH1 0x60 DUP3 ADD MLOAD PUSH1 0x3 DUP3 ADD SSTORE PUSH1 0x80 DUP3 ADD MLOAD PUSH1 0x4 DUP3 ADD SSTORE PUSH1 0xA0 SWAP1 SWAP2 ADD MLOAD PUSH1 0x5 SWAP1 SWAP2 ADD SSTORE DUP1 PUSH2 0x7F5 DUP2 PUSH2 0x1F54 JUMP JUMPDEST SWAP2 POP POP PUSH2 0x64E JUMP JUMPDEST TIMESTAMP PUSH1 0x4 SLOAD PUSH1 0x3 SLOAD PUSH2 0x80E SWAP2 SWAP1 PUSH2 0x1DD1 JUMP JUMPDEST GT PUSH1 0x40 MLOAD DUP1 PUSH1 0x40 ADD PUSH1 0x40 MSTORE DUP1 PUSH1 0x14 DUP2 MSTORE PUSH1 0x20 ADD PUSH20 0x1513D55493905351539517D21054D7D153911151 PUSH1 0x62 SHL DUP2 MSTORE POP SWAP1 PUSH2 0x85A JUMPI PUSH1 0x40 MLOAD PUSH3 0x461BCD PUSH1 0xE5 SHL DUP2 MSTORE PUSH1 0x4 ADD PUSH2 0x44B SWAP2 SWAP1 PUSH2 0x1D21 JUMP JUMPDEST POP PUSH1 0x6 SLOAD PUSH1 0x1 SLOAD PUSH1 0x40 MLOAD PUSH4 0xA62BB0B PUSH1 0xE2 SHL DUP2 MSTORE CALLER PUSH1 0x4 DUP3 ADD MSTORE PUSH1 0x24 DUP2 ADD SWAP2 SWAP1 SWAP2 MSTORE PUSH1 0x0 SWAP2 PUSH1 0x1 PUSH1 0x1 PUSH1 0xA0 SHL SUB AND SWAP1 PUSH4 0x298AEC2C SWAP1 PUSH1 0x44 ADD PUSH1 0x20 PUSH1 0x40 MLOAD DUP1 DUP4 SUB DUP2 DUP7 DUP1 EXTCODESIZE ISZERO DUP1 ISZERO PUSH2 0x8AA JUMPI PUSH1 0x0 DUP1 REVERT JUMPDEST POP GAS STATICCALL ISZERO DUP1 ISZERO PUSH2 0x8BE JUMPI RETURNDATASIZE PUSH1 0x0 DUP1 RETURNDATACOPY RETURNDATASIZE PUSH1 0x0 REVERT JUMPDEST POP POP POP POP PUSH1 0x40 MLOAD RETURNDATASIZE PUSH1 0x1F NOT PUSH1 0x1F DUP3 ADD AND DUP3 ADD DUP1 PUSH1 0x40 MSTORE POP DUP2 ADD SWAP1 PUSH2 0x8E2 SWAP2 SWAP1 PUSH2 0x1B3E JUMP JUMPDEST SWAP1 POP DUP1 PUSH1 0x40 MLOAD DUP1 PUSH1 0x40 ADD PUSH1 0x40 MSTORE DUP1 PUSH1 0x11 DUP2 MSTORE PUSH1 0x20 ADD PUSH17 0x14131056515497D393D517D293D2539151 PUSH1 0x7A SHL DUP2 MSTORE POP SWAP1 PUSH2 0x92D JUMPI PUSH1 0x40 MLOAD PUSH3 0x461BCD PUSH1 0xE5 SHL DUP2 MSTORE PUSH1 0x4 ADD PUSH2 0x44B SWAP2 SWAP1 PUSH2 0x1D21 JUMP JUMPDEST POP PUSH1 0x5 SLOAD CALLVALUE EQ PUSH1 0x40 MLOAD DUP1 PUSH1 0x40 ADD PUSH1 0x40 MSTORE DUP1 PUSH1 0x19 DUP2 MSTORE PUSH1 0x20 ADD PUSH25 0x1393D517D15393D551D217D195539114D7D41493D592511151 PUSH1 0x3A SHL DUP2 MSTORE POP SWAP1 PUSH2 0x983 JUMPI PUSH1 0x40 MLOAD PUSH3 0x461BCD PUSH1 0xE5 SHL DUP2 MSTORE PUSH1 0x4 ADD PUSH2 0x44B SWAP2 SWAP1 PUSH2 0x1D21 JUMP JUMPDEST POP CALLER PUSH1 0x0 SWAP1 DUP2 MSTORE PUSH1 0xF PUSH1 0x20 SWAP1 DUP2 MSTORE PUSH1 0x40 SWAP2 DUP3 SWAP1 KECCAK256 PUSH1 0x2 ADD SLOAD DUP3 MLOAD DUP1 DUP5 ADD SWAP1 SWAP4 MSTORE PUSH1 0xD DUP4 MSTORE PUSH13 0x1055151153541514D7D3115195 PUSH1 0x9A SHL SWAP2 DUP4 ADD SWAP2 SWAP1 SWAP2 MSTORE ISZERO PUSH2 0x9DD JUMPI PUSH1 0x40 MLOAD PUSH3 0x461BCD PUSH1 0xE5 SHL DUP2 MSTORE PUSH1 0x4 ADD PUSH2 0x44B SWAP2 SWAP1 PUSH2 0x1D21 JUMP JUMPDEST POP POP CALLER PUSH1 0x0 SWAP1 DUP2 MSTORE PUSH1 0xF PUSH1 0x20 MSTORE PUSH1 0x40 SWAP1 KECCAK256 PUSH1 0x3 PUSH1 0x2 SWAP1 SWAP2 ADD SSTORE JUMP JUMPDEST PUSH2 0xA2C PUSH1 0x40 MLOAD DUP1 PUSH1 0xA0 ADD PUSH1 0x40 MSTORE DUP1 PUSH1 0x0 ISZERO ISZERO DUP2 MSTORE PUSH1 0x20 ADD PUSH1 0x0 DUP2 MSTORE PUSH1 0x20 ADD PUSH1 0x0 DUP2 MSTORE PUSH1 0x20 ADD PUSH1 0x60 DUP2 MSTORE PUSH1 0x20 ADD PUSH1 0x0 DUP2 MSTORE POP SWAP1 JUMP JUMPDEST PUSH1 0x40 DUP1 MLOAD PUSH1 0xA0 DUP2 ADD SWAP1 SWAP2 MSTORE PUSH1 0x8 SLOAD PUSH1 0xFF AND DUP1 ISZERO ISZERO DUP3 MSTORE PUSH1 0x0 SWAP2 DUP3 SWAP2 PUSH1 0x20 DUP3 ADD SWAP1 PUSH2 0xA9C JUMPI PUSH2 0xA76 PUSH1 0x8 PUSH1 0x4 ADD SLOAD PUSH1 0x5 SLOAD PUSH2 0xA66 PUSH1 0xD PUSH2 0x13F0 JUMP JUMPDEST PUSH2 0xA70 SWAP2 SWAP1 PUSH2 0x1E2B JUMP JUMPDEST SWAP1 PUSH2 0x1400 JUMP JUMPDEST PUSH1 0x5 SLOAD PUSH2 0xA83 PUSH1 0xD PUSH2 0x13F0 JUMP JUMPDEST PUSH2 0xA8D SWAP2 SWAP1 PUSH2 0x1E2B JUMP JUMPDEST PUSH2 0xA97 SWAP2 SWAP1 PUSH2 0x1E89 JUMP JUMPDEST PUSH2 0xAA0 JUMP JUMPDEST PUSH1 0x9 SLOAD JUMPDEST DUP2 MSTORE PUSH1 0x20 ADD PUSH2 0xBD6 PUSH2 0xB3A PUSH1 0x6 PUSH1 0x0 SWAP1 SLOAD SWAP1 PUSH2 0x100 EXP SWAP1 DIV PUSH1 0x1 PUSH1 0x1 PUSH1 0xA0 SHL SUB AND PUSH1 0x1 PUSH1 0x1 PUSH1 0xA0 SHL SUB AND PUSH3 0x5A0E3D PUSH1 0x40 MLOAD DUP2 PUSH4 0xFFFFFFFF AND PUSH1 0xE0 SHL DUP2 MSTORE PUSH1 0x4 ADD PUSH1 0x20 PUSH1 0x40 MLOAD DUP1 DUP4 SUB DUP2 DUP7 DUP1 EXTCODESIZE ISZERO DUP1 ISZERO PUSH2 0xAF8 JUMPI PUSH1 0x0 DUP1 REVERT JUMPDEST POP GAS STATICCALL ISZERO DUP1 ISZERO PUSH2 0xB0C JUMPI RETURNDATASIZE PUSH1 0x0 DUP1 RETURNDATACOPY RETURNDATASIZE PUSH1 0x0 REVERT JUMPDEST POP POP POP POP PUSH1 0x40 MLOAD RETURNDATASIZE PUSH1 0x1F NOT PUSH1 0x1F DUP3 ADD AND DUP3 ADD DUP1 PUSH1 0x40 MSTORE POP DUP2 ADD SWAP1 PUSH2 0xB30 SWAP2 SWAP1 PUSH2 0x1C0D JUMP JUMPDEST PUSH2 0xA70 PUSH1 0xD PUSH2 0x13F0 JUMP JUMPDEST PUSH1 0x8 SLOAD PUSH1 0xFF AND PUSH2 0xBCE JUMPI PUSH1 0x6 SLOAD PUSH1 0x40 DUP1 MLOAD PUSH3 0x5A0E3D PUSH1 0xE0 SHL DUP2 MSTORE SWAP1 MLOAD PUSH1 0xA SWAP3 PUSH1 0x1 PUSH1 0x1 PUSH1 0xA0 SHL SUB AND SWAP2 PUSH3 0x5A0E3D SWAP2 PUSH1 0x4 DUP1 DUP4 ADD SWAP3 PUSH1 0x20 SWAP3 SWAP2 SWAP1 DUP3 SWAP1 SUB ADD DUP2 DUP7 DUP1 EXTCODESIZE ISZERO DUP1 ISZERO PUSH2 0xB87 JUMPI PUSH1 0x0 DUP1 REVERT JUMPDEST POP GAS STATICCALL ISZERO DUP1 ISZERO PUSH2 0xB9B JUMPI RETURNDATASIZE PUSH1 0x0 DUP1 RETURNDATACOPY RETURNDATASIZE PUSH1 0x0 REVERT JUMPDEST POP POP POP POP PUSH1 0x40 MLOAD RETURNDATASIZE PUSH1 0x1F NOT PUSH1 0x1F DUP3 ADD AND DUP3 ADD DUP1 PUSH1 0x40 MSTORE POP DUP2 ADD SWAP1 PUSH2 0xBBF SWAP2 SWAP1 PUSH2 0x1C0D JUMP JUMPDEST PUSH2 0xBC9 SWAP2 SWAP1 PUSH2 0x1E17 JUMP JUMPDEST PUSH2 0x14C9 JUMP JUMPDEST PUSH1 0xA SLOAD PUSH2 0x14C9 JUMP JUMPDEST DUP2 MSTORE PUSH1 0x20 ADD PUSH1 0x8 PUSH1 0x3 ADD DUP1 SLOAD PUSH2 0xBEB SWAP1 PUSH2 0x1EF9 JUMP JUMPDEST DUP1 PUSH1 0x1F ADD PUSH1 0x20 DUP1 SWAP2 DIV MUL PUSH1 0x20 ADD PUSH1 0x40 MLOAD SWAP1 DUP2 ADD PUSH1 0x40 MSTORE DUP1 SWAP3 SWAP2 SWAP1 DUP2 DUP2 MSTORE PUSH1 0x20 ADD DUP3 DUP1 SLOAD PUSH2 0xC17 SWAP1 PUSH2 0x1EF9 JUMP JUMPDEST DUP1 ISZERO PUSH2 0xC64 JUMPI DUP1 PUSH1 0x1F LT PUSH2 0xC39 JUMPI PUSH2 0x100 DUP1 DUP4 SLOAD DIV MUL DUP4 MSTORE SWAP2 PUSH1 0x20 ADD SWAP2 PUSH2 0xC64 JUMP JUMPDEST DUP3 ADD SWAP2 SWAP1 PUSH1 0x0 MSTORE PUSH1 0x20 PUSH1 0x0 KECCAK256 SWAP1 JUMPDEST DUP2 SLOAD DUP2 MSTORE SWAP1 PUSH1 0x1 ADD SWAP1 PUSH1 0x20 ADD DUP1 DUP4 GT PUSH2 0xC47 JUMPI DUP3 SWAP1 SUB PUSH1 0x1F AND DUP3 ADD SWAP2 JUMPDEST POP POP POP SWAP2 DUP4 MSTORE POP POP PUSH1 0xC SLOAD PUSH1 0x20 SWAP1 SWAP2 ADD MSTORE PUSH1 0x5 SLOAD PUSH2 0xC82 PUSH1 0xD PUSH2 0x13F0 JUMP JUMPDEST SWAP3 POP SWAP3 POP SWAP3 POP SWAP1 SWAP2 SWAP3 JUMP JUMPDEST TIMESTAMP PUSH1 0x4 SLOAD PUSH1 0x3 SLOAD PUSH2 0xC9E SWAP2 SWAP1 PUSH2 0x1DD1 JUMP JUMPDEST GT PUSH1 0x40 MLOAD DUP1 PUSH1 0x40 ADD PUSH1 0x40 MSTORE DUP1 PUSH1 0x14 DUP2 MSTORE PUSH1 0x20 ADD PUSH20 0x1513D55493905351539517D21054D7D153911151 PUSH1 0x62 SHL DUP2 MSTORE POP SWAP1 PUSH2 0xCEA JUMPI PUSH1 0x40 MLOAD PUSH3 0x461BCD PUSH1 0xE5 SHL DUP2 MSTORE PUSH1 0x4 ADD PUSH2 0x44B SWAP2 SWAP1 PUSH2 0x1D21 JUMP JUMPDEST POP PUSH1 0x5 SLOAD CALLVALUE EQ PUSH1 0x40 MLOAD DUP1 PUSH1 0x40 ADD PUSH1 0x40 MSTORE DUP1 PUSH1 0x19 DUP2 MSTORE PUSH1 0x20 ADD PUSH25 0x1393D517D15393D551D217D195539114D7D41493D592511151 PUSH1 0x3A SHL DUP2 MSTORE POP SWAP1 PUSH2 0xD40 JUMPI PUSH1 0x40 MLOAD PUSH3 0x461BCD PUSH1 0xE5 SHL DUP2 MSTORE PUSH1 0x4 ADD PUSH2 0x44B SWAP2 SWAP1 PUSH2 0x1D21 JUMP JUMPDEST POP PUSH2 0xD4C PUSH1 0xD CALLER PUSH2 0x14E1 JUMP JUMPDEST POP CALLER PUSH1 0x0 DUP2 DUP2 MSTORE PUSH1 0xF PUSH1 0x20 MSTORE PUSH1 0x40 SWAP1 DUP2 SWAP1 KECCAK256 PUSH1 0x3 PUSH1 0x2 SWAP1 SWAP2 ADD SSTORE PUSH1 0x6 SLOAD SWAP1 MLOAD PUSH4 0x15A4C083 PUSH1 0xE3 SHL DUP2 MSTORE PUSH1 0x4 DUP2 ADD SWAP3 SWAP1 SWAP3 MSTORE PUSH1 0x1 PUSH1 0x1 PUSH1 0xA0 SHL SUB AND SWAP1 PUSH4 0xAD260418 SWAP1 PUSH1 0x24 ADD PUSH1 0x0 PUSH1 0x40 MLOAD DUP1 DUP4 SUB DUP2 PUSH1 0x0 DUP8 DUP1 EXTCODESIZE ISZERO DUP1 ISZERO PUSH2 0xDAA JUMPI PUSH1 0x0 DUP1 REVERT JUMPDEST POP GAS CALL ISZERO DUP1 ISZERO PUSH2 0xDBE JUMPI RETURNDATASIZE PUSH1 0x0 DUP1 RETURNDATACOPY RETURNDATASIZE PUSH1 0x0 REVERT JUMPDEST POP POP POP POP JUMP JUMPDEST PUSH1 0x8 DUP1 SLOAD PUSH1 0x9 SLOAD PUSH1 0xA SLOAD PUSH1 0xB DUP1 SLOAD PUSH1 0xFF SWAP1 SWAP5 AND SWAP5 SWAP3 SWAP4 SWAP2 SWAP3 SWAP2 PUSH2 0xDE6 SWAP1 PUSH2 0x1EF9 JUMP JUMPDEST DUP1 PUSH1 0x1F ADD PUSH1 0x20 DUP1 SWAP2 DIV MUL PUSH1 0x20 ADD PUSH1 0x40 MLOAD SWAP1 DUP2 ADD PUSH1 0x40 MSTORE DUP1 SWAP3 SWAP2 SWAP1 DUP2 DUP2 MSTORE PUSH1 0x20 ADD DUP3 DUP1 SLOAD PUSH2 0xE12 SWAP1 PUSH2 0x1EF9 JUMP JUMPDEST DUP1 ISZERO PUSH2 0xE5F JUMPI DUP1 PUSH1 0x1F LT PUSH2 0xE34 JUMPI PUSH2 0x100 DUP1 DUP4 SLOAD DIV MUL DUP4 MSTORE SWAP2 PUSH1 0x20 ADD SWAP2 PUSH2 0xE5F JUMP JUMPDEST DUP3 ADD SWAP2 SWAP1 PUSH1 0x0 MSTORE PUSH1 0x20 PUSH1 0x0 KECCAK256 SWAP1 JUMPDEST DUP2 SLOAD DUP2 MSTORE SWAP1 PUSH1 0x1 ADD SWAP1 PUSH1 0x20 ADD DUP1 DUP4 GT PUSH2 0xE42 JUMPI DUP3 SWAP1 SUB PUSH1 0x1F AND DUP3 ADD SWAP2 JUMPDEST POP POP POP POP POP SWAP1 DUP1 PUSH1 0x4 ADD SLOAD SWAP1 POP DUP6 JUMP JUMPDEST PUSH1 0x60 PUSH1 0x0 PUSH2 0xE7D PUSH1 0xD PUSH2 0x13F0 JUMP JUMPDEST PUSH8 0xFFFFFFFFFFFFFFFF DUP2 GT ISZERO PUSH2 0xE95 JUMPI PUSH2 0xE95 PUSH2 0x1FA6 JUMP JUMPDEST PUSH1 0x40 MLOAD SWAP1 DUP1 DUP3 MSTORE DUP1 PUSH1 0x20 MUL PUSH1 0x20 ADD DUP3 ADD PUSH1 0x40 MSTORE DUP1 ISZERO PUSH2 0xEFA JUMPI DUP2 PUSH1 0x20 ADD JUMPDEST PUSH2 0xEE7 PUSH1 0x40 MLOAD DUP1 PUSH1 0x80 ADD PUSH1 0x40 MSTORE DUP1 PUSH1 0x0 PUSH1 0x1 PUSH1 0x1 PUSH1 0xA0 SHL SUB AND DUP2 MSTORE PUSH1 0x20 ADD PUSH1 0x60 DUP2 MSTORE PUSH1 0x20 ADD PUSH1 0x0 DUP2 MSTORE PUSH1 0x20 ADD PUSH1 0x0 DUP2 MSTORE POP SWAP1 JUMP JUMPDEST DUP2 MSTORE PUSH1 0x20 ADD SWAP1 PUSH1 0x1 SWAP1 SUB SWAP1 DUP2 PUSH2 0xEB3 JUMPI SWAP1 POP JUMPDEST POP SWAP1 POP PUSH2 0xF07 PUSH1 0xD PUSH2 0x13F0 JUMP JUMPDEST PUSH2 0xF10 JUMPI SWAP2 SWAP1 POP JUMP JUMPDEST PUSH1 0x0 JUMPDEST PUSH2 0xF1D PUSH1 0xD PUSH2 0x13F0 JUMP JUMPDEST DUP2 LT ISZERO PUSH2 0x104F JUMPI PUSH1 0x40 DUP1 MLOAD PUSH1 0x80 DUP2 ADD SWAP1 SWAP2 MSTORE DUP1 PUSH2 0xF3B PUSH1 0xD DUP5 PUSH2 0x14F6 JUMP JUMPDEST PUSH1 0x1 PUSH1 0x1 PUSH1 0xA0 SHL SUB SWAP1 DUP2 AND DUP3 MSTORE PUSH1 0x6 SLOAD PUSH1 0x20 SWAP1 SWAP3 ADD SWAP2 AND PUSH4 0xD84F55EE PUSH2 0xF62 PUSH1 0xD DUP7 PUSH2 0x14F6 JUMP JUMPDEST PUSH1 0x40 MLOAD PUSH1 0x1 PUSH1 0x1 PUSH1 0xE0 SHL SUB NOT PUSH1 0xE0 DUP5 SWAP1 SHL AND DUP2 MSTORE PUSH1 0x1 PUSH1 0x1 PUSH1 0xA0 SHL SUB SWAP1 SWAP2 AND PUSH1 0x4 DUP3 ADD MSTORE PUSH1 0x24 ADD PUSH1 0x0 PUSH1 0x40 MLOAD DUP1 DUP4 SUB DUP2 DUP7 DUP1 EXTCODESIZE ISZERO DUP1 ISZERO PUSH2 0xFA1 JUMPI PUSH1 0x0 DUP1 REVERT JUMPDEST POP GAS STATICCALL ISZERO DUP1 ISZERO PUSH2 0xFB5 JUMPI RETURNDATASIZE PUSH1 0x0 DUP1 RETURNDATACOPY RETURNDATASIZE PUSH1 0x0 REVERT JUMPDEST POP POP POP POP PUSH1 0x40 MLOAD RETURNDATASIZE PUSH1 0x0 DUP3 RETURNDATACOPY PUSH1 0x1F RETURNDATASIZE SWAP1 DUP2 ADD PUSH1 0x1F NOT AND DUP3 ADD PUSH1 0x40 MSTORE PUSH2 0xFDD SWAP2 SWAP1 DUP2 ADD SWAP1 PUSH2 0x1B60 JUMP JUMPDEST DUP2 MSTORE PUSH1 0x20 ADD PUSH1 0xF PUSH1 0x0 PUSH2 0xFF1 PUSH1 0xD DUP7 PUSH2 0x14F6 JUMP JUMPDEST PUSH1 0x1 PUSH1 0x1 PUSH1 0xA0 SHL SUB AND PUSH1 0x1 PUSH1 0x1 PUSH1 0xA0 SHL SUB AND DUP2 MSTORE PUSH1 0x20 ADD SWAP1 DUP2 MSTORE PUSH1 0x20 ADD PUSH1 0x0 KECCAK256 PUSH1 0x1 ADD SLOAD DUP2 MSTORE PUSH1 0x20 ADD PUSH1 0x0 DUP2 MSTORE POP DUP3 DUP3 DUP2 MLOAD DUP2 LT PUSH2 0x1031 JUMPI PUSH2 0x1031 PUSH2 0x1F90 JUMP JUMPDEST PUSH1 0x20 MUL PUSH1 0x20 ADD ADD DUP2 SWAP1 MSTORE POP DUP1 DUP1 PUSH2 0x1047 SWAP1 PUSH2 0x1F54 JUMP JUMPDEST SWAP2 POP POP PUSH2 0xF13 JUMP JUMPDEST POP PUSH2 0x1071 DUP2 PUSH1 0x0 PUSH1 0x1 PUSH2 0x1062 PUSH1 0xD PUSH2 0x13F0 JUMP JUMPDEST PUSH2 0x106C SWAP2 SWAP1 PUSH2 0x1E89 JUMP JUMPDEST PUSH2 0x1502 JUMP JUMPDEST SWAP1 POP PUSH1 0x0 PUSH2 0x107D PUSH2 0x9F8 JUMP JUMPDEST POP POP SWAP1 POP PUSH1 0x0 PUSH2 0x1095 PUSH2 0x1090 PUSH1 0xD PUSH2 0x13F0 JUMP JUMPDEST PUSH2 0x16A1 JUMP JUMPDEST SWAP1 POP PUSH1 0x0 PUSH2 0x10E3 PUSH8 0xDE0B6B3A7640000 PUSH2 0x10B3 DUP5 DUP7 PUSH1 0x40 ADD MLOAD PUSH2 0x1882 JUMP JUMPDEST PUSH2 0x10BD SWAP2 SWAP1 PUSH2 0x1E89 JUMP JUMPDEST PUSH2 0x10DD PUSH2 0x10D2 PUSH8 0xDE0B6B3A7640000 DUP7 PUSH2 0x1E89 JUMP JUMPDEST PUSH1 0x20 DUP8 ADD MLOAD SWAP1 PUSH2 0x18B5 JUMP JUMPDEST SWAP1 PUSH2 0x1965 JUMP JUMPDEST SWAP1 POP PUSH1 0x0 JUMPDEST PUSH2 0x10F2 PUSH1 0xD PUSH2 0x13F0 JUMP JUMPDEST DUP2 LT ISZERO PUSH2 0x115B JUMPI PUSH2 0x1128 PUSH2 0x1121 DUP5 PUSH1 0x1 DUP5 DUP9 PUSH1 0x40 ADD MLOAD PUSH2 0x1112 SWAP2 SWAP1 PUSH2 0x1E89 JUMP JUMPDEST PUSH2 0x111C SWAP2 SWAP1 PUSH2 0x1E89 JUMP JUMPDEST PUSH2 0x1882 JUMP JUMPDEST DUP4 SWAP1 PUSH2 0x18B5 JUMP JUMPDEST DUP6 DUP3 DUP2 MLOAD DUP2 LT PUSH2 0x113A JUMPI PUSH2 0x113A PUSH2 0x1F90 JUMP JUMPDEST PUSH1 0x20 SWAP1 DUP2 MUL SWAP2 SWAP1 SWAP2 ADD ADD MLOAD PUSH1 0x60 ADD MSTORE DUP1 PUSH2 0x1153 DUP2 PUSH2 0x1F54 JUMP JUMPDEST SWAP2 POP POP PUSH2 0x10E8 JUMP JUMPDEST POP SWAP3 SWAP5 SWAP4 POP POP POP POP JUMP JUMPDEST PUSH1 0x7 SLOAD PUSH1 0x40 DUP1 MLOAD DUP1 DUP3 ADD SWAP1 SWAP2 MSTORE PUSH1 0x15 DUP2 MSTORE PUSH21 0x10D05313115497D393D517D055551213D492569151 PUSH1 0x5A SHL PUSH1 0x20 DUP3 ADD MSTORE SWAP1 PUSH1 0x1 PUSH1 0x1 PUSH1 0xA0 SHL SUB AND CALLER EQ PUSH2 0x11BD JUMPI PUSH1 0x40 MLOAD PUSH3 0x461BCD PUSH1 0xE5 SHL DUP2 MSTORE PUSH1 0x4 ADD PUSH2 0x44B SWAP2 SWAP1 PUSH2 0x1D21 JUMP JUMPDEST POP TIMESTAMP PUSH1 0x4 SLOAD PUSH1 0x3 SLOAD PUSH2 0x11CF SWAP2 SWAP1 PUSH2 0x1DD1 JUMP JUMPDEST GT PUSH1 0x40 MLOAD DUP1 PUSH1 0x40 ADD PUSH1 0x40 MSTORE DUP1 PUSH1 0x14 DUP2 MSTORE PUSH1 0x20 ADD PUSH20 0x1513D55493905351539517D21054D7D153911151 PUSH1 0x62 SHL DUP2 MSTORE POP SWAP1 PUSH2 0x121B JUMPI PUSH1 0x40 MLOAD PUSH3 0x461BCD PUSH1 0xE5 SHL DUP2 MSTORE PUSH1 0x4 ADD PUSH2 0x44B SWAP2 SWAP1 PUSH2 0x1D21 JUMP JUMPDEST POP PUSH1 0x6 SLOAD PUSH1 0x1 SLOAD PUSH1 0x40 MLOAD PUSH4 0xA62BB0B PUSH1 0xE2 SHL DUP2 MSTORE PUSH1 0x0 SWAP3 PUSH1 0x1 PUSH1 0x1 PUSH1 0xA0 SHL SUB AND SWAP2 PUSH4 0x298AEC2C SWAP2 PUSH2 0x1264 SWAP2 DUP8 SWAP2 PUSH1 0x4 ADD PUSH1 0x1 PUSH1 0x1 PUSH1 0xA0 SHL SUB SWAP3 SWAP1 SWAP3 AND DUP3 MSTORE PUSH1 0x20 DUP3 ADD MSTORE PUSH1 0x40 ADD SWAP1 JUMP JUMPDEST PUSH1 0x20 PUSH1 0x40 MLOAD DUP1 DUP4 SUB DUP2 DUP7 DUP1 EXTCODESIZE ISZERO DUP1 ISZERO PUSH2 0x127C JUMPI PUSH1 0x0 DUP1 REVERT JUMPDEST POP GAS STATICCALL ISZERO DUP1 ISZERO PUSH2 0x1290 JUMPI RETURNDATASIZE PUSH1 0x0 DUP1 RETURNDATACOPY RETURNDATASIZE PUSH1 0x0 REVERT JUMPDEST POP POP POP POP PUSH1 0x40 MLOAD RETURNDATASIZE PUSH1 0x1F NOT PUSH1 0x1F DUP3 ADD AND DUP3 ADD DUP1 PUSH1 0x40 MSTORE POP DUP2 ADD SWAP1 PUSH2 0x12B4 SWAP2 SWAP1 PUSH2 0x1B3E JUMP JUMPDEST SWAP1 POP DUP1 PUSH1 0x40 MLOAD DUP1 PUSH1 0x40 ADD PUSH1 0x40 MSTORE DUP1 PUSH1 0x11 DUP2 MSTORE PUSH1 0x20 ADD PUSH17 0x14131056515497D393D517D293D2539151 PUSH1 0x7A SHL DUP2 MSTORE POP SWAP1 PUSH2 0x12FF JUMPI PUSH1 0x40 MLOAD PUSH3 0x461BCD PUSH1 0xE5 SHL DUP2 MSTORE PUSH1 0x4 ADD PUSH2 0x44B SWAP2 SWAP1 PUSH2 0x1D21 JUMP JUMPDEST POP PUSH1 0x0 PUSH1 0xF PUSH1 0x0 DUP6 PUSH1 0x1 PUSH1 0x1 PUSH1 0xA0 SHL SUB AND PUSH1 0x1 PUSH1 0x1 PUSH1 0xA0 SHL SUB AND DUP2 MSTORE PUSH1 0x20 ADD SWAP1 DUP2 MSTORE PUSH1 0x20 ADD PUSH1 0x0 KECCAK256 PUSH1 0x2 ADD SLOAD GT PUSH1 0x40 MLOAD DUP1 PUSH1 0x40 ADD PUSH1 0x40 MSTORE DUP1 PUSH1 0x10 DUP2 MSTORE PUSH1 0x20 ADD PUSH16 0x1393D7D055151153541514D7D3115195 PUSH1 0x82 SHL DUP2 MSTORE POP SWAP1 PUSH2 0x1373 JUMPI PUSH1 0x40 MLOAD PUSH3 0x461BCD PUSH1 0xE5 SHL DUP2 MSTORE PUSH1 0x4 ADD PUSH2 0x44B SWAP2 SWAP1 PUSH2 0x1D21 JUMP JUMPDEST POP PUSH1 0x1 PUSH1 0x1 PUSH1 0xA0 SHL SUB DUP4 AND PUSH1 0x0 SWAP1 DUP2 MSTORE PUSH1 0xF PUSH1 0x20 MSTORE PUSH1 0x40 DUP2 KECCAK256 PUSH1 0x1 DUP2 ADD DUP5 SWAP1 SSTORE PUSH1 0x2 ADD DUP1 SLOAD SWAP2 PUSH2 0x13A2 DUP4 PUSH2 0x1EEA JUMP JUMPDEST SWAP2 SWAP1 POP SSTORE POP TIMESTAMP DUP4 PUSH1 0x1 PUSH1 0x1 PUSH1 0xA0 SHL SUB AND PUSH32 0x4713603FE21BE537B9C9CA4C33240E81665FB6E4A681BDD1318C039F16B5AFF6 DUP5 PUSH1 0x40 MLOAD PUSH2 0x13E3 SWAP2 DUP2 MSTORE PUSH1 0x20 ADD SWAP1 JUMP JUMPDEST PUSH1 0x40 MLOAD DUP1 SWAP2 SUB SWAP1 LOG3 POP POP POP JUMP JUMPDEST PUSH1 0x0 PUSH2 0x13FA DUP3 SLOAD SWAP1 JUMP JUMPDEST SWAP3 SWAP2 POP POP JUMP JUMPDEST PUSH1 0x0 DUP3 ISZERO DUP1 PUSH2 0x140D JUMPI POP DUP2 ISZERO JUMPDEST ISZERO PUSH2 0x141A JUMPI POP PUSH1 0x0 PUSH2 0x13FA JUMP JUMPDEST DUP2 PUSH2 0x1428 PUSH1 0x2 PUSH2 0x2710 PUSH2 0x1E17 JUMP JUMPDEST PUSH2 0x1434 SWAP1 PUSH1 0x0 NOT PUSH2 0x1E89 JUMP JUMPDEST PUSH2 0x143E SWAP2 SWAP1 PUSH2 0x1E17 JUMP JUMPDEST DUP4 GT ISZERO PUSH1 0x40 MLOAD DUP1 PUSH1 0x40 ADD PUSH1 0x40 MSTORE DUP1 PUSH1 0x1C DUP2 MSTORE PUSH1 0x20 ADD PUSH32 0x4D4154485F4D554C5449504C49434154494F4E5F4F564552464C4F5700000000 DUP2 MSTORE POP SWAP1 PUSH2 0x1495 JUMPI PUSH1 0x40 MLOAD PUSH3 0x461BCD PUSH1 0xE5 SHL DUP2 MSTORE PUSH1 0x4 ADD PUSH2 0x44B SWAP2 SWAP1 PUSH2 0x1D21 JUMP JUMPDEST POP PUSH2 0x2710 PUSH2 0x14A4 PUSH1 0x2 DUP3 PUSH2 0x1E17 JUMP JUMPDEST PUSH2 0x14AE DUP5 DUP7 PUSH2 0x1E2B JUMP JUMPDEST PUSH2 0x14B8 SWAP2 SWAP1 PUSH2 0x1DD1 JUMP JUMPDEST PUSH2 0x14C2 SWAP2 SWAP1 PUSH2 0x1E17 JUMP JUMPDEST SWAP4 SWAP3 POP POP POP JUMP JUMPDEST PUSH1 0x0 DUP2 DUP4 GT ISZERO PUSH2 0x14DA JUMPI POP DUP1 PUSH2 0x13FA JUMP JUMPDEST POP SWAP1 SWAP2 SWAP1 POP JUMP JUMPDEST PUSH1 0x0 PUSH2 0x14C2 DUP4 PUSH1 0x1 PUSH1 0x1 PUSH1 0xA0 SHL SUB DUP5 AND PUSH2 0x1A69 JUMP JUMPDEST PUSH1 0x0 PUSH2 0x14C2 DUP4 DUP4 PUSH2 0x1AB8 JUMP JUMPDEST PUSH1 0x60 DUP2 DUP4 SLT PUSH2 0x1512 JUMPI POP DUP3 PUSH2 0x14C2 JUMP JUMPDEST PUSH1 0x0 DUP5 PUSH1 0x2 PUSH2 0x1521 DUP7 DUP7 PUSH2 0x1E4A JUMP JUMPDEST PUSH2 0x152B SWAP2 SWAP1 PUSH2 0x1DE9 JUMP JUMPDEST PUSH2 0x1535 SWAP1 DUP7 PUSH2 0x1D90 JUMP JUMPDEST DUP2 MLOAD DUP2 LT PUSH2 0x1545 JUMPI PUSH2 0x1545 PUSH2 0x1F90 JUMP JUMPDEST PUSH1 0x20 SWAP1 DUP2 MUL SWAP2 SWAP1 SWAP2 ADD ADD MLOAD PUSH1 0x40 ADD MLOAD SWAP1 POP DUP4 DUP4 JUMPDEST DUP1 DUP3 SGT PUSH2 0x166C JUMPI JUMPDEST DUP3 DUP8 DUP4 DUP2 MLOAD DUP2 LT PUSH2 0x1574 JUMPI PUSH2 0x1574 PUSH2 0x1F90 JUMP JUMPDEST PUSH1 0x20 MUL PUSH1 0x20 ADD ADD MLOAD PUSH1 0x40 ADD MLOAD GT ISZERO PUSH2 0x1598 JUMPI DUP2 PUSH2 0x1590 DUP2 PUSH2 0x1F34 JUMP JUMPDEST SWAP3 POP POP PUSH2 0x1561 JUMP JUMPDEST DUP7 DUP2 DUP2 MLOAD DUP2 LT PUSH2 0x15AA JUMPI PUSH2 0x15AA PUSH2 0x1F90 JUMP JUMPDEST PUSH1 0x20 MUL PUSH1 0x20 ADD ADD MLOAD PUSH1 0x40 ADD MLOAD DUP4 GT ISZERO PUSH2 0x15CF JUMPI DUP1 PUSH2 0x15C7 DUP2 PUSH2 0x1ECC JUMP JUMPDEST SWAP2 POP POP PUSH2 0x1598 JUMP JUMPDEST DUP1 DUP3 SGT PUSH2 0x1667 JUMPI PUSH1 0x0 DUP8 DUP4 DUP2 MLOAD DUP2 LT PUSH2 0x15EA JUMPI PUSH2 0x15EA PUSH2 0x1F90 JUMP JUMPDEST PUSH1 0x20 MUL PUSH1 0x20 ADD ADD MLOAD SWAP1 POP DUP8 DUP3 DUP2 MLOAD DUP2 LT PUSH2 0x1606 JUMPI PUSH2 0x1606 PUSH2 0x1F90 JUMP JUMPDEST PUSH1 0x20 MUL PUSH1 0x20 ADD ADD MLOAD DUP9 DUP5 DUP2 MLOAD DUP2 LT PUSH2 0x1620 JUMPI PUSH2 0x1620 PUSH2 0x1F90 JUMP JUMPDEST PUSH1 0x20 MUL PUSH1 0x20 ADD ADD DUP2 SWAP1 MSTORE POP DUP1 DUP9 DUP4 DUP2 MLOAD DUP2 LT PUSH2 0x163E JUMPI PUSH2 0x163E PUSH2 0x1F90 JUMP JUMPDEST PUSH1 0x20 MUL PUSH1 0x20 ADD ADD DUP2 SWAP1 MSTORE POP DUP3 DUP1 PUSH2 0x1654 SWAP1 PUSH2 0x1F34 JUMP JUMPDEST SWAP4 POP POP DUP2 DUP1 PUSH2 0x1662 SWAP1 PUSH2 0x1ECC JUMP JUMPDEST SWAP3 POP POP POP JUMPDEST PUSH2 0x1559 JUMP JUMPDEST DUP1 DUP7 SLT ISZERO PUSH2 0x1681 JUMPI PUSH2 0x167F DUP8 DUP8 DUP4 PUSH2 0x1502 JUMP JUMPDEST POP JUMPDEST DUP5 DUP3 SLT ISZERO PUSH2 0x1696 JUMPI PUSH2 0x1694 DUP8 DUP4 DUP8 PUSH2 0x1502 JUMP JUMPDEST POP JUMPDEST POP SWAP5 SWAP6 SWAP5 POP POP POP POP POP JUMP JUMPDEST PUSH1 0x0 PUSH1 0xA DUP3 LT ISZERO PUSH2 0x1729 JUMPI PUSH1 0x6 SLOAD PUSH1 0x40 MLOAD PUSH4 0x3438D199 PUSH1 0xE2 SHL DUP2 MSTORE PUSH1 0xA PUSH1 0x4 DUP3 ADD MSTORE PUSH1 0x1 PUSH1 0x1 PUSH1 0xA0 SHL SUB SWAP1 SWAP2 AND SWAP1 PUSH4 0xD0E34664 SWAP1 PUSH1 0x24 ADD JUMPDEST PUSH1 0x20 PUSH1 0x40 MLOAD DUP1 DUP4 SUB DUP2 DUP7 DUP1 EXTCODESIZE ISZERO DUP1 ISZERO PUSH2 0x16F1 JUMPI PUSH1 0x0 DUP1 REVERT JUMPDEST POP GAS STATICCALL ISZERO DUP1 ISZERO PUSH2 0x1705 JUMPI RETURNDATASIZE PUSH1 0x0 DUP1 RETURNDATACOPY RETURNDATASIZE PUSH1 0x0 REVERT JUMPDEST POP POP POP POP PUSH1 0x40 MLOAD RETURNDATASIZE PUSH1 0x1F NOT PUSH1 0x1F DUP3 ADD AND DUP3 ADD DUP1 PUSH1 0x40 MSTORE POP DUP2 ADD SWAP1 PUSH2 0x13FA SWAP2 SWAP1 PUSH2 0x1C0D JUMP JUMPDEST PUSH1 0x14 DUP3 LT ISZERO PUSH2 0x1763 JUMPI PUSH1 0x6 SLOAD PUSH1 0x40 MLOAD PUSH4 0x3438D199 PUSH1 0xE2 SHL DUP2 MSTORE PUSH1 0x14 PUSH1 0x4 DUP3 ADD MSTORE PUSH1 0x1 PUSH1 0x1 PUSH1 0xA0 SHL SUB SWAP1 SWAP2 AND SWAP1 PUSH4 0xD0E34664 SWAP1 PUSH1 0x24 ADD PUSH2 0x16D9 JUMP JUMPDEST PUSH1 0x1E DUP3 LT ISZERO PUSH2 0x179D JUMPI PUSH1 0x6 SLOAD PUSH1 0x40 MLOAD PUSH4 0x3438D199 PUSH1 0xE2 SHL DUP2 MSTORE PUSH1 0x1E PUSH1 0x4 DUP3 ADD MSTORE PUSH1 0x1 PUSH1 0x1 PUSH1 0xA0 SHL SUB SWAP1 SWAP2 AND SWAP1 PUSH4 0xD0E34664 SWAP1 PUSH1 0x24 ADD PUSH2 0x16D9 JUMP JUMPDEST PUSH1 0x28 DUP3 LT ISZERO PUSH2 0x17D7 JUMPI PUSH1 0x6 SLOAD PUSH1 0x40 MLOAD PUSH4 0x3438D199 PUSH1 0xE2 SHL DUP2 MSTORE PUSH1 0x28 PUSH1 0x4 DUP3 ADD MSTORE PUSH1 0x1 PUSH1 0x1 PUSH1 0xA0 SHL SUB SWAP1 SWAP2 AND SWAP1 PUSH4 0xD0E34664 SWAP1 PUSH1 0x24 ADD PUSH2 0x16D9 JUMP JUMPDEST PUSH1 0x32 DUP3 LT ISZERO PUSH2 0x1811 JUMPI PUSH1 0x6 SLOAD PUSH1 0x40 MLOAD PUSH4 0x3438D199 PUSH1 0xE2 SHL DUP2 MSTORE PUSH1 0x32 PUSH1 0x4 DUP3 ADD MSTORE PUSH1 0x1 PUSH1 0x1 PUSH1 0xA0 SHL SUB SWAP1 SWAP2 AND SWAP1 PUSH4 0xD0E34664 SWAP1 PUSH1 0x24 ADD PUSH2 0x16D9 JUMP JUMPDEST PUSH1 0x64 DUP3 LT ISZERO PUSH2 0x184B JUMPI PUSH1 0x6 SLOAD PUSH1 0x40 MLOAD PUSH4 0x3438D199 PUSH1 0xE2 SHL DUP2 MSTORE PUSH1 0x64 PUSH1 0x4 DUP3 ADD MSTORE PUSH1 0x1 PUSH1 0x1 PUSH1 0xA0 SHL SUB SWAP1 SWAP2 AND SWAP1 PUSH4 0xD0E34664 SWAP1 PUSH1 0x24 ADD PUSH2 0x16D9 JUMP JUMPDEST PUSH1 0x6 SLOAD PUSH1 0x40 MLOAD PUSH4 0x3438D199 PUSH1 0xE2 SHL DUP2 MSTORE PUSH2 0x3E8 PUSH1 0x4 DUP3 ADD MSTORE PUSH1 0x1 PUSH1 0x1 PUSH1 0xA0 SHL SUB SWAP1 SWAP2 AND SWAP1 PUSH4 0xD0E34664 SWAP1 PUSH1 0x24 ADD PUSH2 0x16D9 JUMP JUMPDEST SWAP2 SWAP1 POP JUMP JUMPDEST PUSH1 0x0 DUP3 DUP2 JUMPDEST DUP4 DUP2 LT ISZERO PUSH2 0x18AD JUMPI PUSH2 0x1899 DUP3 DUP7 PUSH2 0x18B5 JUMP JUMPDEST SWAP2 POP DUP1 PUSH2 0x18A5 DUP2 PUSH2 0x1F54 JUMP JUMPDEST SWAP2 POP POP PUSH2 0x1887 JUMP JUMPDEST POP SWAP4 SWAP3 POP POP POP JUMP JUMPDEST PUSH1 0x0 DUP3 ISZERO DUP1 PUSH2 0x18C2 JUMPI POP DUP2 ISZERO JUMPDEST ISZERO PUSH2 0x18CF JUMPI POP PUSH1 0x0 PUSH2 0x13FA JUMP JUMPDEST DUP2 PUSH2 0x18E3 PUSH1 0x2 PUSH8 0xDE0B6B3A7640000 PUSH2 0x1E17 JUMP JUMPDEST PUSH2 0x18EF SWAP1 PUSH1 0x0 NOT PUSH2 0x1E89 JUMP JUMPDEST PUSH2 0x18F9 SWAP2 SWAP1 PUSH2 0x1E17 JUMP JUMPDEST DUP4 GT ISZERO PUSH1 0x40 MLOAD DUP1 PUSH1 0x40 ADD PUSH1 0x40 MSTORE DUP1 PUSH1 0x1C DUP2 MSTORE PUSH1 0x20 ADD PUSH32 0x4D4154485F4D554C5449504C49434154494F4E5F4F564552464C4F5700000000 DUP2 MSTORE POP SWAP1 PUSH2 0x1950 JUMPI PUSH1 0x40 MLOAD PUSH3 0x461BCD PUSH1 0xE5 SHL DUP2 MSTORE PUSH1 0x4 ADD PUSH2 0x44B SWAP2 SWAP1 PUSH2 0x1D21 JUMP JUMPDEST POP PUSH8 0xDE0B6B3A7640000 PUSH2 0x14A4 PUSH1 0x2 DUP3 PUSH2 0x1E17 JUMP JUMPDEST PUSH1 0x40 DUP1 MLOAD DUP1 DUP3 ADD SWAP1 SWAP2 MSTORE PUSH1 0x15 DUP2 MSTORE PUSH21 0x4D4154485F4449564953494F4E5F42595F5A45524F PUSH1 0x58 SHL PUSH1 0x20 DUP3 ADD MSTORE PUSH1 0x0 SWAP1 DUP3 PUSH2 0x19B2 JUMPI PUSH1 0x40 MLOAD PUSH3 0x461BCD PUSH1 0xE5 SHL DUP2 MSTORE PUSH1 0x4 ADD PUSH2 0x44B SWAP2 SWAP1 PUSH2 0x1D21 JUMP JUMPDEST POP PUSH1 0x0 PUSH2 0x19C0 PUSH1 0x2 DUP5 PUSH2 0x1E17 JUMP JUMPDEST SWAP1 POP PUSH8 0xDE0B6B3A7640000 PUSH2 0x19D7 DUP3 PUSH1 0x0 NOT PUSH2 0x1E89 JUMP JUMPDEST PUSH2 0x19E1 SWAP2 SWAP1 PUSH2 0x1E17 JUMP JUMPDEST DUP5 GT ISZERO PUSH1 0x40 MLOAD DUP1 PUSH1 0x40 ADD PUSH1 0x40 MSTORE DUP1 PUSH1 0x1C DUP2 MSTORE PUSH1 0x20 ADD PUSH32 0x4D4154485F4D554C5449504C49434154494F4E5F4F564552464C4F5700000000 DUP2 MSTORE POP SWAP1 PUSH2 0x1A38 JUMPI PUSH1 0x40 MLOAD PUSH3 0x461BCD PUSH1 0xE5 SHL DUP2 MSTORE PUSH1 0x4 ADD PUSH2 0x44B SWAP2 SWAP1 PUSH2 0x1D21 JUMP JUMPDEST POP DUP3 DUP2 PUSH2 0x1A4D PUSH8 0xDE0B6B3A7640000 DUP8 PUSH2 0x1E2B JUMP JUMPDEST PUSH2 0x1A57 SWAP2 SWAP1 PUSH2 0x1DD1 JUMP JUMPDEST PUSH2 0x1A61 SWAP2 SWAP1 PUSH2 0x1E17 JUMP JUMPDEST SWAP5 SWAP4 POP POP POP POP JUMP JUMPDEST PUSH1 0x0 DUP2 DUP2 MSTORE PUSH1 0x1 DUP4 ADD PUSH1 0x20 MSTORE PUSH1 0x40 DUP2 KECCAK256 SLOAD PUSH2 0x1AB0 JUMPI POP DUP2 SLOAD PUSH1 0x1 DUP2 DUP2 ADD DUP5 SSTORE PUSH1 0x0 DUP5 DUP2 MSTORE PUSH1 0x20 DUP1 DUP3 KECCAK256 SWAP1 SWAP4 ADD DUP5 SWAP1 SSTORE DUP5 SLOAD DUP5 DUP3 MSTORE DUP3 DUP7 ADD SWAP1 SWAP4 MSTORE PUSH1 0x40 SWAP1 KECCAK256 SWAP2 SWAP1 SWAP2 SSTORE PUSH2 0x13FA JUMP JUMPDEST POP PUSH1 0x0 PUSH2 0x13FA JUMP JUMPDEST PUSH1 0x0 DUP3 PUSH1 0x0 ADD DUP3 DUP2 SLOAD DUP2 LT PUSH2 0x1ACF JUMPI PUSH2 0x1ACF PUSH2 0x1F90 JUMP JUMPDEST SWAP1 PUSH1 0x0 MSTORE PUSH1 0x20 PUSH1 0x0 KECCAK256 ADD SLOAD SWAP1 POP SWAP3 SWAP2 POP POP JUMP JUMPDEST DUP1 CALLDATALOAD PUSH1 0x1 PUSH1 0x1 PUSH1 0xA0 SHL SUB DUP2 AND DUP2 EQ PUSH2 0x187D JUMPI PUSH1 0x0 DUP1 REVERT JUMPDEST PUSH1 0x0 PUSH1 0x20 DUP3 DUP5 SUB SLT ISZERO PUSH2 0x1B0B JUMPI PUSH1 0x0 DUP1 REVERT JUMPDEST PUSH2 0x14C2 DUP3 PUSH2 0x1AE2 JUMP JUMPDEST PUSH1 0x0 DUP1 PUSH1 0x40 DUP4 DUP6 SUB SLT ISZERO PUSH2 0x1B27 JUMPI PUSH1 0x0 DUP1 REVERT JUMPDEST PUSH2 0x1B30 DUP4 PUSH2 0x1AE2 JUMP JUMPDEST SWAP5 PUSH1 0x20 SWAP4 SWAP1 SWAP4 ADD CALLDATALOAD SWAP4 POP POP POP JUMP JUMPDEST PUSH1 0x0 PUSH1 0x20 DUP3 DUP5 SUB SLT ISZERO PUSH2 0x1B50 JUMPI PUSH1 0x0 DUP1 REVERT JUMPDEST DUP2 MLOAD DUP1 ISZERO ISZERO DUP2 EQ PUSH2 0x14C2 JUMPI PUSH1 0x0 DUP1 REVERT JUMPDEST PUSH1 0x0 PUSH1 0x20 DUP3 DUP5 SUB SLT ISZERO PUSH2 0x1B72 JUMPI PUSH1 0x0 DUP1 REVERT JUMPDEST DUP2 MLOAD PUSH8 0xFFFFFFFFFFFFFFFF DUP1 DUP3 GT ISZERO PUSH2 0x1B8A JUMPI PUSH1 0x0 DUP1 REVERT JUMPDEST DUP2 DUP5 ADD SWAP2 POP DUP5 PUSH1 0x1F DUP4 ADD SLT PUSH2 0x1B9E JUMPI PUSH1 0x0 DUP1 REVERT JUMPDEST DUP2 MLOAD DUP2 DUP2 GT ISZERO PUSH2 0x1BB0 JUMPI PUSH2 0x1BB0 PUSH2 0x1FA6 JUMP JUMPDEST PUSH1 0x40 MLOAD PUSH1 0x1F DUP3 ADD PUSH1 0x1F NOT SWAP1 DUP2 AND PUSH1 0x3F ADD AND DUP2 ADD SWAP1 DUP4 DUP3 GT DUP2 DUP4 LT OR ISZERO PUSH2 0x1BD8 JUMPI PUSH2 0x1BD8 PUSH2 0x1FA6 JUMP JUMPDEST DUP2 PUSH1 0x40 MSTORE DUP3 DUP2 MSTORE DUP8 PUSH1 0x20 DUP5 DUP8 ADD ADD GT ISZERO PUSH2 0x1BF1 JUMPI PUSH1 0x0 DUP1 REVERT JUMPDEST PUSH2 0x1C02 DUP4 PUSH1 0x20 DUP4 ADD PUSH1 0x20 DUP9 ADD PUSH2 0x1EA0 JUMP JUMPDEST SWAP8 SWAP7 POP POP POP POP POP POP POP JUMP JUMPDEST PUSH1 0x0 PUSH1 0x20 DUP3 DUP5 SUB SLT ISZERO PUSH2 0x1C1F JUMPI PUSH1 0x0 DUP1 REVERT JUMPDEST POP MLOAD SWAP2 SWAP1 POP JUMP JUMPDEST PUSH1 0x0 DUP2 MLOAD DUP1 DUP5 MSTORE PUSH2 0x1C3E DUP2 PUSH1 0x20 DUP7 ADD PUSH1 0x20 DUP7 ADD PUSH2 0x1EA0 JUMP JUMPDEST PUSH1 0x1F ADD PUSH1 0x1F NOT AND SWAP3 SWAP1 SWAP3 ADD PUSH1 0x20 ADD SWAP3 SWAP2 POP POP JUMP JUMPDEST PUSH1 0x0 PUSH1 0x20 DUP1 DUP4 ADD DUP2 DUP5 MSTORE DUP1 DUP6 MLOAD DUP1 DUP4 MSTORE PUSH1 0x40 SWAP3 POP DUP3 DUP7 ADD SWAP2 POP DUP3 DUP2 PUSH1 0x5 SHL DUP8 ADD ADD DUP5 DUP9 ADD PUSH1 0x0 JUMPDEST DUP4 DUP2 LT ISZERO PUSH2 0x1CDA JUMPI DUP9 DUP4 SUB PUSH1 0x3F NOT ADD DUP6 MSTORE DUP2 MLOAD DUP1 MLOAD PUSH1 0x1 PUSH1 0x1 PUSH1 0xA0 SHL SUB AND DUP5 MSTORE DUP8 DUP2 ADD MLOAD PUSH1 0x80 DUP10 DUP7 ADD DUP2 SWAP1 MSTORE SWAP1 PUSH2 0x1CB2 DUP3 DUP8 ADD DUP3 PUSH2 0x1C26 JUMP JUMPDEST DUP4 DUP11 ADD MLOAD DUP8 DUP12 ADD MSTORE PUSH1 0x60 SWAP4 DUP5 ADD MLOAD SWAP4 SWAP1 SWAP7 ADD SWAP3 SWAP1 SWAP3 MSTORE POP POP SWAP4 DUP7 ADD SWAP4 SWAP1 DUP7 ADD SWAP1 PUSH1 0x1 ADD PUSH2 0x1C79 JUMP JUMPDEST POP SWAP1 SWAP9 SWAP8 POP POP POP POP POP POP POP POP JUMP JUMPDEST DUP6 ISZERO ISZERO DUP2 MSTORE DUP5 PUSH1 0x20 DUP3 ADD MSTORE DUP4 PUSH1 0x40 DUP3 ADD MSTORE PUSH1 0xA0 PUSH1 0x60 DUP3 ADD MSTORE PUSH1 0x0 PUSH2 0x1D0F PUSH1 0xA0 DUP4 ADD DUP6 PUSH2 0x1C26 JUMP JUMPDEST SWAP1 POP DUP3 PUSH1 0x80 DUP4 ADD MSTORE SWAP7 SWAP6 POP POP POP POP POP POP JUMP JUMPDEST PUSH1 0x20 DUP2 MSTORE PUSH1 0x0 PUSH2 0x14C2 PUSH1 0x20 DUP4 ADD DUP5 PUSH2 0x1C26 JUMP JUMPDEST PUSH1 0x60 DUP2 MSTORE DUP4 MLOAD ISZERO ISZERO PUSH1 0x60 DUP3 ADD MSTORE PUSH1 0x20 DUP5 ADD MLOAD PUSH1 0x80 DUP3 ADD MSTORE PUSH1 0x40 DUP5 ADD MLOAD PUSH1 0xA0 DUP3 ADD MSTORE PUSH1 0x0 PUSH1 0x60 DUP6 ADD MLOAD PUSH1 0xA0 PUSH1 0xC0 DUP5 ADD MSTORE PUSH2 0x1D71 PUSH2 0x100 DUP5 ADD DUP3 PUSH2 0x1C26 JUMP JUMPDEST PUSH1 0x80 SWAP7 SWAP1 SWAP7 ADD MLOAD PUSH1 0xE0 DUP5 ADD MSTORE POP POP PUSH1 0x20 DUP2 ADD SWAP3 SWAP1 SWAP3 MSTORE PUSH1 0x40 SWAP1 SWAP2 ADD MSTORE SWAP1 JUMP JUMPDEST PUSH1 0x0 DUP1 DUP3 SLT DUP1 ISZERO PUSH1 0x1 PUSH1 0x1 PUSH1 0xFF SHL SUB DUP5 SWAP1 SUB DUP6 SGT AND ISZERO PUSH2 0x1DB2 JUMPI PUSH2 0x1DB2 PUSH2 0x1F64 JUMP JUMPDEST PUSH1 0x1 PUSH1 0xFF SHL DUP4 SWAP1 SUB DUP5 SLT DUP2 AND ISZERO PUSH2 0x1DCB JUMPI PUSH2 0x1DCB PUSH2 0x1F64 JUMP JUMPDEST POP POP ADD SWAP1 JUMP JUMPDEST PUSH1 0x0 DUP3 NOT DUP3 GT ISZERO PUSH2 0x1DE4 JUMPI PUSH2 0x1DE4 PUSH2 0x1F64 JUMP JUMPDEST POP ADD SWAP1 JUMP JUMPDEST PUSH1 0x0 DUP3 PUSH2 0x1DF8 JUMPI PUSH2 0x1DF8 PUSH2 0x1F7A JUMP JUMPDEST PUSH1 0x1 PUSH1 0xFF SHL DUP3 EQ PUSH1 0x0 NOT DUP5 EQ AND ISZERO PUSH2 0x1E12 JUMPI PUSH2 0x1E12 PUSH2 0x1F64 JUMP JUMPDEST POP SDIV SWAP1 JUMP JUMPDEST PUSH1 0x0 DUP3 PUSH2 0x1E26 JUMPI PUSH2 0x1E26 PUSH2 0x1F7A JUMP JUMPDEST POP DIV SWAP1 JUMP JUMPDEST PUSH1 0x0 DUP2 PUSH1 0x0 NOT DIV DUP4 GT DUP3 ISZERO ISZERO AND ISZERO PUSH2 0x1E45 JUMPI PUSH2 0x1E45 PUSH2 0x1F64 JUMP JUMPDEST POP MUL SWAP1 JUMP JUMPDEST PUSH1 0x0 DUP1 DUP4 SLT DUP1 ISZERO PUSH1 0x1 PUSH1 0xFF SHL DUP6 ADD DUP5 SLT AND ISZERO PUSH2 0x1E68 JUMPI PUSH2 0x1E68 PUSH2 0x1F64 JUMP JUMPDEST PUSH1 0x1 PUSH1 0x1 PUSH1 0xFF SHL SUB DUP5 ADD DUP4 SGT DUP2 AND ISZERO PUSH2 0x1E83 JUMPI PUSH2 0x1E83 PUSH2 0x1F64 JUMP JUMPDEST POP POP SUB SWAP1 JUMP JUMPDEST PUSH1 0x0 DUP3 DUP3 LT ISZERO PUSH2 0x1E9B JUMPI PUSH2 0x1E9B PUSH2 0x1F64 JUMP JUMPDEST POP SUB SWAP1 JUMP JUMPDEST PUSH1 0x0 JUMPDEST DUP4 DUP2 LT ISZERO PUSH2 0x1EBB JUMPI DUP2 DUP2 ADD MLOAD DUP4 DUP3 ADD MSTORE PUSH1 0x20 ADD PUSH2 0x1EA3 JUMP JUMPDEST DUP4 DUP2 GT ISZERO PUSH2 0xDBE JUMPI POP POP PUSH1 0x0 SWAP2 ADD MSTORE JUMP JUMPDEST PUSH1 0x0 PUSH1 0x1 PUSH1 0xFF SHL DUP3 EQ ISZERO PUSH2 0x1EE2 JUMPI PUSH2 0x1EE2 PUSH2 0x1F64 JUMP JUMPDEST POP PUSH1 0x0 NOT ADD SWAP1 JUMP JUMPDEST PUSH1 0x0 DUP2 PUSH2 0x1EE2 JUMPI PUSH2 0x1EE2 PUSH2 0x1F64 JUMP JUMPDEST PUSH1 0x1 DUP2 DUP2 SHR SWAP1 DUP3 AND DUP1 PUSH2 0x1F0D JUMPI PUSH1 0x7F DUP3 AND SWAP2 POP JUMPDEST PUSH1 0x20 DUP3 LT DUP2 EQ ISZERO PUSH2 0x1F2E JUMPI PUSH4 0x4E487B71 PUSH1 0xE0 SHL PUSH1 0x0 MSTORE PUSH1 0x22 PUSH1 0x4 MSTORE PUSH1 0x24 PUSH1 0x0 REVERT JUMPDEST POP SWAP2 SWAP1 POP JUMP JUMPDEST PUSH1 0x0 PUSH1 0x1 PUSH1 0x1 PUSH1 0xFF SHL SUB DUP3 EQ ISZERO PUSH2 0x1F4D JUMPI PUSH2 0x1F4D PUSH2 0x1F64 JUMP JUMPDEST POP PUSH1 0x1 ADD SWAP1 JUMP JUMPDEST PUSH1 0x0 PUSH1 0x0 NOT DUP3 EQ ISZERO PUSH2 0x1F4D JUMPI PUSH2 0x1F4D JUMPDEST PUSH4 0x4E487B71 PUSH1 0xE0 SHL PUSH1 0x0 MSTORE PUSH1 0x11 PUSH1 0x4 MSTORE PUSH1 0x24 PUSH1 0x0 REVERT JUMPDEST PUSH4 0x4E487B71 PUSH1 0xE0 SHL PUSH1 0x0 MSTORE PUSH1 0x12 PUSH1 0x4 MSTORE PUSH1 0x24 PUSH1 0x0 REVERT JUMPDEST PUSH4 0x4E487B71 PUSH1 0xE0 SHL PUSH1 0x0 MSTORE PUSH1 0x32 PUSH1 0x4 MSTORE PUSH1 0x24 PUSH1 0x0 REVERT JUMPDEST PUSH4 0x4E487B71 PUSH1 0xE0 SHL PUSH1 0x0 MSTORE PUSH1 0x41 PUSH1 0x4 MSTORE PUSH1 0x24 PUSH1 0x0 REVERT INVALID LOG2 PUSH5 0x6970667358 0x22 SLT KECCAK256 0xD9 0xA5 SWAP10 0xA5 0xAC PUSH20 0xD04ADEB214F3E81EFE4595A791A6B6868CECAEE9 0xAC LOG4 CALLCODE 0x2B SWAP1 SWAP16 PUSH5 0x736F6C6343 STOP ADDMOD SMOD STOP CALLER LOG2 PUSH5 0x6970667358 0x22 SLT KECCAK256 SELFBALANCE 0xF6 0xBE SELFDESTRUCT DUP5 PUSH17 0x3BD8BE40EF1F59216841B44C23D7941084 REVERT SWAP5 MSTORE DIFFICULTY 0x2A PUSH2 0x5EB7 PUSH15 0x64736F6C6343000807003300000000 "},"methodIdentifiers":{"addPlayerToTournament(address)":"ad260418","createTournament(string,(bool,uint256,uint256,string,uint256))":"fbf7c5ee","currentTournamentId()":"fc8e7504","getJoinedTournamentsByPlayer(address)":"86106b1f","getOwner()":"893d20e8","getUserName(address)":"d84f55ee","hasJoinedTournament(address,uint256)":"298aec2c","joiningFees()":"4959d977","owner()":"8da5cb5b","r_values(uint256)":"d0e34664","renounceOwnership()":"715018a6","setJoiningFees(uint256)":"e33e879a","setTimeLimit(uint256)":"e2889c82","setUserName(string,uint256)":"f4afd4f6","timeLimit()":"c08d1fe5","tournaments(uint256)":"7503e1b7","transferOwnership(address)":"f2fde38b","winnersPercentage()":"005a0e3d"}}}}}