{
  "_format": "hh-sol-artifact-1",
  "contractName": "WadRayMath",
  "sourceName": "contracts/math/WadRayMath.sol",
  "abi": [
    {
      "inputs": [
        {
          "internalType": "uint256",
          "name": "num",
          "type": "uint256"
        }
      ],
      "name": "toRay",
      "outputs": [
        {
          "internalType": "uint256",
          "name": "",
          "type": "uint256"
        }
      ],
      "stateMutability": "pure",
      "type": "function"
    }
  ],
  "bytecode": "0x60ee610039600b82828239805160001a60731461002c57634e487b7160e01b600052600060045260246000fd5b30600052607381538281f3fe730000000000000000000000000000000000000000301460806040526004361060335760003560e01c8063820f0fb5146038575b600080fd5b604760433660046074565b6059565b60405190815260200160405180910390f35b6000606e826a084595161401484a000000608c565b92915050565b600060208284031215608557600080fd5b5035919050565b600081600019048311821515161560b357634e487b7160e01b600052601160045260246000fd5b50029056fea2646970667358221220d4cb8af5b220fce8024f0c2140300d670576b4c5d6b92ff603b95bb5651bcbac64736f6c63430008070033",
  "linkReferences": {},
  "deployedLinkReferences": {}
}