{
  "_format": "hh-sol-artifact-1",
  "contractName": "Tournament",
  "sourceName": "contracts/Tournament.sol",
  "abi": [
    {
      "inputs": [
        {
          "internalType": "uint256",
          "name": "id_",
          "type": "uint256"
        },
        {
          "internalType": "string",
          "name": "name_",
          "type": "string"
        },
        {
          "internalType": "uint256",
          "name": "startTime_",
          "type": "uint256"
        },
        {
          "internalType": "address",
          "name": "gameContractAddress_",
          "type": "address"
        },
        {
          "components": [
            {
              "internalType": "bool",
              "name": "isSponsored",
              "type": "bool"
            },
            {
              "internalType": "uint256",
              "name": "prizePool",
              "type": "uint256"
            },
            {
              "internalType": "uint256",
              "name": "nWinners",
              "type": "uint256"
            },
            {
              "internalType": "string",
              "name": "sponsorMetadata",
              "type": "string"
            },
            {
              "internalType": "uint256",
              "name": "commissionPercentage",
              "type": "uint256"
            }
          ],
          "internalType": "struct DataTypes.RewardVars",
          "name": "_rewardVars",
          "type": "tuple"
        }
      ],
      "stateMutability": "nonpayable",
      "type": "constructor"
    },
    {
      "anonymous": false,
      "inputs": [
        {
          "indexed": true,
          "internalType": "address",
          "name": "player",
          "type": "address"
        },
        {
          "indexed": true,
          "internalType": "uint256",
          "name": "timestamp",
          "type": "uint256"
        },
        {
          "indexed": false,
          "internalType": "uint256",
          "name": "score",
          "type": "uint256"
        }
      ],
      "name": "ScoreRecorded",
      "type": "event"
    },
    {
      "inputs": [],
      "name": "approvedCaller",
      "outputs": [
        {
          "internalType": "address",
          "name": "",
          "type": "address"
        }
      ],
      "stateMutability": "view",
      "type": "function"
    },
    {
      "inputs": [],
      "name": "endTournament",
      "outputs": [],
      "stateMutability": "nonpayable",
      "type": "function"
    },
    {
      "inputs": [],
      "name": "gameContractAddress",
      "outputs": [
        {
          "internalType": "address",
          "name": "",
          "type": "address"
        }
      ],
      "stateMutability": "view",
      "type": "function"
    },
    {
      "inputs": [],
      "name": "getLeaderBoard",
      "outputs": [
        {
          "components": [
            {
              "internalType": "address",
              "name": "wallet",
              "type": "address"
            },
            {
              "internalType": "string",
              "name": "username",
              "type": "string"
            },
            {
              "internalType": "uint256",
              "name": "highscore",
              "type": "uint256"
            },
            {
              "internalType": "uint256",
              "name": "prize",
              "type": "uint256"
            }
          ],
          "internalType": "struct DataTypes.LeaderBoardEntry[]",
          "name": "",
          "type": "tuple[]"
        }
      ],
      "stateMutability": "view",
      "type": "function"
    },
    {
      "inputs": [],
      "name": "getRewardInfo",
      "outputs": [
        {
          "components": [
            {
              "internalType": "bool",
              "name": "isSponsored",
              "type": "bool"
            },
            {
              "internalType": "uint256",
              "name": "prizePool",
              "type": "uint256"
            },
            {
              "internalType": "uint256",
              "name": "nWinners",
              "type": "uint256"
            },
            {
              "internalType": "string",
              "name": "sponsorMetadata",
              "type": "string"
            },
            {
              "internalType": "uint256",
              "name": "commissionPercentage",
              "type": "uint256"
            }
          ],
          "internalType": "struct DataTypes.RewardVars",
          "name": "",
          "type": "tuple"
        },
        {
          "internalType": "uint256",
          "name": "",
          "type": "uint256"
        },
        {
          "internalType": "uint256",
          "name": "",
          "type": "uint256"
        }
      ],
      "stateMutability": "view",
      "type": "function"
    },
    {
      "inputs": [],
      "name": "hasEnded",
      "outputs": [
        {
          "internalType": "bool",
          "name": "",
          "type": "bool"
        }
      ],
      "stateMutability": "view",
      "type": "function"
    },
    {
      "inputs": [],
      "name": "id",
      "outputs": [
        {
          "internalType": "uint256",
          "name": "",
          "type": "uint256"
        }
      ],
      "stateMutability": "view",
      "type": "function"
    },
    {
      "inputs": [],
      "name": "joinTournament",
      "outputs": [],
      "stateMutability": "payable",
      "type": "function"
    },
    {
      "inputs": [],
      "name": "joiningFees",
      "outputs": [
        {
          "internalType": "uint256",
          "name": "",
          "type": "uint256"
        }
      ],
      "stateMutability": "view",
      "type": "function"
    },
    {
      "inputs": [],
      "name": "name",
      "outputs": [
        {
          "internalType": "string",
          "name": "",
          "type": "string"
        }
      ],
      "stateMutability": "view",
      "type": "function"
    },
    {
      "inputs": [
        {
          "internalType": "address",
          "name": "",
          "type": "address"
        }
      ],
      "name": "playerStatsMap",
      "outputs": [
        {
          "internalType": "uint256",
          "name": "rank",
          "type": "uint256"
        },
        {
          "internalType": "uint256",
          "name": "highscore",
          "type": "uint256"
        },
        {
          "internalType": "uint256",
          "name": "attemptsLeft",
          "type": "uint256"
        },
        {
          "internalType": "uint256",
          "name": "reFills",
          "type": "uint256"
        },
        {
          "internalType": "uint256",
          "name": "allocatedPrize",
          "type": "uint256"
        },
        {
          "internalType": "uint256",
          "name": "unclaimedPrize",
          "type": "uint256"
        }
      ],
      "stateMutability": "view",
      "type": "function"
    },
    {
      "inputs": [],
      "name": "reFill",
      "outputs": [],
      "stateMutability": "payable",
      "type": "function"
    },
    {
      "inputs": [
        {
          "internalType": "address",
          "name": "_player",
          "type": "address"
        },
        {
          "internalType": "uint256",
          "name": "_score",
          "type": "uint256"
        }
      ],
      "name": "recordScore",
      "outputs": [],
      "stateMutability": "nonpayable",
      "type": "function"
    },
    {
      "inputs": [],
      "name": "rewardVars",
      "outputs": [
        {
          "internalType": "bool",
          "name": "isSponsored",
          "type": "bool"
        },
        {
          "internalType": "uint256",
          "name": "prizePool",
          "type": "uint256"
        },
        {
          "internalType": "uint256",
          "name": "nWinners",
          "type": "uint256"
        },
        {
          "internalType": "string",
          "name": "sponsorMetadata",
          "type": "string"
        },
        {
          "internalType": "uint256",
          "name": "commissionPercentage",
          "type": "uint256"
        }
      ],
      "stateMutability": "view",
      "type": "function"
    },
    {
      "inputs": [],
      "name": "startTime",
      "outputs": [
        {
          "internalType": "uint256",
          "name": "",
          "type": "uint256"
        }
      ],
      "stateMutability": "view",
      "type": "function"
    },
    {
      "inputs": [],
      "name": "timeLimit",
      "outputs": [
        {
          "internalType": "uint256",
          "name": "",
          "type": "uint256"
        }
      ],
      "stateMutability": "view",
      "type": "function"
    },
    {
      "inputs": [],
      "name": "withdrawPrize",
      "outputs": [],
      "stateMutability": "nonpayable",
      "type": "function"
    }
  ],
  "bytecode": "0x60806040523480156200001157600080fd5b50604051620029bb380380620029bb8339810160408190526200003491620003fe565b6001600081905585905583516200005390600290602087019062000267565b506003839055600680546001600160a01b0319166001600160a01b0384169081179091556040805163c08d1fe560e01b8152905163c08d1fe591600480820192602092909190829003018186803b158015620000ae57600080fd5b505afa158015620000c3573d6000803e3d6000fd5b505050506040513d601f19601f82011682018060405250810190620000e99190620003e4565b600490815560065460408051634959d97760e01b815290516001600160a01b0390921692634959d977928282019260209290829003018186803b1580156200013057600080fd5b505afa15801562000145573d6000803e3d6000fd5b505050506040513d601f19601f820116820180604052508101906200016b9190620003e4565b60055560065460408051631127a41d60e31b815290516001600160a01b039092169163893d20e891600480820192602092909190829003018186803b158015620001b457600080fd5b505afa158015620001c9573d6000803e3d6000fd5b505050506040513d601f19601f82011682018060405250810190620001ef9190620003bf565b600780546001600160a01b0319166001600160a01b039290921691909117905580516008805460ff19169115159190911781556020808301516009556040830151600a55606083015180518493926200024e92600b9291019062000267565b50608082015181600401559050505050505050620005ad565b82805462000275906200055a565b90600052602060002090601f016020900481019282620002995760008555620002e4565b82601f10620002b457805160ff1916838001178555620002e4565b82800160010185558215620002e4579182015b82811115620002e4578251825591602001919060010190620002c7565b50620002f2929150620002f6565b5090565b5b80821115620002f25760008155600101620002f7565b80516001600160a01b03811681146200032557600080fd5b919050565b600082601f8301126200033c57600080fd5b81516001600160401b0381111562000358576200035862000597565b60206200036e601f8301601f1916820162000527565b82815285828487010111156200038357600080fd5b60005b83811015620003a357858101830151828201840152820162000386565b83811115620003b55760008385840101525b5095945050505050565b600060208284031215620003d257600080fd5b620003dd826200030d565b9392505050565b600060208284031215620003f757600080fd5b5051919050565b600080600080600060a086880312156200041757600080fd5b855160208701519095506001600160401b03808211156200043757600080fd5b6200044589838a016200032a565b9550604088015194506200045c606089016200030d565b935060808801519150808211156200047357600080fd5b9087019060a0828a0312156200048857600080fd5b62000492620004fc565b82518015158114620004a357600080fd5b808252506020830151602082015260408301516040820152606083015182811115620004ce57600080fd5b620004dc8b8286016200032a565b606083015250608083015160808201528093505050509295509295909350565b60405160a081016001600160401b038111828210171562000521576200052162000597565b60405290565b604051601f8201601f191681016001600160401b038111828210171562000552576200055262000597565b604052919050565b600181811c908216806200056f57607f821691505b602082108114156200059157634e487b7160e01b600052602260045260246000fd5b50919050565b634e487b7160e01b600052604160045260246000fd5b6123fe80620005bd6000396000f3fe6080604052600436106100fe5760003560e01c806378e9792511610095578063af640d0f11610064578063af640d0f146102c3578063c08d1fe5146102d9578063c29d72bc146102ef578063ecb70fb714610311578063fbd534821461034257600080fd5b806378e97925146102025780637ce1186114610218578063858dbf7d14610220578063ab632d4a1461024657600080fd5b80634d633a8f116100d15780634d633a8f146101a157806350ed9193146101b657806363df0ef7146101be578063699c8f33146101de57600080fd5b806306fdde031461010357806345446d711461012e57806348d37a58146101665780634959d9771461017d575b600080fd5b34801561010f57600080fd5b50610118610362565b604051610125919061210b565b60405180910390f35b34801561013a57600080fd5b5060075461014e906001600160a01b031681565b6040516001600160a01b039091168152602001610125565b34801561017257600080fd5b5061017b6103f0565b005b34801561018957600080fd5b5061019360055481565b604051908152602001610125565b3480156101ad57600080fd5b5061017b6106c6565b61017b6109a4565b3480156101ca57600080fd5b5060065461014e906001600160a01b031681565b3480156101ea57600080fd5b506101f3610b9f565b60405161012593929190612140565b34801561020e57600080fd5b5061019360035481565b61017b610e34565b34801561022c57600080fd5b50610235610f65565b6040516101259594939291906120d2565b34801561025257600080fd5b50610296610261366004611ee3565b600f60205260009081526040902080546001820154600283015460038401546004850154600590950154939492939192909186565b604080519687526020870195909552938501929092526060840152608083015260a082015260c001610125565b3480156102cf57600080fd5b5061019360015481565b3480156102e557600080fd5b5061019360045481565b3480156102fb57600080fd5b50610304611010565b604051610125919061203c565b34801561031d57600080fd5b5060075461033290600160a01b900460ff1681565b6040519015158152602001610125565b34801561034e57600080fd5b5061017b61035d366004611efe565b611447565b6002805461036f90612305565b80601f016020809104026020016040519081016040528092919081815260200182805461039b90612305565b80156103e85780601f106103bd576101008083540402835291602001916103e8565b820191906000526020600020905b8154815290600101906020018083116103cb57829003601f168201915b505050505081565b61041f6040518060400160405280600e81526020016d5769746864726177207072697a6560901b8152506116d2565b4260045460035461043091906121dd565b1060405180604001604052806012815260200171544f55524e414d454e545f49535f4c49564560701b815250906104835760405162461bcd60e51b815260040161047a919061210b565b60405180910390fd5b506104c26040518060400160405280601f81526020017f544f55524e414d454e545f4841535f454e4445442048415320454e44454420008152506116d2565b600654600154604051630a62bb0b60e21b815233600482015260248101919091526000916001600160a01b03169063298aec2c9060440160206040518083038186803b15801561051157600080fd5b505afa158015610525573d6000803e3d6000fd5b505050506040513d601f19601f820116820180604052508101906105499190611f28565b90506105826040518060400160405280601681526020017518da1958dada5b99c81c1b185e595c881a9bda5b995960521b8152506116d2565b60408051808201909152601181527014131056515497d393d517d293d2539151607a1b6020820152816105c85760405162461bcd60e51b815260040161047a919061210b565b506105f76040518060400160405280600d81526020016c141b185e595c881a9bda5b9959609a1b8152506116d2565b336000908152600f60209081526040918290208251808401909352600b83526a506c61796572206865726560a81b9183019190915290610636906116d2565b61066a6040518060400160405280600e81526020016d756e636c61696d65645072697a6560901b8152508260050154611718565b6005810154156106c25760058101546106828161175d565b61068b4761175d565b600060058301819055604051339183156108fc02918491818181858888f193505050501580156106bf573d6000803e3d6000fd5b50505b5050565b60075460408051808201909152601581527410d05313115497d393d517d055551213d492569151605a1b6020820152906001600160a01b0316331461071e5760405162461bcd60e51b815260040161047a919061210b565b504260045460035461073091906121dd565b1060405180604001604052806012815260200171544f55524e414d454e545f49535f4c49564560701b8152509061077a5760405162461bcd60e51b815260040161047a919061210b565b506007546040805180820190915260148152731513d55493905351539517d21054d7d15391115160621b602082015290600160a01b900460ff16156107d25760405162461bcd60e51b815260040161047a919061210b565b506007805460ff60a01b1916600160a01b17905560006107f0611010565b905060005b6107ff600d6117a2565b8110156106c2576040518060c0016040528082600161081e91906121dd565b81526020018383815181106108355761083561239c565b6020026020010151604001518152602001600f600085858151811061085c5761085c61239c565b6020026020010151600001516001600160a01b03166001600160a01b03168152602001908152602001600020600201548152602001600f60008585815181106108a7576108a761239c565b6020026020010151600001516001600160a01b03166001600160a01b031681526020019081526020016000206003015481526020018383815181106108ee576108ee61239c565b60200260200101516060015181526020018383815181106109115761091161239c565b602002602001015160600151815250600f60008484815181106109365761093661239c565b602090810291909101810151516001600160a01b03168252818101929092526040908101600020835181559183015160018301558201516002820155606082015160038201556080820151600482015560a0909101516005909101558061099c81612360565b9150506107f5565b426004546003546109b591906121dd565b11604051806040016040528060148152602001731513d55493905351539517d21054d7d15391115160621b81525090610a015760405162461bcd60e51b815260040161047a919061210b565b50600654600154604051630a62bb0b60e21b815233600482015260248101919091526000916001600160a01b03169063298aec2c9060440160206040518083038186803b158015610a5157600080fd5b505afa158015610a65573d6000803e3d6000fd5b505050506040513d601f19601f82011682018060405250810190610a899190611f28565b9050806040518060400160405280601181526020017014131056515497d393d517d293d2539151607a1b81525090610ad45760405162461bcd60e51b815260040161047a919061210b565b506005543414604051806040016040528060198152602001781393d517d15393d551d217d195539114d7d41493d592511151603a1b81525090610b2a5760405162461bcd60e51b815260040161047a919061210b565b50336000908152600f6020908152604091829020600201548251808401909352600d83526c1055151153541514d7d3115195609a1b9183019190915215610b845760405162461bcd60e51b815260040161047a919061210b565b5050336000908152600f602052604090206003600290910155565b610bd36040518060a00160405280600015158152602001600081526020016000815260200160608152602001600081525090565b6040805160a0810190915260085460ff16801515825260009182916020820190610c4357610c1d600860040154600554610c0d600d6117a2565b610c179190612237565b906117b2565b600554610c2a600d6117a2565b610c349190612237565b610c3e9190612295565b610c47565b6009545b8152602001610d7d610ce1600660009054906101000a90046001600160a01b03166001600160a01b0316625a0e3d6040518163ffffffff1660e01b815260040160206040518083038186803b158015610c9f57600080fd5b505afa158015610cb3573d6000803e3d6000fd5b505050506040513d601f19601f82011682018060405250810190610cd79190611ff7565b610c17600d6117a2565b60085460ff16610d755760065460408051625a0e3d60e01b81529051600a926001600160a01b031691625a0e3d916004808301926020929190829003018186803b158015610d2e57600080fd5b505afa158015610d42573d6000803e3d6000fd5b505050506040513d601f19601f82011682018060405250810190610d669190611ff7565b610d709190612223565b61187b565b600a5461187b565b815260200160086003018054610d9290612305565b80601f0160208091040260200160405190810160405280929190818152602001828054610dbe90612305565b8015610e0b5780601f10610de057610100808354040283529160200191610e0b565b820191906000526020600020905b815481529060010190602001808311610dee57829003601f168201915b5050509183525050600c54602090910152600554610e29600d6117a2565b925092509250909192565b42600454600354610e4591906121dd565b11604051806040016040528060148152602001731513d55493905351539517d21054d7d15391115160621b81525090610e915760405162461bcd60e51b815260040161047a919061210b565b506005543414604051806040016040528060198152602001781393d517d15393d551d217d195539114d7d41493d592511151603a1b81525090610ee75760405162461bcd60e51b815260040161047a919061210b565b50610ef3600d33611893565b50336000818152600f602052604090819020600360029091015560065490516315a4c08360e31b815260048101929092526001600160a01b03169063ad26041890602401600060405180830381600087803b158015610f5157600080fd5b505af11580156106bf573d6000803e3d6000fd5b60088054600954600a54600b805460ff909416949293919291610f8790612305565b80601f0160208091040260200160405190810160405280929190818152602001828054610fb390612305565b80156110005780601f10610fd557610100808354040283529160200191611000565b820191906000526020600020905b815481529060010190602001808311610fe357829003601f168201915b5050505050908060040154905085565b6060600061101e600d6117a2565b67ffffffffffffffff811115611036576110366123b2565b60405190808252806020026020018201604052801561109b57816020015b611088604051806080016040528060006001600160a01b031681526020016060815260200160008152602001600081525090565b8152602001906001900390816110545790505b5090506110a8600d6117a2565b6110b157919050565b60005b6110be600d6117a2565b8110156111f0576040805160808101909152806110dc600d846118a8565b6001600160a01b0390811682526006546020909201911663d84f55ee611103600d866118a8565b6040516001600160e01b031960e084901b1681526001600160a01b03909116600482015260240160006040518083038186803b15801561114257600080fd5b505afa158015611156573d6000803e3d6000fd5b505050506040513d6000823e601f3d908101601f1916820160405261117e9190810190611f4a565b8152602001600f6000611192600d866118a8565b6001600160a01b03166001600160a01b0316815260200190815260200160002060010154815260200160008152508282815181106111d2576111d261239c565b602002602001018190525080806111e890612360565b9150506110b4565b506112128160006001611203600d6117a2565b61120d9190612295565b6118b4565b9050600061121e610b9f565b505090506000611236611231600d6117a2565b611a53565b905061125d604051806040016040528060038152602001620391d160ed1b81525082611718565b61128e6040518060400160405280600b81526020016a0283934bd32b837b7b61d160ad1b8152508360200151611718565b6112be6040518060400160405280600a8152602001690372bb4b73732b9399d160b51b8152508360400151611718565b6112f26040518060400160405280600581526020016403837bb9d160dd1b8152506112ed838560400151611c34565b611718565b600061133e670de0b6b3a764000061130e848660400151611c34565b6113189190612295565b61133861132d670de0b6b3a764000086612295565b602087015190611c7e565b90611d2e565b9050611365604051806040016040528060038152602001620209d160ed1b81525082611718565b60005b836040015181101561141b57611396604051806040016040528060018152602001603160f81b8152506116d2565b6113c56113be8460018488604001516113af9190612295565b6113b99190612295565b611c34565b8390611c7e565b8582815181106113d7576113d761239c565b60200260200101516060018181525050611409604051806040016040528060018152602001601960f91b8152506116d2565b8061141381612360565b915050611368565b5061143e604051806040016040528060018152602001603360f81b8152506116d2565b50919392505050565b60075460408051808201909152601581527410d05313115497d393d517d055551213d492569151605a1b6020820152906001600160a01b0316331461149f5760405162461bcd60e51b815260040161047a919061210b565b50426004546003546114b191906121dd565b11604051806040016040528060148152602001731513d55493905351539517d21054d7d15391115160621b815250906114fd5760405162461bcd60e51b815260040161047a919061210b565b50600654600154604051630a62bb0b60e21b81526000926001600160a01b03169163298aec2c916115469187916004016001600160a01b03929092168252602082015260400190565b60206040518083038186803b15801561155e57600080fd5b505afa158015611572573d6000803e3d6000fd5b505050506040513d601f19601f820116820180604052508101906115969190611f28565b9050806040518060400160405280601181526020017014131056515497d393d517d293d2539151607a1b815250906115e15760405162461bcd60e51b815260040161047a919061210b565b506000600f6000856001600160a01b03166001600160a01b0316815260200190815260200160002060020154116040518060400160405280601081526020016f1393d7d055151153541514d7d311519560821b815250906116555760405162461bcd60e51b815260040161047a919061210b565b506001600160a01b0383166000908152600f6020526040812060018101849055600201805491611684836122f6565b919050555042836001600160a01b03167f4713603fe21be537b9c9ca4c33240e81665fb6e4a681bdd1318c039f16b5aff6846040516116c591815260200190565b60405180910390a3505050565b611715816040516024016116e6919061210b565b60408051601f198184030181529190526020810180516001600160e01b031663104c13eb60e21b179052611e32565b50565b6106c2828260405160240161172e92919061211e565b60408051601f198184030181529190526020810180516001600160e01b0316632d839cb360e21b179052611e32565b6117158160405160240161177391815260200190565b60408051601f198184030181529190526020810180516001600160e01b031663f82c50f160e01b179052611e32565b60006117ac825490565b92915050565b60008215806117bf575081155b156117cc575060006117ac565b816117da6002612710612223565b6117e690600019612295565b6117f09190612223565b8311156040518060400160405280601c81526020017f4d4154485f4d554c5449504c49434154494f4e5f4f564552464c4f5700000000815250906118475760405162461bcd60e51b815260040161047a919061210b565b50612710611856600282612223565b6118608486612237565b61186a91906121dd565b6118749190612223565b9392505050565b60008183111561188c5750806117ac565b5090919050565b6000611874836001600160a01b038416611e53565b60006118748383611ea2565b60608183126118c4575082611874565b60008460026118d38686612256565b6118dd91906121f5565b6118e7908661219c565b815181106118f7576118f761239c565b602090810291909101015160400151905083835b808213611a1e575b828783815181106119265761192661239c565b602002602001015160400151111561194a578161194281612340565b925050611913565b86818151811061195c5761195c61239c565b6020026020010151604001518311156119815780611979816122d8565b91505061194a565b808213611a1957600087838151811061199c5761199c61239c565b602002602001015190508782815181106119b8576119b861239c565b60200260200101518884815181106119d2576119d261239c565b6020026020010181905250808883815181106119f0576119f061239c565b60200260200101819052508280611a0690612340565b9350508180611a14906122d8565b925050505b61190b565b80861215611a3357611a318787836118b4565b505b84821215611a4857611a468783876118b4565b505b509495945050505050565b6000600a821015611adb57600654604051633438d19960e21b8152600a60048201526001600160a01b039091169063d0e34664906024015b60206040518083038186803b158015611aa357600080fd5b505afa158015611ab7573d6000803e3d6000fd5b505050506040513d601f19601f820116820180604052508101906117ac9190611ff7565b6014821015611b1557600654604051633438d19960e21b8152601460048201526001600160a01b039091169063d0e3466490602401611a8b565b601e821015611b4f57600654604051633438d19960e21b8152601e60048201526001600160a01b039091169063d0e3466490602401611a8b565b6028821015611b8957600654604051633438d19960e21b8152602860048201526001600160a01b039091169063d0e3466490602401611a8b565b6032821015611bc357600654604051633438d19960e21b8152603260048201526001600160a01b039091169063d0e3466490602401611a8b565b6064821015611bfd57600654604051633438d19960e21b8152606460048201526001600160a01b039091169063d0e3466490602401611a8b565b600654604051633438d19960e21b81526103e860048201526001600160a01b039091169063d0e3466490602401611a8b565b919050565b60008282611c4d57670de0b6b3a76400009150506117ac565b60015b83811015611c7657611c628286611c7e565b915080611c6e81612360565b915050611c50565b509392505050565b6000821580611c8b575081155b15611c98575060006117ac565b81611cac6002670de0b6b3a7640000612223565b611cb890600019612295565b611cc29190612223565b8311156040518060400160405280601c81526020017f4d4154485f4d554c5449504c49434154494f4e5f4f564552464c4f570000000081525090611d195760405162461bcd60e51b815260040161047a919061210b565b50670de0b6b3a7640000611856600282612223565b6040805180820190915260158152744d4154485f4449564953494f4e5f42595f5a45524f60581b602082015260009082611d7b5760405162461bcd60e51b815260040161047a919061210b565b506000611d89600284612223565b9050670de0b6b3a7640000611da082600019612295565b611daa9190612223565b8411156040518060400160405280601c81526020017f4d4154485f4d554c5449504c49434154494f4e5f4f564552464c4f570000000081525090611e015760405162461bcd60e51b815260040161047a919061210b565b508281611e16670de0b6b3a764000087612237565b611e2091906121dd565b611e2a9190612223565b949350505050565b80516a636f6e736f6c652e6c6f67602083016000808483855afa5050505050565b6000818152600183016020526040812054611e9a575081546001818101845560008481526020808220909301849055845484825282860190935260409020919091556117ac565b5060006117ac565b6000826000018281548110611eb957611eb961239c565b9060005260206000200154905092915050565b80356001600160a01b0381168114611c2f57600080fd5b600060208284031215611ef557600080fd5b61187482611ecc565b60008060408385031215611f1157600080fd5b611f1a83611ecc565b946020939093013593505050565b600060208284031215611f3a57600080fd5b8151801515811461187457600080fd5b600060208284031215611f5c57600080fd5b815167ffffffffffffffff80821115611f7457600080fd5b818401915084601f830112611f8857600080fd5b815181811115611f9a57611f9a6123b2565b604051601f8201601f19908116603f01168101908382118183101715611fc257611fc26123b2565b81604052828152876020848701011115611fdb57600080fd5b611fec8360208301602088016122ac565b979650505050505050565b60006020828403121561200957600080fd5b5051919050565b600081518084526120288160208601602086016122ac565b601f01601f19169290920160200192915050565b60006020808301818452808551808352604092508286019150828160051b87010184880160005b838110156120c457888303603f19018552815180516001600160a01b031684528781015160808986018190529061209c82870182612010565b838a0151878b0152606093840151939096019290925250509386019390860190600101612063565b509098975050505050505050565b851515815284602082015283604082015260a0606082015260006120f960a0830185612010565b90508260808301529695505050505050565b6020815260006118746020830184612010565b6040815260006121316040830185612010565b90508260208301529392505050565b6060815283511515606082015260208401516080820152604084015160a08201526000606085015160a060c084015261217d610100840182612010565b6080969096015160e08401525050602081019290925260409091015290565b600080821280156001600160ff1b03849003851316156121be576121be612370565b600160ff1b83900384128116156121d7576121d7612370565b50500190565b600082198211156121f0576121f0612370565b500190565b60008261220457612204612386565b600160ff1b82146000198414161561221e5761221e612370565b500590565b60008261223257612232612386565b500490565b600081600019048311821515161561225157612251612370565b500290565b60008083128015600160ff1b85018412161561227457612274612370565b6001600160ff1b038401831381161561228f5761228f612370565b50500390565b6000828210156122a7576122a7612370565b500390565b60005b838110156122c75781810151838201526020016122af565b838111156106bf5750506000910152565b6000600160ff1b8214156122ee576122ee612370565b506000190190565b6000816122ee576122ee612370565b600181811c9082168061231957607f821691505b6020821081141561233a57634e487b7160e01b600052602260045260246000fd5b50919050565b60006001600160ff1b0382141561235957612359612370565b5060010190565b6000600019821415612359576123595b634e487b7160e01b600052601160045260246000fd5b634e487b7160e01b600052601260045260246000fd5b634e487b7160e01b600052603260045260246000fd5b634e487b7160e01b600052604160045260246000fdfea26469706673582212204810c713201132f5b9b11a8dc5fc9d02db2e822d4f6e432463b32d707098330164736f6c63430008070033",
  "linkReferences": {},
  "deployedLinkReferences": {}
}