{
  "_format": "hh-sol-artifact-1",
  "contractName": "ToTheMooon",
  "sourceName": "contracts/ToTheMooon.sol",
  "abi": [
    {
      "inputs": [],
      "stateMutability": "nonpayable",
      "type": "constructor"
    },
    {
      "anonymous": false,
      "inputs": [
        {
          "indexed": true,
          "internalType": "address",
          "name": "previousOwner",
          "type": "address"
        },
        {
          "indexed": true,
          "internalType": "address",
          "name": "newOwner",
          "type": "address"
        }
      ],
      "name": "OwnershipTransferred",
      "type": "event"
    },
    {
      "inputs": [
        {
          "internalType": "address",
          "name": "_playerAddress",
          "type": "address"
        }
      ],
      "name": "addPlayerToTournament",
      "outputs": [],
      "stateMutability": "nonpayable",
      "type": "function"
    },
    {
      "inputs": [
        {
          "internalType": "string",
          "name": "_name",
          "type": "string"
        },
        {
          "components": [
            {
              "internalType": "bool",
              "name": "isSponsored",
              "type": "bool"
            },
            {
              "internalType": "uint256",
              "name": "prizePool",
              "type": "uint256"
            },
            {
              "internalType": "uint256",
              "name": "nWinners",
              "type": "uint256"
            },
            {
              "internalType": "string",
              "name": "sponsorMetadata",
              "type": "string"
            },
            {
              "internalType": "uint256",
              "name": "commissionPercentage",
              "type": "uint256"
            }
          ],
          "internalType": "struct DataTypes.RewardVars",
          "name": "_rewardVars",
          "type": "tuple"
        }
      ],
      "name": "createTournament",
      "outputs": [],
      "stateMutability": "payable",
      "type": "function"
    },
    {
      "inputs": [],
      "name": "currentTournamentId",
      "outputs": [
        {
          "internalType": "uint256",
          "name": "",
          "type": "uint256"
        }
      ],
      "stateMutability": "view",
      "type": "function"
    },
    {
      "inputs": [
        {
          "internalType": "address",
          "name": "_player",
          "type": "address"
        }
      ],
      "name": "getJoinedTournamentsByPlayer",
      "outputs": [
        {
          "components": [
            {
              "internalType": "uint256",
              "name": "id",
              "type": "uint256"
            },
            {
              "internalType": "string",
              "name": "name",
              "type": "string"
            },
            {
              "internalType": "uint256",
              "name": "startTime",
              "type": "uint256"
            },
            {
              "internalType": "address",
              "name": "contractAddress",
              "type": "address"
            },
            {
              "components": [
                {
                  "internalType": "bool",
                  "name": "isSponsored",
                  "type": "bool"
                },
                {
                  "internalType": "uint256",
                  "name": "prizePool",
                  "type": "uint256"
                },
                {
                  "internalType": "uint256",
                  "name": "nWinners",
                  "type": "uint256"
                },
                {
                  "internalType": "string",
                  "name": "sponsorMetadata",
                  "type": "string"
                },
                {
                  "internalType": "uint256",
                  "name": "commissionPercentage",
                  "type": "uint256"
                }
              ],
              "internalType": "struct DataTypes.RewardVars",
              "name": "rewardVars",
              "type": "tuple"
            }
          ],
          "internalType": "struct DataTypes.TournamentStruct[]",
          "name": "",
          "type": "tuple[]"
        }
      ],
      "stateMutability": "view",
      "type": "function"
    },
    {
      "inputs": [],
      "name": "getOwner",
      "outputs": [
        {
          "internalType": "address",
          "name": "",
          "type": "address"
        }
      ],
      "stateMutability": "view",
      "type": "function"
    },
    {
      "inputs": [
        {
          "internalType": "address",
          "name": "wallet_",
          "type": "address"
        }
      ],
      "name": "getUserName",
      "outputs": [
        {
          "internalType": "string",
          "name": "",
          "type": "string"
        }
      ],
      "stateMutability": "view",
      "type": "function"
    },
    {
      "inputs": [
        {
          "internalType": "address",
          "name": "_wallet",
          "type": "address"
        },
        {
          "internalType": "uint256",
          "name": "tournamentId",
          "type": "uint256"
        }
      ],
      "name": "hasJoinedTournament",
      "outputs": [
        {
          "internalType": "bool",
          "name": "",
          "type": "bool"
        }
      ],
      "stateMutability": "view",
      "type": "function"
    },
    {
      "inputs": [],
      "name": "joiningFees",
      "outputs": [
        {
          "internalType": "uint256",
          "name": "",
          "type": "uint256"
        }
      ],
      "stateMutability": "view",
      "type": "function"
    },
    {
      "inputs": [],
      "name": "owner",
      "outputs": [
        {
          "internalType": "address",
          "name": "",
          "type": "address"
        }
      ],
      "stateMutability": "view",
      "type": "function"
    },
    {
      "inputs": [
        {
          "internalType": "uint256",
          "name": "",
          "type": "uint256"
        }
      ],
      "name": "r_values",
      "outputs": [
        {
          "internalType": "uint256",
          "name": "",
          "type": "uint256"
        }
      ],
      "stateMutability": "view",
      "type": "function"
    },
    {
      "inputs": [],
      "name": "renounceOwnership",
      "outputs": [],
      "stateMutability": "nonpayable",
      "type": "function"
    },
    {
      "inputs": [
        {
          "internalType": "uint256",
          "name": "joiningFees_",
          "type": "uint256"
        }
      ],
      "name": "setJoiningFees",
      "outputs": [],
      "stateMutability": "nonpayable",
      "type": "function"
    },
    {
      "inputs": [
        {
          "internalType": "uint256",
          "name": "timeLimit_",
          "type": "uint256"
        }
      ],
      "name": "setTimeLimit",
      "outputs": [],
      "stateMutability": "nonpayable",
      "type": "function"
    },
    {
      "inputs": [
        {
          "internalType": "string",
          "name": "_name",
          "type": "string"
        },
        {
          "internalType": "uint256",
          "name": "_strlen",
          "type": "uint256"
        }
      ],
      "name": "setUserName",
      "outputs": [],
      "stateMutability": "nonpayable",
      "type": "function"
    },
    {
      "inputs": [],
      "name": "timeLimit",
      "outputs": [
        {
          "internalType": "uint256",
          "name": "",
          "type": "uint256"
        }
      ],
      "stateMutability": "view",
      "type": "function"
    },
    {
      "inputs": [
        {
          "internalType": "uint256",
          "name": "",
          "type": "uint256"
        }
      ],
      "name": "tournaments",
      "outputs": [
        {
          "internalType": "uint256",
          "name": "id",
          "type": "uint256"
        },
        {
          "internalType": "string",
          "name": "name",
          "type": "string"
        },
        {
          "internalType": "uint256",
          "name": "startTime",
          "type": "uint256"
        },
        {
          "internalType": "address",
          "name": "contractAddress",
          "type": "address"
        },
        {
          "components": [
            {
              "internalType": "bool",
              "name": "isSponsored",
              "type": "bool"
            },
            {
              "internalType": "uint256",
              "name": "prizePool",
              "type": "uint256"
            },
            {
              "internalType": "uint256",
              "name": "nWinners",
              "type": "uint256"
            },
            {
              "internalType": "string",
              "name": "sponsorMetadata",
              "type": "string"
            },
            {
              "internalType": "uint256",
              "name": "commissionPercentage",
              "type": "uint256"
            }
          ],
          "internalType": "struct DataTypes.RewardVars",
          "name": "rewardVars",
          "type": "tuple"
        }
      ],
      "stateMutability": "view",
      "type": "function"
    },
    {
      "inputs": [
        {
          "internalType": "address",
          "name": "newOwner",
          "type": "address"
        }
      ],
      "name": "transferOwnership",
      "outputs": [],
      "stateMutability": "nonpayable",
      "type": "function"
    },
    {
      "inputs": [],
      "name": "winnersPercentage",
      "outputs": [
        {
          "internalType": "uint256",
          "name": "",
          "type": "uint256"
        }
      ],
      "stateMutability": "view",
      "type": "function"
    }
  ],
  "bytecode": "0x60806040526028600855670de0b6b3a7640000600955611af4600a5534801561002757600080fd5b5061003133610172565b600180556006602052670ff59ee833b300007f4da38fc8e544afc56a4c2a17752b8ddb67d8e23ac4583c9029d2e2d1dbe6c98855670eeb2acded8b80007f098d468efb4f874d617491296c759dc9ae46efb517fe36bcf30699ad3f714c0f55670e92596fd62900007fb6ba906ff52451a7a924e2eaeb8aea3ebee7350a8703e5e417edb25358c7dcc155670e398811bec680007f95205ee1597333a2b36cc31b0a8c074c0c1fa2918672c4e3dde98e6eb3460fe455670e27c49886e600007fd4c27e5d2ce7b7345f78d7f5ddc8b90697d63512e00b9f949b158a467d0bfffc55670e043da6172500007f294249a73dade72954ce261e2d3e7a241ea69fbb9c559454dd3e40f332fd4f17556103e8600052670df27a2cdf4480007ff416400a389b2271c5c6051273e6b62961b6906215e5f4d9099a99323151c03f556101c2565b600080546001600160a01b038381166001600160a01b0319831681178455604051919092169283917f8be0079c531659141344cd1fd0a4f28419497f9722a3daafe3b4186f6b6457e09190a35050565b61433b806101d16000396000f3fe6080604052600436106200011e5760003560e01c8063c08d1fe511620000a1578063e33e879a116200006c578063e33e879a146200033d578063f2fde38b1462000362578063f4afd4f61462000387578063fbf7c5ee14620003ac578063fc8e750414620003c357600080fd5b8063c08d1fe5146200029b578063d0e3466414620002b3578063d84f55ee14620002e4578063e2889c82146200031857600080fd5b80637503e1b711620000ee5780637503e1b714620001b657806386106b1f14620001ee578063893d20e814620002225780638da5cb5b1462000256578063ad260418146200027657600080fd5b80625a0e3d1462000123578063298aec2c146200014e5780634959d9771462000184578063715018a6146200019c575b600080fd5b3480156200013057600080fd5b506200013b600a5481565b6040519081526020015b60405180910390f35b3480156200015b57600080fd5b50620001736200016d36600462001416565b620003db565b604051901515815260200162000145565b3480156200019157600080fd5b506200013b60095481565b348015620001a957600080fd5b50620001b46200040b565b005b348015620001c357600080fd5b50620001db620001d536600462001587565b62000423565b60405162000145959493929190620017a7565b348015620001fb57600080fd5b50620002136200020d366004620013f8565b620005c2565b604051620001459190620016dc565b3480156200022f57600080fd5b506000546001600160a01b03165b6040516001600160a01b03909116815260200162000145565b3480156200026357600080fd5b506000546001600160a01b03166200023d565b3480156200028357600080fd5b50620001b462000295366004620013f8565b62000880565b348015620002a857600080fd5b506200013b60085481565b348015620002c057600080fd5b506200013b620002d236600462001587565b60066020526000908152604090205481565b348015620002f157600080fd5b506200030962000303366004620013f8565b62000944565b60405162000145919062001792565b3480156200032557600080fd5b50620001b46200033736600462001587565b620009fe565b3480156200034a57600080fd5b50620001b46200035c36600462001587565b62000a0d565b3480156200036f57600080fd5b50620001b462000381366004620013f8565b62000a1c565b3480156200039457600080fd5b50620001b4620003a63660046200153e565b62000a9b565b620001b4620003bd3660046200146a565b62000bf2565b348015620003d057600080fd5b506200013b60075481565b6001600160a01b038216600090815260026020819052604082206200040291018362000ecc565b90505b92915050565b6200041562000ee5565b62000421600062000f41565b565b60056020526000908152604090208054600182018054919291620004479062001888565b80601f0160208091040260200160405190810160405280929190818152602001828054620004759062001888565b8015620004c65780601f106200049a57610100808354040283529160200191620004c6565b820191906000526020600020905b815481529060010190602001808311620004a857829003601f168201915b50505050600283015460038401546040805160a08101825260048701805460ff161515825260058801546020830152600688015492820192909252600787018054969794966001600160a01b03909416955090926060840191906200052b9062001888565b80601f0160208091040260200160405190810160405280929190818152602001828054620005599062001888565b8015620005aa5780601f106200057e57610100808354040283529160200191620005aa565b820191906000526020600020905b8154815290600101906020018083116200058c57829003601f168201915b50505050508152602001600482015481525050905085565b6060600060075467ffffffffffffffff811115620005e457620005e462001925565b6040519080825280602002602001820160405280156200062157816020015b6200060d62001228565b815260200190600190039081620006035790505b50905060005b6001600160a01b03841660009081526002602081905260409091206200064e910162000f91565b81101562000879576001600160a01b03841660009081526002602081905260408220600592916200068191018462000f9c565b81526020019081526020016000206040518060a001604052908160008201548152602001600182018054620006b69062001888565b80601f0160208091040260200160405190810160405280929190818152602001828054620006e49062001888565b8015620007355780601f10620007095761010080835404028352916020019162000735565b820191906000526020600020905b8154815290600101906020018083116200071757829003601f168201915b5050509183525050600282015460208083019190915260038301546001600160a01b0316604080840191909152805160a08101825260048501805460ff161515825260058601549382019390935260068501549181019190915260078401805460609485019492939284019190620007ad9062001888565b80601f0160208091040260200160405190810160405280929190818152602001828054620007db9062001888565b80156200082c5780601f1062000800576101008083540402835291602001916200082c565b820191906000526020600020905b8154815290600101906020018083116200080e57829003601f168201915b50505050508152602001600482015481525050815250508282815181106200085857620008586200190f565b602002602001018190525080806200087090620018c5565b91505062000627565b5092915050565b600754600090815260056020908152604091829020600301548251808401909352601583527410d05313115497d393d517d055551213d492569151605a1b918301919091526001600160a01b03163314620008f95760405162461bcd60e51b8152600401620008f0919062001792565b60405180910390fd5b506001600160a01b0381166000908152600260208190526040909120600754909162000929919083019062000faa565b50805460ff166200094057805460ff191660011781555b5050565b6001600160a01b03811660009081526002602052604090206001810180546060929190620009729062001888565b80601f0160208091040260200160405190810160405280929190818152602001828054620009a09062001888565b8015620009f15780601f10620009c557610100808354040283529160200191620009f1565b820191906000526020600020905b815481529060010190602001808311620009d357829003601f168201915b5050505050915050919050565b62000a0862000ee5565b600855565b62000a1762000ee5565b600955565b62000a2662000ee5565b6001600160a01b03811662000a8d5760405162461bcd60e51b815260206004820152602660248201527f4f776e61626c653a206e6577206f776e657220697320746865207a65726f206160448201526564647265737360d01b6064820152608401620008f0565b62000a988162000f41565b50565b62000ad98260405160200162000ab291906200161a565b60405160208183030381529060405280519060200120600362000ecc90919063ffffffff16565b156040518060400160405280600e81526020016d2aa9a2a92720a6a2afaa20a5a2a760911b8152509062000b225760405162461bcd60e51b8152600401620008f0919062001792565b5033600090815260026020908152604091829020915162000b759162000b4e9160018501910162001638565b60405160208183030381529060405280519060200120600362000fb890919063ffffffff16565b5062000bb48360405160200162000b8d91906200161a565b60405160208183030381529060405280519060200120600362000faa90919063ffffffff16565b506014821162000bc5578262000bd4565b62000bd4836000601462000fc6565b805162000bec91600184019160209091019062001292565b50505050565b62000bfc62000ee5565b600754158062000cc65750600854600754600090815260056020526040902060020154429162000c2c9162001824565b10801562000cc6575060075460009081526005602090815260409182902060030154825163ecb70fb760e01b815292516001600160a01b039091169263ecb70fb7926004808301939192829003018186803b15801562000c8b57600080fd5b505afa15801562000ca0573d6000803e3d6000fd5b505050506040513d601f19601f8201168201806040525081019062000cc6919062001443565b60405180604001604052806012815260200171544f55524e414d454e545f49535f4c49564560701b8152509062000d125760405162461bcd60e51b8152600401620008f0919062001792565b50805162000d2257600162000d2a565b806020015134145b6040518060400160405280601981526020017f4e4f545f454e4f5547485f46554e44535f50524f5649444544000000000000008152509062000d815760405162461bcd60e51b8152600401620008f0919062001792565b50600060076000815462000d9590620018c5565b9190508190558342308560405162000dad9062001321565b62000dbd959493929190620017a7565b604051809103906000f08015801562000dda573d6000803e3d6000fd5b506040805160a081018252600754808252602080830188815242848601526001600160a01b038616606085015260808401889052600092835260058252939091208251815592518051949550919362000e3a926001850192019062001292565b5060408281015160028301556060808401516003840180546001600160a01b0319166001600160a01b039092169190911790556080840151805160048501805460ff19169115159190911781556020808301516005870155938201516006860155918101518051919362000eb79260078701929091019062001292565b50608082015181600401555050905050505050565b6000818152600183016020526040812054151562000402565b6000546001600160a01b03163314620004215760405162461bcd60e51b815260206004820181905260248201527f4f776e61626c653a2063616c6c6572206973206e6f7420746865206f776e65726044820152606401620008f0565b600080546001600160a01b038381166001600160a01b0319831681178455604051919092169283917f8be0079c531659141344cd1fd0a4f28419497f9722a3daafe3b4186f6b6457e09190a35050565b600062000405825490565b6000620004028383620010a5565b6000620004028383620010d2565b600062000402838362001124565b606083600062000fd785856200183f565b67ffffffffffffffff81111562000ff25762000ff262001925565b6040519080825280601f01601f1916602001820160405280156200101d576020820181803683370190505b509050845b848110156200109b578281815181106200104057620010406200190f565b01602001516001600160f81b031916826200105c88846200183f565b815181106200106f576200106f6200190f565b60200101906001600160f81b031916908160001a905350806200109281620018c5565b91505062001022565b5095945050505050565b6000826000018281548110620010bf57620010bf6200190f565b9060005260206000200154905092915050565b60008181526001830160205260408120546200111b5750815460018181018455600084815260208082209093018490558454848252828601909352604090209190915562000405565b50600062000405565b600081815260018301602052604081205480156200121d5760006200114b6001836200183f565b855490915060009062001161906001906200183f565b9050818114620011cd5760008660000182815481106200118557620011856200190f565b9060005260206000200154905080876000018481548110620011ab57620011ab6200190f565b6000918252602080832090910192909255918252600188019052604090208390555b8554869080620011e157620011e1620018f9565b60019003818190600052602060002001600090559055856001016000868152602001908152602001600020600090556001935050505062000405565b600091505062000405565b6040518060a0016040528060008152602001606081526020016000815260200160006001600160a01b031681526020016200128d6040518060a00160405280600015158152602001600081526020016000815260200160608152602001600081525090565b905290565b828054620012a09062001888565b90600052602060002090601f016020900481019282620012c457600085556200130f565b82601f10620012df57805160ff19168380011785556200130f565b828001600101855582156200130f579182015b828111156200130f578251825591602001919060010190620012f2565b506200131d9291506200132f565b5090565b6129bb806200194b83390190565b5b808211156200131d576000815560010162001330565b80356001600160a01b03811681146200135e57600080fd5b919050565b600082601f8301126200137557600080fd5b813567ffffffffffffffff8082111562001393576200139362001925565b604051601f8301601f19908116603f01168101908282118183101715620013be57620013be62001925565b81604052838152866020858801011115620013d857600080fd5b836020870160208301376000602085830101528094505050505092915050565b6000602082840312156200140b57600080fd5b620004028262001346565b600080604083850312156200142a57600080fd5b620014358362001346565b946020939093013593505050565b6000602082840312156200145657600080fd5b815162001463816200193b565b9392505050565b600080604083850312156200147e57600080fd5b823567ffffffffffffffff808211156200149757600080fd5b620014a58683870162001363565b93506020850135915080821115620014bc57600080fd5b9084019060a08287031215620014d157600080fd5b620014db620017f8565b8235620014e8816200193b565b8082525060208301356020820152604083013560408201526060830135828111156200151357600080fd5b620015218882860162001363565b606083015250608083013560808201528093505050509250929050565b600080604083850312156200155257600080fd5b823567ffffffffffffffff8111156200156a57600080fd5b620015788582860162001363565b95602094909401359450505050565b6000602082840312156200159a57600080fd5b5035919050565b60008151808452620015bb81602086016020860162001859565b601f01601f19169290920160200192915050565b80511515825260208101516020830152604081015160408301526000606082015160a060608501526200160660a0850182620015a1565b608093840151949093019390935250919050565b600082516200162e81846020870162001859565b9190910192915050565b600080835481600182811c9150808316806200165557607f831692505b60208084108214156200167657634e487b7160e01b86526022600452602486fd5b8180156200168d57600181146200169f57620016ce565b60ff19861689528489019650620016ce565b60008a81526020902060005b86811015620016c65781548b820152908501908301620016ab565b505084890196505b509498975050505050505050565b60006020808301818452808551808352604092508286019150828160051b87010184880160005b838110156200178457603f19898403018552815160a08151855288820151818a8701526200173482870182620015a1565b838a0151878b01526060808501516001600160a01b0316908801526080938401518782039488019490945291506200176f90508183620015cf565b96890196945050509086019060010162001703565b509098975050505050505050565b602081526000620004026020830184620015a1565b85815260a060208201526000620017c260a0830187620015a1565b604083018690526001600160a01b03851660608401528281036080840152620017ec8185620015cf565b98975050505050505050565b60405160a0810167ffffffffffffffff811182821017156200181e576200181e62001925565b60405290565b600082198211156200183a576200183a620018e3565b500190565b600082821015620018545762001854620018e3565b500390565b60005b83811015620018765781810151838201526020016200185c565b8381111562000bec5750506000910152565b600181811c908216806200189d57607f821691505b60208210811415620018bf57634e487b7160e01b600052602260045260246000fd5b50919050565b6000600019821415620018dc57620018dc620018e3565b5060010190565b634e487b7160e01b600052601160045260246000fd5b634e487b7160e01b600052603160045260246000fd5b634e487b7160e01b600052603260045260246000fd5b634e487b7160e01b600052604160045260246000fd5b801515811462000a9857600080fdfe60806040523480156200001157600080fd5b50604051620029bb380380620029bb8339810160408190526200003491620003fe565b6001600081905585905583516200005390600290602087019062000267565b506003839055600680546001600160a01b0319166001600160a01b0384169081179091556040805163c08d1fe560e01b8152905163c08d1fe591600480820192602092909190829003018186803b158015620000ae57600080fd5b505afa158015620000c3573d6000803e3d6000fd5b505050506040513d601f19601f82011682018060405250810190620000e99190620003e4565b600490815560065460408051634959d97760e01b815290516001600160a01b0390921692634959d977928282019260209290829003018186803b1580156200013057600080fd5b505afa15801562000145573d6000803e3d6000fd5b505050506040513d601f19601f820116820180604052508101906200016b9190620003e4565b60055560065460408051631127a41d60e31b815290516001600160a01b039092169163893d20e891600480820192602092909190829003018186803b158015620001b457600080fd5b505afa158015620001c9573d6000803e3d6000fd5b505050506040513d601f19601f82011682018060405250810190620001ef9190620003bf565b600780546001600160a01b0319166001600160a01b039290921691909117905580516008805460ff19169115159190911781556020808301516009556040830151600a55606083015180518493926200024e92600b9291019062000267565b50608082015181600401559050505050505050620005ad565b82805462000275906200055a565b90600052602060002090601f016020900481019282620002995760008555620002e4565b82601f10620002b457805160ff1916838001178555620002e4565b82800160010185558215620002e4579182015b82811115620002e4578251825591602001919060010190620002c7565b50620002f2929150620002f6565b5090565b5b80821115620002f25760008155600101620002f7565b80516001600160a01b03811681146200032557600080fd5b919050565b600082601f8301126200033c57600080fd5b81516001600160401b0381111562000358576200035862000597565b60206200036e601f8301601f1916820162000527565b82815285828487010111156200038357600080fd5b60005b83811015620003a357858101830151828201840152820162000386565b83811115620003b55760008385840101525b5095945050505050565b600060208284031215620003d257600080fd5b620003dd826200030d565b9392505050565b600060208284031215620003f757600080fd5b5051919050565b600080600080600060a086880312156200041757600080fd5b855160208701519095506001600160401b03808211156200043757600080fd5b6200044589838a016200032a565b9550604088015194506200045c606089016200030d565b935060808801519150808211156200047357600080fd5b9087019060a0828a0312156200048857600080fd5b62000492620004fc565b82518015158114620004a357600080fd5b808252506020830151602082015260408301516040820152606083015182811115620004ce57600080fd5b620004dc8b8286016200032a565b606083015250608083015160808201528093505050509295509295909350565b60405160a081016001600160401b038111828210171562000521576200052162000597565b60405290565b604051601f8201601f191681016001600160401b038111828210171562000552576200055262000597565b604052919050565b600181811c908216806200056f57607f821691505b602082108114156200059157634e487b7160e01b600052602260045260246000fd5b50919050565b634e487b7160e01b600052604160045260246000fd5b6123fe80620005bd6000396000f3fe6080604052600436106100fe5760003560e01c806378e9792511610095578063af640d0f11610064578063af640d0f146102c3578063c08d1fe5146102d9578063c29d72bc146102ef578063ecb70fb714610311578063fbd534821461034257600080fd5b806378e97925146102025780637ce1186114610218578063858dbf7d14610220578063ab632d4a1461024657600080fd5b80634d633a8f116100d15780634d633a8f146101a157806350ed9193146101b657806363df0ef7146101be578063699c8f33146101de57600080fd5b806306fdde031461010357806345446d711461012e57806348d37a58146101665780634959d9771461017d575b600080fd5b34801561010f57600080fd5b50610118610362565b604051610125919061210b565b60405180910390f35b34801561013a57600080fd5b5060075461014e906001600160a01b031681565b6040516001600160a01b039091168152602001610125565b34801561017257600080fd5b5061017b6103f0565b005b34801561018957600080fd5b5061019360055481565b604051908152602001610125565b3480156101ad57600080fd5b5061017b6106c6565b61017b6109a4565b3480156101ca57600080fd5b5060065461014e906001600160a01b031681565b3480156101ea57600080fd5b506101f3610b9f565b60405161012593929190612140565b34801561020e57600080fd5b5061019360035481565b61017b610e34565b34801561022c57600080fd5b50610235610f65565b6040516101259594939291906120d2565b34801561025257600080fd5b50610296610261366004611ee3565b600f60205260009081526040902080546001820154600283015460038401546004850154600590950154939492939192909186565b604080519687526020870195909552938501929092526060840152608083015260a082015260c001610125565b3480156102cf57600080fd5b5061019360015481565b3480156102e557600080fd5b5061019360045481565b3480156102fb57600080fd5b50610304611010565b604051610125919061203c565b34801561031d57600080fd5b5060075461033290600160a01b900460ff1681565b6040519015158152602001610125565b34801561034e57600080fd5b5061017b61035d366004611efe565b611447565b6002805461036f90612305565b80601f016020809104026020016040519081016040528092919081815260200182805461039b90612305565b80156103e85780601f106103bd576101008083540402835291602001916103e8565b820191906000526020600020905b8154815290600101906020018083116103cb57829003601f168201915b505050505081565b61041f6040518060400160405280600e81526020016d5769746864726177207072697a6560901b8152506116d2565b4260045460035461043091906121dd565b1060405180604001604052806012815260200171544f55524e414d454e545f49535f4c49564560701b815250906104835760405162461bcd60e51b815260040161047a919061210b565b60405180910390fd5b506104c26040518060400160405280601f81526020017f544f55524e414d454e545f4841535f454e4445442048415320454e44454420008152506116d2565b600654600154604051630a62bb0b60e21b815233600482015260248101919091526000916001600160a01b03169063298aec2c9060440160206040518083038186803b15801561051157600080fd5b505afa158015610525573d6000803e3d6000fd5b505050506040513d601f19601f820116820180604052508101906105499190611f28565b90506105826040518060400160405280601681526020017518da1958dada5b99c81c1b185e595c881a9bda5b995960521b8152506116d2565b60408051808201909152601181527014131056515497d393d517d293d2539151607a1b6020820152816105c85760405162461bcd60e51b815260040161047a919061210b565b506105f76040518060400160405280600d81526020016c141b185e595c881a9bda5b9959609a1b8152506116d2565b336000908152600f60209081526040918290208251808401909352600b83526a506c61796572206865726560a81b9183019190915290610636906116d2565b61066a6040518060400160405280600e81526020016d756e636c61696d65645072697a6560901b8152508260050154611718565b6005810154156106c25760058101546106828161175d565b61068b4761175d565b600060058301819055604051339183156108fc02918491818181858888f193505050501580156106bf573d6000803e3d6000fd5b50505b5050565b60075460408051808201909152601581527410d05313115497d393d517d055551213d492569151605a1b6020820152906001600160a01b0316331461071e5760405162461bcd60e51b815260040161047a919061210b565b504260045460035461073091906121dd565b1060405180604001604052806012815260200171544f55524e414d454e545f49535f4c49564560701b8152509061077a5760405162461bcd60e51b815260040161047a919061210b565b506007546040805180820190915260148152731513d55493905351539517d21054d7d15391115160621b602082015290600160a01b900460ff16156107d25760405162461bcd60e51b815260040161047a919061210b565b506007805460ff60a01b1916600160a01b17905560006107f0611010565b905060005b6107ff600d6117a2565b8110156106c2576040518060c0016040528082600161081e91906121dd565b81526020018383815181106108355761083561239c565b6020026020010151604001518152602001600f600085858151811061085c5761085c61239c565b6020026020010151600001516001600160a01b03166001600160a01b03168152602001908152602001600020600201548152602001600f60008585815181106108a7576108a761239c565b6020026020010151600001516001600160a01b03166001600160a01b031681526020019081526020016000206003015481526020018383815181106108ee576108ee61239c565b60200260200101516060015181526020018383815181106109115761091161239c565b602002602001015160600151815250600f60008484815181106109365761093661239c565b602090810291909101810151516001600160a01b03168252818101929092526040908101600020835181559183015160018301558201516002820155606082015160038201556080820151600482015560a0909101516005909101558061099c81612360565b9150506107f5565b426004546003546109b591906121dd565b11604051806040016040528060148152602001731513d55493905351539517d21054d7d15391115160621b81525090610a015760405162461bcd60e51b815260040161047a919061210b565b50600654600154604051630a62bb0b60e21b815233600482015260248101919091526000916001600160a01b03169063298aec2c9060440160206040518083038186803b158015610a5157600080fd5b505afa158015610a65573d6000803e3d6000fd5b505050506040513d601f19601f82011682018060405250810190610a899190611f28565b9050806040518060400160405280601181526020017014131056515497d393d517d293d2539151607a1b81525090610ad45760405162461bcd60e51b815260040161047a919061210b565b506005543414604051806040016040528060198152602001781393d517d15393d551d217d195539114d7d41493d592511151603a1b81525090610b2a5760405162461bcd60e51b815260040161047a919061210b565b50336000908152600f6020908152604091829020600201548251808401909352600d83526c1055151153541514d7d3115195609a1b9183019190915215610b845760405162461bcd60e51b815260040161047a919061210b565b5050336000908152600f602052604090206003600290910155565b610bd36040518060a00160405280600015158152602001600081526020016000815260200160608152602001600081525090565b6040805160a0810190915260085460ff16801515825260009182916020820190610c4357610c1d600860040154600554610c0d600d6117a2565b610c179190612237565b906117b2565b600554610c2a600d6117a2565b610c349190612237565b610c3e9190612295565b610c47565b6009545b8152602001610d7d610ce1600660009054906101000a90046001600160a01b03166001600160a01b0316625a0e3d6040518163ffffffff1660e01b815260040160206040518083038186803b158015610c9f57600080fd5b505afa158015610cb3573d6000803e3d6000fd5b505050506040513d601f19601f82011682018060405250810190610cd79190611ff7565b610c17600d6117a2565b60085460ff16610d755760065460408051625a0e3d60e01b81529051600a926001600160a01b031691625a0e3d916004808301926020929190829003018186803b158015610d2e57600080fd5b505afa158015610d42573d6000803e3d6000fd5b505050506040513d601f19601f82011682018060405250810190610d669190611ff7565b610d709190612223565b61187b565b600a5461187b565b815260200160086003018054610d9290612305565b80601f0160208091040260200160405190810160405280929190818152602001828054610dbe90612305565b8015610e0b5780601f10610de057610100808354040283529160200191610e0b565b820191906000526020600020905b815481529060010190602001808311610dee57829003601f168201915b5050509183525050600c54602090910152600554610e29600d6117a2565b925092509250909192565b42600454600354610e4591906121dd565b11604051806040016040528060148152602001731513d55493905351539517d21054d7d15391115160621b81525090610e915760405162461bcd60e51b815260040161047a919061210b565b506005543414604051806040016040528060198152602001781393d517d15393d551d217d195539114d7d41493d592511151603a1b81525090610ee75760405162461bcd60e51b815260040161047a919061210b565b50610ef3600d33611893565b50336000818152600f602052604090819020600360029091015560065490516315a4c08360e31b815260048101929092526001600160a01b03169063ad26041890602401600060405180830381600087803b158015610f5157600080fd5b505af11580156106bf573d6000803e3d6000fd5b60088054600954600a54600b805460ff909416949293919291610f8790612305565b80601f0160208091040260200160405190810160405280929190818152602001828054610fb390612305565b80156110005780601f10610fd557610100808354040283529160200191611000565b820191906000526020600020905b815481529060010190602001808311610fe357829003601f168201915b5050505050908060040154905085565b6060600061101e600d6117a2565b67ffffffffffffffff811115611036576110366123b2565b60405190808252806020026020018201604052801561109b57816020015b611088604051806080016040528060006001600160a01b031681526020016060815260200160008152602001600081525090565b8152602001906001900390816110545790505b5090506110a8600d6117a2565b6110b157919050565b60005b6110be600d6117a2565b8110156111f0576040805160808101909152806110dc600d846118a8565b6001600160a01b0390811682526006546020909201911663d84f55ee611103600d866118a8565b6040516001600160e01b031960e084901b1681526001600160a01b03909116600482015260240160006040518083038186803b15801561114257600080fd5b505afa158015611156573d6000803e3d6000fd5b505050506040513d6000823e601f3d908101601f1916820160405261117e9190810190611f4a565b8152602001600f6000611192600d866118a8565b6001600160a01b03166001600160a01b0316815260200190815260200160002060010154815260200160008152508282815181106111d2576111d261239c565b602002602001018190525080806111e890612360565b9150506110b4565b506112128160006001611203600d6117a2565b61120d9190612295565b6118b4565b9050600061121e610b9f565b505090506000611236611231600d6117a2565b611a53565b905061125d604051806040016040528060038152602001620391d160ed1b81525082611718565b61128e6040518060400160405280600b81526020016a0283934bd32b837b7b61d160ad1b8152508360200151611718565b6112be6040518060400160405280600a8152602001690372bb4b73732b9399d160b51b8152508360400151611718565b6112f26040518060400160405280600581526020016403837bb9d160dd1b8152506112ed838560400151611c34565b611718565b600061133e670de0b6b3a764000061130e848660400151611c34565b6113189190612295565b61133861132d670de0b6b3a764000086612295565b602087015190611c7e565b90611d2e565b9050611365604051806040016040528060038152602001620209d160ed1b81525082611718565b60005b836040015181101561141b57611396604051806040016040528060018152602001603160f81b8152506116d2565b6113c56113be8460018488604001516113af9190612295565b6113b99190612295565b611c34565b8390611c7e565b8582815181106113d7576113d761239c565b60200260200101516060018181525050611409604051806040016040528060018152602001601960f91b8152506116d2565b8061141381612360565b915050611368565b5061143e604051806040016040528060018152602001603360f81b8152506116d2565b50919392505050565b60075460408051808201909152601581527410d05313115497d393d517d055551213d492569151605a1b6020820152906001600160a01b0316331461149f5760405162461bcd60e51b815260040161047a919061210b565b50426004546003546114b191906121dd565b11604051806040016040528060148152602001731513d55493905351539517d21054d7d15391115160621b815250906114fd5760405162461bcd60e51b815260040161047a919061210b565b50600654600154604051630a62bb0b60e21b81526000926001600160a01b03169163298aec2c916115469187916004016001600160a01b03929092168252602082015260400190565b60206040518083038186803b15801561155e57600080fd5b505afa158015611572573d6000803e3d6000fd5b505050506040513d601f19601f820116820180604052508101906115969190611f28565b9050806040518060400160405280601181526020017014131056515497d393d517d293d2539151607a1b815250906115e15760405162461bcd60e51b815260040161047a919061210b565b506000600f6000856001600160a01b03166001600160a01b0316815260200190815260200160002060020154116040518060400160405280601081526020016f1393d7d055151153541514d7d311519560821b815250906116555760405162461bcd60e51b815260040161047a919061210b565b506001600160a01b0383166000908152600f6020526040812060018101849055600201805491611684836122f6565b919050555042836001600160a01b03167f4713603fe21be537b9c9ca4c33240e81665fb6e4a681bdd1318c039f16b5aff6846040516116c591815260200190565b60405180910390a3505050565b611715816040516024016116e6919061210b565b60408051601f198184030181529190526020810180516001600160e01b031663104c13eb60e21b179052611e32565b50565b6106c2828260405160240161172e92919061211e565b60408051601f198184030181529190526020810180516001600160e01b0316632d839cb360e21b179052611e32565b6117158160405160240161177391815260200190565b60408051601f198184030181529190526020810180516001600160e01b031663f82c50f160e01b179052611e32565b60006117ac825490565b92915050565b60008215806117bf575081155b156117cc575060006117ac565b816117da6002612710612223565b6117e690600019612295565b6117f09190612223565b8311156040518060400160405280601c81526020017f4d4154485f4d554c5449504c49434154494f4e5f4f564552464c4f5700000000815250906118475760405162461bcd60e51b815260040161047a919061210b565b50612710611856600282612223565b6118608486612237565b61186a91906121dd565b6118749190612223565b9392505050565b60008183111561188c5750806117ac565b5090919050565b6000611874836001600160a01b038416611e53565b60006118748383611ea2565b60608183126118c4575082611874565b60008460026118d38686612256565b6118dd91906121f5565b6118e7908661219c565b815181106118f7576118f761239c565b602090810291909101015160400151905083835b808213611a1e575b828783815181106119265761192661239c565b602002602001015160400151111561194a578161194281612340565b925050611913565b86818151811061195c5761195c61239c565b6020026020010151604001518311156119815780611979816122d8565b91505061194a565b808213611a1957600087838151811061199c5761199c61239c565b602002602001015190508782815181106119b8576119b861239c565b60200260200101518884815181106119d2576119d261239c565b6020026020010181905250808883815181106119f0576119f061239c565b60200260200101819052508280611a0690612340565b9350508180611a14906122d8565b925050505b61190b565b80861215611a3357611a318787836118b4565b505b84821215611a4857611a468783876118b4565b505b509495945050505050565b6000600a821015611adb57600654604051633438d19960e21b8152600a60048201526001600160a01b039091169063d0e34664906024015b60206040518083038186803b158015611aa357600080fd5b505afa158015611ab7573d6000803e3d6000fd5b505050506040513d601f19601f820116820180604052508101906117ac9190611ff7565b6014821015611b1557600654604051633438d19960e21b8152601460048201526001600160a01b039091169063d0e3466490602401611a8b565b601e821015611b4f57600654604051633438d19960e21b8152601e60048201526001600160a01b039091169063d0e3466490602401611a8b565b6028821015611b8957600654604051633438d19960e21b8152602860048201526001600160a01b039091169063d0e3466490602401611a8b565b6032821015611bc357600654604051633438d19960e21b8152603260048201526001600160a01b039091169063d0e3466490602401611a8b565b6064821015611bfd57600654604051633438d19960e21b8152606460048201526001600160a01b039091169063d0e3466490602401611a8b565b600654604051633438d19960e21b81526103e860048201526001600160a01b039091169063d0e3466490602401611a8b565b919050565b60008282611c4d57670de0b6b3a76400009150506117ac565b60015b83811015611c7657611c628286611c7e565b915080611c6e81612360565b915050611c50565b509392505050565b6000821580611c8b575081155b15611c98575060006117ac565b81611cac6002670de0b6b3a7640000612223565b611cb890600019612295565b611cc29190612223565b8311156040518060400160405280601c81526020017f4d4154485f4d554c5449504c49434154494f4e5f4f564552464c4f570000000081525090611d195760405162461bcd60e51b815260040161047a919061210b565b50670de0b6b3a7640000611856600282612223565b6040805180820190915260158152744d4154485f4449564953494f4e5f42595f5a45524f60581b602082015260009082611d7b5760405162461bcd60e51b815260040161047a919061210b565b506000611d89600284612223565b9050670de0b6b3a7640000611da082600019612295565b611daa9190612223565b8411156040518060400160405280601c81526020017f4d4154485f4d554c5449504c49434154494f4e5f4f564552464c4f570000000081525090611e015760405162461bcd60e51b815260040161047a919061210b565b508281611e16670de0b6b3a764000087612237565b611e2091906121dd565b611e2a9190612223565b949350505050565b80516a636f6e736f6c652e6c6f67602083016000808483855afa5050505050565b6000818152600183016020526040812054611e9a575081546001818101845560008481526020808220909301849055845484825282860190935260409020919091556117ac565b5060006117ac565b6000826000018281548110611eb957611eb961239c565b9060005260206000200154905092915050565b80356001600160a01b0381168114611c2f57600080fd5b600060208284031215611ef557600080fd5b61187482611ecc565b60008060408385031215611f1157600080fd5b611f1a83611ecc565b946020939093013593505050565b600060208284031215611f3a57600080fd5b8151801515811461187457600080fd5b600060208284031215611f5c57600080fd5b815167ffffffffffffffff80821115611f7457600080fd5b818401915084601f830112611f8857600080fd5b815181811115611f9a57611f9a6123b2565b604051601f8201601f19908116603f01168101908382118183101715611fc257611fc26123b2565b81604052828152876020848701011115611fdb57600080fd5b611fec8360208301602088016122ac565b979650505050505050565b60006020828403121561200957600080fd5b5051919050565b600081518084526120288160208601602086016122ac565b601f01601f19169290920160200192915050565b60006020808301818452808551808352604092508286019150828160051b87010184880160005b838110156120c457888303603f19018552815180516001600160a01b031684528781015160808986018190529061209c82870182612010565b838a0151878b0152606093840151939096019290925250509386019390860190600101612063565b509098975050505050505050565b851515815284602082015283604082015260a0606082015260006120f960a0830185612010565b90508260808301529695505050505050565b6020815260006118746020830184612010565b6040815260006121316040830185612010565b90508260208301529392505050565b6060815283511515606082015260208401516080820152604084015160a08201526000606085015160a060c084015261217d610100840182612010565b6080969096015160e08401525050602081019290925260409091015290565b600080821280156001600160ff1b03849003851316156121be576121be612370565b600160ff1b83900384128116156121d7576121d7612370565b50500190565b600082198211156121f0576121f0612370565b500190565b60008261220457612204612386565b600160ff1b82146000198414161561221e5761221e612370565b500590565b60008261223257612232612386565b500490565b600081600019048311821515161561225157612251612370565b500290565b60008083128015600160ff1b85018412161561227457612274612370565b6001600160ff1b038401831381161561228f5761228f612370565b50500390565b6000828210156122a7576122a7612370565b500390565b60005b838110156122c75781810151838201526020016122af565b838111156106bf5750506000910152565b6000600160ff1b8214156122ee576122ee612370565b506000190190565b6000816122ee576122ee612370565b600181811c9082168061231957607f821691505b6020821081141561233a57634e487b7160e01b600052602260045260246000fd5b50919050565b60006001600160ff1b0382141561235957612359612370565b5060010190565b6000600019821415612359576123595b634e487b7160e01b600052601160045260246000fd5b634e487b7160e01b600052601260045260246000fd5b634e487b7160e01b600052603260045260246000fd5b634e487b7160e01b600052604160045260246000fdfea26469706673582212204810c713201132f5b9b11a8dc5fc9d02db2e822d4f6e432463b32d707098330164736f6c63430008070033a264697066735822122027a2ea3d5fe30d46e9609346a83ad39d0d7abc68f2bfdfee0452a709cbfd71c764736f6c63430008070033",
  "linkReferences": {},
  "deployedLinkReferences": {}
}